{
	"v2-core-master/contracts/UniswapV2Factory.sol": {
		"UniswapV2Factory": {
			"abi": [
				{
					"inputs": [
						{
							"internalType": "address",
							"name": "_feeToSetter",
							"type": "address"
						}
					],
					"payable": false,
					"stateMutability": "nonpayable",
					"type": "constructor"
				},
				{
					"anonymous": false,
					"inputs": [
						{
							"indexed": true,
							"internalType": "address",
							"name": "token0",
							"type": "address"
						},
						{
							"indexed": true,
							"internalType": "address",
							"name": "token1",
							"type": "address"
						},
						{
							"indexed": false,
							"internalType": "address",
							"name": "pair",
							"type": "address"
						},
						{
							"indexed": false,
							"internalType": "uint256",
							"name": "",
							"type": "uint256"
						}
					],
					"name": "PairCreated",
					"type": "event"
				},
				{
					"constant": true,
					"inputs": [],
					"name": "INIT_CODE_HASH",
					"outputs": [
						{
							"internalType": "bytes32",
							"name": "",
							"type": "bytes32"
						}
					],
					"payable": false,
					"stateMutability": "view",
					"type": "function"
				},
				{
					"constant": true,
					"inputs": [
						{
							"internalType": "uint256",
							"name": "",
							"type": "uint256"
						}
					],
					"name": "allPairs",
					"outputs": [
						{
							"internalType": "address",
							"name": "",
							"type": "address"
						}
					],
					"payable": false,
					"stateMutability": "view",
					"type": "function"
				},
				{
					"constant": true,
					"inputs": [],
					"name": "allPairsLength",
					"outputs": [
						{
							"internalType": "uint256",
							"name": "",
							"type": "uint256"
						}
					],
					"payable": false,
					"stateMutability": "view",
					"type": "function"
				},
				{
					"constant": false,
					"inputs": [
						{
							"internalType": "address",
							"name": "tokenA",
							"type": "address"
						},
						{
							"internalType": "address",
							"name": "tokenB",
							"type": "address"
						}
					],
					"name": "createPair",
					"outputs": [
						{
							"internalType": "address",
							"name": "pair",
							"type": "address"
						}
					],
					"payable": false,
					"stateMutability": "nonpayable",
					"type": "function"
				},
				{
					"constant": true,
					"inputs": [],
					"name": "feeTo",
					"outputs": [
						{
							"internalType": "address",
							"name": "",
							"type": "address"
						}
					],
					"payable": false,
					"stateMutability": "view",
					"type": "function"
				},
				{
					"constant": true,
					"inputs": [],
					"name": "feeToSetter",
					"outputs": [
						{
							"internalType": "address",
							"name": "",
							"type": "address"
						}
					],
					"payable": false,
					"stateMutability": "view",
					"type": "function"
				},
				{
					"constant": true,
					"inputs": [
						{
							"internalType": "address",
							"name": "",
							"type": "address"
						},
						{
							"internalType": "address",
							"name": "",
							"type": "address"
						}
					],
					"name": "getPair",
					"outputs": [
						{
							"internalType": "address",
							"name": "",
							"type": "address"
						}
					],
					"payable": false,
					"stateMutability": "view",
					"type": "function"
				},
				{
					"constant": false,
					"inputs": [
						{
							"internalType": "address",
							"name": "_feeTo",
							"type": "address"
						}
					],
					"name": "setFeeTo",
					"outputs": [],
					"payable": false,
					"stateMutability": "nonpayable",
					"type": "function"
				},
				{
					"constant": false,
					"inputs": [
						{
							"internalType": "address",
							"name": "_feeToSetter",
							"type": "address"
						}
					],
					"name": "setFeeToSetter",
					"outputs": [],
					"payable": false,
					"stateMutability": "nonpayable",
					"type": "function"
				}
			],
			"devdoc": {
				"methods": {}
			},
			"evm": {
				"assembly": "    /* \"v2-core-master/contracts/UniswapV2Factory.sol\":102:1975  contract UniswapV2Factory is IUniswapV2Factory {... */\n  mstore(0x40, 0x80)\n    /* \"v2-core-master/contracts/UniswapV2Factory.sol\":515:599  constructor(address _feeToSetter) public {... */\n  callvalue\n    /* \"--CODEGEN--\":8:17   */\n  dup1\n    /* \"--CODEGEN--\":5:7   */\n  iszero\n  tag_1\n  jumpi\n    /* \"--CODEGEN--\":30:31   */\n  0x00\n    /* \"--CODEGEN--\":27:28   */\n  dup1\n    /* \"--CODEGEN--\":20:32   */\n  revert\n    /* \"--CODEGEN--\":5:7   */\ntag_1:\n    /* \"v2-core-master/contracts/UniswapV2Factory.sol\":515:599  constructor(address _feeToSetter) public {... */\n  pop\n  mload(0x40)\n  sub(codesize, bytecodeSize)\n  dup1\n  bytecodeSize\n  dup4\n  codecopy\n  dup2\n  dup2\n  add\n  0x40\n  mstore\n    /* \"--CODEGEN--\":13:15   */\n  0x20\n    /* \"--CODEGEN--\":8:11   */\n  dup2\n    /* \"--CODEGEN--\":5:16   */\n  lt\n    /* \"--CODEGEN--\":2:4   */\n  iszero\n  tag_2\n  jumpi\n    /* \"--CODEGEN--\":29:30   */\n  0x00\n    /* \"--CODEGEN--\":26:27   */\n  dup1\n    /* \"--CODEGEN--\":19:31   */\n  revert\n    /* \"--CODEGEN--\":2:4   */\ntag_2:\n  pop\n    /* \"v2-core-master/contracts/UniswapV2Factory.sol\":515:599  constructor(address _feeToSetter) public {... */\n  mload\n    /* \"v2-core-master/contracts/UniswapV2Factory.sol\":566:577  feeToSetter */\n  0x01\n    /* \"v2-core-master/contracts/UniswapV2Factory.sol\":566:592  feeToSetter = _feeToSetter */\n  dup1\n  sload\n  not(sub(shl(0xa0, 0x01), 0x01))\n  and\n  sub(shl(0xa0, 0x01), 0x01)\n  swap1\n  swap3\n  and\n  swap2\n  swap1\n  swap2\n  or\n  swap1\n  sstore\n    /* \"v2-core-master/contracts/UniswapV2Factory.sol\":102:1975  contract UniswapV2Factory is IUniswapV2Factory {... */\n  dataSize(sub_0)\n  dup1\n  dataOffset(sub_0)\n  0x00\n  codecopy\n  0x00\n  return\nstop\n\nsub_0: assembly {\n        /* \"v2-core-master/contracts/UniswapV2Factory.sol\":102:1975  contract UniswapV2Factory is IUniswapV2Factory {... */\n      mstore(0x40, 0x80)\n      callvalue\n        /* \"--CODEGEN--\":8:17   */\n      dup1\n        /* \"--CODEGEN--\":5:7   */\n      iszero\n      tag_1\n      jumpi\n        /* \"--CODEGEN--\":30:31   */\n      0x00\n        /* \"--CODEGEN--\":27:28   */\n      dup1\n        /* \"--CODEGEN--\":20:32   */\n      revert\n        /* \"--CODEGEN--\":5:7   */\n    tag_1:\n        /* \"v2-core-master/contracts/UniswapV2Factory.sol\":102:1975  contract UniswapV2Factory is IUniswapV2Factory {... */\n      pop\n      jumpi(tag_2, lt(calldatasize, 0x04))\n      shr(0xe0, calldataload(0x00))\n      dup1\n      0x574f2ba3\n      gt\n      tag_12\n      jumpi\n      dup1\n      0xc9c65396\n      gt\n      tag_13\n      jumpi\n      dup1\n      0xc9c65396\n      eq\n      tag_9\n      jumpi\n      dup1\n      0xe6a43905\n      eq\n      tag_10\n      jumpi\n      dup1\n      0xf46901ed\n      eq\n      tag_11\n      jumpi\n      jump(tag_2)\n    tag_13:\n      dup1\n      0x574f2ba3\n      eq\n      tag_7\n      jumpi\n      dup1\n      0xa2e74af6\n      eq\n      tag_8\n      jumpi\n      jump(tag_2)\n    tag_12:\n      dup1\n      0x017e7e58\n      eq\n      tag_3\n      jumpi\n      dup1\n      0x094b7415\n      eq\n      tag_4\n      jumpi\n      dup1\n      0x1e3dd18b\n      eq\n      tag_5\n      jumpi\n      dup1\n      0x257671f5\n      eq\n      tag_6\n      jumpi\n    tag_2:\n      0x00\n      dup1\n      revert\n        /* \"v2-core-master/contracts/UniswapV2Factory.sol\":155:175  address public feeTo */\n    tag_3:\n      tag_14\n      tag_15\n      jump\t// in\n    tag_14:\n      0x40\n      dup1\n      mload\n      sub(shl(0xa0, 0x01), 0x01)\n      swap1\n      swap3\n      and\n      dup3\n      mstore\n      mload\n      swap1\n      dup2\n      swap1\n      sub\n      0x20\n      add\n      swap1\n      return\n        /* \"v2-core-master/contracts/UniswapV2Factory.sol\":181:207  address public feeToSetter */\n    tag_4:\n      tag_14\n      tag_17\n      jump\t// in\n        /* \"v2-core-master/contracts/UniswapV2Factory.sol\":391:416  address[] public allPairs */\n    tag_5:\n      tag_14\n      0x04\n      dup1\n      calldatasize\n      sub\n        /* \"--CODEGEN--\":13:15   */\n      0x20\n        /* \"--CODEGEN--\":8:11   */\n      dup2\n        /* \"--CODEGEN--\":5:16   */\n      lt\n        /* \"--CODEGEN--\":2:4   */\n      iszero\n      tag_19\n      jumpi\n        /* \"--CODEGEN--\":29:30   */\n      0x00\n        /* \"--CODEGEN--\":26:27   */\n      dup1\n        /* \"--CODEGEN--\":19:31   */\n      revert\n        /* \"--CODEGEN--\":2:4   */\n    tag_19:\n      pop\n        /* \"v2-core-master/contracts/UniswapV2Factory.sol\":391:416  address[] public allPairs */\n      calldataload\n      tag_20\n      jump\t// in\n        /* \"v2-core-master/contracts/UniswapV2Factory.sol\":214:316  bytes32 public constant INIT_CODE_HASH = keccak256(abi.encodePacked(type(UniswapV2Pair).creationCode)) */\n    tag_6:\n      tag_21\n      tag_22\n      jump\t// in\n    tag_21:\n      0x40\n      dup1\n      mload\n      swap2\n      dup3\n      mstore\n      mload\n      swap1\n      dup2\n      swap1\n      sub\n      0x20\n      add\n      swap1\n      return\n        /* \"v2-core-master/contracts/UniswapV2Factory.sol\":605:699  function allPairsLength() external view returns (uint) {... */\n    tag_7:\n      tag_21\n      tag_24\n      jump\t// in\n        /* \"v2-core-master/contracts/UniswapV2Factory.sol\":1807:1973  function setFeeToSetter(address _feeToSetter) external {... */\n    tag_8:\n      tag_25\n      0x04\n      dup1\n      calldatasize\n      sub\n        /* \"--CODEGEN--\":13:15   */\n      0x20\n        /* \"--CODEGEN--\":8:11   */\n      dup2\n        /* \"--CODEGEN--\":5:16   */\n      lt\n        /* \"--CODEGEN--\":2:4   */\n      iszero\n      tag_26\n      jumpi\n        /* \"--CODEGEN--\":29:30   */\n      0x00\n        /* \"--CODEGEN--\":26:27   */\n      dup1\n        /* \"--CODEGEN--\":19:31   */\n      revert\n        /* \"--CODEGEN--\":2:4   */\n    tag_26:\n      pop\n        /* \"v2-core-master/contracts/UniswapV2Factory.sol\":1807:1973  function setFeeToSetter(address _feeToSetter) external {... */\n      calldataload\n      sub(shl(0xa0, 0x01), 0x01)\n      and\n      tag_27\n      jump\t// in\n    tag_25:\n      stop\n        /* \"v2-core-master/contracts/UniswapV2Factory.sol\":705:1653  function createPair(address tokenA, address tokenB) external returns (address pair) {... */\n    tag_9:\n      tag_14\n      0x04\n      dup1\n      calldatasize\n      sub\n        /* \"--CODEGEN--\":13:15   */\n      0x40\n        /* \"--CODEGEN--\":8:11   */\n      dup2\n        /* \"--CODEGEN--\":5:16   */\n      lt\n        /* \"--CODEGEN--\":2:4   */\n      iszero\n      tag_29\n      jumpi\n        /* \"--CODEGEN--\":29:30   */\n      0x00\n        /* \"--CODEGEN--\":26:27   */\n      dup1\n        /* \"--CODEGEN--\":19:31   */\n      revert\n        /* \"--CODEGEN--\":2:4   */\n    tag_29:\n      pop\n      sub(shl(0xa0, 0x01), 0x01)\n        /* \"v2-core-master/contracts/UniswapV2Factory.sol\":705:1653  function createPair(address tokenA, address tokenB) external returns (address pair) {... */\n      dup2\n      calldataload\n      dup2\n      and\n      swap2\n      0x20\n      add\n      calldataload\n      and\n      tag_30\n      jump\t// in\n        /* \"v2-core-master/contracts/UniswapV2Factory.sol\":323:385  mapping(address => mapping(address => address)) public getPair */\n    tag_10:\n      tag_14\n      0x04\n      dup1\n      calldatasize\n      sub\n        /* \"--CODEGEN--\":13:15   */\n      0x40\n        /* \"--CODEGEN--\":8:11   */\n      dup2\n        /* \"--CODEGEN--\":5:16   */\n      lt\n        /* \"--CODEGEN--\":2:4   */\n      iszero\n      tag_32\n      jumpi\n        /* \"--CODEGEN--\":29:30   */\n      0x00\n        /* \"--CODEGEN--\":26:27   */\n      dup1\n        /* \"--CODEGEN--\":19:31   */\n      revert\n        /* \"--CODEGEN--\":2:4   */\n    tag_32:\n      pop\n      sub(shl(0xa0, 0x01), 0x01)\n        /* \"v2-core-master/contracts/UniswapV2Factory.sol\":323:385  mapping(address => mapping(address => address)) public getPair */\n      dup2\n      calldataload\n      dup2\n      and\n      swap2\n      0x20\n      add\n      calldataload\n      and\n      tag_33\n      jump\t// in\n        /* \"v2-core-master/contracts/UniswapV2Factory.sol\":1659:1801  function setFeeTo(address _feeTo) external {... */\n    tag_11:\n      tag_25\n      0x04\n      dup1\n      calldatasize\n      sub\n        /* \"--CODEGEN--\":13:15   */\n      0x20\n        /* \"--CODEGEN--\":8:11   */\n      dup2\n        /* \"--CODEGEN--\":5:16   */\n      lt\n        /* \"--CODEGEN--\":2:4   */\n      iszero\n      tag_35\n      jumpi\n        /* \"--CODEGEN--\":29:30   */\n      0x00\n        /* \"--CODEGEN--\":26:27   */\n      dup1\n        /* \"--CODEGEN--\":19:31   */\n      revert\n        /* \"--CODEGEN--\":2:4   */\n    tag_35:\n      pop\n        /* \"v2-core-master/contracts/UniswapV2Factory.sol\":1659:1801  function setFeeTo(address _feeTo) external {... */\n      calldataload\n      sub(shl(0xa0, 0x01), 0x01)\n      and\n      tag_36\n      jump\t// in\n        /* \"v2-core-master/contracts/UniswapV2Factory.sol\":155:175  address public feeTo */\n    tag_15:\n      and(sub(shl(0xa0, 0x01), 0x01), sload(0x00))\n      dup2\n      jump\t// out\n        /* \"v2-core-master/contracts/UniswapV2Factory.sol\":181:207  address public feeToSetter */\n    tag_17:\n      and(sub(shl(0xa0, 0x01), 0x01), sload(0x01))\n      dup2\n      jump\t// out\n        /* \"v2-core-master/contracts/UniswapV2Factory.sol\":391:416  address[] public allPairs */\n    tag_20:\n      0x03\n      dup2\n      dup2\n      sload\n      dup2\n      lt\n      tag_37\n      jumpi\n      invalid\n    tag_37:\n      0x00\n      swap2\n      dup3\n      mstore\n      0x20\n      swap1\n      swap2\n      keccak256\n      add\n      sload\n      sub(shl(0xa0, 0x01), 0x01)\n      and\n      swap1\n      pop\n      dup2\n      jump\t// out\n        /* \"v2-core-master/contracts/UniswapV2Factory.sol\":214:316  bytes32 public constant INIT_CODE_HASH = keccak256(abi.encodePacked(type(UniswapV2Pair).creationCode)) */\n    tag_22:\n        /* \"v2-core-master/contracts/UniswapV2Factory.sol\":282:314  type(UniswapV2Pair).creationCode */\n      mload(0x40)\n      tag_39\n      0x20\n      dup3\n      add\n      tag_40\n      jump\t// in\n    tag_39:\n        /* \"--CODEGEN--\":41:45   */\n      0x20\n        /* \"--CODEGEN--\":34:39   */\n      dup3\n        /* \"--CODEGEN--\":30:46   */\n      add\n        /* \"--CODEGEN--\":25:28   */\n      dup2\n        /* \"--CODEGEN--\":21:47   */\n      sub\n        /* \"--CODEGEN--\":14:19   */\n      dup3\n        /* \"--CODEGEN--\":7:48   */\n      mstore\n        /* \"--CODEGEN--\":87:89   */\n      0x1f\n        /* \"--CODEGEN--\":83:90   */\n      not\n        /* \"--CODEGEN--\":78:80   */\n      0x1f\n        /* \"--CODEGEN--\":73:76   */\n      dup3\n        /* \"--CODEGEN--\":69:81   */\n      add\n        /* \"--CODEGEN--\":65:91   */\n      and\n        /* \"--CODEGEN--\":61:63   */\n      0x40\n        /* \"--CODEGEN--\":54:92   */\n      mstore\n        /* \"v2-core-master/contracts/UniswapV2Factory.sol\":282:314  type(UniswapV2Pair).creationCode */\n      pop\n        /* \"v2-core-master/contracts/UniswapV2Factory.sol\":265:315  abi.encodePacked(type(UniswapV2Pair).creationCode) */\n      add(0x20, mload(0x40))\n      dup1\n      dup3\n      dup1\n      mload\n      swap1\n      0x20\n      add\n      swap1\n      dup1\n      dup4\n      dup4\n        /* \"--CODEGEN--\":36:189   */\n    tag_41:\n        /* \"--CODEGEN--\":66:68   */\n      0x20\n        /* \"--CODEGEN--\":61:64   */\n      dup4\n        /* \"--CODEGEN--\":58:69   */\n      lt\n        /* \"--CODEGEN--\":36:189   */\n      tag_43\n      jumpi\n        /* \"--CODEGEN--\":176:186   */\n      dup1\n      mload\n        /* \"--CODEGEN--\":164:187   */\n      dup3\n      mstore\n        /* \"--CODEGEN--\":139:151   */\n      0xffffffffffffffffffffffffffffffffffffffffffffffffffffffffffffffe0\n      swap1\n      swap3\n      add\n      swap2\n        /* \"--CODEGEN--\":98:100   */\n      0x20\n        /* \"--CODEGEN--\":89:101   */\n      swap2\n      dup3\n      add\n      swap2\n        /* \"--CODEGEN--\":114:126   */\n      add\n        /* \"--CODEGEN--\":36:189   */\n      jump(tag_41)\n    tag_43:\n        /* \"--CODEGEN--\":274:275   */\n      0x01\n        /* \"--CODEGEN--\":267:270   */\n      dup4\n        /* \"--CODEGEN--\":263:265   */\n      0x20\n        /* \"--CODEGEN--\":259:271   */\n      sub\n        /* \"--CODEGEN--\":254:257   */\n      0x0100\n        /* \"--CODEGEN--\":250:272   */\n      exp\n        /* \"--CODEGEN--\":246:276   */\n      sub\n        /* \"--CODEGEN--\":315:319   */\n      dup1\n        /* \"--CODEGEN--\":311:320   */\n      not\n        /* \"--CODEGEN--\":305:308   */\n      dup3\n        /* \"--CODEGEN--\":299:309   */\n      mload\n        /* \"--CODEGEN--\":295:321   */\n      and\n        /* \"--CODEGEN--\":356:360   */\n      dup2\n        /* \"--CODEGEN--\":350:353   */\n      dup5\n        /* \"--CODEGEN--\":344:354   */\n      mload\n        /* \"--CODEGEN--\":340:361   */\n      and\n        /* \"--CODEGEN--\":389:396   */\n      dup1\n        /* \"--CODEGEN--\":380:387   */\n      dup3\n        /* \"--CODEGEN--\":377:397   */\n      or\n        /* \"--CODEGEN--\":372:375   */\n      dup6\n        /* \"--CODEGEN--\":365:398   */\n      mstore\n        /* \"--CODEGEN--\":3:402   */\n      pop\n      pop\n      pop\n        /* \"v2-core-master/contracts/UniswapV2Factory.sol\":265:315  abi.encodePacked(type(UniswapV2Pair).creationCode) */\n      pop\n      pop\n      pop\n      swap1\n      pop\n      add\n      swap2\n      pop\n      pop\n      mload(0x40)\n        /* \"--CODEGEN--\":49:53   */\n      0x20\n        /* \"--CODEGEN--\":39:46   */\n      dup2\n        /* \"--CODEGEN--\":30:37   */\n      dup4\n        /* \"--CODEGEN--\":26:47   */\n      sub\n        /* \"--CODEGEN--\":22:54   */\n      sub\n        /* \"--CODEGEN--\":13:20   */\n      dup2\n        /* \"--CODEGEN--\":6:55   */\n      mstore\n        /* \"v2-core-master/contracts/UniswapV2Factory.sol\":265:315  abi.encodePacked(type(UniswapV2Pair).creationCode) */\n      swap1\n      0x40\n      mstore\n        /* \"v2-core-master/contracts/UniswapV2Factory.sol\":255:316  keccak256(abi.encodePacked(type(UniswapV2Pair).creationCode)) */\n      dup1\n      mload\n      swap1\n      0x20\n      add\n      keccak256\n        /* \"v2-core-master/contracts/UniswapV2Factory.sol\":214:316  bytes32 public constant INIT_CODE_HASH = keccak256(abi.encodePacked(type(UniswapV2Pair).creationCode)) */\n      dup2\n      jump\t// out\n        /* \"v2-core-master/contracts/UniswapV2Factory.sol\":605:699  function allPairsLength() external view returns (uint) {... */\n    tag_24:\n        /* \"v2-core-master/contracts/UniswapV2Factory.sol\":677:685  allPairs */\n      0x03\n        /* \"v2-core-master/contracts/UniswapV2Factory.sol\":677:692  allPairs.length */\n      sload\n        /* \"v2-core-master/contracts/UniswapV2Factory.sol\":605:699  function allPairsLength() external view returns (uint) {... */\n      swap1\n      jump\t// out\n        /* \"v2-core-master/contracts/UniswapV2Factory.sol\":1807:1973  function setFeeToSetter(address _feeToSetter) external {... */\n    tag_27:\n        /* \"v2-core-master/contracts/UniswapV2Factory.sol\":1894:1905  feeToSetter */\n      and(sub(shl(0xa0, 0x01), 0x01), sload(0x01))\n        /* \"v2-core-master/contracts/UniswapV2Factory.sol\":1880:1890  msg.sender */\n      caller\n        /* \"v2-core-master/contracts/UniswapV2Factory.sol\":1880:1905  msg.sender == feeToSetter */\n      eq\n        /* \"v2-core-master/contracts/UniswapV2Factory.sol\":1872:1930  require(msg.sender == feeToSetter, 'UniswapV2: FORBIDDEN') */\n      tag_46\n      jumpi\n      0x40\n      dup1\n      mload\n      shl(0xe5, 0x461bcd)\n      dup2\n      mstore\n      0x20\n      0x04\n      dup3\n      add\n      mstore\n      0x14\n      0x24\n      dup3\n      add\n      mstore\n      0x556e697377617056323a20464f5242494444454e000000000000000000000000\n      0x44\n      dup3\n      add\n      mstore\n      swap1\n      mload\n      swap1\n      dup2\n      swap1\n      sub\n      0x64\n      add\n      swap1\n      revert\n    tag_46:\n        /* \"v2-core-master/contracts/UniswapV2Factory.sol\":1940:1951  feeToSetter */\n      0x01\n        /* \"v2-core-master/contracts/UniswapV2Factory.sol\":1940:1966  feeToSetter = _feeToSetter */\n      dup1\n      sload\n      not(0xffffffffffffffffffffffffffffffffffffffff)\n      and\n      sub(shl(0xa0, 0x01), 0x01)\n      swap3\n      swap1\n      swap3\n      and\n      swap2\n      swap1\n      swap2\n      or\n      swap1\n      sstore\n        /* \"v2-core-master/contracts/UniswapV2Factory.sol\":1807:1973  function setFeeToSetter(address _feeToSetter) external {... */\n      jump\t// out\n        /* \"v2-core-master/contracts/UniswapV2Factory.sol\":705:1653  function createPair(address tokenA, address tokenB) external returns (address pair) {... */\n    tag_30:\n        /* \"v2-core-master/contracts/UniswapV2Factory.sol\":775:787  address pair */\n      0x00\n        /* \"v2-core-master/contracts/UniswapV2Factory.sol\":817:823  tokenB */\n      dup2\n      sub(shl(0xa0, 0x01), 0x01)\n        /* \"v2-core-master/contracts/UniswapV2Factory.sol\":807:823  tokenA != tokenB */\n      and\n        /* \"v2-core-master/contracts/UniswapV2Factory.sol\":807:813  tokenA */\n      dup4\n      sub(shl(0xa0, 0x01), 0x01)\n        /* \"v2-core-master/contracts/UniswapV2Factory.sol\":807:823  tokenA != tokenB */\n      and\n      eq\n      iszero\n        /* \"v2-core-master/contracts/UniswapV2Factory.sol\":799:858  require(tokenA != tokenB, 'UniswapV2: IDENTICAL_ADDRESSES') */\n      tag_48\n      jumpi\n      0x40\n      dup1\n      mload\n      shl(0xe5, 0x461bcd)\n      dup2\n      mstore\n      0x20\n      0x04\n      dup3\n      add\n      mstore\n      0x1e\n      0x24\n      dup3\n      add\n      mstore\n      0x556e697377617056323a204944454e544943414c5f4144445245535345530000\n      0x44\n      dup3\n      add\n      mstore\n      swap1\n      mload\n      swap1\n      dup2\n      swap1\n      sub\n      0x64\n      add\n      swap1\n      revert\n    tag_48:\n        /* \"v2-core-master/contracts/UniswapV2Factory.sol\":869:883  address token0 */\n      0x00\n        /* \"v2-core-master/contracts/UniswapV2Factory.sol\":885:899  address token1 */\n      dup1\n        /* \"v2-core-master/contracts/UniswapV2Factory.sol\":912:918  tokenB */\n      dup4\n      sub(shl(0xa0, 0x01), 0x01)\n        /* \"v2-core-master/contracts/UniswapV2Factory.sol\":903:918  tokenA < tokenB */\n      and\n        /* \"v2-core-master/contracts/UniswapV2Factory.sol\":903:909  tokenA */\n      dup6\n      sub(shl(0xa0, 0x01), 0x01)\n        /* \"v2-core-master/contracts/UniswapV2Factory.sol\":903:918  tokenA < tokenB */\n      and\n      lt\n        /* \"v2-core-master/contracts/UniswapV2Factory.sol\":903:956  tokenA < tokenB ? (tokenA, tokenB) : (tokenB, tokenA) */\n      tag_49\n      jumpi\n        /* \"v2-core-master/contracts/UniswapV2Factory.sol\":941:947  tokenB */\n      dup4\n        /* \"v2-core-master/contracts/UniswapV2Factory.sol\":949:955  tokenA */\n      dup6\n        /* \"v2-core-master/contracts/UniswapV2Factory.sol\":903:956  tokenA < tokenB ? (tokenA, tokenB) : (tokenB, tokenA) */\n      jump(tag_50)\n    tag_49:\n        /* \"v2-core-master/contracts/UniswapV2Factory.sol\":922:928  tokenA */\n      dup5\n        /* \"v2-core-master/contracts/UniswapV2Factory.sol\":930:936  tokenB */\n      dup5\n        /* \"v2-core-master/contracts/UniswapV2Factory.sol\":903:956  tokenA < tokenB ? (tokenA, tokenB) : (tokenB, tokenA) */\n    tag_50:\n        /* \"v2-core-master/contracts/UniswapV2Factory.sol\":868:956  (address token0, address token1) = tokenA < tokenB ? (tokenA, tokenB) : (tokenB, tokenA) */\n      swap1\n      swap3\n      pop\n      swap1\n      pop\n      sub(shl(0xa0, 0x01), 0x01)\n        /* \"v2-core-master/contracts/UniswapV2Factory.sol\":974:994  token0 != address(0) */\n      dup3\n      and\n        /* \"v2-core-master/contracts/UniswapV2Factory.sol\":966:1022  require(token0 != address(0), 'UniswapV2: ZERO_ADDRESS') */\n      tag_51\n      jumpi\n      0x40\n      dup1\n      mload\n      shl(0xe5, 0x461bcd)\n      dup2\n      mstore\n      0x20\n      0x04\n      dup3\n      add\n      mstore\n      0x17\n      0x24\n      dup3\n      add\n      mstore\n      0x556e697377617056323a205a45524f5f41444452455353000000000000000000\n      0x44\n      dup3\n      add\n      mstore\n      swap1\n      mload\n      swap1\n      dup2\n      swap1\n      sub\n      0x64\n      add\n      swap1\n      revert\n    tag_51:\n      sub(shl(0xa0, 0x01), 0x01)\n        /* \"v2-core-master/contracts/UniswapV2Factory.sol\":1040:1055  getPair[token0] */\n      dup3\n      dup2\n      and\n        /* \"v2-core-master/contracts/UniswapV2Factory.sol\":1075:1076  0 */\n      0x00\n        /* \"v2-core-master/contracts/UniswapV2Factory.sol\":1040:1055  getPair[token0] */\n      swap1\n      dup2\n      mstore\n        /* \"v2-core-master/contracts/UniswapV2Factory.sol\":1040:1047  getPair */\n      0x02\n        /* \"v2-core-master/contracts/UniswapV2Factory.sol\":1040:1055  getPair[token0] */\n      0x20\n      swap1\n      dup2\n      mstore\n      0x40\n      dup1\n      dup4\n      keccak256\n        /* \"v2-core-master/contracts/UniswapV2Factory.sol\":1040:1063  getPair[token0][token1] */\n      dup6\n      dup6\n      and\n      dup5\n      mstore\n      swap1\n      swap2\n      mstore\n      swap1\n      keccak256\n      sload\n      and\n        /* \"v2-core-master/contracts/UniswapV2Factory.sol\":1040:1077  getPair[token0][token1] == address(0) */\n      iszero\n        /* \"v2-core-master/contracts/UniswapV2Factory.sol\":1032:1104  require(getPair[token0][token1] == address(0), 'UniswapV2: PAIR_EXISTS') */\n      tag_52\n      jumpi\n      0x40\n      dup1\n      mload\n      shl(0xe5, 0x461bcd)\n      dup2\n      mstore\n      0x20\n      0x04\n      dup3\n      add\n      mstore\n      0x16\n      0x24\n      dup3\n      add\n      mstore\n      0x556e697377617056323a20504149525f45584953545300000000000000000000\n      0x44\n      dup3\n      add\n      mstore\n      swap1\n      mload\n      swap1\n      dup2\n      swap1\n      sub\n      0x64\n      add\n      swap1\n      revert\n    tag_52:\n        /* \"v2-core-master/contracts/UniswapV2Factory.sol\":1144:1165  bytes memory bytecode */\n      0x60\n        /* \"v2-core-master/contracts/UniswapV2Factory.sol\":1168:1200  type(UniswapV2Pair).creationCode */\n      mload(0x40)\n      dup1\n      0x20\n      add\n      tag_53\n      swap1\n      tag_40\n      jump\t// in\n    tag_53:\n        /* \"--CODEGEN--\":41:45   */\n      0x20\n        /* \"--CODEGEN--\":34:39   */\n      dup3\n        /* \"--CODEGEN--\":30:46   */\n      add\n        /* \"--CODEGEN--\":25:28   */\n      dup2\n        /* \"--CODEGEN--\":21:47   */\n      sub\n        /* \"--CODEGEN--\":14:19   */\n      dup3\n        /* \"--CODEGEN--\":7:48   */\n      mstore\n        /* \"--CODEGEN--\":87:89   */\n      0x1f\n        /* \"--CODEGEN--\":83:90   */\n      not\n        /* \"--CODEGEN--\":78:80   */\n      0x1f\n        /* \"--CODEGEN--\":73:76   */\n      dup3\n        /* \"--CODEGEN--\":69:81   */\n      add\n        /* \"--CODEGEN--\":65:91   */\n      and\n        /* \"--CODEGEN--\":61:63   */\n      0x40\n        /* \"--CODEGEN--\":54:92   */\n      mstore\n        /* \"v2-core-master/contracts/UniswapV2Factory.sol\":1168:1200  type(UniswapV2Pair).creationCode */\n      pop\n        /* \"v2-core-master/contracts/UniswapV2Factory.sol\":1144:1200  bytes memory bytecode = type(UniswapV2Pair).creationCode */\n      swap1\n      pop\n        /* \"v2-core-master/contracts/UniswapV2Factory.sol\":1210:1222  bytes32 salt */\n      0x00\n        /* \"v2-core-master/contracts/UniswapV2Factory.sol\":1252:1258  token0 */\n      dup4\n        /* \"v2-core-master/contracts/UniswapV2Factory.sol\":1260:1266  token1 */\n      dup4\n        /* \"v2-core-master/contracts/UniswapV2Factory.sol\":1235:1267  abi.encodePacked(token0, token1) */\n      add(0x20, mload(0x40))\n      dup1\n      dup4\n      sub(shl(0xa0, 0x01), 0x01)\n      and\n      sub(shl(0xa0, 0x01), 0x01)\n      and\n      0x60\n      shl\n      dup2\n      mstore\n      0x14\n      add\n      dup3\n      sub(shl(0xa0, 0x01), 0x01)\n      and\n      sub(shl(0xa0, 0x01), 0x01)\n      and\n      0x60\n      shl\n      dup2\n      mstore\n      0x14\n      add\n      swap3\n      pop\n      pop\n      pop\n      mload(0x40)\n        /* \"--CODEGEN--\":49:53   */\n      0x20\n        /* \"--CODEGEN--\":39:46   */\n      dup2\n        /* \"--CODEGEN--\":30:37   */\n      dup4\n        /* \"--CODEGEN--\":26:47   */\n      sub\n        /* \"--CODEGEN--\":22:54   */\n      sub\n        /* \"--CODEGEN--\":13:20   */\n      dup2\n        /* \"--CODEGEN--\":6:55   */\n      mstore\n        /* \"v2-core-master/contracts/UniswapV2Factory.sol\":1235:1267  abi.encodePacked(token0, token1) */\n      swap1\n      0x40\n      mstore\n        /* \"v2-core-master/contracts/UniswapV2Factory.sol\":1225:1268  keccak256(abi.encodePacked(token0, token1)) */\n      dup1\n      mload\n      swap1\n      0x20\n      add\n      keccak256\n        /* \"v2-core-master/contracts/UniswapV2Factory.sol\":1210:1268  bytes32 salt = keccak256(abi.encodePacked(token0, token1)) */\n      swap1\n      pop\n        /* \"v2-core-master/contracts/UniswapV2Factory.sol\":1356:1360  salt */\n      dup1\n        /* \"v2-core-master/contracts/UniswapV2Factory.sol\":1345:1353  bytecode */\n      dup3\n        /* \"v2-core-master/contracts/UniswapV2Factory.sol\":1339:1354  mload(bytecode) */\n      mload\n        /* \"v2-core-master/contracts/UniswapV2Factory.sol\":1334:1336  32 */\n      0x20\n        /* \"v2-core-master/contracts/UniswapV2Factory.sol\":1324:1332  bytecode */\n      dup5\n        /* \"v2-core-master/contracts/UniswapV2Factory.sol\":1320:1337  add(bytecode, 32) */\n      add\n        /* \"v2-core-master/contracts/UniswapV2Factory.sol\":1317:1318  0 */\n      0x00\n        /* \"v2-core-master/contracts/UniswapV2Factory.sol\":1309:1361  create2(0, add(bytecode, 32), mload(bytecode), salt) */\n      create2\n        /* \"v2-core-master/contracts/UniswapV2Factory.sol\":1380:1427  IUniswapV2Pair(pair).initialize(token0, token1) */\n      0x40\n      dup1\n      mload\n      0x485cc95500000000000000000000000000000000000000000000000000000000\n      dup2\n      mstore\n      sub(shl(0xa0, 0x01), 0x01)\n      dup8\n      dup2\n      and\n      0x04\n      dup4\n      add\n      mstore\n      dup7\n      dup2\n      and\n      0x24\n      dup4\n      add\n      mstore\n      swap2\n      mload\n        /* \"v2-core-master/contracts/UniswapV2Factory.sol\":1301:1361  pair := create2(0, add(bytecode, 32), mload(bytecode), salt) */\n      swap3\n      swap8\n      pop\n        /* \"v2-core-master/contracts/UniswapV2Factory.sol\":1380:1411  IUniswapV2Pair(pair).initialize */\n      swap1\n      dup8\n      and\n      swap2\n      0x485cc955\n      swap2\n        /* \"v2-core-master/contracts/UniswapV2Factory.sol\":1380:1427  IUniswapV2Pair(pair).initialize(token0, token1) */\n      0x44\n      dup1\n      dup3\n      add\n      swap3\n      0x00\n      swap3\n      swap1\n      swap2\n      swap1\n      dup3\n      swap1\n      sub\n      add\n      dup2\n      dup4\n        /* \"v2-core-master/contracts/UniswapV2Factory.sol\":1380:1411  IUniswapV2Pair(pair).initialize */\n      dup8\n        /* \"v2-core-master/contracts/UniswapV2Factory.sol\":1380:1427  IUniswapV2Pair(pair).initialize(token0, token1) */\n      dup1\n      extcodesize\n      iszero\n        /* \"--CODEGEN--\":5:7   */\n      dup1\n      iszero\n      tag_54\n      jumpi\n        /* \"--CODEGEN--\":30:31   */\n      0x00\n        /* \"--CODEGEN--\":27:28   */\n      dup1\n        /* \"--CODEGEN--\":20:32   */\n      revert\n        /* \"--CODEGEN--\":5:7   */\n    tag_54:\n        /* \"v2-core-master/contracts/UniswapV2Factory.sol\":1380:1427  IUniswapV2Pair(pair).initialize(token0, token1) */\n      pop\n      gas\n      call\n      iszero\n        /* \"--CODEGEN--\":8:17   */\n      dup1\n        /* \"--CODEGEN--\":5:7   */\n      iszero\n      tag_55\n      jumpi\n        /* \"--CODEGEN--\":45:61   */\n      returndatasize\n        /* \"--CODEGEN--\":42:43   */\n      0x00\n        /* \"--CODEGEN--\":39:40   */\n      dup1\n        /* \"--CODEGEN--\":24:62   */\n      returndatacopy\n        /* \"--CODEGEN--\":77:93   */\n      returndatasize\n        /* \"--CODEGEN--\":74:75   */\n      0x00\n        /* \"--CODEGEN--\":67:94   */\n      revert\n        /* \"--CODEGEN--\":5:7   */\n    tag_55:\n      pop\n      pop\n      pop\n      pop\n      sub(shl(0xa0, 0x01), 0x01)\n        /* \"v2-core-master/contracts/UniswapV2Factory.sol\":1437:1452  getPair[token0] */\n      dup5\n      dup2\n      and\n      0x00\n      dup2\n      dup2\n      mstore\n        /* \"v2-core-master/contracts/UniswapV2Factory.sol\":1437:1444  getPair */\n      0x02\n        /* \"v2-core-master/contracts/UniswapV2Factory.sol\":1437:1452  getPair[token0] */\n      0x20\n      dup2\n      dup2\n      mstore\n      0x40\n      dup1\n      dup5\n      keccak256\n        /* \"v2-core-master/contracts/UniswapV2Factory.sol\":1437:1460  getPair[token0][token1] */\n      dup10\n      dup8\n      and\n      dup1\n      dup7\n      mstore\n      swap1\n      dup4\n      mstore\n      dup2\n      dup6\n      keccak256\n        /* \"v2-core-master/contracts/UniswapV2Factory.sol\":1437:1467  getPair[token0][token1] = pair */\n      dup1\n      sload\n      swap8\n      dup14\n      and\n      not(0xffffffffffffffffffffffffffffffffffffffff)\n      swap9\n      dup10\n      and\n      dup2\n      or\n      swap1\n      swap2\n      sstore\n        /* \"v2-core-master/contracts/UniswapV2Factory.sol\":1477:1492  getPair[token1] */\n      swap4\n      dup4\n      mstore\n      dup2\n      dup6\n      keccak256\n        /* \"v2-core-master/contracts/UniswapV2Factory.sol\":1477:1500  getPair[token1][token0] */\n      dup7\n      dup7\n      mstore\n      dup4\n      mstore\n      dup2\n      dup6\n      keccak256\n        /* \"v2-core-master/contracts/UniswapV2Factory.sol\":1477:1507  getPair[token1][token0] = pair */\n      dup1\n      sload\n      dup9\n      and\n      dup6\n      or\n      swap1\n      sstore\n        /* \"v2-core-master/contracts/UniswapV2Factory.sol\":1562:1570  allPairs */\n      0x03\n        /* \"--CODEGEN--\":27:37   */\n      dup1\n      sload\n      0x01\n        /* \"--CODEGEN--\":23:41   */\n      dup2\n      add\n        /* \"--CODEGEN--\":45:68   */\n      dup3\n      sstore\n        /* \"v2-core-master/contracts/UniswapV2Factory.sol\":1562:1581  allPairs.push(pair) */\n      swap6\n      dup2\n      swap1\n      mstore\n      0xc2575a0e9e593c00f959f8c92f12db2869c3395a3b0502d05e2516446f71f85b\n      swap1\n      swap6\n      add\n      dup1\n      sload\n      swap1\n      swap8\n      and\n      dup5\n      or\n      swap1\n      swap7\n      sstore\n        /* \"v2-core-master/contracts/UniswapV2Factory.sol\":1630:1645  allPairs.length */\n      swap3\n      sload\n        /* \"v2-core-master/contracts/UniswapV2Factory.sol\":1596:1646  PairCreated(token0, token1, pair, allPairs.length) */\n      dup4\n      mload\n      swap3\n      dup4\n      mstore\n      swap1\n      dup3\n      add\n      mstore\n      dup2\n      mload\n      0x0d3648bd0f6ba80134a33ba9275ac585d9d315f0ad8355cddefde31afa28d0e9\n      swap3\n      swap2\n      dup2\n      swap1\n      sub\n      swap1\n      swap2\n      add\n      swap1\n      log3\n        /* \"v2-core-master/contracts/UniswapV2Factory.sol\":705:1653  function createPair(address tokenA, address tokenB) external returns (address pair) {... */\n      pop\n      pop\n      pop\n      pop\n      swap3\n      swap2\n      pop\n      pop\n      jump\t// out\n        /* \"v2-core-master/contracts/UniswapV2Factory.sol\":323:385  mapping(address => mapping(address => address)) public getPair */\n    tag_33:\n      0x02\n      0x20\n      swap1\n      dup2\n      mstore\n      0x00\n      swap3\n      dup4\n      mstore\n      0x40\n      dup1\n      dup5\n      keccak256\n      swap1\n      swap2\n      mstore\n      swap1\n      dup3\n      mstore\n      swap1\n      keccak256\n      sload\n      sub(shl(0xa0, 0x01), 0x01)\n      and\n      dup2\n      jump\t// out\n        /* \"v2-core-master/contracts/UniswapV2Factory.sol\":1659:1801  function setFeeTo(address _feeTo) external {... */\n    tag_36:\n        /* \"v2-core-master/contracts/UniswapV2Factory.sol\":1734:1745  feeToSetter */\n      and(sub(shl(0xa0, 0x01), 0x01), sload(0x01))\n        /* \"v2-core-master/contracts/UniswapV2Factory.sol\":1720:1730  msg.sender */\n      caller\n        /* \"v2-core-master/contracts/UniswapV2Factory.sol\":1720:1745  msg.sender == feeToSetter */\n      eq\n        /* \"v2-core-master/contracts/UniswapV2Factory.sol\":1712:1770  require(msg.sender == feeToSetter, 'UniswapV2: FORBIDDEN') */\n      tag_58\n      jumpi\n      0x40\n      dup1\n      mload\n      shl(0xe5, 0x461bcd)\n      dup2\n      mstore\n      0x20\n      0x04\n      dup3\n      add\n      mstore\n      0x14\n      0x24\n      dup3\n      add\n      mstore\n      0x556e697377617056323a20464f5242494444454e000000000000000000000000\n      0x44\n      dup3\n      add\n      mstore\n      swap1\n      mload\n      swap1\n      dup2\n      swap1\n      sub\n      0x64\n      add\n      swap1\n      revert\n    tag_58:\n        /* \"v2-core-master/contracts/UniswapV2Factory.sol\":1780:1785  feeTo */\n      0x00\n        /* \"v2-core-master/contracts/UniswapV2Factory.sol\":1780:1794  feeTo = _feeTo */\n      dup1\n      sload\n      not(0xffffffffffffffffffffffffffffffffffffffff)\n      and\n      sub(shl(0xa0, 0x01), 0x01)\n      swap3\n      swap1\n      swap3\n      and\n      swap2\n      swap1\n      swap2\n      or\n      swap1\n      sstore\n        /* \"v2-core-master/contracts/UniswapV2Factory.sol\":1659:1801  function setFeeTo(address _feeTo) external {... */\n      jump\t// out\n        /* \"v2-core-master/contracts/UniswapV2Factory.sol\":102:1975  contract UniswapV2Factory is IUniswapV2Factory {... */\n    tag_40:\n      dataSize(sub_0)\n      dup1\n      dataOffset(sub_0)\n      dup4\n      codecopy\n      add\n      swap1\n      jump\t// out\n    stop\n\n    sub_0: assembly {\n            /* \"v2-core-master/contracts/UniswapV2Pair.sol\":290:9787  contract UniswapV2Pair is IUniswapV2Pair, UniswapV2ERC20 {... */\n          mstore(0x40, 0x80)\n            /* \"v2-core-master/contracts/UniswapV2Pair.sol\":1140:1141  1 */\n          0x01\n            /* \"v2-core-master/contracts/UniswapV2Pair.sol\":1116:1141  uint private unlocked = 1 */\n          0x0c\n          sstore\n            /* \"v2-core-master/contracts/UniswapV2Pair.sol\":2196:2254  constructor() public {... */\n          callvalue\n            /* \"--CODEGEN--\":8:17   */\n          dup1\n            /* \"--CODEGEN--\":5:7   */\n          iszero\n          tag_1\n          jumpi\n            /* \"--CODEGEN--\":30:31   */\n          0x00\n            /* \"--CODEGEN--\":27:28   */\n          dup1\n            /* \"--CODEGEN--\":20:32   */\n          revert\n            /* \"--CODEGEN--\":5:7   */\n        tag_1:\n          pop\n            /* \"v2-core-master/contracts/UniswapV2ERC20.sol\":1101:1196  keccak256('EIP712Domain(string name,string version,uint256 chainId,address verifyingContract)') */\n          mload(0x40)\n            /* \"v2-core-master/contracts/UniswapV2ERC20.sol\":1005:1012  chainid */\n          chainid\n          swap1\n            /* \"v2-core-master/contracts/UniswapV2ERC20.sol\":1101:1196  keccak256('EIP712Domain(string name,string version,uint256 chainId,address verifyingContract)') */\n          dup1\n          0x52\n          data_8b73c3c69bb8fe3d512ecc4cf759cc79239f7b179b0ffacaa9a75d522b39400f\n          dup3\n          codecopy\n          0x40\n          dup1\n          mload\n          swap2\n          dup3\n          swap1\n          sub\n          0x52\n          add\n          dup3\n          keccak256\n            /* \"v2-core-master/contracts/UniswapV2ERC20.sol\":1230:1234  name */\n          dup3\n          dup3\n          add\n          dup3\n          mstore\n          0x0c\n          dup4\n          mstore\n          0x4761627269656c61737761700000000000000000000000000000000000000000\n          0x20\n          swap4\n          dup5\n          add\n          mstore\n            /* \"v2-core-master/contracts/UniswapV2ERC20.sol\":1264:1274  bytes('1') */\n          dup2\n          mload\n          dup1\n          dup4\n          add\n          dup4\n          mstore\n          0x01\n          dup2\n          mstore\n          0x3100000000000000000000000000000000000000000000000000000000000000\n          swap1\n          dup5\n          add\n          mstore\n            /* \"v2-core-master/contracts/UniswapV2ERC20.sol\":1073:1345  abi.encode(... */\n          dup2\n          mload\n          dup1\n          dup5\n          add\n          swap2\n          swap1\n          swap2\n          mstore\n            /* \"v2-core-master/contracts/UniswapV2ERC20.sol\":1214:1236  keccak256(bytes(name)) */\n          0x4c8ebfc6e115f3b0f58dff3cb9e272ce4eb1888e228e5575d936a1361b3a9454\n            /* \"v2-core-master/contracts/UniswapV2ERC20.sol\":1073:1345  abi.encode(... */\n          dup2\n          dup4\n          add\n          mstore\n            /* \"v2-core-master/contracts/UniswapV2ERC20.sol\":1254:1275  keccak256(bytes('1')) */\n          0xc89efdaa54c0f20c7adf612882df0950f5a951637e0307cdcb4c672f298b8bc6\n            /* \"v2-core-master/contracts/UniswapV2ERC20.sol\":1073:1345  abi.encode(... */\n          0x60\n          dup3\n          add\n          mstore\n          0x80\n          dup2\n          add\n          swap5\n          swap1\n          swap5\n          mstore\n            /* \"v2-core-master/contracts/UniswapV2ERC20.sol\":1326:1330  this */\n          address\n            /* \"v2-core-master/contracts/UniswapV2ERC20.sol\":1073:1345  abi.encode(... */\n          0xa0\n          dup1\n          dup7\n          add\n          swap2\n          swap1\n          swap2\n          mstore\n          dup2\n          mload\n            /* \"--CODEGEN--\":26:47   */\n          dup1\n          dup7\n          sub\n            /* \"--CODEGEN--\":22:54   */\n          swap1\n          swap2\n          add\n            /* \"--CODEGEN--\":6:55   */\n          dup2\n          mstore\n            /* \"v2-core-master/contracts/UniswapV2ERC20.sol\":1073:1345  abi.encode(... */\n          0xc0\n          swap1\n          swap5\n          add\n          swap1\n          mstore\n            /* \"v2-core-master/contracts/UniswapV2ERC20.sol\":1050:1355  keccak256(... */\n          dup3\n          mload\n          swap3\n          add\n          swap2\n          swap1\n          swap2\n          keccak256\n            /* \"v2-core-master/contracts/UniswapV2ERC20.sol\":1031:1047  DOMAIN_SEPARATOR */\n          0x03\n            /* \"v2-core-master/contracts/UniswapV2ERC20.sol\":1031:1355  DOMAIN_SEPARATOR = keccak256(... */\n          sstore\n          pop\n            /* \"v2-core-master/contracts/UniswapV2Pair.sol\":2227:2234  factory */\n          0x05\n            /* \"v2-core-master/contracts/UniswapV2Pair.sol\":2227:2247  factory = msg.sender */\n          dup1\n          sload\n          0xffffffffffffffffffffffff0000000000000000000000000000000000000000\n          and\n            /* \"v2-core-master/contracts/UniswapV2Pair.sol\":2237:2247  msg.sender */\n          caller\n            /* \"v2-core-master/contracts/UniswapV2Pair.sol\":2227:2247  factory = msg.sender */\n          or\n          swap1\n          sstore\n          0x23d1\n          dup1\n            /* \"v2-core-master/contracts/UniswapV2Pair.sol\":290:9787  contract UniswapV2Pair is IUniswapV2Pair, UniswapV2ERC20 {... */\n          dataOffset(sub_0)\n          0x00\n          codecopy\n          0x00\n          return\n        stop\n        data_8b73c3c69bb8fe3d512ecc4cf759cc79239f7b179b0ffacaa9a75d522b39400f 454950373132446f6d61696e28737472696e67206e616d652c737472696e672076657273696f6e2c75696e7432353620636861696e49642c6164647265737320766572696679696e67436f6e747261637429\n\n        sub_0: assembly {\n                /* \"v2-core-master/contracts/UniswapV2Pair.sol\":290:9787  contract UniswapV2Pair is IUniswapV2Pair, UniswapV2ERC20 {... */\n              mstore(0x40, 0x80)\n              callvalue\n                /* \"--CODEGEN--\":8:17   */\n              dup1\n                /* \"--CODEGEN--\":5:7   */\n              iszero\n              tag_1\n              jumpi\n                /* \"--CODEGEN--\":30:31   */\n              0x00\n                /* \"--CODEGEN--\":27:28   */\n              dup1\n                /* \"--CODEGEN--\":20:32   */\n              revert\n                /* \"--CODEGEN--\":5:7   */\n            tag_1:\n                /* \"v2-core-master/contracts/UniswapV2Pair.sol\":290:9787  contract UniswapV2Pair is IUniswapV2Pair, UniswapV2ERC20 {... */\n              pop\n              jumpi(tag_2, lt(calldatasize, 0x04))\n              shr(0xe0, calldataload(0x00))\n              dup1\n              0x6a627842\n              gt\n              tag_30\n              jumpi\n              dup1\n              0xba9a7a56\n              gt\n              tag_31\n              jumpi\n              dup1\n              0xd21220a7\n              gt\n              tag_32\n              jumpi\n              dup1\n              0xd21220a7\n              eq\n              tag_26\n              jumpi\n              dup1\n              0xd505accf\n              eq\n              tag_27\n              jumpi\n              dup1\n              0xdd62ed3e\n              eq\n              tag_28\n              jumpi\n              dup1\n              0xfff6cae9\n              eq\n              tag_29\n              jumpi\n              jump(tag_2)\n            tag_32:\n              dup1\n              0xba9a7a56\n              eq\n              tag_23\n              jumpi\n              dup1\n              0xbc25cf77\n              eq\n              tag_24\n              jumpi\n              dup1\n              0xc45a0155\n              eq\n              tag_25\n              jumpi\n              jump(tag_2)\n            tag_31:\n              dup1\n              0x7ecebe00\n              gt\n              tag_33\n              jumpi\n              dup1\n              0x7ecebe00\n              eq\n              tag_19\n              jumpi\n              dup1\n              0x89afcb44\n              eq\n              tag_20\n              jumpi\n              dup1\n              0x95d89b41\n              eq\n              tag_21\n              jumpi\n              dup1\n              0xa9059cbb\n              eq\n              tag_22\n              jumpi\n              jump(tag_2)\n            tag_33:\n              dup1\n              0x6a627842\n              eq\n              tag_16\n              jumpi\n              dup1\n              0x70a08231\n              eq\n              tag_17\n              jumpi\n              dup1\n              0x7464fc3d\n              eq\n              tag_18\n              jumpi\n              jump(tag_2)\n            tag_30:\n              dup1\n              0x23b872dd\n              gt\n              tag_34\n              jumpi\n              dup1\n              0x3644e515\n              gt\n              tag_35\n              jumpi\n              dup1\n              0x3644e515\n              eq\n              tag_12\n              jumpi\n              dup1\n              0x485cc955\n              eq\n              tag_13\n              jumpi\n              dup1\n              0x5909c0d5\n              eq\n              tag_14\n              jumpi\n              dup1\n              0x5a3d5493\n              eq\n              tag_15\n              jumpi\n              jump(tag_2)\n            tag_35:\n              dup1\n              0x23b872dd\n              eq\n              tag_9\n              jumpi\n              dup1\n              0x30adf81f\n              eq\n              tag_10\n              jumpi\n              dup1\n              0x313ce567\n              eq\n              tag_11\n              jumpi\n              jump(tag_2)\n            tag_34:\n              dup1\n              0x095ea7b3\n              gt\n              tag_36\n              jumpi\n              dup1\n              0x095ea7b3\n              eq\n              tag_6\n              jumpi\n              dup1\n              0x0dfe1681\n              eq\n              tag_7\n              jumpi\n              dup1\n              0x18160ddd\n              eq\n              tag_8\n              jumpi\n              jump(tag_2)\n            tag_36:\n              dup1\n              0x022c0d9f\n              eq\n              tag_3\n              jumpi\n              dup1\n              0x06fdde03\n              eq\n              tag_4\n              jumpi\n              dup1\n              0x0902f1ac\n              eq\n              tag_5\n              jumpi\n            tag_2:\n              0x00\n              dup1\n              revert\n                /* \"v2-core-master/contracts/UniswapV2Pair.sol\":7347:9208  function swap(uint amount0Out, uint amount1Out, address to, bytes calldata data) external lock {... */\n            tag_3:\n              tag_37\n              0x04\n              dup1\n              calldatasize\n              sub\n                /* \"--CODEGEN--\":13:16   */\n              0x80\n                /* \"--CODEGEN--\":8:11   */\n              dup2\n                /* \"--CODEGEN--\":5:17   */\n              lt\n                /* \"--CODEGEN--\":2:4   */\n              iszero\n              tag_38\n              jumpi\n                /* \"--CODEGEN--\":30:31   */\n              0x00\n                /* \"--CODEGEN--\":27:28   */\n              dup1\n                /* \"--CODEGEN--\":20:32   */\n              revert\n                /* \"--CODEGEN--\":2:4   */\n            tag_38:\n                /* \"v2-core-master/contracts/UniswapV2Pair.sol\":7347:9208  function swap(uint amount0Out, uint amount1Out, address to, bytes calldata data) external lock {... */\n              dup2\n              calldataload\n              swap2\n              0x20\n              dup2\n              add\n              calldataload\n              swap2\n              0x40\n              dup3\n              add\n              calldataload\n              sub(shl(0xa0, 0x01), 0x01)\n              and\n              swap2\n              swap1\n              dup2\n              add\n              swap1\n              0x80\n              dup2\n              add\n              0x60\n              dup3\n              add\n              calldataload\n                /* \"--CODEGEN--\":21:32   */\n              0x0100000000\n                /* \"--CODEGEN--\":5:33   */\n              dup2\n              gt\n                /* \"--CODEGEN--\":2:4   */\n              iszero\n              tag_39\n              jumpi\n                /* \"--CODEGEN--\":46:47   */\n              0x00\n                /* \"--CODEGEN--\":43:44   */\n              dup1\n                /* \"--CODEGEN--\":36:48   */\n              revert\n                /* \"--CODEGEN--\":2:4   */\n            tag_39:\n                /* \"v2-core-master/contracts/UniswapV2Pair.sol\":7347:9208  function swap(uint amount0Out, uint amount1Out, address to, bytes calldata data) external lock {... */\n              dup3\n              add\n                /* \"--CODEGEN--\":35:44   */\n              dup4\n                /* \"--CODEGEN--\":28:32   */\n              0x20\n                /* \"--CODEGEN--\":12:26   */\n              dup3\n                /* \"--CODEGEN--\":8:33   */\n              add\n                /* \"--CODEGEN--\":5:45   */\n              gt\n                /* \"--CODEGEN--\":2:4   */\n              iszero\n              tag_40\n              jumpi\n                /* \"--CODEGEN--\":58:59   */\n              0x00\n                /* \"--CODEGEN--\":55:56   */\n              dup1\n                /* \"--CODEGEN--\":48:60   */\n              revert\n                /* \"--CODEGEN--\":2:4   */\n            tag_40:\n                /* \"v2-core-master/contracts/UniswapV2Pair.sol\":7347:9208  function swap(uint amount0Out, uint amount1Out, address to, bytes calldata data) external lock {... */\n              dup1\n              calldataload\n              swap1\n              0x20\n              add\n              swap2\n                /* \"--CODEGEN--\":100:109   */\n              dup5\n                /* \"--CODEGEN--\":95:96   */\n              0x01\n                /* \"--CODEGEN--\":81:93   */\n              dup4\n                /* \"--CODEGEN--\":77:97   */\n              mul\n                /* \"--CODEGEN--\":67:75   */\n              dup5\n                /* \"--CODEGEN--\":63:98   */\n              add\n                /* \"--CODEGEN--\":60:110   */\n              gt\n                /* \"--CODEGEN--\":39:50   */\n              0x0100000000\n                /* \"--CODEGEN--\":25:37   */\n              dup4\n                /* \"--CODEGEN--\":22:51   */\n              gt\n                /* \"--CODEGEN--\":11:118   */\n              or\n                /* \"--CODEGEN--\":8:10   */\n              iszero\n              tag_41\n              jumpi\n                /* \"--CODEGEN--\":131:132   */\n              0x00\n                /* \"--CODEGEN--\":128:129   */\n              dup1\n                /* \"--CODEGEN--\":121:133   */\n              revert\n                /* \"--CODEGEN--\":8:10   */\n            tag_41:\n              pop\n                /* \"v2-core-master/contracts/UniswapV2Pair.sol\":7347:9208  function swap(uint amount0Out, uint amount1Out, address to, bytes calldata data) external lock {... */\n              swap1\n              swap3\n              pop\n              swap1\n              pop\n              tag_42\n              jump\t// in\n            tag_37:\n              stop\n                /* \"v2-core-master/contracts/UniswapV2ERC20.sol\":184:228  string public constant name = 'Gabrielaswap' */\n            tag_4:\n              tag_43\n              tag_44\n              jump\t// in\n            tag_43:\n              0x40\n              dup1\n              mload\n              0x20\n              dup1\n              dup3\n              mstore\n              dup4\n              mload\n              dup2\n              dup4\n              add\n              mstore\n              dup4\n              mload\n              swap2\n              swap3\n              dup4\n              swap3\n              swap1\n              dup4\n              add\n              swap2\n              dup6\n              add\n              swap1\n              dup1\n              dup4\n              dup4\n              0x00\n                /* \"--CODEGEN--\":8:108   */\n            tag_45:\n                /* \"--CODEGEN--\":33:36   */\n              dup4\n                /* \"--CODEGEN--\":30:31   */\n              dup2\n                /* \"--CODEGEN--\":27:37   */\n              lt\n                /* \"--CODEGEN--\":8:108   */\n              iszero\n              tag_47\n              jumpi\n                /* \"--CODEGEN--\":90:101   */\n              dup2\n              dup2\n              add\n                /* \"--CODEGEN--\":84:102   */\n              mload\n                /* \"--CODEGEN--\":71:82   */\n              dup4\n              dup3\n              add\n                /* \"--CODEGEN--\":64:103   */\n              mstore\n                /* \"--CODEGEN--\":52:54   */\n              0x20\n                /* \"--CODEGEN--\":45:55   */\n              add\n                /* \"--CODEGEN--\":8:108   */\n              jump(tag_45)\n            tag_47:\n                /* \"--CODEGEN--\":12:26   */\n              pop\n                /* \"v2-core-master/contracts/UniswapV2ERC20.sol\":184:228  string public constant name = 'Gabrielaswap' */\n              pop\n              pop\n              pop\n              swap1\n              pop\n              swap1\n              dup2\n              add\n              swap1\n              0x1f\n              and\n              dup1\n              iszero\n              tag_48\n              jumpi\n              dup1\n              dup3\n              sub\n              dup1\n              mload\n              0x01\n              dup4\n              0x20\n              sub\n              0x0100\n              exp\n              sub\n              not\n              and\n              dup2\n              mstore\n              0x20\n              add\n              swap2\n              pop\n            tag_48:\n              pop\n              swap3\n              pop\n              pop\n              pop\n              mload(0x40)\n              dup1\n              swap2\n              sub\n              swap1\n              return\n                /* \"v2-core-master/contracts/UniswapV2Pair.sol\":1284:1511  function getReserves() public view returns (uint112 _reserve0, uint112 _reserve1, uint32 _blockTimestampLast) {... */\n            tag_5:\n              tag_49\n              tag_50\n              jump\t// in\n            tag_49:\n              0x40\n              dup1\n              mload\n              sub(shl(0x70, 0x01), 0x01)\n              swap5\n              dup6\n              and\n              dup2\n              mstore\n              swap3\n              swap1\n              swap4\n              and\n              0x20\n              dup4\n              add\n              mstore\n              0xffffffff\n              and\n              dup2\n              dup4\n              add\n              mstore\n              swap1\n              mload\n              swap1\n              dup2\n              swap1\n              sub\n              0x60\n              add\n              swap1\n              return\n                /* \"v2-core-master/contracts/UniswapV2ERC20.sol\":2176:2320  function approve(address spender, uint value) external returns (bool) {... */\n            tag_6:\n              tag_51\n              0x04\n              dup1\n              calldatasize\n              sub\n                /* \"--CODEGEN--\":13:15   */\n              0x40\n                /* \"--CODEGEN--\":8:11   */\n              dup2\n                /* \"--CODEGEN--\":5:16   */\n              lt\n                /* \"--CODEGEN--\":2:4   */\n              iszero\n              tag_52\n              jumpi\n                /* \"--CODEGEN--\":29:30   */\n              0x00\n                /* \"--CODEGEN--\":26:27   */\n              dup1\n                /* \"--CODEGEN--\":19:31   */\n              revert\n                /* \"--CODEGEN--\":2:4   */\n            tag_52:\n              pop\n                /* \"v2-core-master/contracts/UniswapV2ERC20.sol\":2176:2320  function approve(address spender, uint value) external returns (bool) {... */\n              dup1\n              calldataload\n              sub(shl(0xa0, 0x01), 0x01)\n              and\n              swap1\n              0x20\n              add\n              calldataload\n              tag_53\n              jump\t// in\n            tag_51:\n              0x40\n              dup1\n              mload\n              swap2\n              iszero\n              iszero\n              dup3\n              mstore\n              mload\n              swap1\n              dup2\n              swap1\n              sub\n              0x20\n              add\n              swap1\n              return\n                /* \"v2-core-master/contracts/UniswapV2Pair.sol\":592:613  address public token0 */\n            tag_7:\n              tag_54\n              tag_55\n              jump\t// in\n            tag_54:\n              0x40\n              dup1\n              mload\n              0x01\n              dup1\n              0xa0\n              shl\n              sub\n              swap1\n              swap3\n              and\n              dup3\n              mstore\n              mload\n              swap1\n              dup2\n              swap1\n              sub\n              0x20\n              add\n              swap1\n              return\n                /* \"v2-core-master/contracts/UniswapV2ERC20.sol\":318:342  uint  public totalSupply */\n            tag_8:\n              tag_56\n              tag_57\n              jump\t// in\n            tag_56:\n              0x40\n              dup1\n              mload\n              swap2\n              dup3\n              mstore\n              mload\n              swap1\n              dup2\n              swap1\n              sub\n              0x20\n              add\n              swap1\n              return\n                /* \"v2-core-master/contracts/UniswapV2ERC20.sol\":2468:2763  function transferFrom(address from, address to, uint value) external returns (bool) {... */\n            tag_9:\n              tag_51\n              0x04\n              dup1\n              calldatasize\n              sub\n                /* \"--CODEGEN--\":13:15   */\n              0x60\n                /* \"--CODEGEN--\":8:11   */\n              dup2\n                /* \"--CODEGEN--\":5:16   */\n              lt\n                /* \"--CODEGEN--\":2:4   */\n              iszero\n              tag_59\n              jumpi\n                /* \"--CODEGEN--\":29:30   */\n              0x00\n                /* \"--CODEGEN--\":26:27   */\n              dup1\n                /* \"--CODEGEN--\":19:31   */\n              revert\n                /* \"--CODEGEN--\":2:4   */\n            tag_59:\n              pop\n              sub(shl(0xa0, 0x01), 0x01)\n                /* \"v2-core-master/contracts/UniswapV2ERC20.sol\":2468:2763  function transferFrom(address from, address to, uint value) external returns (bool) {... */\n              dup2\n              calldataload\n              dup2\n              and\n              swap2\n              0x20\n              dup2\n              add\n              calldataload\n              swap1\n              swap2\n              and\n              swap1\n              0x40\n              add\n              calldataload\n              tag_60\n              jump\t// in\n                /* \"v2-core-master/contracts/UniswapV2ERC20.sol\":604:712  bytes32 public constant PERMIT_TYPEHASH = 0x6e71edae12b1b97f4d1f60370fef10105fa2faae0126114a169c64845d6126c9 */\n            tag_10:\n              tag_56\n              tag_62\n              jump\t// in\n                /* \"v2-core-master/contracts/UniswapV2ERC20.sol\":277:312  uint8 public constant decimals = 18 */\n            tag_11:\n              tag_63\n              tag_64\n              jump\t// in\n            tag_63:\n              0x40\n              dup1\n              mload\n              0xff\n              swap1\n              swap3\n              and\n              dup3\n              mstore\n              mload\n              swap1\n              dup2\n              swap1\n              sub\n              0x20\n              add\n              swap1\n              return\n                /* \"v2-core-master/contracts/UniswapV2ERC20.sol\":463:494  bytes32 public DOMAIN_SEPARATOR */\n            tag_12:\n              tag_56\n              tag_66\n              jump\t// in\n                /* \"v2-core-master/contracts/UniswapV2Pair.sol\":2316:2522  function initialize(address _token0, address _token1) external {... */\n            tag_13:\n              tag_37\n              0x04\n              dup1\n              calldatasize\n              sub\n                /* \"--CODEGEN--\":13:15   */\n              0x40\n                /* \"--CODEGEN--\":8:11   */\n              dup2\n                /* \"--CODEGEN--\":5:16   */\n              lt\n                /* \"--CODEGEN--\":2:4   */\n              iszero\n              tag_68\n              jumpi\n                /* \"--CODEGEN--\":29:30   */\n              0x00\n                /* \"--CODEGEN--\":26:27   */\n              dup1\n                /* \"--CODEGEN--\":19:31   */\n              revert\n                /* \"--CODEGEN--\":2:4   */\n            tag_68:\n              pop\n              sub(shl(0xa0, 0x01), 0x01)\n                /* \"v2-core-master/contracts/UniswapV2Pair.sol\":2316:2522  function initialize(address _token0, address _token1) external {... */\n              dup2\n              calldataload\n              dup2\n              and\n              swap2\n              0x20\n              add\n              calldataload\n              and\n              tag_69\n              jump\t// in\n                /* \"v2-core-master/contracts/UniswapV2Pair.sol\":936:968  uint public price0CumulativeLast */\n            tag_14:\n              tag_56\n              tag_71\n              jump\t// in\n                /* \"v2-core-master/contracts/UniswapV2Pair.sol\":974:1006  uint public price1CumulativeLast */\n            tag_15:\n              tag_56\n              tag_73\n              jump\t// in\n                /* \"v2-core-master/contracts/UniswapV2Pair.sol\":4466:5685  function mint(address to) external lock returns (uint liquidity) {... */\n            tag_16:\n              tag_56\n              0x04\n              dup1\n              calldatasize\n              sub\n                /* \"--CODEGEN--\":13:15   */\n              0x20\n                /* \"--CODEGEN--\":8:11   */\n              dup2\n                /* \"--CODEGEN--\":5:16   */\n              lt\n                /* \"--CODEGEN--\":2:4   */\n              iszero\n              tag_75\n              jumpi\n                /* \"--CODEGEN--\":29:30   */\n              0x00\n                /* \"--CODEGEN--\":26:27   */\n              dup1\n                /* \"--CODEGEN--\":19:31   */\n              revert\n                /* \"--CODEGEN--\":2:4   */\n            tag_75:\n              pop\n                /* \"v2-core-master/contracts/UniswapV2Pair.sol\":4466:5685  function mint(address to) external lock returns (uint liquidity) {... */\n              calldataload\n              sub(shl(0xa0, 0x01), 0x01)\n              and\n              tag_76\n              jump\t// in\n                /* \"v2-core-master/contracts/UniswapV2ERC20.sol\":348:389  mapping(address => uint) public balanceOf */\n            tag_17:\n              tag_56\n              0x04\n              dup1\n              calldatasize\n              sub\n                /* \"--CODEGEN--\":13:15   */\n              0x20\n                /* \"--CODEGEN--\":8:11   */\n              dup2\n                /* \"--CODEGEN--\":5:16   */\n              lt\n                /* \"--CODEGEN--\":2:4   */\n              iszero\n              tag_78\n              jumpi\n                /* \"--CODEGEN--\":29:30   */\n              0x00\n                /* \"--CODEGEN--\":26:27   */\n              dup1\n                /* \"--CODEGEN--\":19:31   */\n              revert\n                /* \"--CODEGEN--\":2:4   */\n            tag_78:\n              pop\n                /* \"v2-core-master/contracts/UniswapV2ERC20.sol\":348:389  mapping(address => uint) public balanceOf */\n              calldataload\n              sub(shl(0xa0, 0x01), 0x01)\n              and\n              tag_79\n              jump\t// in\n                /* \"v2-core-master/contracts/UniswapV2Pair.sol\":1012:1029  uint public kLast */\n            tag_18:\n              tag_56\n              tag_81\n              jump\t// in\n                /* \"v2-core-master/contracts/UniswapV2ERC20.sol\":718:756  mapping(address => uint) public nonces */\n            tag_19:\n              tag_56\n              0x04\n              dup1\n              calldatasize\n              sub\n                /* \"--CODEGEN--\":13:15   */\n              0x20\n                /* \"--CODEGEN--\":8:11   */\n              dup2\n                /* \"--CODEGEN--\":5:16   */\n              lt\n                /* \"--CODEGEN--\":2:4   */\n              iszero\n              tag_83\n              jumpi\n                /* \"--CODEGEN--\":29:30   */\n              0x00\n                /* \"--CODEGEN--\":26:27   */\n              dup1\n                /* \"--CODEGEN--\":19:31   */\n              revert\n                /* \"--CODEGEN--\":2:4   */\n            tag_83:\n              pop\n                /* \"v2-core-master/contracts/UniswapV2ERC20.sol\":718:756  mapping(address => uint) public nonces */\n              calldataload\n              sub(shl(0xa0, 0x01), 0x01)\n              and\n              tag_84\n              jump\t// in\n                /* \"v2-core-master/contracts/UniswapV2Pair.sol\":5794:7238  function burn(address to) external lock returns (uint amount0, uint amount1) {... */\n            tag_20:\n              tag_85\n              0x04\n              dup1\n              calldatasize\n              sub\n                /* \"--CODEGEN--\":13:15   */\n              0x20\n                /* \"--CODEGEN--\":8:11   */\n              dup2\n                /* \"--CODEGEN--\":5:16   */\n              lt\n                /* \"--CODEGEN--\":2:4   */\n              iszero\n              tag_86\n              jumpi\n                /* \"--CODEGEN--\":29:30   */\n              0x00\n                /* \"--CODEGEN--\":26:27   */\n              dup1\n                /* \"--CODEGEN--\":19:31   */\n              revert\n                /* \"--CODEGEN--\":2:4   */\n            tag_86:\n              pop\n                /* \"v2-core-master/contracts/UniswapV2Pair.sol\":5794:7238  function burn(address to) external lock returns (uint amount0, uint amount1) {... */\n              calldataload\n              sub(shl(0xa0, 0x01), 0x01)\n              and\n              tag_87\n              jump\t// in\n            tag_85:\n              0x40\n              dup1\n              mload\n              swap3\n              dup4\n              mstore\n              0x20\n              dup4\n              add\n              swap2\n              swap1\n              swap2\n              mstore\n              dup1\n              mload\n              swap2\n              dup3\n              swap1\n              sub\n              add\n              swap1\n              return\n                /* \"v2-core-master/contracts/UniswapV2ERC20.sol\":234:271  string public constant symbol = 'ELA' */\n            tag_21:\n              tag_43\n              tag_89\n              jump\t// in\n                /* \"v2-core-master/contracts/UniswapV2ERC20.sol\":2326:2462  function transfer(address to, uint value) external returns (bool) {... */\n            tag_22:\n              tag_51\n              0x04\n              dup1\n              calldatasize\n              sub\n                /* \"--CODEGEN--\":13:15   */\n              0x40\n                /* \"--CODEGEN--\":8:11   */\n              dup2\n                /* \"--CODEGEN--\":5:16   */\n              lt\n                /* \"--CODEGEN--\":2:4   */\n              iszero\n              tag_95\n              jumpi\n                /* \"--CODEGEN--\":29:30   */\n              0x00\n                /* \"--CODEGEN--\":26:27   */\n              dup1\n                /* \"--CODEGEN--\":19:31   */\n              revert\n                /* \"--CODEGEN--\":2:4   */\n            tag_95:\n              pop\n                /* \"v2-core-master/contracts/UniswapV2ERC20.sol\":2326:2462  function transfer(address to, uint value) external returns (bool) {... */\n              dup1\n              calldataload\n              sub(shl(0xa0, 0x01), 0x01)\n              and\n              swap1\n              0x20\n              add\n              calldataload\n              tag_96\n              jump\t// in\n                /* \"v2-core-master/contracts/UniswapV2Pair.sol\":417:463  uint public constant MINIMUM_LIQUIDITY = 10**3 */\n            tag_23:\n              tag_56\n              tag_98\n              jump\t// in\n                /* \"v2-core-master/contracts/UniswapV2Pair.sol\":9254:9583  function skim(address to) external lock {... */\n            tag_24:\n              tag_37\n              0x04\n              dup1\n              calldatasize\n              sub\n                /* \"--CODEGEN--\":13:15   */\n              0x20\n                /* \"--CODEGEN--\":8:11   */\n              dup2\n                /* \"--CODEGEN--\":5:16   */\n              lt\n                /* \"--CODEGEN--\":2:4   */\n              iszero\n              tag_100\n              jumpi\n                /* \"--CODEGEN--\":29:30   */\n              0x00\n                /* \"--CODEGEN--\":26:27   */\n              dup1\n                /* \"--CODEGEN--\":19:31   */\n              revert\n                /* \"--CODEGEN--\":2:4   */\n            tag_100:\n              pop\n                /* \"v2-core-master/contracts/UniswapV2Pair.sol\":9254:9583  function skim(address to) external lock {... */\n              calldataload\n              sub(shl(0xa0, 0x01), 0x01)\n              and\n              tag_101\n              jump\t// in\n                /* \"v2-core-master/contracts/UniswapV2Pair.sol\":564:586  address public factory */\n            tag_25:\n              tag_54\n              tag_103\n              jump\t// in\n                /* \"v2-core-master/contracts/UniswapV2Pair.sol\":619:640  address public token1 */\n            tag_26:\n              tag_54\n              tag_105\n              jump\t// in\n                /* \"v2-core-master/contracts/UniswapV2ERC20.sol\":2769:3431  function permit(address owner, address spender, uint value, uint deadline, uint8 v, bytes32 r, bytes32 s) external {... */\n            tag_27:\n              tag_37\n              0x04\n              dup1\n              calldatasize\n              sub\n                /* \"--CODEGEN--\":13:16   */\n              0xe0\n                /* \"--CODEGEN--\":8:11   */\n              dup2\n                /* \"--CODEGEN--\":5:17   */\n              lt\n                /* \"--CODEGEN--\":2:4   */\n              iszero\n              tag_107\n              jumpi\n                /* \"--CODEGEN--\":30:31   */\n              0x00\n                /* \"--CODEGEN--\":27:28   */\n              dup1\n                /* \"--CODEGEN--\":20:32   */\n              revert\n                /* \"--CODEGEN--\":2:4   */\n            tag_107:\n              pop\n              sub(shl(0xa0, 0x01), 0x01)\n                /* \"v2-core-master/contracts/UniswapV2ERC20.sol\":2769:3431  function permit(address owner, address spender, uint value, uint deadline, uint8 v, bytes32 r, bytes32 s) external {... */\n              dup2\n              calldataload\n              dup2\n              and\n              swap2\n              0x20\n              dup2\n              add\n              calldataload\n              swap1\n              swap2\n              and\n              swap1\n              0x40\n              dup2\n              add\n              calldataload\n              swap1\n              0x60\n              dup2\n              add\n              calldataload\n              swap1\n              0xff\n              0x80\n              dup3\n              add\n              calldataload\n              and\n              swap1\n              0xa0\n              dup2\n              add\n              calldataload\n              swap1\n              0xc0\n              add\n              calldataload\n              tag_108\n              jump\t// in\n                /* \"v2-core-master/contracts/UniswapV2ERC20.sol\":395:456  mapping(address => mapping(address => uint)) public allowance */\n            tag_28:\n              tag_56\n              0x04\n              dup1\n              calldatasize\n              sub\n                /* \"--CODEGEN--\":13:15   */\n              0x40\n                /* \"--CODEGEN--\":8:11   */\n              dup2\n                /* \"--CODEGEN--\":5:16   */\n              lt\n                /* \"--CODEGEN--\":2:4   */\n              iszero\n              tag_110\n              jumpi\n                /* \"--CODEGEN--\":29:30   */\n              0x00\n                /* \"--CODEGEN--\":26:27   */\n              dup1\n                /* \"--CODEGEN--\":19:31   */\n              revert\n                /* \"--CODEGEN--\":2:4   */\n            tag_110:\n              pop\n              sub(shl(0xa0, 0x01), 0x01)\n                /* \"v2-core-master/contracts/UniswapV2ERC20.sol\":395:456  mapping(address => mapping(address => uint)) public allowance */\n              dup2\n              calldataload\n              dup2\n              and\n              swap2\n              0x20\n              add\n              calldataload\n              and\n              tag_111\n              jump\t// in\n                /* \"v2-core-master/contracts/UniswapV2Pair.sol\":9629:9785  function sync() external lock {... */\n            tag_29:\n              tag_37\n              tag_113\n              jump\t// in\n                /* \"v2-core-master/contracts/UniswapV2Pair.sol\":7347:9208  function swap(uint amount0Out, uint amount1Out, address to, bytes calldata data) external lock {... */\n            tag_42:\n                /* \"v2-core-master/contracts/UniswapV2Pair.sol\":1181:1189  unlocked */\n              sload(0x0c)\n                /* \"v2-core-master/contracts/UniswapV2Pair.sol\":1193:1194  1 */\n              0x01\n                /* \"v2-core-master/contracts/UniswapV2Pair.sol\":1181:1194  unlocked == 1 */\n              eq\n                /* \"v2-core-master/contracts/UniswapV2Pair.sol\":1173:1216  require(unlocked == 1, 'UniswapV2: LOCKED') */\n              tag_115\n              jumpi\n              0x40\n              dup1\n              mload\n              shl(0xe5, 0x461bcd)\n              dup2\n              mstore\n              0x20\n              0x04\n              dup3\n              add\n              mstore\n              0x11\n              0x24\n              dup3\n              add\n              mstore\n              0x556e697377617056323a204c4f434b4544000000000000000000000000000000\n              0x44\n              dup3\n              add\n              mstore\n              swap1\n              mload\n              swap1\n              dup2\n              swap1\n              sub\n              0x64\n              add\n              swap1\n              revert\n            tag_115:\n                /* \"v2-core-master/contracts/UniswapV2Pair.sol\":1237:1238  0 */\n              0x00\n                /* \"v2-core-master/contracts/UniswapV2Pair.sol\":1226:1234  unlocked */\n              0x0c\n                /* \"v2-core-master/contracts/UniswapV2Pair.sol\":1226:1238  unlocked = 0 */\n              sstore\n                /* \"v2-core-master/contracts/UniswapV2Pair.sol\":7460:7474  amount0Out > 0 */\n              dup5\n              iszero\n              iszero\n              dup1\n                /* \"v2-core-master/contracts/UniswapV2Pair.sol\":7460:7492  amount0Out > 0 || amount1Out > 0 */\n              tag_117\n              jumpi\n              pop\n                /* \"v2-core-master/contracts/UniswapV2Pair.sol\":7491:7492  0 */\n              0x00\n                /* \"v2-core-master/contracts/UniswapV2Pair.sol\":7478:7488  amount1Out */\n              dup5\n                /* \"v2-core-master/contracts/UniswapV2Pair.sol\":7478:7492  amount1Out > 0 */\n              gt\n                /* \"v2-core-master/contracts/UniswapV2Pair.sol\":7460:7492  amount0Out > 0 || amount1Out > 0 */\n            tag_117:\n                /* \"v2-core-master/contracts/UniswapV2Pair.sol\":7452:7534  require(amount0Out > 0 || amount1Out > 0, 'UniswapV2: INSUFFICIENT_OUTPUT_AMOUNT') */\n              tag_118\n              jumpi\n              mload(0x40)\n              shl(0xe5, 0x461bcd)\n              dup2\n              mstore\n              0x04\n              add\n              dup1\n              dup1\n              0x20\n              add\n              dup3\n              dup2\n              sub\n              dup3\n              mstore\n              0x25\n              dup2\n              mstore\n              0x20\n              add\n              dup1\n              data_05339493da7e2cbe77e17beadf6b91132eb307939495f5f1797bf88d95539e83\n              0x25\n              swap2\n              codecopy\n              0x40\n              add\n              swap2\n              pop\n              pop\n              mload(0x40)\n              dup1\n              swap2\n              sub\n              swap1\n              revert\n            tag_118:\n                /* \"v2-core-master/contracts/UniswapV2Pair.sol\":7545:7562  uint112 _reserve0 */\n              0x00\n                /* \"v2-core-master/contracts/UniswapV2Pair.sol\":7564:7581  uint112 _reserve1 */\n              dup1\n                /* \"v2-core-master/contracts/UniswapV2Pair.sol\":7586:7599  getReserves() */\n              tag_119\n                /* \"v2-core-master/contracts/UniswapV2Pair.sol\":7586:7597  getReserves */\n              tag_50\n                /* \"v2-core-master/contracts/UniswapV2Pair.sol\":7586:7599  getReserves() */\n              jump\t// in\n            tag_119:\n              pop\n                /* \"v2-core-master/contracts/UniswapV2Pair.sol\":7544:7599  (uint112 _reserve0, uint112 _reserve1,) = getReserves() */\n              swap1\n              swap3\n              pop\n              swap1\n              pop\n              sub(shl(0x70, 0x01), 0x01)\n                /* \"v2-core-master/contracts/UniswapV2Pair.sol\":7632:7654  amount0Out < _reserve0 */\n              dup3\n              and\n              dup8\n              lt\n                /* \"v2-core-master/contracts/UniswapV2Pair.sol\":7632:7680  amount0Out < _reserve0 && amount1Out < _reserve1 */\n              dup1\n              iszero\n              tag_120\n              jumpi\n              pop\n              sub(shl(0x70, 0x01), 0x01)\n                /* \"v2-core-master/contracts/UniswapV2Pair.sol\":7658:7680  amount1Out < _reserve1 */\n              dup2\n              and\n              dup7\n              lt\n                /* \"v2-core-master/contracts/UniswapV2Pair.sol\":7632:7680  amount0Out < _reserve0 && amount1Out < _reserve1 */\n            tag_120:\n                /* \"v2-core-master/contracts/UniswapV2Pair.sol\":7624:7718  require(amount0Out < _reserve0 && amount1Out < _reserve1, 'UniswapV2: INSUFFICIENT_LIQUIDITY') */\n              tag_121\n              jumpi\n              mload(0x40)\n              shl(0xe5, 0x461bcd)\n              dup2\n              mstore\n              0x04\n              add\n              dup1\n              dup1\n              0x20\n              add\n              dup3\n              dup2\n              sub\n              dup3\n              mstore\n              0x21\n              dup2\n              mstore\n              0x20\n              add\n              dup1\n              data_3f354ef449b2a9b081220ce21f57691008110b653edc191d8288e60cef58bb5f\n              0x21\n              swap2\n              codecopy\n              0x40\n              add\n              swap2\n              pop\n              pop\n              mload(0x40)\n              dup1\n              swap2\n              sub\n              swap1\n              revert\n            tag_121:\n                /* \"v2-core-master/contracts/UniswapV2Pair.sol\":7858:7864  token0 */\n              sload(0x06)\n                /* \"v2-core-master/contracts/UniswapV2Pair.sol\":7892:7898  token1 */\n              sload(0x07)\n                /* \"v2-core-master/contracts/UniswapV2Pair.sol\":7729:7742  uint balance0 */\n              0x00\n              swap2\n              dup3\n              swap2\n              sub(shl(0xa0, 0x01), 0x01)\n                /* \"v2-core-master/contracts/UniswapV2Pair.sol\":7858:7864  token0 */\n              swap2\n              dup3\n              and\n              swap2\n                /* \"v2-core-master/contracts/UniswapV2Pair.sol\":7892:7898  token1 */\n              swap1\n              dup2\n              and\n              swap1\n                /* \"v2-core-master/contracts/UniswapV2Pair.sol\":7916:7929  to != _token0 */\n              dup10\n              and\n              dup3\n              eq\n              dup1\n              iszero\n              swap1\n                /* \"v2-core-master/contracts/UniswapV2Pair.sol\":7916:7946  to != _token0 && to != _token1 */\n              tag_122\n              jumpi\n              pop\n              sub(shl(0xa0, 0x01), 0x01)\n                /* \"v2-core-master/contracts/UniswapV2Pair.sol\":7933:7946  to != _token1 */\n              dup10\n              dup2\n              and\n              swap1\n              dup3\n              and\n              eq\n              iszero\n                /* \"v2-core-master/contracts/UniswapV2Pair.sol\":7916:7946  to != _token0 && to != _token1 */\n            tag_122:\n                /* \"v2-core-master/contracts/UniswapV2Pair.sol\":7908:7972  require(to != _token0 && to != _token1, 'UniswapV2: INVALID_TO') */\n              tag_123\n              jumpi\n              0x40\n              dup1\n              mload\n              shl(0xe5, 0x461bcd)\n              dup2\n              mstore\n              0x20\n              0x04\n              dup3\n              add\n              mstore\n              0x15\n              0x24\n              dup3\n              add\n              mstore\n              0x556e697377617056323a20494e56414c49445f544f0000000000000000000000\n              0x44\n              dup3\n              add\n              mstore\n              swap1\n              mload\n              swap1\n              dup2\n              swap1\n              sub\n              0x64\n              add\n              swap1\n              revert\n            tag_123:\n                /* \"v2-core-master/contracts/UniswapV2Pair.sol\":7986:8000  amount0Out > 0 */\n              dup11\n              iszero\n                /* \"v2-core-master/contracts/UniswapV2Pair.sol\":7982:8040  if (amount0Out > 0) _safeTransfer(_token0, to, amount0Out) */\n              tag_125\n              jumpi\n                /* \"v2-core-master/contracts/UniswapV2Pair.sol\":8002:8040  _safeTransfer(_token0, to, amount0Out) */\n              tag_125\n                /* \"v2-core-master/contracts/UniswapV2Pair.sol\":8016:8023  _token0 */\n              dup3\n                /* \"v2-core-master/contracts/UniswapV2Pair.sol\":8025:8027  to */\n              dup11\n                /* \"v2-core-master/contracts/UniswapV2Pair.sol\":8029:8039  amount0Out */\n              dup14\n                /* \"v2-core-master/contracts/UniswapV2Pair.sol\":8002:8015  _safeTransfer */\n              tag_126\n                /* \"v2-core-master/contracts/UniswapV2Pair.sol\":8002:8040  _safeTransfer(_token0, to, amount0Out) */\n              jump\t// in\n            tag_125:\n                /* \"v2-core-master/contracts/UniswapV2Pair.sol\":8088:8102  amount1Out > 0 */\n              dup10\n              iszero\n                /* \"v2-core-master/contracts/UniswapV2Pair.sol\":8084:8142  if (amount1Out > 0) _safeTransfer(_token1, to, amount1Out) */\n              tag_128\n              jumpi\n                /* \"v2-core-master/contracts/UniswapV2Pair.sol\":8104:8142  _safeTransfer(_token1, to, amount1Out) */\n              tag_128\n                /* \"v2-core-master/contracts/UniswapV2Pair.sol\":8118:8125  _token1 */\n              dup2\n                /* \"v2-core-master/contracts/UniswapV2Pair.sol\":8127:8129  to */\n              dup11\n                /* \"v2-core-master/contracts/UniswapV2Pair.sol\":8131:8141  amount1Out */\n              dup13\n                /* \"v2-core-master/contracts/UniswapV2Pair.sol\":8104:8117  _safeTransfer */\n              tag_126\n                /* \"v2-core-master/contracts/UniswapV2Pair.sol\":8104:8142  _safeTransfer(_token1, to, amount1Out) */\n              jump\t// in\n            tag_128:\n                /* \"v2-core-master/contracts/UniswapV2Pair.sol\":8190:8205  data.length > 0 */\n              dup7\n              iszero\n                /* \"v2-core-master/contracts/UniswapV2Pair.sol\":8186:8283  if (data.length > 0) IUniswapV2Callee(to).uniswapV2Call(msg.sender, amount0Out, amount1Out, data) */\n              tag_129\n              jumpi\n                /* \"v2-core-master/contracts/UniswapV2Pair.sol\":8224:8226  to */\n              dup9\n              0x01\n              dup1\n              0xa0\n              shl\n              sub\n                /* \"v2-core-master/contracts/UniswapV2Pair.sol\":8207:8241  IUniswapV2Callee(to).uniswapV2Call */\n              and\n              0x10d1e85c\n                /* \"v2-core-master/contracts/UniswapV2Pair.sol\":8242:8252  msg.sender */\n              caller\n                /* \"v2-core-master/contracts/UniswapV2Pair.sol\":8254:8264  amount0Out */\n              dup14\n                /* \"v2-core-master/contracts/UniswapV2Pair.sol\":8266:8276  amount1Out */\n              dup14\n                /* \"v2-core-master/contracts/UniswapV2Pair.sol\":8278:8282  data */\n              dup13\n              dup13\n                /* \"v2-core-master/contracts/UniswapV2Pair.sol\":8207:8283  IUniswapV2Callee(to).uniswapV2Call(msg.sender, amount0Out, amount1Out, data) */\n              mload(0x40)\n              dup7\n              0xffffffff\n              and\n              0xe0\n              shl\n              dup2\n              mstore\n              0x04\n              add\n              dup1\n              dup7\n              0x01\n              dup1\n              0xa0\n              shl\n              sub\n              and\n              0x01\n              dup1\n              0xa0\n              shl\n              sub\n              and\n              dup2\n              mstore\n              0x20\n              add\n              dup6\n              dup2\n              mstore\n              0x20\n              add\n              dup5\n              dup2\n              mstore\n              0x20\n              add\n              dup1\n              0x20\n              add\n              dup3\n              dup2\n              sub\n              dup3\n              mstore\n              dup5\n              dup5\n              dup3\n              dup2\n              dup2\n              mstore\n              0x20\n              add\n              swap3\n              pop\n                /* \"--CODEGEN--\":30:33   */\n              dup1\n                /* \"--CODEGEN--\":22:28   */\n              dup3\n                /* \"--CODEGEN--\":14:20   */\n              dup5\n                /* \"--CODEGEN--\":1:34   */\n              calldatacopy\n                /* \"--CODEGEN--\":99:100   */\n              0x00\n                /* \"--CODEGEN--\":93:96   */\n              dup2\n                /* \"--CODEGEN--\":85:91   */\n              dup5\n                /* \"--CODEGEN--\":81:97   */\n              add\n                /* \"--CODEGEN--\":74:101   */\n              mstore\n                /* \"--CODEGEN--\":137:141   */\n              0x1f\n                /* \"--CODEGEN--\":133:142   */\n              not\n                /* \"--CODEGEN--\":126:130   */\n              0x1f\n                /* \"--CODEGEN--\":121:124   */\n              dup3\n                /* \"--CODEGEN--\":117:131   */\n              add\n                /* \"--CODEGEN--\":113:143   */\n              and\n                /* \"--CODEGEN--\":106:143   */\n              swap1\n              pop\n                /* \"--CODEGEN--\":169:172   */\n              dup1\n                /* \"--CODEGEN--\":161:167   */\n              dup4\n                /* \"--CODEGEN--\":157:173   */\n              add\n                /* \"--CODEGEN--\":147:173   */\n              swap3\n              pop\n                /* \"v2-core-master/contracts/UniswapV2Pair.sol\":8207:8283  IUniswapV2Callee(to).uniswapV2Call(msg.sender, amount0Out, amount1Out, data) */\n              pop\n              pop\n              swap7\n              pop\n              pop\n              pop\n              pop\n              pop\n              pop\n              pop\n              0x00\n              mload(0x40)\n              dup1\n              dup4\n              sub\n              dup2\n              0x00\n              dup8\n              dup1\n              extcodesize\n              iszero\n                /* \"--CODEGEN--\":8:17   */\n              dup1\n                /* \"--CODEGEN--\":5:7   */\n              iszero\n              tag_130\n              jumpi\n                /* \"--CODEGEN--\":30:31   */\n              0x00\n                /* \"--CODEGEN--\":27:28   */\n              dup1\n                /* \"--CODEGEN--\":20:32   */\n              revert\n                /* \"--CODEGEN--\":5:7   */\n            tag_130:\n                /* \"v2-core-master/contracts/UniswapV2Pair.sol\":8207:8283  IUniswapV2Callee(to).uniswapV2Call(msg.sender, amount0Out, amount1Out, data) */\n              pop\n              gas\n              call\n              iszero\n                /* \"--CODEGEN--\":8:17   */\n              dup1\n                /* \"--CODEGEN--\":5:7   */\n              iszero\n              tag_131\n              jumpi\n                /* \"--CODEGEN--\":45:61   */\n              returndatasize\n                /* \"--CODEGEN--\":42:43   */\n              0x00\n                /* \"--CODEGEN--\":39:40   */\n              dup1\n                /* \"--CODEGEN--\":24:62   */\n              returndatacopy\n                /* \"--CODEGEN--\":77:93   */\n              returndatasize\n                /* \"--CODEGEN--\":74:75   */\n              0x00\n                /* \"--CODEGEN--\":67:94   */\n              revert\n                /* \"--CODEGEN--\":5:7   */\n            tag_131:\n                /* \"v2-core-master/contracts/UniswapV2Pair.sol\":8207:8283  IUniswapV2Callee(to).uniswapV2Call(msg.sender, amount0Out, amount1Out, data) */\n              pop\n              pop\n              pop\n              pop\n                /* \"v2-core-master/contracts/UniswapV2Pair.sol\":8186:8283  if (data.length > 0) IUniswapV2Callee(to).uniswapV2Call(msg.sender, amount0Out, amount1Out, data) */\n            tag_129:\n                /* \"v2-core-master/contracts/UniswapV2Pair.sol\":8304:8344  IERC20(_token0).balanceOf(address(this)) */\n              0x40\n              dup1\n              mload\n              shl(0xe0, 0x70a08231)\n              dup2\n              mstore\n                /* \"v2-core-master/contracts/UniswapV2Pair.sol\":8338:8342  this */\n              address\n                /* \"v2-core-master/contracts/UniswapV2Pair.sol\":8304:8344  IERC20(_token0).balanceOf(address(this)) */\n              0x04\n              dup3\n              add\n              mstore\n              swap1\n              mload\n              sub(shl(0xa0, 0x01), 0x01)\n                /* \"v2-core-master/contracts/UniswapV2Pair.sol\":8304:8329  IERC20(_token0).balanceOf */\n              dup5\n              and\n              swap2\n              0x70a08231\n              swap2\n                /* \"v2-core-master/contracts/UniswapV2Pair.sol\":8304:8344  IERC20(_token0).balanceOf(address(this)) */\n              0x24\n              dup1\n              dup4\n              add\n              swap3\n              0x20\n              swap3\n              swap2\n              swap1\n              dup3\n              swap1\n              sub\n              add\n              dup2\n                /* \"v2-core-master/contracts/UniswapV2Pair.sol\":8304:8329  IERC20(_token0).balanceOf */\n              dup7\n                /* \"v2-core-master/contracts/UniswapV2Pair.sol\":8304:8344  IERC20(_token0).balanceOf(address(this)) */\n              dup1\n              extcodesize\n              iszero\n                /* \"--CODEGEN--\":5:7   */\n              dup1\n              iszero\n              tag_132\n              jumpi\n                /* \"--CODEGEN--\":30:31   */\n              0x00\n                /* \"--CODEGEN--\":27:28   */\n              dup1\n                /* \"--CODEGEN--\":20:32   */\n              revert\n                /* \"--CODEGEN--\":5:7   */\n            tag_132:\n                /* \"v2-core-master/contracts/UniswapV2Pair.sol\":8304:8344  IERC20(_token0).balanceOf(address(this)) */\n              pop\n              gas\n              staticcall\n              iszero\n                /* \"--CODEGEN--\":8:17   */\n              dup1\n                /* \"--CODEGEN--\":5:7   */\n              iszero\n              tag_133\n              jumpi\n                /* \"--CODEGEN--\":45:61   */\n              returndatasize\n                /* \"--CODEGEN--\":42:43   */\n              0x00\n                /* \"--CODEGEN--\":39:40   */\n              dup1\n                /* \"--CODEGEN--\":24:62   */\n              returndatacopy\n                /* \"--CODEGEN--\":77:93   */\n              returndatasize\n                /* \"--CODEGEN--\":74:75   */\n              0x00\n                /* \"--CODEGEN--\":67:94   */\n              revert\n                /* \"--CODEGEN--\":5:7   */\n            tag_133:\n                /* \"v2-core-master/contracts/UniswapV2Pair.sol\":8304:8344  IERC20(_token0).balanceOf(address(this)) */\n              pop\n              pop\n              pop\n              pop\n              mload(0x40)\n              returndatasize\n                /* \"--CODEGEN--\":13:15   */\n              0x20\n                /* \"--CODEGEN--\":8:11   */\n              dup2\n                /* \"--CODEGEN--\":5:16   */\n              lt\n                /* \"--CODEGEN--\":2:4   */\n              iszero\n              tag_134\n              jumpi\n                /* \"--CODEGEN--\":29:30   */\n              0x00\n                /* \"--CODEGEN--\":26:27   */\n              dup1\n                /* \"--CODEGEN--\":19:31   */\n              revert\n                /* \"--CODEGEN--\":2:4   */\n            tag_134:\n              pop\n                /* \"v2-core-master/contracts/UniswapV2Pair.sol\":8304:8344  IERC20(_token0).balanceOf(address(this)) */\n              mload\n                /* \"v2-core-master/contracts/UniswapV2Pair.sol\":8365:8405  IERC20(_token1).balanceOf(address(this)) */\n              0x40\n              dup1\n              mload\n              shl(0xe0, 0x70a08231)\n              dup2\n              mstore\n                /* \"v2-core-master/contracts/UniswapV2Pair.sol\":8399:8403  this */\n              address\n                /* \"v2-core-master/contracts/UniswapV2Pair.sol\":8365:8405  IERC20(_token1).balanceOf(address(this)) */\n              0x04\n              dup3\n              add\n              mstore\n              swap1\n              mload\n                /* \"v2-core-master/contracts/UniswapV2Pair.sol\":8304:8344  IERC20(_token0).balanceOf(address(this)) */\n              swap2\n              swap6\n              pop\n              sub(shl(0xa0, 0x01), 0x01)\n                /* \"v2-core-master/contracts/UniswapV2Pair.sol\":8365:8390  IERC20(_token1).balanceOf */\n              dup4\n              and\n              swap2\n              0x70a08231\n              swap2\n                /* \"v2-core-master/contracts/UniswapV2Pair.sol\":8365:8405  IERC20(_token1).balanceOf(address(this)) */\n              0x24\n              dup1\n              dup3\n              add\n              swap3\n                /* \"v2-core-master/contracts/UniswapV2Pair.sol\":8304:8344  IERC20(_token0).balanceOf(address(this)) */\n              0x20\n              swap3\n                /* \"v2-core-master/contracts/UniswapV2Pair.sol\":8365:8405  IERC20(_token1).balanceOf(address(this)) */\n              swap1\n              swap2\n              swap1\n              dup3\n              swap1\n              sub\n              add\n              dup2\n                /* \"v2-core-master/contracts/UniswapV2Pair.sol\":8365:8390  IERC20(_token1).balanceOf */\n              dup7\n                /* \"v2-core-master/contracts/UniswapV2Pair.sol\":8365:8405  IERC20(_token1).balanceOf(address(this)) */\n              dup1\n              extcodesize\n              iszero\n                /* \"--CODEGEN--\":5:7   */\n              dup1\n              iszero\n              tag_135\n              jumpi\n                /* \"--CODEGEN--\":30:31   */\n              0x00\n                /* \"--CODEGEN--\":27:28   */\n              dup1\n                /* \"--CODEGEN--\":20:32   */\n              revert\n                /* \"--CODEGEN--\":5:7   */\n            tag_135:\n                /* \"v2-core-master/contracts/UniswapV2Pair.sol\":8365:8405  IERC20(_token1).balanceOf(address(this)) */\n              pop\n              gas\n              staticcall\n              iszero\n                /* \"--CODEGEN--\":8:17   */\n              dup1\n                /* \"--CODEGEN--\":5:7   */\n              iszero\n              tag_136\n              jumpi\n                /* \"--CODEGEN--\":45:61   */\n              returndatasize\n                /* \"--CODEGEN--\":42:43   */\n              0x00\n                /* \"--CODEGEN--\":39:40   */\n              dup1\n                /* \"--CODEGEN--\":24:62   */\n              returndatacopy\n                /* \"--CODEGEN--\":77:93   */\n              returndatasize\n                /* \"--CODEGEN--\":74:75   */\n              0x00\n                /* \"--CODEGEN--\":67:94   */\n              revert\n                /* \"--CODEGEN--\":5:7   */\n            tag_136:\n                /* \"v2-core-master/contracts/UniswapV2Pair.sol\":8365:8405  IERC20(_token1).balanceOf(address(this)) */\n              pop\n              pop\n              pop\n              pop\n              mload(0x40)\n              returndatasize\n                /* \"--CODEGEN--\":13:15   */\n              0x20\n                /* \"--CODEGEN--\":8:11   */\n              dup2\n                /* \"--CODEGEN--\":5:16   */\n              lt\n                /* \"--CODEGEN--\":2:4   */\n              iszero\n              tag_137\n              jumpi\n                /* \"--CODEGEN--\":29:30   */\n              0x00\n                /* \"--CODEGEN--\":26:27   */\n              dup1\n                /* \"--CODEGEN--\":19:31   */\n              revert\n                /* \"--CODEGEN--\":2:4   */\n            tag_137:\n              pop\n                /* \"v2-core-master/contracts/UniswapV2Pair.sol\":8365:8405  IERC20(_token1).balanceOf(address(this)) */\n              mload\n              swap3\n              pop\n                /* \"v2-core-master/contracts/UniswapV2Pair.sol\":8425:8439  uint amount0In */\n              0x00\n              swap2\n              pop\n              pop\n              sub(shl(0x70, 0x01), 0x01)\n                /* \"v2-core-master/contracts/UniswapV2Pair.sol\":8453:8475  _reserve0 - amount0Out */\n              dup6\n              and\n              dup11\n              swap1\n              sub\n                /* \"v2-core-master/contracts/UniswapV2Pair.sol\":8442:8475  balance0 > _reserve0 - amount0Out */\n              dup4\n              gt\n                /* \"v2-core-master/contracts/UniswapV2Pair.sol\":8442:8517  balance0 > _reserve0 - amount0Out ? balance0 - (_reserve0 - amount0Out) : 0 */\n              tag_138\n              jumpi\n                /* \"v2-core-master/contracts/UniswapV2Pair.sol\":8516:8517  0 */\n              0x00\n                /* \"v2-core-master/contracts/UniswapV2Pair.sol\":8442:8517  balance0 > _reserve0 - amount0Out ? balance0 - (_reserve0 - amount0Out) : 0 */\n              jump(tag_139)\n            tag_138:\n              sub(shl(0x70, 0x01), 0x01)\n                /* \"v2-core-master/contracts/UniswapV2Pair.sol\":8490:8512  _reserve0 - amount0Out */\n              dup6\n              and\n              dup11\n              swap1\n              sub\n                /* \"v2-core-master/contracts/UniswapV2Pair.sol\":8478:8513  balance0 - (_reserve0 - amount0Out) */\n              dup4\n              sub\n                /* \"v2-core-master/contracts/UniswapV2Pair.sol\":8442:8517  balance0 > _reserve0 - amount0Out ? balance0 - (_reserve0 - amount0Out) : 0 */\n            tag_139:\n                /* \"v2-core-master/contracts/UniswapV2Pair.sol\":8425:8517  uint amount0In = balance0 > _reserve0 - amount0Out ? balance0 - (_reserve0 - amount0Out) : 0 */\n              swap1\n              pop\n                /* \"v2-core-master/contracts/UniswapV2Pair.sol\":8527:8541  uint amount1In */\n              0x00\n              sub(shl(0x70, 0x01), 0x01)\n                /* \"v2-core-master/contracts/UniswapV2Pair.sol\":8555:8577  _reserve1 - amount1Out */\n              dup6\n              and\n              dup11\n              swap1\n              sub\n                /* \"v2-core-master/contracts/UniswapV2Pair.sol\":8544:8577  balance1 > _reserve1 - amount1Out */\n              dup4\n              gt\n                /* \"v2-core-master/contracts/UniswapV2Pair.sol\":8544:8619  balance1 > _reserve1 - amount1Out ? balance1 - (_reserve1 - amount1Out) : 0 */\n              tag_140\n              jumpi\n                /* \"v2-core-master/contracts/UniswapV2Pair.sol\":8618:8619  0 */\n              0x00\n                /* \"v2-core-master/contracts/UniswapV2Pair.sol\":8544:8619  balance1 > _reserve1 - amount1Out ? balance1 - (_reserve1 - amount1Out) : 0 */\n              jump(tag_141)\n            tag_140:\n              sub(shl(0x70, 0x01), 0x01)\n                /* \"v2-core-master/contracts/UniswapV2Pair.sol\":8592:8614  _reserve1 - amount1Out */\n              dup6\n              and\n              dup11\n              swap1\n              sub\n                /* \"v2-core-master/contracts/UniswapV2Pair.sol\":8580:8615  balance1 - (_reserve1 - amount1Out) */\n              dup4\n              sub\n                /* \"v2-core-master/contracts/UniswapV2Pair.sol\":8544:8619  balance1 > _reserve1 - amount1Out ? balance1 - (_reserve1 - amount1Out) : 0 */\n            tag_141:\n                /* \"v2-core-master/contracts/UniswapV2Pair.sol\":8527:8619  uint amount1In = balance1 > _reserve1 - amount1Out ? balance1 - (_reserve1 - amount1Out) : 0 */\n              swap1\n              pop\n                /* \"v2-core-master/contracts/UniswapV2Pair.sol\":8649:8650  0 */\n              0x00\n                /* \"v2-core-master/contracts/UniswapV2Pair.sol\":8637:8646  amount0In */\n              dup3\n                /* \"v2-core-master/contracts/UniswapV2Pair.sol\":8637:8650  amount0In > 0 */\n              gt\n                /* \"v2-core-master/contracts/UniswapV2Pair.sol\":8637:8667  amount0In > 0 || amount1In > 0 */\n              dup1\n              tag_142\n              jumpi\n              pop\n                /* \"v2-core-master/contracts/UniswapV2Pair.sol\":8666:8667  0 */\n              0x00\n                /* \"v2-core-master/contracts/UniswapV2Pair.sol\":8654:8663  amount1In */\n              dup2\n                /* \"v2-core-master/contracts/UniswapV2Pair.sol\":8654:8667  amount1In > 0 */\n              gt\n                /* \"v2-core-master/contracts/UniswapV2Pair.sol\":8637:8667  amount0In > 0 || amount1In > 0 */\n            tag_142:\n                /* \"v2-core-master/contracts/UniswapV2Pair.sol\":8629:8708  require(amount0In > 0 || amount1In > 0, 'UniswapV2: INSUFFICIENT_INPUT_AMOUNT') */\n              tag_143\n              jumpi\n              mload(0x40)\n              shl(0xe5, 0x461bcd)\n              dup2\n              mstore\n              0x04\n              add\n              dup1\n              dup1\n              0x20\n              add\n              dup3\n              dup2\n              sub\n              dup3\n              mstore\n              0x24\n              dup2\n              mstore\n              0x20\n              add\n              dup1\n              data_10e2efc32d8a31d3b2c11a545b3ed09c2dbabc58ef6de4033929d0002e425b67\n              0x24\n              swap2\n              codecopy\n              0x40\n              add\n              swap2\n              pop\n              pop\n              mload(0x40)\n              dup1\n              swap2\n              sub\n              swap1\n              revert\n            tag_143:\n                /* \"v2-core-master/contracts/UniswapV2Pair.sol\":8792:8813  uint balance0Adjusted */\n              0x00\n                /* \"v2-core-master/contracts/UniswapV2Pair.sol\":8816:8856  balance0.mul(1000).sub(amount0In.mul(3)) */\n              tag_144\n                /* \"v2-core-master/contracts/UniswapV2Pair.sol\":8839:8855  amount0In.mul(3) */\n              tag_145\n                /* \"v2-core-master/contracts/UniswapV2Pair.sol\":8839:8848  amount0In */\n              dup5\n                /* \"v2-core-master/contracts/UniswapV2Pair.sol\":8853:8854  3 */\n              0x03\n                /* \"v2-core-master/contracts/UniswapV2Pair.sol\":8839:8855  amount0In.mul(3) */\n              0xffffffff\n                /* \"v2-core-master/contracts/UniswapV2Pair.sol\":8839:8852  amount0In.mul */\n              tag_146\n                /* \"v2-core-master/contracts/UniswapV2Pair.sol\":8839:8855  amount0In.mul(3) */\n              and\n              jump\t// in\n            tag_145:\n                /* \"v2-core-master/contracts/UniswapV2Pair.sol\":8816:8834  balance0.mul(1000) */\n              tag_147\n                /* \"v2-core-master/contracts/UniswapV2Pair.sol\":8816:8824  balance0 */\n              dup8\n                /* \"v2-core-master/contracts/UniswapV2Pair.sol\":8829:8833  1000 */\n              0x03e8\n                /* \"v2-core-master/contracts/UniswapV2Pair.sol\":8816:8834  balance0.mul(1000) */\n              0xffffffff\n                /* \"v2-core-master/contracts/UniswapV2Pair.sol\":8816:8828  balance0.mul */\n              tag_146\n                /* \"v2-core-master/contracts/UniswapV2Pair.sol\":8816:8834  balance0.mul(1000) */\n              and\n              jump\t// in\n            tag_147:\n                /* \"v2-core-master/contracts/UniswapV2Pair.sol\":8816:8838  balance0.mul(1000).sub */\n              swap1\n                /* \"v2-core-master/contracts/UniswapV2Pair.sol\":8816:8856  balance0.mul(1000).sub(amount0In.mul(3)) */\n              0xffffffff\n                /* \"v2-core-master/contracts/UniswapV2Pair.sol\":8816:8838  balance0.mul(1000).sub */\n              tag_148\n                /* \"v2-core-master/contracts/UniswapV2Pair.sol\":8816:8856  balance0.mul(1000).sub(amount0In.mul(3)) */\n              and\n              jump\t// in\n            tag_144:\n                /* \"v2-core-master/contracts/UniswapV2Pair.sol\":8792:8856  uint balance0Adjusted = balance0.mul(1000).sub(amount0In.mul(3)) */\n              swap1\n              pop\n                /* \"v2-core-master/contracts/UniswapV2Pair.sol\":8866:8887  uint balance1Adjusted */\n              0x00\n                /* \"v2-core-master/contracts/UniswapV2Pair.sol\":8890:8930  balance1.mul(1000).sub(amount1In.mul(3)) */\n              tag_149\n                /* \"v2-core-master/contracts/UniswapV2Pair.sol\":8913:8929  amount1In.mul(3) */\n              tag_145\n                /* \"v2-core-master/contracts/UniswapV2Pair.sol\":8913:8922  amount1In */\n              dup5\n                /* \"v2-core-master/contracts/UniswapV2Pair.sol\":8927:8928  3 */\n              0x03\n                /* \"v2-core-master/contracts/UniswapV2Pair.sol\":8913:8929  amount1In.mul(3) */\n              0xffffffff\n                /* \"v2-core-master/contracts/UniswapV2Pair.sol\":8913:8926  amount1In.mul */\n              tag_146\n                /* \"v2-core-master/contracts/UniswapV2Pair.sol\":8913:8929  amount1In.mul(3) */\n              and\n              jump\t// in\n                /* \"v2-core-master/contracts/UniswapV2Pair.sol\":8890:8930  balance1.mul(1000).sub(amount1In.mul(3)) */\n            tag_149:\n                /* \"v2-core-master/contracts/UniswapV2Pair.sol\":8866:8930  uint balance1Adjusted = balance1.mul(1000).sub(amount1In.mul(3)) */\n              swap1\n              pop\n                /* \"v2-core-master/contracts/UniswapV2Pair.sol\":8990:9033  uint(_reserve0).mul(_reserve1).mul(1000**2) */\n              tag_152\n                /* \"v2-core-master/contracts/UniswapV2Pair.sol\":9025:9032  1000**2 */\n              0x0f4240\n                /* \"v2-core-master/contracts/UniswapV2Pair.sol\":8990:9020  uint(_reserve0).mul(_reserve1) */\n              tag_153\n              sub(shl(0x70, 0x01), 0x01)\n                /* \"v2-core-master/contracts/UniswapV2Pair.sol\":8990:9005  uint(_reserve0) */\n              dup12\n              dup2\n              and\n              swap1\n                /* \"v2-core-master/contracts/UniswapV2Pair.sol\":8990:9020  uint(_reserve0).mul(_reserve1) */\n              dup12\n              and\n                /* \"v2-core-master/contracts/UniswapV2Pair.sol\":8990:9009  uint(_reserve0).mul */\n              tag_146\n                /* \"v2-core-master/contracts/UniswapV2Pair.sol\":8990:9020  uint(_reserve0).mul(_reserve1) */\n              jump\t// in\n            tag_153:\n                /* \"v2-core-master/contracts/UniswapV2Pair.sol\":8990:9024  uint(_reserve0).mul(_reserve1).mul */\n              swap1\n                /* \"v2-core-master/contracts/UniswapV2Pair.sol\":8990:9033  uint(_reserve0).mul(_reserve1).mul(1000**2) */\n              0xffffffff\n                /* \"v2-core-master/contracts/UniswapV2Pair.sol\":8990:9024  uint(_reserve0).mul(_reserve1).mul */\n              tag_146\n                /* \"v2-core-master/contracts/UniswapV2Pair.sol\":8990:9033  uint(_reserve0).mul(_reserve1).mul(1000**2) */\n              and\n              jump\t// in\n            tag_152:\n                /* \"v2-core-master/contracts/UniswapV2Pair.sol\":8948:8986  balance0Adjusted.mul(balance1Adjusted) */\n              tag_154\n                /* \"v2-core-master/contracts/UniswapV2Pair.sol\":8948:8964  balance0Adjusted */\n              dup4\n                /* \"v2-core-master/contracts/UniswapV2Pair.sol\":8969:8985  balance1Adjusted */\n              dup4\n                /* \"v2-core-master/contracts/UniswapV2Pair.sol\":8948:8986  balance0Adjusted.mul(balance1Adjusted) */\n              0xffffffff\n                /* \"v2-core-master/contracts/UniswapV2Pair.sol\":8948:8968  balance0Adjusted.mul */\n              tag_146\n                /* \"v2-core-master/contracts/UniswapV2Pair.sol\":8948:8986  balance0Adjusted.mul(balance1Adjusted) */\n              and\n              jump\t// in\n            tag_154:\n                /* \"v2-core-master/contracts/UniswapV2Pair.sol\":8948:9033  balance0Adjusted.mul(balance1Adjusted) >= uint(_reserve0).mul(_reserve1).mul(1000**2) */\n              lt\n              iszero\n                /* \"v2-core-master/contracts/UniswapV2Pair.sol\":8940:9050  require(balance0Adjusted.mul(balance1Adjusted) >= uint(_reserve0).mul(_reserve1).mul(1000**2), 'UniswapV2: K') */\n              tag_155\n              jumpi\n              0x40\n              dup1\n              mload\n              shl(0xe5, 0x461bcd)\n              dup2\n              mstore\n              0x20\n              0x04\n              dup3\n              add\n              mstore\n              0x0c\n              0x24\n              dup3\n              add\n              mstore\n              0x556e697377617056323a204b0000000000000000000000000000000000000000\n              0x44\n              dup3\n              add\n              mstore\n              swap1\n              mload\n              swap1\n              dup2\n              swap1\n              sub\n              0x64\n              add\n              swap1\n              revert\n            tag_155:\n                /* \"v2-core-master/contracts/UniswapV2Pair.sol\":1248:1249  _ */\n              pop\n              pop\n                /* \"v2-core-master/contracts/UniswapV2Pair.sol\":9071:9120  _update(balance0, balance1, _reserve0, _reserve1) */\n              tag_156\n                /* \"v2-core-master/contracts/UniswapV2Pair.sol\":9079:9087  balance0 */\n              dup5\n                /* \"v2-core-master/contracts/UniswapV2Pair.sol\":9089:9097  balance1 */\n              dup5\n                /* \"v2-core-master/contracts/UniswapV2Pair.sol\":9099:9108  _reserve0 */\n              dup9\n                /* \"v2-core-master/contracts/UniswapV2Pair.sol\":9110:9119  _reserve1 */\n              dup9\n                /* \"v2-core-master/contracts/UniswapV2Pair.sol\":9071:9078  _update */\n              tag_157\n                /* \"v2-core-master/contracts/UniswapV2Pair.sol\":9071:9120  _update(balance0, balance1, _reserve0, _reserve1) */\n              jump\t// in\n            tag_156:\n                /* \"v2-core-master/contracts/UniswapV2Pair.sol\":9135:9201  Swap(msg.sender, amount0In, amount1In, amount0Out, amount1Out, to) */\n              0x40\n              dup1\n              mload\n              dup4\n              dup2\n              mstore\n              0x20\n              dup2\n              add\n              dup4\n              swap1\n              mstore\n              dup1\n              dup3\n              add\n              dup14\n              swap1\n              mstore\n              0x60\n              dup2\n              add\n              dup13\n              swap1\n              mstore\n              swap1\n              mload\n              sub(shl(0xa0, 0x01), 0x01)\n              dup12\n              and\n              swap2\n                /* \"v2-core-master/contracts/UniswapV2Pair.sol\":9140:9150  msg.sender */\n              caller\n              swap2\n                /* \"v2-core-master/contracts/UniswapV2Pair.sol\":9135:9201  Swap(msg.sender, amount0In, amount1In, amount0Out, amount1Out, to) */\n              0xd78ad95fa46c994b6551d0da85fc275fe613ce37657fb8d5e3d130840159d822\n              swap2\n              dup2\n              swap1\n              sub\n              0x80\n              add\n              swap1\n              log3\n              pop\n              pop\n                /* \"v2-core-master/contracts/UniswapV2Pair.sol\":1270:1271  1 */\n              0x01\n                /* \"v2-core-master/contracts/UniswapV2Pair.sol\":1259:1267  unlocked */\n              0x0c\n                /* \"v2-core-master/contracts/UniswapV2Pair.sol\":1259:1271  unlocked = 1 */\n              sstore\n              pop\n              pop\n              pop\n              pop\n              pop\n              pop\n              pop\n              pop\n              pop\n                /* \"v2-core-master/contracts/UniswapV2Pair.sol\":7347:9208  function swap(uint amount0Out, uint amount1Out, address to, bytes calldata data) external lock {... */\n              jump\t// out\n                /* \"v2-core-master/contracts/UniswapV2ERC20.sol\":184:228  string public constant name = 'Gabrielaswap' */\n            tag_44:\n              mload(0x40)\n              dup1\n              0x40\n              add\n              0x40\n              mstore\n              dup1\n              0x0c\n              dup2\n              mstore\n              0x20\n              add\n              0x4761627269656c61737761700000000000000000000000000000000000000000\n              dup2\n              mstore\n              pop\n              dup2\n              jump\t// out\n                /* \"v2-core-master/contracts/UniswapV2Pair.sol\":1284:1511  function getReserves() public view returns (uint112 _reserve0, uint112 _reserve1, uint32 _blockTimestampLast) {... */\n            tag_50:\n                /* \"v2-core-master/contracts/UniswapV2Pair.sol\":1416:1424  reserve0 */\n              sload(0x08)\n              sub(shl(0x70, 0x01), 0x01)\n              dup1\n              dup3\n              and\n              swap3\n              shl(0x70, 0x01)\n                /* \"v2-core-master/contracts/UniswapV2Pair.sol\":1446:1454  reserve1 */\n              dup4\n              div\n              swap1\n              swap2\n              and\n              swap2\n              shl(0xe0, 0x01)\n                /* \"v2-core-master/contracts/UniswapV2Pair.sol\":1486:1504  blockTimestampLast */\n              swap1\n              div\n              0xffffffff\n              and\n              swap1\n                /* \"v2-core-master/contracts/UniswapV2Pair.sol\":1284:1511  function getReserves() public view returns (uint112 _reserve0, uint112 _reserve1, uint32 _blockTimestampLast) {... */\n              jump\t// out\n                /* \"v2-core-master/contracts/UniswapV2ERC20.sol\":2176:2320  function approve(address spender, uint value) external returns (bool) {... */\n            tag_53:\n                /* \"v2-core-master/contracts/UniswapV2ERC20.sol\":2240:2244  bool */\n              0x00\n                /* \"v2-core-master/contracts/UniswapV2ERC20.sol\":2256:2292  _approve(msg.sender, spender, value) */\n              tag_160\n                /* \"v2-core-master/contracts/UniswapV2ERC20.sol\":2265:2275  msg.sender */\n              caller\n                /* \"v2-core-master/contracts/UniswapV2ERC20.sol\":2277:2284  spender */\n              dup5\n                /* \"v2-core-master/contracts/UniswapV2ERC20.sol\":2286:2291  value */\n              dup5\n                /* \"v2-core-master/contracts/UniswapV2ERC20.sol\":2256:2264  _approve */\n              tag_161\n                /* \"v2-core-master/contracts/UniswapV2ERC20.sol\":2256:2292  _approve(msg.sender, spender, value) */\n              jump\t// in\n            tag_160:\n              pop\n                /* \"v2-core-master/contracts/UniswapV2ERC20.sol\":2309:2313  true */\n              0x01\n                /* \"v2-core-master/contracts/UniswapV2ERC20.sol\":2176:2320  function approve(address spender, uint value) external returns (bool) {... */\n            tag_159:\n              swap3\n              swap2\n              pop\n              pop\n              jump\t// out\n                /* \"v2-core-master/contracts/UniswapV2Pair.sol\":592:613  address public token0 */\n            tag_55:\n              and(sub(shl(0xa0, 0x01), 0x01), sload(0x06))\n              dup2\n              jump\t// out\n                /* \"v2-core-master/contracts/UniswapV2ERC20.sol\":318:342  uint  public totalSupply */\n            tag_57:\n              sload(0x00)\n              dup2\n              jump\t// out\n                /* \"v2-core-master/contracts/UniswapV2ERC20.sol\":2468:2763  function transferFrom(address from, address to, uint value) external returns (bool) {... */\n            tag_60:\n              sub(shl(0xa0, 0x01), 0x01)\n                /* \"v2-core-master/contracts/UniswapV2ERC20.sol\":2566:2581  allowance[from] */\n              dup4\n              and\n                /* \"v2-core-master/contracts/UniswapV2ERC20.sol\":2546:2550  bool */\n              0x00\n                /* \"v2-core-master/contracts/UniswapV2ERC20.sol\":2566:2581  allowance[from] */\n              swap1\n              dup2\n              mstore\n                /* \"v2-core-master/contracts/UniswapV2ERC20.sol\":2566:2575  allowance */\n              0x02\n                /* \"v2-core-master/contracts/UniswapV2ERC20.sol\":2566:2581  allowance[from] */\n              0x20\n              swap1\n              dup2\n              mstore\n              0x40\n              dup1\n              dup4\n              keccak256\n                /* \"v2-core-master/contracts/UniswapV2ERC20.sol\":2582:2592  msg.sender */\n              caller\n                /* \"v2-core-master/contracts/UniswapV2ERC20.sol\":2566:2593  allowance[from][msg.sender] */\n              dup5\n              mstore\n              swap1\n              swap2\n              mstore\n              dup2\n              keccak256\n              sload\n                /* \"v2-core-master/contracts/UniswapV2ERC20.sol\":2602:2604  -1 */\n              0xffffffffffffffffffffffffffffffffffffffffffffffffffffffffffffffff\n                /* \"v2-core-master/contracts/UniswapV2ERC20.sol\":2566:2605  allowance[from][msg.sender] != uint(-1) */\n              eq\n                /* \"v2-core-master/contracts/UniswapV2ERC20.sol\":2562:2700  if (allowance[from][msg.sender] != uint(-1)) {... */\n              tag_163\n              jumpi\n              sub(shl(0xa0, 0x01), 0x01)\n                /* \"v2-core-master/contracts/UniswapV2ERC20.sol\":2651:2666  allowance[from] */\n              dup5\n              and\n              0x00\n              swap1\n              dup2\n              mstore\n                /* \"v2-core-master/contracts/UniswapV2ERC20.sol\":2651:2660  allowance */\n              0x02\n                /* \"v2-core-master/contracts/UniswapV2ERC20.sol\":2651:2666  allowance[from] */\n              0x20\n              swap1\n              dup2\n              mstore\n              0x40\n              dup1\n              dup4\n              keccak256\n                /* \"v2-core-master/contracts/UniswapV2ERC20.sol\":2667:2677  msg.sender */\n              caller\n                /* \"v2-core-master/contracts/UniswapV2ERC20.sol\":2651:2678  allowance[from][msg.sender] */\n              dup5\n              mstore\n              swap1\n              swap2\n              mstore\n              swap1\n              keccak256\n              sload\n                /* \"v2-core-master/contracts/UniswapV2ERC20.sol\":2651:2689  allowance[from][msg.sender].sub(value) */\n              tag_164\n              swap1\n                /* \"v2-core-master/contracts/UniswapV2ERC20.sol\":2683:2688  value */\n              dup4\n                /* \"v2-core-master/contracts/UniswapV2ERC20.sol\":2651:2682  allowance[from][msg.sender].sub */\n              tag_148\n                /* \"v2-core-master/contracts/UniswapV2ERC20.sol\":2651:2689  allowance[from][msg.sender].sub(value) */\n              jump\t// in\n            tag_164:\n              sub(shl(0xa0, 0x01), 0x01)\n                /* \"v2-core-master/contracts/UniswapV2ERC20.sol\":2621:2636  allowance[from] */\n              dup6\n              and\n              0x00\n              swap1\n              dup2\n              mstore\n                /* \"v2-core-master/contracts/UniswapV2ERC20.sol\":2621:2630  allowance */\n              0x02\n                /* \"v2-core-master/contracts/UniswapV2ERC20.sol\":2621:2636  allowance[from] */\n              0x20\n              swap1\n              dup2\n              mstore\n              0x40\n              dup1\n              dup4\n              keccak256\n                /* \"v2-core-master/contracts/UniswapV2ERC20.sol\":2637:2647  msg.sender */\n              caller\n                /* \"v2-core-master/contracts/UniswapV2ERC20.sol\":2621:2648  allowance[from][msg.sender] */\n              dup5\n              mstore\n              swap1\n              swap2\n              mstore\n              swap1\n              keccak256\n                /* \"v2-core-master/contracts/UniswapV2ERC20.sol\":2621:2689  allowance[from][msg.sender] = allowance[from][msg.sender].sub(value) */\n              sstore\n                /* \"v2-core-master/contracts/UniswapV2ERC20.sol\":2562:2700  if (allowance[from][msg.sender] != uint(-1)) {... */\n            tag_163:\n                /* \"v2-core-master/contracts/UniswapV2ERC20.sol\":2709:2735  _transfer(from, to, value) */\n              tag_165\n                /* \"v2-core-master/contracts/UniswapV2ERC20.sol\":2719:2723  from */\n              dup5\n                /* \"v2-core-master/contracts/UniswapV2ERC20.sol\":2725:2727  to */\n              dup5\n                /* \"v2-core-master/contracts/UniswapV2ERC20.sol\":2729:2734  value */\n              dup5\n                /* \"v2-core-master/contracts/UniswapV2ERC20.sol\":2709:2718  _transfer */\n              tag_166\n                /* \"v2-core-master/contracts/UniswapV2ERC20.sol\":2709:2735  _transfer(from, to, value) */\n              jump\t// in\n            tag_165:\n              pop\n                /* \"v2-core-master/contracts/UniswapV2ERC20.sol\":2752:2756  true */\n              0x01\n                /* \"v2-core-master/contracts/UniswapV2ERC20.sol\":2468:2763  function transferFrom(address from, address to, uint value) external returns (bool) {... */\n              swap4\n              swap3\n              pop\n              pop\n              pop\n              jump\t// out\n                /* \"v2-core-master/contracts/UniswapV2ERC20.sol\":604:712  bytes32 public constant PERMIT_TYPEHASH = 0x6e71edae12b1b97f4d1f60370fef10105fa2faae0126114a169c64845d6126c9 */\n            tag_62:\n                /* \"v2-core-master/contracts/UniswapV2ERC20.sol\":646:712  0x6e71edae12b1b97f4d1f60370fef10105fa2faae0126114a169c64845d6126c9 */\n              0x6e71edae12b1b97f4d1f60370fef10105fa2faae0126114a169c64845d6126c9\n                /* \"v2-core-master/contracts/UniswapV2ERC20.sol\":604:712  bytes32 public constant PERMIT_TYPEHASH = 0x6e71edae12b1b97f4d1f60370fef10105fa2faae0126114a169c64845d6126c9 */\n              dup2\n              jump\t// out\n                /* \"v2-core-master/contracts/UniswapV2ERC20.sol\":277:312  uint8 public constant decimals = 18 */\n            tag_64:\n                /* \"v2-core-master/contracts/UniswapV2ERC20.sol\":310:312  18 */\n              0x12\n                /* \"v2-core-master/contracts/UniswapV2ERC20.sol\":277:312  uint8 public constant decimals = 18 */\n              dup2\n              jump\t// out\n                /* \"v2-core-master/contracts/UniswapV2ERC20.sol\":463:494  bytes32 public DOMAIN_SEPARATOR */\n            tag_66:\n              sload(0x03)\n              dup2\n              jump\t// out\n                /* \"v2-core-master/contracts/UniswapV2Pair.sol\":2316:2522  function initialize(address _token0, address _token1) external {... */\n            tag_69:\n                /* \"v2-core-master/contracts/UniswapV2Pair.sol\":2411:2418  factory */\n              and(sub(shl(0xa0, 0x01), 0x01), sload(0x05))\n                /* \"v2-core-master/contracts/UniswapV2Pair.sol\":2397:2407  msg.sender */\n              caller\n                /* \"v2-core-master/contracts/UniswapV2Pair.sol\":2397:2418  msg.sender == factory */\n              eq\n                /* \"v2-core-master/contracts/UniswapV2Pair.sol\":2389:2443  require(msg.sender == factory, 'UniswapV2: FORBIDDEN') */\n              tag_168\n              jumpi\n              0x40\n              dup1\n              mload\n              shl(0xe5, 0x461bcd)\n              dup2\n              mstore\n              0x20\n              0x04\n              dup3\n              add\n              mstore\n              0x14\n              0x24\n              dup3\n              add\n              mstore\n              0x556e697377617056323a20464f5242494444454e000000000000000000000000\n              0x44\n              dup3\n              add\n              mstore\n              swap1\n              mload\n              swap1\n              dup2\n              swap1\n              sub\n              0x64\n              add\n              swap1\n              revert\n            tag_168:\n                /* \"v2-core-master/contracts/UniswapV2Pair.sol\":2473:2479  token0 */\n              0x06\n                /* \"v2-core-master/contracts/UniswapV2Pair.sol\":2473:2489  token0 = _token0 */\n              dup1\n              sload\n              sub(shl(0xa0, 0x01), 0x01)\n              swap4\n              dup5\n              and\n              0xffffffffffffffffffffffff0000000000000000000000000000000000000000\n              swap2\n              dup3\n              and\n              or\n              swap1\n              swap2\n              sstore\n                /* \"v2-core-master/contracts/UniswapV2Pair.sol\":2499:2505  token1 */\n              0x07\n                /* \"v2-core-master/contracts/UniswapV2Pair.sol\":2499:2515  token1 = _token1 */\n              dup1\n              sload\n              swap3\n              swap1\n              swap4\n              and\n              swap2\n              and\n              or\n              swap1\n              sstore\n                /* \"v2-core-master/contracts/UniswapV2Pair.sol\":2316:2522  function initialize(address _token0, address _token1) external {... */\n              jump\t// out\n                /* \"v2-core-master/contracts/UniswapV2Pair.sol\":936:968  uint public price0CumulativeLast */\n            tag_71:\n              sload(0x09)\n              dup2\n              jump\t// out\n                /* \"v2-core-master/contracts/UniswapV2Pair.sol\":974:1006  uint public price1CumulativeLast */\n            tag_73:\n              sload(0x0a)\n              dup2\n              jump\t// out\n                /* \"v2-core-master/contracts/UniswapV2Pair.sol\":4466:5685  function mint(address to) external lock returns (uint liquidity) {... */\n            tag_76:\n                /* \"v2-core-master/contracts/UniswapV2Pair.sol\":4515:4529  uint liquidity */\n              0x00\n                /* \"v2-core-master/contracts/UniswapV2Pair.sol\":1181:1189  unlocked */\n              sload(0x0c)\n                /* \"v2-core-master/contracts/UniswapV2Pair.sol\":1193:1194  1 */\n              0x01\n                /* \"v2-core-master/contracts/UniswapV2Pair.sol\":1181:1194  unlocked == 1 */\n              eq\n                /* \"v2-core-master/contracts/UniswapV2Pair.sol\":1173:1216  require(unlocked == 1, 'UniswapV2: LOCKED') */\n              tag_170\n              jumpi\n              0x40\n              dup1\n              mload\n              shl(0xe5, 0x461bcd)\n              dup2\n              mstore\n              0x20\n              0x04\n              dup3\n              add\n              mstore\n              0x11\n              0x24\n              dup3\n              add\n              mstore\n              0x556e697377617056323a204c4f434b4544000000000000000000000000000000\n              0x44\n              dup3\n              add\n              mstore\n              swap1\n              mload\n              swap1\n              dup2\n              swap1\n              sub\n              0x64\n              add\n              swap1\n              revert\n            tag_170:\n                /* \"v2-core-master/contracts/UniswapV2Pair.sol\":1237:1238  0 */\n              0x00\n                /* \"v2-core-master/contracts/UniswapV2Pair.sol\":1226:1234  unlocked */\n              0x0c\n                /* \"v2-core-master/contracts/UniswapV2Pair.sol\":1226:1238  unlocked = 0 */\n              dup2\n              swap1\n              sstore\n                /* \"v2-core-master/contracts/UniswapV2Pair.sol\":1237:1238  0 */\n              dup1\n                /* \"v2-core-master/contracts/UniswapV2Pair.sol\":4583:4596  getReserves() */\n              tag_172\n                /* \"v2-core-master/contracts/UniswapV2Pair.sol\":4583:4594  getReserves */\n              tag_50\n                /* \"v2-core-master/contracts/UniswapV2Pair.sol\":4583:4596  getReserves() */\n              jump\t// in\n            tag_172:\n              pop\n                /* \"v2-core-master/contracts/UniswapV2Pair.sol\":4644:4650  token0 */\n              sload(0x06)\n                /* \"v2-core-master/contracts/UniswapV2Pair.sol\":4637:4676  IERC20(token0).balanceOf(address(this)) */\n              0x40\n              dup1\n              mload\n              shl(0xe0, 0x70a08231)\n              dup2\n              mstore\n                /* \"v2-core-master/contracts/UniswapV2Pair.sol\":4670:4674  this */\n              address\n                /* \"v2-core-master/contracts/UniswapV2Pair.sol\":4637:4676  IERC20(token0).balanceOf(address(this)) */\n              0x04\n              dup3\n              add\n              mstore\n              swap1\n              mload\n                /* \"v2-core-master/contracts/UniswapV2Pair.sol\":4541:4596  (uint112 _reserve0, uint112 _reserve1,) = getReserves() */\n              swap4\n              swap6\n              pop\n              swap2\n              swap4\n              pop\n              0x00\n              swap3\n              sub(shl(0xa0, 0x01), 0x01)\n                /* \"v2-core-master/contracts/UniswapV2Pair.sol\":4644:4650  token0 */\n              swap1\n              swap2\n              and\n              swap2\n              0x70a08231\n              swap2\n                /* \"v2-core-master/contracts/UniswapV2Pair.sol\":4637:4676  IERC20(token0).balanceOf(address(this)) */\n              0x24\n              dup1\n              dup4\n              add\n              swap3\n              0x20\n              swap3\n              swap2\n              swap1\n              dup3\n              swap1\n              sub\n              add\n              dup2\n                /* \"v2-core-master/contracts/UniswapV2Pair.sol\":4644:4650  token0 */\n              dup7\n                /* \"v2-core-master/contracts/UniswapV2Pair.sol\":4637:4676  IERC20(token0).balanceOf(address(this)) */\n              dup1\n              extcodesize\n              iszero\n                /* \"--CODEGEN--\":5:7   */\n              dup1\n              iszero\n              tag_173\n              jumpi\n                /* \"--CODEGEN--\":30:31   */\n              0x00\n                /* \"--CODEGEN--\":27:28   */\n              dup1\n                /* \"--CODEGEN--\":20:32   */\n              revert\n                /* \"--CODEGEN--\":5:7   */\n            tag_173:\n                /* \"v2-core-master/contracts/UniswapV2Pair.sol\":4637:4676  IERC20(token0).balanceOf(address(this)) */\n              pop\n              gas\n              staticcall\n              iszero\n                /* \"--CODEGEN--\":8:17   */\n              dup1\n                /* \"--CODEGEN--\":5:7   */\n              iszero\n              tag_174\n              jumpi\n                /* \"--CODEGEN--\":45:61   */\n              returndatasize\n                /* \"--CODEGEN--\":42:43   */\n              0x00\n                /* \"--CODEGEN--\":39:40   */\n              dup1\n                /* \"--CODEGEN--\":24:62   */\n              returndatacopy\n                /* \"--CODEGEN--\":77:93   */\n              returndatasize\n                /* \"--CODEGEN--\":74:75   */\n              0x00\n                /* \"--CODEGEN--\":67:94   */\n              revert\n                /* \"--CODEGEN--\":5:7   */\n            tag_174:\n                /* \"v2-core-master/contracts/UniswapV2Pair.sol\":4637:4676  IERC20(token0).balanceOf(address(this)) */\n              pop\n              pop\n              pop\n              pop\n              mload(0x40)\n              returndatasize\n                /* \"--CODEGEN--\":13:15   */\n              0x20\n                /* \"--CODEGEN--\":8:11   */\n              dup2\n                /* \"--CODEGEN--\":5:16   */\n              lt\n                /* \"--CODEGEN--\":2:4   */\n              iszero\n              tag_175\n              jumpi\n                /* \"--CODEGEN--\":29:30   */\n              0x00\n                /* \"--CODEGEN--\":26:27   */\n              dup1\n                /* \"--CODEGEN--\":19:31   */\n              revert\n                /* \"--CODEGEN--\":2:4   */\n            tag_175:\n              pop\n                /* \"v2-core-master/contracts/UniswapV2Pair.sol\":4637:4676  IERC20(token0).balanceOf(address(this)) */\n              mload\n                /* \"v2-core-master/contracts/UniswapV2Pair.sol\":4709:4715  token1 */\n              sload(0x07)\n                /* \"v2-core-master/contracts/UniswapV2Pair.sol\":4702:4741  IERC20(token1).balanceOf(address(this)) */\n              0x40\n              dup1\n              mload\n              shl(0xe0, 0x70a08231)\n              dup2\n              mstore\n                /* \"v2-core-master/contracts/UniswapV2Pair.sol\":4735:4739  this */\n              address\n                /* \"v2-core-master/contracts/UniswapV2Pair.sol\":4702:4741  IERC20(token1).balanceOf(address(this)) */\n              0x04\n              dup3\n              add\n              mstore\n              swap1\n              mload\n                /* \"v2-core-master/contracts/UniswapV2Pair.sol\":4637:4676  IERC20(token0).balanceOf(address(this)) */\n              swap3\n              swap4\n              pop\n              0x00\n              swap3\n              sub(shl(0xa0, 0x01), 0x01)\n                /* \"v2-core-master/contracts/UniswapV2Pair.sol\":4709:4715  token1 */\n              swap1\n              swap3\n              and\n              swap2\n              0x70a08231\n              swap2\n                /* \"v2-core-master/contracts/UniswapV2Pair.sol\":4702:4741  IERC20(token1).balanceOf(address(this)) */\n              0x24\n              dup1\n              dup3\n              add\n              swap3\n                /* \"v2-core-master/contracts/UniswapV2Pair.sol\":4637:4676  IERC20(token0).balanceOf(address(this)) */\n              0x20\n              swap3\n                /* \"v2-core-master/contracts/UniswapV2Pair.sol\":4702:4741  IERC20(token1).balanceOf(address(this)) */\n              swap1\n              swap2\n              swap1\n              dup3\n              swap1\n              sub\n              add\n              dup2\n                /* \"v2-core-master/contracts/UniswapV2Pair.sol\":4709:4715  token1 */\n              dup7\n                /* \"v2-core-master/contracts/UniswapV2Pair.sol\":4702:4741  IERC20(token1).balanceOf(address(this)) */\n              dup1\n              extcodesize\n              iszero\n                /* \"--CODEGEN--\":5:7   */\n              dup1\n              iszero\n              tag_176\n              jumpi\n                /* \"--CODEGEN--\":30:31   */\n              0x00\n                /* \"--CODEGEN--\":27:28   */\n              dup1\n                /* \"--CODEGEN--\":20:32   */\n              revert\n                /* \"--CODEGEN--\":5:7   */\n            tag_176:\n                /* \"v2-core-master/contracts/UniswapV2Pair.sol\":4702:4741  IERC20(token1).balanceOf(address(this)) */\n              pop\n              gas\n              staticcall\n              iszero\n                /* \"--CODEGEN--\":8:17   */\n              dup1\n                /* \"--CODEGEN--\":5:7   */\n              iszero\n              tag_177\n              jumpi\n                /* \"--CODEGEN--\":45:61   */\n              returndatasize\n                /* \"--CODEGEN--\":42:43   */\n              0x00\n                /* \"--CODEGEN--\":39:40   */\n              dup1\n                /* \"--CODEGEN--\":24:62   */\n              returndatacopy\n                /* \"--CODEGEN--\":77:93   */\n              returndatasize\n                /* \"--CODEGEN--\":74:75   */\n              0x00\n                /* \"--CODEGEN--\":67:94   */\n              revert\n                /* \"--CODEGEN--\":5:7   */\n            tag_177:\n                /* \"v2-core-master/contracts/UniswapV2Pair.sol\":4702:4741  IERC20(token1).balanceOf(address(this)) */\n              pop\n              pop\n              pop\n              pop\n              mload(0x40)\n              returndatasize\n                /* \"--CODEGEN--\":13:15   */\n              0x20\n                /* \"--CODEGEN--\":8:11   */\n              dup2\n                /* \"--CODEGEN--\":5:16   */\n              lt\n                /* \"--CODEGEN--\":2:4   */\n              iszero\n              tag_178\n              jumpi\n                /* \"--CODEGEN--\":29:30   */\n              0x00\n                /* \"--CODEGEN--\":26:27   */\n              dup1\n                /* \"--CODEGEN--\":19:31   */\n              revert\n                /* \"--CODEGEN--\":2:4   */\n            tag_178:\n              pop\n                /* \"v2-core-master/contracts/UniswapV2Pair.sol\":4702:4741  IERC20(token1).balanceOf(address(this)) */\n              mload\n              swap1\n              pop\n                /* \"v2-core-master/contracts/UniswapV2Pair.sol\":4751:4763  uint amount0 */\n              0x00\n                /* \"v2-core-master/contracts/UniswapV2Pair.sol\":4766:4789  balance0.sub(_reserve0) */\n              tag_179\n                /* \"v2-core-master/contracts/UniswapV2Pair.sol\":4766:4774  balance0 */\n              dup4\n              sub(shl(0x70, 0x01), 0x01)\n                /* \"v2-core-master/contracts/UniswapV2Pair.sol\":4766:4789  balance0.sub(_reserve0) */\n              dup8\n              and\n                /* \"v2-core-master/contracts/UniswapV2Pair.sol\":4766:4778  balance0.sub */\n              tag_148\n                /* \"v2-core-master/contracts/UniswapV2Pair.sol\":4766:4789  balance0.sub(_reserve0) */\n              jump\t// in\n            tag_179:\n                /* \"v2-core-master/contracts/UniswapV2Pair.sol\":4751:4789  uint amount0 = balance0.sub(_reserve0) */\n              swap1\n              pop\n                /* \"v2-core-master/contracts/UniswapV2Pair.sol\":4799:4811  uint amount1 */\n              0x00\n                /* \"v2-core-master/contracts/UniswapV2Pair.sol\":4814:4837  balance1.sub(_reserve1) */\n              tag_180\n                /* \"v2-core-master/contracts/UniswapV2Pair.sol\":4814:4822  balance1 */\n              dup4\n              sub(shl(0x70, 0x01), 0x01)\n                /* \"v2-core-master/contracts/UniswapV2Pair.sol\":4814:4837  balance1.sub(_reserve1) */\n              dup8\n              and\n                /* \"v2-core-master/contracts/UniswapV2Pair.sol\":4814:4826  balance1.sub */\n              tag_148\n                /* \"v2-core-master/contracts/UniswapV2Pair.sol\":4814:4837  balance1.sub(_reserve1) */\n              jump\t// in\n            tag_180:\n                /* \"v2-core-master/contracts/UniswapV2Pair.sol\":4799:4837  uint amount1 = balance1.sub(_reserve1) */\n              swap1\n              pop\n                /* \"v2-core-master/contracts/UniswapV2Pair.sol\":4848:4858  bool feeOn */\n              0x00\n                /* \"v2-core-master/contracts/UniswapV2Pair.sol\":4861:4891  _mintFee(_reserve0, _reserve1) */\n              tag_181\n                /* \"v2-core-master/contracts/UniswapV2Pair.sol\":4870:4879  _reserve0 */\n              dup8\n                /* \"v2-core-master/contracts/UniswapV2Pair.sol\":4881:4890  _reserve1 */\n              dup8\n                /* \"v2-core-master/contracts/UniswapV2Pair.sol\":4861:4869  _mintFee */\n              tag_182\n                /* \"v2-core-master/contracts/UniswapV2Pair.sol\":4861:4891  _mintFee(_reserve0, _reserve1) */\n              jump\t// in\n            tag_181:\n                /* \"v2-core-master/contracts/UniswapV2Pair.sol\":4901:4918  uint _totalSupply */\n              0x00\n                /* \"v2-core-master/contracts/UniswapV2Pair.sol\":4921:4932  totalSupply */\n              sload\n                /* \"v2-core-master/contracts/UniswapV2Pair.sol\":4848:4891  bool feeOn = _mintFee(_reserve0, _reserve1) */\n              swap1\n              swap2\n              pop\n                /* \"v2-core-master/contracts/UniswapV2Pair.sol\":5024:5041  _totalSupply == 0 */\n              dup1\n                /* \"v2-core-master/contracts/UniswapV2Pair.sol\":5020:5367  if (_totalSupply == 0) {... */\n              tag_183\n              jumpi\n                /* \"v2-core-master/contracts/UniswapV2Pair.sol\":5069:5123  Math.sqrt(amount0.mul(amount1)).sub(MINIMUM_LIQUIDITY) */\n              tag_184\n                /* \"v2-core-master/contracts/UniswapV2Pair.sol\":458:463  10**3 */\n              0x03e8\n                /* \"v2-core-master/contracts/UniswapV2Pair.sol\":5069:5100  Math.sqrt(amount0.mul(amount1)) */\n              tag_147\n                /* \"v2-core-master/contracts/UniswapV2Pair.sol\":5079:5099  amount0.mul(amount1) */\n              tag_186\n                /* \"v2-core-master/contracts/UniswapV2Pair.sol\":5079:5086  amount0 */\n              dup8\n                /* \"v2-core-master/contracts/UniswapV2Pair.sol\":5091:5098  amount1 */\n              dup8\n                /* \"v2-core-master/contracts/UniswapV2Pair.sol\":5079:5099  amount0.mul(amount1) */\n              0xffffffff\n                /* \"v2-core-master/contracts/UniswapV2Pair.sol\":5079:5090  amount0.mul */\n              tag_146\n                /* \"v2-core-master/contracts/UniswapV2Pair.sol\":5079:5099  amount0.mul(amount1) */\n              and\n              jump\t// in\n            tag_186:\n                /* \"v2-core-master/contracts/UniswapV2Pair.sol\":5069:5078  Math.sqrt */\n              tag_187\n                /* \"v2-core-master/contracts/UniswapV2Pair.sol\":5069:5100  Math.sqrt(amount0.mul(amount1)) */\n              jump\t// in\n                /* \"v2-core-master/contracts/UniswapV2Pair.sol\":5069:5123  Math.sqrt(amount0.mul(amount1)).sub(MINIMUM_LIQUIDITY) */\n            tag_184:\n                /* \"v2-core-master/contracts/UniswapV2Pair.sol\":5057:5123  liquidity = Math.sqrt(amount0.mul(amount1)).sub(MINIMUM_LIQUIDITY) */\n              swap9\n              pop\n                /* \"v2-core-master/contracts/UniswapV2Pair.sol\":5136:5172  _mint(address(0), MINIMUM_LIQUIDITY) */\n              tag_188\n                /* \"v2-core-master/contracts/UniswapV2Pair.sol\":5150:5151  0 */\n              0x00\n                /* \"v2-core-master/contracts/UniswapV2Pair.sol\":458:463  10**3 */\n              0x03e8\n                /* \"v2-core-master/contracts/UniswapV2Pair.sol\":5136:5141  _mint */\n              tag_189\n                /* \"v2-core-master/contracts/UniswapV2Pair.sol\":5136:5172  _mint(address(0), MINIMUM_LIQUIDITY) */\n              jump\t// in\n            tag_188:\n                /* \"v2-core-master/contracts/UniswapV2Pair.sol\":5020:5367  if (_totalSupply == 0) {... */\n              jump(tag_190)\n            tag_183:\n                /* \"v2-core-master/contracts/UniswapV2Pair.sol\":5270:5356  Math.min(amount0.mul(_totalSupply) / _reserve0, amount1.mul(_totalSupply) / _reserve1) */\n              tag_191\n              sub(shl(0x70, 0x01), 0x01)\n                /* \"v2-core-master/contracts/UniswapV2Pair.sol\":5279:5316  amount0.mul(_totalSupply) / _reserve0 */\n              dup10\n              and\n                /* \"v2-core-master/contracts/UniswapV2Pair.sol\":5279:5304  amount0.mul(_totalSupply) */\n              tag_192\n                /* \"v2-core-master/contracts/UniswapV2Pair.sol\":5279:5286  amount0 */\n              dup7\n                /* \"v2-core-master/contracts/UniswapV2Pair.sol\":5291:5303  _totalSupply */\n              dup5\n                /* \"v2-core-master/contracts/UniswapV2Pair.sol\":5279:5290  amount0.mul */\n              tag_146\n                /* \"v2-core-master/contracts/UniswapV2Pair.sol\":5279:5304  amount0.mul(_totalSupply) */\n              jump\t// in\n            tag_192:\n                /* \"v2-core-master/contracts/UniswapV2Pair.sol\":5279:5316  amount0.mul(_totalSupply) / _reserve0 */\n              dup2\n              tag_193\n              jumpi\n              invalid\n            tag_193:\n              div\n              sub(shl(0x70, 0x01), 0x01)\n                /* \"v2-core-master/contracts/UniswapV2Pair.sol\":5318:5355  amount1.mul(_totalSupply) / _reserve1 */\n              dup10\n              and\n                /* \"v2-core-master/contracts/UniswapV2Pair.sol\":5318:5343  amount1.mul(_totalSupply) */\n              tag_194\n                /* \"v2-core-master/contracts/UniswapV2Pair.sol\":5318:5325  amount1 */\n              dup7\n                /* \"v2-core-master/contracts/UniswapV2Pair.sol\":5330:5342  _totalSupply */\n              dup6\n                /* \"v2-core-master/contracts/UniswapV2Pair.sol\":5318:5329  amount1.mul */\n              tag_146\n                /* \"v2-core-master/contracts/UniswapV2Pair.sol\":5318:5343  amount1.mul(_totalSupply) */\n              jump\t// in\n            tag_194:\n                /* \"v2-core-master/contracts/UniswapV2Pair.sol\":5318:5355  amount1.mul(_totalSupply) / _reserve1 */\n              dup2\n              tag_195\n              jumpi\n              invalid\n            tag_195:\n              div\n                /* \"v2-core-master/contracts/UniswapV2Pair.sol\":5270:5278  Math.min */\n              tag_196\n                /* \"v2-core-master/contracts/UniswapV2Pair.sol\":5270:5356  Math.min(amount0.mul(_totalSupply) / _reserve0, amount1.mul(_totalSupply) / _reserve1) */\n              jump\t// in\n            tag_191:\n                /* \"v2-core-master/contracts/UniswapV2Pair.sol\":5258:5356  liquidity = Math.min(amount0.mul(_totalSupply) / _reserve0, amount1.mul(_totalSupply) / _reserve1) */\n              swap9\n              pop\n                /* \"v2-core-master/contracts/UniswapV2Pair.sol\":5020:5367  if (_totalSupply == 0) {... */\n            tag_190:\n                /* \"v2-core-master/contracts/UniswapV2Pair.sol\":5396:5397  0 */\n              0x00\n                /* \"v2-core-master/contracts/UniswapV2Pair.sol\":5384:5393  liquidity */\n              dup10\n                /* \"v2-core-master/contracts/UniswapV2Pair.sol\":5384:5397  liquidity > 0 */\n              gt\n                /* \"v2-core-master/contracts/UniswapV2Pair.sol\":5376:5442  require(liquidity > 0, 'UniswapV2: INSUFFICIENT_LIQUIDITY_MINTED') */\n              tag_197\n              jumpi\n              mload(0x40)\n              shl(0xe5, 0x461bcd)\n              dup2\n              mstore\n              0x04\n              add\n              dup1\n              dup1\n              0x20\n              add\n              dup3\n              dup2\n              sub\n              dup3\n              mstore\n              0x28\n              dup2\n              mstore\n              0x20\n              add\n              dup1\n              data_6591c9f5bf1fefaad109b76a20e25c857b696080c952191f86220f001a83663e\n              0x28\n              swap2\n              codecopy\n              0x40\n              add\n              swap2\n              pop\n              pop\n              mload(0x40)\n              dup1\n              swap2\n              sub\n              swap1\n              revert\n            tag_197:\n                /* \"v2-core-master/contracts/UniswapV2Pair.sol\":5452:5472  _mint(to, liquidity) */\n              tag_198\n                /* \"v2-core-master/contracts/UniswapV2Pair.sol\":5458:5460  to */\n              dup11\n                /* \"v2-core-master/contracts/UniswapV2Pair.sol\":5462:5471  liquidity */\n              dup11\n                /* \"v2-core-master/contracts/UniswapV2Pair.sol\":5452:5457  _mint */\n              tag_189\n                /* \"v2-core-master/contracts/UniswapV2Pair.sol\":5452:5472  _mint(to, liquidity) */\n              jump\t// in\n            tag_198:\n                /* \"v2-core-master/contracts/UniswapV2Pair.sol\":5483:5532  _update(balance0, balance1, _reserve0, _reserve1) */\n              tag_199\n                /* \"v2-core-master/contracts/UniswapV2Pair.sol\":5491:5499  balance0 */\n              dup7\n                /* \"v2-core-master/contracts/UniswapV2Pair.sol\":5501:5509  balance1 */\n              dup7\n                /* \"v2-core-master/contracts/UniswapV2Pair.sol\":5511:5520  _reserve0 */\n              dup11\n                /* \"v2-core-master/contracts/UniswapV2Pair.sol\":5522:5531  _reserve1 */\n              dup11\n                /* \"v2-core-master/contracts/UniswapV2Pair.sol\":5483:5490  _update */\n              tag_157\n                /* \"v2-core-master/contracts/UniswapV2Pair.sol\":5483:5532  _update(balance0, balance1, _reserve0, _reserve1) */\n              jump\t// in\n            tag_199:\n                /* \"v2-core-master/contracts/UniswapV2Pair.sol\":5546:5551  feeOn */\n              dup2\n                /* \"v2-core-master/contracts/UniswapV2Pair.sol\":5542:5589  if (feeOn) kLast = uint(reserve0).mul(reserve1) */\n              iszero\n              tag_200\n              jumpi\n                /* \"v2-core-master/contracts/UniswapV2Pair.sol\":5580:5588  reserve1 */\n              sload(0x08)\n                /* \"v2-core-master/contracts/UniswapV2Pair.sol\":5561:5589  uint(reserve0).mul(reserve1) */\n              tag_201\n              swap1\n              sub(shl(0x70, 0x01), 0x01)\n                /* \"v2-core-master/contracts/UniswapV2Pair.sol\":5566:5574  reserve0 */\n              dup1\n              dup3\n              and\n              swap2\n              shl(0x70, 0x01)\n                /* \"v2-core-master/contracts/UniswapV2Pair.sol\":5580:5588  reserve1 */\n              swap1\n              div\n              and\n                /* \"v2-core-master/contracts/UniswapV2Pair.sol\":5561:5579  uint(reserve0).mul */\n              tag_146\n                /* \"v2-core-master/contracts/UniswapV2Pair.sol\":5561:5589  uint(reserve0).mul(reserve1) */\n              jump\t// in\n            tag_201:\n                /* \"v2-core-master/contracts/UniswapV2Pair.sol\":5553:5558  kLast */\n              0x0b\n                /* \"v2-core-master/contracts/UniswapV2Pair.sol\":5553:5589  kLast = uint(reserve0).mul(reserve1) */\n              sstore\n                /* \"v2-core-master/contracts/UniswapV2Pair.sol\":5542:5589  if (feeOn) kLast = uint(reserve0).mul(reserve1) */\n            tag_200:\n                /* \"v2-core-master/contracts/UniswapV2Pair.sol\":5644:5678  Mint(msg.sender, amount0, amount1) */\n              0x40\n              dup1\n              mload\n              dup6\n              dup2\n              mstore\n              0x20\n              dup2\n              add\n              dup6\n              swap1\n              mstore\n              dup2\n              mload\n                /* \"v2-core-master/contracts/UniswapV2Pair.sol\":5649:5659  msg.sender */\n              caller\n              swap3\n                /* \"v2-core-master/contracts/UniswapV2Pair.sol\":5644:5678  Mint(msg.sender, amount0, amount1) */\n              0x4c209b5fc8ad50758f13e2e1088ba56a560dff690a1c6fef26394f4c03821c4f\n              swap3\n              dup3\n              swap1\n              sub\n              add\n              swap1\n              log2\n              pop\n              pop\n                /* \"v2-core-master/contracts/UniswapV2Pair.sol\":1270:1271  1 */\n              0x01\n                /* \"v2-core-master/contracts/UniswapV2Pair.sol\":1259:1267  unlocked */\n              0x0c\n                /* \"v2-core-master/contracts/UniswapV2Pair.sol\":1259:1271  unlocked = 1 */\n              sstore\n              pop\n                /* \"v2-core-master/contracts/UniswapV2Pair.sol\":4466:5685  function mint(address to) external lock returns (uint liquidity) {... */\n              swap5\n              swap7\n              swap6\n              pop\n              pop\n              pop\n              pop\n              pop\n              pop\n              jump\t// out\n                /* \"v2-core-master/contracts/UniswapV2ERC20.sol\":348:389  mapping(address => uint) public balanceOf */\n            tag_79:\n              mstore(0x20, 0x01)\n              0x00\n              swap1\n              dup2\n              mstore\n              0x40\n              swap1\n              keccak256\n              sload\n              dup2\n              jump\t// out\n                /* \"v2-core-master/contracts/UniswapV2Pair.sol\":1012:1029  uint public kLast */\n            tag_81:\n              sload(0x0b)\n              dup2\n              jump\t// out\n                /* \"v2-core-master/contracts/UniswapV2ERC20.sol\":718:756  mapping(address => uint) public nonces */\n            tag_84:\n              mstore(0x20, 0x04)\n              0x00\n              swap1\n              dup2\n              mstore\n              0x40\n              swap1\n              keccak256\n              sload\n              dup2\n              jump\t// out\n                /* \"v2-core-master/contracts/UniswapV2Pair.sol\":5794:7238  function burn(address to) external lock returns (uint amount0, uint amount1) {... */\n            tag_87:\n                /* \"v2-core-master/contracts/UniswapV2Pair.sol\":5843:5855  uint amount0 */\n              0x00\n                /* \"v2-core-master/contracts/UniswapV2Pair.sol\":5857:5869  uint amount1 */\n              dup1\n                /* \"v2-core-master/contracts/UniswapV2Pair.sol\":1181:1189  unlocked */\n              sload(0x0c)\n                /* \"v2-core-master/contracts/UniswapV2Pair.sol\":1193:1194  1 */\n              0x01\n                /* \"v2-core-master/contracts/UniswapV2Pair.sol\":1181:1194  unlocked == 1 */\n              eq\n                /* \"v2-core-master/contracts/UniswapV2Pair.sol\":1173:1216  require(unlocked == 1, 'UniswapV2: LOCKED') */\n              tag_203\n              jumpi\n              0x40\n              dup1\n              mload\n              shl(0xe5, 0x461bcd)\n              dup2\n              mstore\n              0x20\n              0x04\n              dup3\n              add\n              mstore\n              0x11\n              0x24\n              dup3\n              add\n              mstore\n              0x556e697377617056323a204c4f434b4544000000000000000000000000000000\n              0x44\n              dup3\n              add\n              mstore\n              swap1\n              mload\n              swap1\n              dup2\n              swap1\n              sub\n              0x64\n              add\n              swap1\n              revert\n            tag_203:\n                /* \"v2-core-master/contracts/UniswapV2Pair.sol\":1237:1238  0 */\n              0x00\n                /* \"v2-core-master/contracts/UniswapV2Pair.sol\":1226:1234  unlocked */\n              0x0c\n                /* \"v2-core-master/contracts/UniswapV2Pair.sol\":1226:1238  unlocked = 0 */\n              dup2\n              swap1\n              sstore\n                /* \"v2-core-master/contracts/UniswapV2Pair.sol\":1237:1238  0 */\n              dup1\n                /* \"v2-core-master/contracts/UniswapV2Pair.sol\":5923:5936  getReserves() */\n              tag_205\n                /* \"v2-core-master/contracts/UniswapV2Pair.sol\":5923:5934  getReserves */\n              tag_50\n                /* \"v2-core-master/contracts/UniswapV2Pair.sol\":5923:5936  getReserves() */\n              jump\t// in\n            tag_205:\n              pop\n                /* \"v2-core-master/contracts/UniswapV2Pair.sol\":5979:5985  token0 */\n              sload(0x06)\n                /* \"v2-core-master/contracts/UniswapV2Pair.sol\":6059:6065  token1 */\n              sload(0x07)\n                /* \"v2-core-master/contracts/UniswapV2Pair.sol\":6137:6177  IERC20(_token0).balanceOf(address(this)) */\n              0x40\n              dup1\n              mload\n              shl(0xe0, 0x70a08231)\n              dup2\n              mstore\n                /* \"v2-core-master/contracts/UniswapV2Pair.sol\":6171:6175  this */\n              address\n                /* \"v2-core-master/contracts/UniswapV2Pair.sol\":6137:6177  IERC20(_token0).balanceOf(address(this)) */\n              0x04\n              dup3\n              add\n              mstore\n              swap1\n              mload\n                /* \"v2-core-master/contracts/UniswapV2Pair.sol\":5881:5936  (uint112 _reserve0, uint112 _reserve1,) = getReserves() */\n              swap5\n              swap7\n              pop\n              swap3\n              swap5\n              pop\n              sub(shl(0xa0, 0x01), 0x01)\n                /* \"v2-core-master/contracts/UniswapV2Pair.sol\":5979:5985  token0 */\n              swap2\n              dup3\n              and\n              swap4\n                /* \"v2-core-master/contracts/UniswapV2Pair.sol\":6059:6065  token1 */\n              swap2\n              and\n              swap2\n              0x00\n              swap2\n                /* \"v2-core-master/contracts/UniswapV2Pair.sol\":5979:5985  token0 */\n              dup5\n              swap2\n              0x70a08231\n              swap2\n                /* \"v2-core-master/contracts/UniswapV2Pair.sol\":6137:6177  IERC20(_token0).balanceOf(address(this)) */\n              0x24\n              dup1\n              dup4\n              add\n              swap3\n              0x20\n              swap3\n              swap2\n              swap1\n              dup3\n              swap1\n              sub\n              add\n              dup2\n                /* \"v2-core-master/contracts/UniswapV2Pair.sol\":5979:5985  token0 */\n              dup7\n                /* \"v2-core-master/contracts/UniswapV2Pair.sol\":6137:6177  IERC20(_token0).balanceOf(address(this)) */\n              dup1\n              extcodesize\n              iszero\n                /* \"--CODEGEN--\":5:7   */\n              dup1\n              iszero\n              tag_206\n              jumpi\n                /* \"--CODEGEN--\":30:31   */\n              0x00\n                /* \"--CODEGEN--\":27:28   */\n              dup1\n                /* \"--CODEGEN--\":20:32   */\n              revert\n                /* \"--CODEGEN--\":5:7   */\n            tag_206:\n                /* \"v2-core-master/contracts/UniswapV2Pair.sol\":6137:6177  IERC20(_token0).balanceOf(address(this)) */\n              pop\n              gas\n              staticcall\n              iszero\n                /* \"--CODEGEN--\":8:17   */\n              dup1\n                /* \"--CODEGEN--\":5:7   */\n              iszero\n              tag_207\n              jumpi\n                /* \"--CODEGEN--\":45:61   */\n              returndatasize\n                /* \"--CODEGEN--\":42:43   */\n              0x00\n                /* \"--CODEGEN--\":39:40   */\n              dup1\n                /* \"--CODEGEN--\":24:62   */\n              returndatacopy\n                /* \"--CODEGEN--\":77:93   */\n              returndatasize\n                /* \"--CODEGEN--\":74:75   */\n              0x00\n                /* \"--CODEGEN--\":67:94   */\n              revert\n                /* \"--CODEGEN--\":5:7   */\n            tag_207:\n                /* \"v2-core-master/contracts/UniswapV2Pair.sol\":6137:6177  IERC20(_token0).balanceOf(address(this)) */\n              pop\n              pop\n              pop\n              pop\n              mload(0x40)\n              returndatasize\n                /* \"--CODEGEN--\":13:15   */\n              0x20\n                /* \"--CODEGEN--\":8:11   */\n              dup2\n                /* \"--CODEGEN--\":5:16   */\n              lt\n                /* \"--CODEGEN--\":2:4   */\n              iszero\n              tag_208\n              jumpi\n                /* \"--CODEGEN--\":29:30   */\n              0x00\n                /* \"--CODEGEN--\":26:27   */\n              dup1\n                /* \"--CODEGEN--\":19:31   */\n              revert\n                /* \"--CODEGEN--\":2:4   */\n            tag_208:\n              pop\n                /* \"v2-core-master/contracts/UniswapV2Pair.sol\":6137:6177  IERC20(_token0).balanceOf(address(this)) */\n              mload\n                /* \"v2-core-master/contracts/UniswapV2Pair.sol\":6203:6243  IERC20(_token1).balanceOf(address(this)) */\n              0x40\n              dup1\n              mload\n              shl(0xe0, 0x70a08231)\n              dup2\n              mstore\n                /* \"v2-core-master/contracts/UniswapV2Pair.sol\":6237:6241  this */\n              address\n                /* \"v2-core-master/contracts/UniswapV2Pair.sol\":6203:6243  IERC20(_token1).balanceOf(address(this)) */\n              0x04\n              dup3\n              add\n              mstore\n              swap1\n              mload\n                /* \"v2-core-master/contracts/UniswapV2Pair.sol\":6137:6177  IERC20(_token0).balanceOf(address(this)) */\n              swap2\n              swap3\n              pop\n              0x00\n              swap2\n              sub(shl(0xa0, 0x01), 0x01)\n                /* \"v2-core-master/contracts/UniswapV2Pair.sol\":6203:6228  IERC20(_token1).balanceOf */\n              dup6\n              and\n              swap2\n              0x70a08231\n              swap2\n                /* \"v2-core-master/contracts/UniswapV2Pair.sol\":6203:6243  IERC20(_token1).balanceOf(address(this)) */\n              0x24\n              dup1\n              dup4\n              add\n              swap3\n                /* \"v2-core-master/contracts/UniswapV2Pair.sol\":6137:6177  IERC20(_token0).balanceOf(address(this)) */\n              0x20\n              swap3\n                /* \"v2-core-master/contracts/UniswapV2Pair.sol\":6203:6243  IERC20(_token1).balanceOf(address(this)) */\n              swap2\n              swap1\n              dup3\n              swap1\n              sub\n              add\n              dup2\n                /* \"v2-core-master/contracts/UniswapV2Pair.sol\":6203:6228  IERC20(_token1).balanceOf */\n              dup7\n                /* \"v2-core-master/contracts/UniswapV2Pair.sol\":6203:6243  IERC20(_token1).balanceOf(address(this)) */\n              dup1\n              extcodesize\n              iszero\n                /* \"--CODEGEN--\":5:7   */\n              dup1\n              iszero\n              tag_209\n              jumpi\n                /* \"--CODEGEN--\":30:31   */\n              0x00\n                /* \"--CODEGEN--\":27:28   */\n              dup1\n                /* \"--CODEGEN--\":20:32   */\n              revert\n                /* \"--CODEGEN--\":5:7   */\n            tag_209:\n                /* \"v2-core-master/contracts/UniswapV2Pair.sol\":6203:6243  IERC20(_token1).balanceOf(address(this)) */\n              pop\n              gas\n              staticcall\n              iszero\n                /* \"--CODEGEN--\":8:17   */\n              dup1\n                /* \"--CODEGEN--\":5:7   */\n              iszero\n              tag_210\n              jumpi\n                /* \"--CODEGEN--\":45:61   */\n              returndatasize\n                /* \"--CODEGEN--\":42:43   */\n              0x00\n                /* \"--CODEGEN--\":39:40   */\n              dup1\n                /* \"--CODEGEN--\":24:62   */\n              returndatacopy\n                /* \"--CODEGEN--\":77:93   */\n              returndatasize\n                /* \"--CODEGEN--\":74:75   */\n              0x00\n                /* \"--CODEGEN--\":67:94   */\n              revert\n                /* \"--CODEGEN--\":5:7   */\n            tag_210:\n                /* \"v2-core-master/contracts/UniswapV2Pair.sol\":6203:6243  IERC20(_token1).balanceOf(address(this)) */\n              pop\n              pop\n              pop\n              pop\n              mload(0x40)\n              returndatasize\n                /* \"--CODEGEN--\":13:15   */\n              0x20\n                /* \"--CODEGEN--\":8:11   */\n              dup2\n                /* \"--CODEGEN--\":5:16   */\n              lt\n                /* \"--CODEGEN--\":2:4   */\n              iszero\n              tag_211\n              jumpi\n                /* \"--CODEGEN--\":29:30   */\n              0x00\n                /* \"--CODEGEN--\":26:27   */\n              dup1\n                /* \"--CODEGEN--\":19:31   */\n              revert\n                /* \"--CODEGEN--\":2:4   */\n            tag_211:\n              pop\n                /* \"v2-core-master/contracts/UniswapV2Pair.sol\":6203:6243  IERC20(_token1).balanceOf(address(this)) */\n              mload\n                /* \"v2-core-master/contracts/UniswapV2Pair.sol\":6288:6292  this */\n              address\n                /* \"v2-core-master/contracts/UniswapV2Pair.sol\":6253:6267  uint liquidity */\n              0x00\n                /* \"v2-core-master/contracts/UniswapV2Pair.sol\":6270:6294  balanceOf[address(this)] */\n              swap1\n              dup2\n              mstore\n                /* \"v2-core-master/contracts/UniswapV2Pair.sol\":6270:6279  balanceOf */\n              0x01\n                /* \"v2-core-master/contracts/UniswapV2Pair.sol\":6203:6243  IERC20(_token1).balanceOf(address(this)) */\n              0x20\n                /* \"v2-core-master/contracts/UniswapV2Pair.sol\":6270:6294  balanceOf[address(this)] */\n              mstore\n              0x40\n              dup2\n              keccak256\n              sload\n                /* \"v2-core-master/contracts/UniswapV2Pair.sol\":6203:6243  IERC20(_token1).balanceOf(address(this)) */\n              swap2\n              swap3\n              pop\n                /* \"v2-core-master/contracts/UniswapV2Pair.sol\":6318:6348  _mintFee(_reserve0, _reserve1) */\n              tag_212\n                /* \"v2-core-master/contracts/UniswapV2Pair.sol\":6327:6336  _reserve0 */\n              dup9\n                /* \"v2-core-master/contracts/UniswapV2Pair.sol\":6338:6347  _reserve1 */\n              dup9\n                /* \"v2-core-master/contracts/UniswapV2Pair.sol\":6318:6326  _mintFee */\n              tag_182\n                /* \"v2-core-master/contracts/UniswapV2Pair.sol\":6318:6348  _mintFee(_reserve0, _reserve1) */\n              jump\t// in\n            tag_212:\n                /* \"v2-core-master/contracts/UniswapV2Pair.sol\":6358:6375  uint _totalSupply */\n              0x00\n                /* \"v2-core-master/contracts/UniswapV2Pair.sol\":6378:6389  totalSupply */\n              sload\n                /* \"v2-core-master/contracts/UniswapV2Pair.sol\":6305:6348  bool feeOn = _mintFee(_reserve0, _reserve1) */\n              swap1\n              swap2\n              pop\n                /* \"v2-core-master/contracts/UniswapV2Pair.sol\":6378:6389  totalSupply */\n              dup1\n                /* \"v2-core-master/contracts/UniswapV2Pair.sol\":6487:6510  liquidity.mul(balance0) */\n              tag_213\n                /* \"v2-core-master/contracts/UniswapV2Pair.sol\":6487:6496  liquidity */\n              dup5\n                /* \"v2-core-master/contracts/UniswapV2Pair.sol\":6501:6509  balance0 */\n              dup8\n                /* \"v2-core-master/contracts/UniswapV2Pair.sol\":6487:6510  liquidity.mul(balance0) */\n              0xffffffff\n                /* \"v2-core-master/contracts/UniswapV2Pair.sol\":6487:6500  liquidity.mul */\n              tag_146\n                /* \"v2-core-master/contracts/UniswapV2Pair.sol\":6487:6510  liquidity.mul(balance0) */\n              and\n              jump\t// in\n            tag_213:\n                /* \"v2-core-master/contracts/UniswapV2Pair.sol\":6487:6525  liquidity.mul(balance0) / _totalSupply */\n              dup2\n              tag_214\n              jumpi\n              invalid\n            tag_214:\n              div\n              swap11\n              pop\n                /* \"v2-core-master/contracts/UniswapV2Pair.sol\":6619:6631  _totalSupply */\n              dup1\n                /* \"v2-core-master/contracts/UniswapV2Pair.sol\":6593:6616  liquidity.mul(balance1) */\n              tag_215\n                /* \"v2-core-master/contracts/UniswapV2Pair.sol\":6593:6602  liquidity */\n              dup5\n                /* \"v2-core-master/contracts/UniswapV2Pair.sol\":6607:6615  balance1 */\n              dup7\n                /* \"v2-core-master/contracts/UniswapV2Pair.sol\":6593:6616  liquidity.mul(balance1) */\n              0xffffffff\n                /* \"v2-core-master/contracts/UniswapV2Pair.sol\":6593:6606  liquidity.mul */\n              tag_146\n                /* \"v2-core-master/contracts/UniswapV2Pair.sol\":6593:6616  liquidity.mul(balance1) */\n              and\n              jump\t// in\n            tag_215:\n                /* \"v2-core-master/contracts/UniswapV2Pair.sol\":6593:6631  liquidity.mul(balance1) / _totalSupply */\n              dup2\n              tag_216\n              jumpi\n              invalid\n            tag_216:\n              div\n                /* \"v2-core-master/contracts/UniswapV2Pair.sol\":6583:6631  amount1 = liquidity.mul(balance1) / _totalSupply */\n              swap10\n              pop\n                /* \"v2-core-master/contracts/UniswapV2Pair.sol\":6707:6708  0 */\n              0x00\n                /* \"v2-core-master/contracts/UniswapV2Pair.sol\":6697:6704  amount0 */\n              dup12\n                /* \"v2-core-master/contracts/UniswapV2Pair.sol\":6697:6708  amount0 > 0 */\n              gt\n                /* \"v2-core-master/contracts/UniswapV2Pair.sol\":6697:6723  amount0 > 0 && amount1 > 0 */\n              dup1\n              iszero\n              tag_217\n              jumpi\n              pop\n                /* \"v2-core-master/contracts/UniswapV2Pair.sol\":6722:6723  0 */\n              0x00\n                /* \"v2-core-master/contracts/UniswapV2Pair.sol\":6712:6719  amount1 */\n              dup11\n                /* \"v2-core-master/contracts/UniswapV2Pair.sol\":6712:6723  amount1 > 0 */\n              gt\n                /* \"v2-core-master/contracts/UniswapV2Pair.sol\":6697:6723  amount0 > 0 && amount1 > 0 */\n            tag_217:\n                /* \"v2-core-master/contracts/UniswapV2Pair.sol\":6689:6768  require(amount0 > 0 && amount1 > 0, 'UniswapV2: INSUFFICIENT_LIQUIDITY_BURNED') */\n              tag_218\n              jumpi\n              mload(0x40)\n              shl(0xe5, 0x461bcd)\n              dup2\n              mstore\n              0x04\n              add\n              dup1\n              dup1\n              0x20\n              add\n              dup3\n              dup2\n              sub\n              dup3\n              mstore\n              0x28\n              dup2\n              mstore\n              0x20\n              add\n              dup1\n              data_57ebfb4dd8b5082cdba0f23c17077e3b0ecb9782a51e0e9a15e9bc8c4b30c562\n              0x28\n              swap2\n              codecopy\n              0x40\n              add\n              swap2\n              pop\n              pop\n              mload(0x40)\n              dup1\n              swap2\n              sub\n              swap1\n              revert\n            tag_218:\n                /* \"v2-core-master/contracts/UniswapV2Pair.sol\":6778:6809  _burn(address(this), liquidity) */\n              tag_219\n                /* \"v2-core-master/contracts/UniswapV2Pair.sol\":6792:6796  this */\n              address\n                /* \"v2-core-master/contracts/UniswapV2Pair.sol\":6799:6808  liquidity */\n              dup5\n                /* \"v2-core-master/contracts/UniswapV2Pair.sol\":6778:6783  _burn */\n              tag_220\n                /* \"v2-core-master/contracts/UniswapV2Pair.sol\":6778:6809  _burn(address(this), liquidity) */\n              jump\t// in\n            tag_219:\n                /* \"v2-core-master/contracts/UniswapV2Pair.sol\":6819:6854  _safeTransfer(_token0, to, amount0) */\n              tag_221\n                /* \"v2-core-master/contracts/UniswapV2Pair.sol\":6833:6840  _token0 */\n              dup8\n                /* \"v2-core-master/contracts/UniswapV2Pair.sol\":6842:6844  to */\n              dup14\n                /* \"v2-core-master/contracts/UniswapV2Pair.sol\":6846:6853  amount0 */\n              dup14\n                /* \"v2-core-master/contracts/UniswapV2Pair.sol\":6819:6832  _safeTransfer */\n              tag_126\n                /* \"v2-core-master/contracts/UniswapV2Pair.sol\":6819:6854  _safeTransfer(_token0, to, amount0) */\n              jump\t// in\n            tag_221:\n                /* \"v2-core-master/contracts/UniswapV2Pair.sol\":6864:6899  _safeTransfer(_token1, to, amount1) */\n              tag_222\n                /* \"v2-core-master/contracts/UniswapV2Pair.sol\":6878:6885  _token1 */\n              dup7\n                /* \"v2-core-master/contracts/UniswapV2Pair.sol\":6887:6889  to */\n              dup14\n                /* \"v2-core-master/contracts/UniswapV2Pair.sol\":6891:6898  amount1 */\n              dup13\n                /* \"v2-core-master/contracts/UniswapV2Pair.sol\":6864:6877  _safeTransfer */\n              tag_126\n                /* \"v2-core-master/contracts/UniswapV2Pair.sol\":6864:6899  _safeTransfer(_token1, to, amount1) */\n              jump\t// in\n            tag_222:\n                /* \"v2-core-master/contracts/UniswapV2Pair.sol\":6920:6960  IERC20(_token0).balanceOf(address(this)) */\n              0x40\n              dup1\n              mload\n              shl(0xe0, 0x70a08231)\n              dup2\n              mstore\n                /* \"v2-core-master/contracts/UniswapV2Pair.sol\":6954:6958  this */\n              address\n                /* \"v2-core-master/contracts/UniswapV2Pair.sol\":6920:6960  IERC20(_token0).balanceOf(address(this)) */\n              0x04\n              dup3\n              add\n              mstore\n              swap1\n              mload\n              sub(shl(0xa0, 0x01), 0x01)\n                /* \"v2-core-master/contracts/UniswapV2Pair.sol\":6920:6945  IERC20(_token0).balanceOf */\n              dup10\n              and\n              swap2\n              0x70a08231\n              swap2\n                /* \"v2-core-master/contracts/UniswapV2Pair.sol\":6920:6960  IERC20(_token0).balanceOf(address(this)) */\n              0x24\n              dup1\n              dup4\n              add\n              swap3\n              0x20\n              swap3\n              swap2\n              swap1\n              dup3\n              swap1\n              sub\n              add\n              dup2\n                /* \"v2-core-master/contracts/UniswapV2Pair.sol\":6920:6945  IERC20(_token0).balanceOf */\n              dup7\n                /* \"v2-core-master/contracts/UniswapV2Pair.sol\":6920:6960  IERC20(_token0).balanceOf(address(this)) */\n              dup1\n              extcodesize\n              iszero\n                /* \"--CODEGEN--\":5:7   */\n              dup1\n              iszero\n              tag_223\n              jumpi\n                /* \"--CODEGEN--\":30:31   */\n              0x00\n                /* \"--CODEGEN--\":27:28   */\n              dup1\n                /* \"--CODEGEN--\":20:32   */\n              revert\n                /* \"--CODEGEN--\":5:7   */\n            tag_223:\n                /* \"v2-core-master/contracts/UniswapV2Pair.sol\":6920:6960  IERC20(_token0).balanceOf(address(this)) */\n              pop\n              gas\n              staticcall\n              iszero\n                /* \"--CODEGEN--\":8:17   */\n              dup1\n                /* \"--CODEGEN--\":5:7   */\n              iszero\n              tag_224\n              jumpi\n                /* \"--CODEGEN--\":45:61   */\n              returndatasize\n                /* \"--CODEGEN--\":42:43   */\n              0x00\n                /* \"--CODEGEN--\":39:40   */\n              dup1\n                /* \"--CODEGEN--\":24:62   */\n              returndatacopy\n                /* \"--CODEGEN--\":77:93   */\n              returndatasize\n                /* \"--CODEGEN--\":74:75   */\n              0x00\n                /* \"--CODEGEN--\":67:94   */\n              revert\n                /* \"--CODEGEN--\":5:7   */\n            tag_224:\n                /* \"v2-core-master/contracts/UniswapV2Pair.sol\":6920:6960  IERC20(_token0).balanceOf(address(this)) */\n              pop\n              pop\n              pop\n              pop\n              mload(0x40)\n              returndatasize\n                /* \"--CODEGEN--\":13:15   */\n              0x20\n                /* \"--CODEGEN--\":8:11   */\n              dup2\n                /* \"--CODEGEN--\":5:16   */\n              lt\n                /* \"--CODEGEN--\":2:4   */\n              iszero\n              tag_225\n              jumpi\n                /* \"--CODEGEN--\":29:30   */\n              0x00\n                /* \"--CODEGEN--\":26:27   */\n              dup1\n                /* \"--CODEGEN--\":19:31   */\n              revert\n                /* \"--CODEGEN--\":2:4   */\n            tag_225:\n              pop\n                /* \"v2-core-master/contracts/UniswapV2Pair.sol\":6920:6960  IERC20(_token0).balanceOf(address(this)) */\n              mload\n                /* \"v2-core-master/contracts/UniswapV2Pair.sol\":6981:7021  IERC20(_token1).balanceOf(address(this)) */\n              0x40\n              dup1\n              mload\n              shl(0xe0, 0x70a08231)\n              dup2\n              mstore\n                /* \"v2-core-master/contracts/UniswapV2Pair.sol\":7015:7019  this */\n              address\n                /* \"v2-core-master/contracts/UniswapV2Pair.sol\":6981:7021  IERC20(_token1).balanceOf(address(this)) */\n              0x04\n              dup3\n              add\n              mstore\n              swap1\n              mload\n                /* \"v2-core-master/contracts/UniswapV2Pair.sol\":6920:6960  IERC20(_token0).balanceOf(address(this)) */\n              swap2\n              swap7\n              pop\n              sub(shl(0xa0, 0x01), 0x01)\n                /* \"v2-core-master/contracts/UniswapV2Pair.sol\":6981:7006  IERC20(_token1).balanceOf */\n              dup9\n              and\n              swap2\n              0x70a08231\n              swap2\n                /* \"v2-core-master/contracts/UniswapV2Pair.sol\":6981:7021  IERC20(_token1).balanceOf(address(this)) */\n              0x24\n              dup1\n              dup3\n              add\n              swap3\n                /* \"v2-core-master/contracts/UniswapV2Pair.sol\":6920:6960  IERC20(_token0).balanceOf(address(this)) */\n              0x20\n              swap3\n                /* \"v2-core-master/contracts/UniswapV2Pair.sol\":6981:7021  IERC20(_token1).balanceOf(address(this)) */\n              swap1\n              swap2\n              swap1\n              dup3\n              swap1\n              sub\n              add\n              dup2\n                /* \"v2-core-master/contracts/UniswapV2Pair.sol\":6981:7006  IERC20(_token1).balanceOf */\n              dup7\n                /* \"v2-core-master/contracts/UniswapV2Pair.sol\":6981:7021  IERC20(_token1).balanceOf(address(this)) */\n              dup1\n              extcodesize\n              iszero\n                /* \"--CODEGEN--\":5:7   */\n              dup1\n              iszero\n              tag_226\n              jumpi\n                /* \"--CODEGEN--\":30:31   */\n              0x00\n                /* \"--CODEGEN--\":27:28   */\n              dup1\n                /* \"--CODEGEN--\":20:32   */\n              revert\n                /* \"--CODEGEN--\":5:7   */\n            tag_226:\n                /* \"v2-core-master/contracts/UniswapV2Pair.sol\":6981:7021  IERC20(_token1).balanceOf(address(this)) */\n              pop\n              gas\n              staticcall\n              iszero\n                /* \"--CODEGEN--\":8:17   */\n              dup1\n                /* \"--CODEGEN--\":5:7   */\n              iszero\n              tag_227\n              jumpi\n                /* \"--CODEGEN--\":45:61   */\n              returndatasize\n                /* \"--CODEGEN--\":42:43   */\n              0x00\n                /* \"--CODEGEN--\":39:40   */\n              dup1\n                /* \"--CODEGEN--\":24:62   */\n              returndatacopy\n                /* \"--CODEGEN--\":77:93   */\n              returndatasize\n                /* \"--CODEGEN--\":74:75   */\n              0x00\n                /* \"--CODEGEN--\":67:94   */\n              revert\n                /* \"--CODEGEN--\":5:7   */\n            tag_227:\n                /* \"v2-core-master/contracts/UniswapV2Pair.sol\":6981:7021  IERC20(_token1).balanceOf(address(this)) */\n              pop\n              pop\n              pop\n              pop\n              mload(0x40)\n              returndatasize\n                /* \"--CODEGEN--\":13:15   */\n              0x20\n                /* \"--CODEGEN--\":8:11   */\n              dup2\n                /* \"--CODEGEN--\":5:16   */\n              lt\n                /* \"--CODEGEN--\":2:4   */\n              iszero\n              tag_228\n              jumpi\n                /* \"--CODEGEN--\":29:30   */\n              0x00\n                /* \"--CODEGEN--\":26:27   */\n              dup1\n                /* \"--CODEGEN--\":19:31   */\n              revert\n                /* \"--CODEGEN--\":2:4   */\n            tag_228:\n              pop\n                /* \"v2-core-master/contracts/UniswapV2Pair.sol\":6981:7021  IERC20(_token1).balanceOf(address(this)) */\n              mload\n              swap4\n              pop\n                /* \"v2-core-master/contracts/UniswapV2Pair.sol\":7032:7081  _update(balance0, balance1, _reserve0, _reserve1) */\n              tag_229\n                /* \"v2-core-master/contracts/UniswapV2Pair.sol\":7040:7048  balance0 */\n              dup6\n                /* \"v2-core-master/contracts/UniswapV2Pair.sol\":6981:7021  IERC20(_token1).balanceOf(address(this)) */\n              dup6\n                /* \"v2-core-master/contracts/UniswapV2Pair.sol\":7060:7069  _reserve0 */\n              dup12\n                /* \"v2-core-master/contracts/UniswapV2Pair.sol\":7071:7080  _reserve1 */\n              dup12\n                /* \"v2-core-master/contracts/UniswapV2Pair.sol\":7032:7039  _update */\n              tag_157\n                /* \"v2-core-master/contracts/UniswapV2Pair.sol\":7032:7081  _update(balance0, balance1, _reserve0, _reserve1) */\n              jump\t// in\n            tag_229:\n                /* \"v2-core-master/contracts/UniswapV2Pair.sol\":7095:7100  feeOn */\n              dup2\n                /* \"v2-core-master/contracts/UniswapV2Pair.sol\":7091:7138  if (feeOn) kLast = uint(reserve0).mul(reserve1) */\n              iszero\n              tag_230\n              jumpi\n                /* \"v2-core-master/contracts/UniswapV2Pair.sol\":7129:7137  reserve1 */\n              sload(0x08)\n                /* \"v2-core-master/contracts/UniswapV2Pair.sol\":7110:7138  uint(reserve0).mul(reserve1) */\n              tag_231\n              swap1\n              sub(shl(0x70, 0x01), 0x01)\n                /* \"v2-core-master/contracts/UniswapV2Pair.sol\":7115:7123  reserve0 */\n              dup1\n              dup3\n              and\n              swap2\n              shl(0x70, 0x01)\n                /* \"v2-core-master/contracts/UniswapV2Pair.sol\":7129:7137  reserve1 */\n              swap1\n              div\n              and\n                /* \"v2-core-master/contracts/UniswapV2Pair.sol\":7110:7128  uint(reserve0).mul */\n              tag_146\n                /* \"v2-core-master/contracts/UniswapV2Pair.sol\":7110:7138  uint(reserve0).mul(reserve1) */\n              jump\t// in\n            tag_231:\n                /* \"v2-core-master/contracts/UniswapV2Pair.sol\":7102:7107  kLast */\n              0x0b\n                /* \"v2-core-master/contracts/UniswapV2Pair.sol\":7102:7138  kLast = uint(reserve0).mul(reserve1) */\n              sstore\n                /* \"v2-core-master/contracts/UniswapV2Pair.sol\":7091:7138  if (feeOn) kLast = uint(reserve0).mul(reserve1) */\n            tag_230:\n                /* \"v2-core-master/contracts/UniswapV2Pair.sol\":7193:7231  Burn(msg.sender, amount0, amount1, to) */\n              0x40\n              dup1\n              mload\n              dup13\n              dup2\n              mstore\n              0x20\n              dup2\n              add\n              dup13\n              swap1\n              mstore\n              dup2\n              mload\n              sub(shl(0xa0, 0x01), 0x01)\n              dup16\n              and\n              swap3\n                /* \"v2-core-master/contracts/UniswapV2Pair.sol\":7198:7208  msg.sender */\n              caller\n              swap3\n                /* \"v2-core-master/contracts/UniswapV2Pair.sol\":7193:7231  Burn(msg.sender, amount0, amount1, to) */\n              0xdccd412f0b1252819cb1fd330b93224ca42612892bb3f4f789976e6d81936496\n              swap3\n              swap1\n              dup2\n              swap1\n              sub\n              swap1\n              swap2\n              add\n              swap1\n              log3\n                /* \"v2-core-master/contracts/UniswapV2Pair.sol\":1248:1249  _ */\n              pop\n              pop\n              pop\n              pop\n              pop\n              pop\n              pop\n              pop\n              pop\n                /* \"v2-core-master/contracts/UniswapV2Pair.sol\":1270:1271  1 */\n              0x01\n                /* \"v2-core-master/contracts/UniswapV2Pair.sol\":1259:1267  unlocked */\n              0x0c\n                /* \"v2-core-master/contracts/UniswapV2Pair.sol\":1259:1271  unlocked = 1 */\n              dup2\n              swap1\n              sstore\n              pop\n                /* \"v2-core-master/contracts/UniswapV2Pair.sol\":5794:7238  function burn(address to) external lock returns (uint amount0, uint amount1) {... */\n              swap2\n              pop\n              swap2\n              jump\t// out\n                /* \"v2-core-master/contracts/UniswapV2ERC20.sol\":234:271  string public constant symbol = 'ELA' */\n            tag_89:\n              mload(0x40)\n              dup1\n              0x40\n              add\n              0x40\n              mstore\n              dup1\n              0x03\n              dup2\n              mstore\n              0x20\n              add\n              0x454c410000000000000000000000000000000000000000000000000000000000\n              dup2\n              mstore\n              pop\n              dup2\n              jump\t// out\n                /* \"v2-core-master/contracts/UniswapV2ERC20.sol\":2326:2462  function transfer(address to, uint value) external returns (bool) {... */\n            tag_96:\n                /* \"v2-core-master/contracts/UniswapV2ERC20.sol\":2386:2390  bool */\n              0x00\n                /* \"v2-core-master/contracts/UniswapV2ERC20.sol\":2402:2434  _transfer(msg.sender, to, value) */\n              tag_160\n                /* \"v2-core-master/contracts/UniswapV2ERC20.sol\":2412:2422  msg.sender */\n              caller\n                /* \"v2-core-master/contracts/UniswapV2ERC20.sol\":2424:2426  to */\n              dup5\n                /* \"v2-core-master/contracts/UniswapV2ERC20.sol\":2428:2433  value */\n              dup5\n                /* \"v2-core-master/contracts/UniswapV2ERC20.sol\":2402:2411  _transfer */\n              tag_166\n                /* \"v2-core-master/contracts/UniswapV2ERC20.sol\":2402:2434  _transfer(msg.sender, to, value) */\n              jump\t// in\n                /* \"v2-core-master/contracts/UniswapV2Pair.sol\":417:463  uint public constant MINIMUM_LIQUIDITY = 10**3 */\n            tag_98:\n                /* \"v2-core-master/contracts/UniswapV2Pair.sol\":458:463  10**3 */\n              0x03e8\n                /* \"v2-core-master/contracts/UniswapV2Pair.sol\":417:463  uint public constant MINIMUM_LIQUIDITY = 10**3 */\n              dup2\n              jump\t// out\n                /* \"v2-core-master/contracts/UniswapV2Pair.sol\":9254:9583  function skim(address to) external lock {... */\n            tag_101:\n                /* \"v2-core-master/contracts/UniswapV2Pair.sol\":1181:1189  unlocked */\n              sload(0x0c)\n                /* \"v2-core-master/contracts/UniswapV2Pair.sol\":1193:1194  1 */\n              0x01\n                /* \"v2-core-master/contracts/UniswapV2Pair.sol\":1181:1194  unlocked == 1 */\n              eq\n                /* \"v2-core-master/contracts/UniswapV2Pair.sol\":1173:1216  require(unlocked == 1, 'UniswapV2: LOCKED') */\n              tag_235\n              jumpi\n              0x40\n              dup1\n              mload\n              shl(0xe5, 0x461bcd)\n              dup2\n              mstore\n              0x20\n              0x04\n              dup3\n              add\n              mstore\n              0x11\n              0x24\n              dup3\n              add\n              mstore\n              0x556e697377617056323a204c4f434b4544000000000000000000000000000000\n              0x44\n              dup3\n              add\n              mstore\n              swap1\n              mload\n              swap1\n              dup2\n              swap1\n              sub\n              0x64\n              add\n              swap1\n              revert\n            tag_235:\n                /* \"v2-core-master/contracts/UniswapV2Pair.sol\":1237:1238  0 */\n              0x00\n                /* \"v2-core-master/contracts/UniswapV2Pair.sol\":1226:1234  unlocked */\n              0x0c\n                /* \"v2-core-master/contracts/UniswapV2Pair.sol\":1226:1238  unlocked = 0 */\n              sstore\n                /* \"v2-core-master/contracts/UniswapV2Pair.sol\":9322:9328  token0 */\n              sload(0x06)\n                /* \"v2-core-master/contracts/UniswapV2Pair.sol\":9371:9377  token1 */\n              sload(0x07)\n                /* \"v2-core-master/contracts/UniswapV2Pair.sol\":9474:9482  reserve0 */\n              sload(0x08)\n                /* \"v2-core-master/contracts/UniswapV2Pair.sol\":9429:9469  IERC20(_token0).balanceOf(address(this)) */\n              0x40\n              dup1\n              mload\n              shl(0xe0, 0x70a08231)\n              dup2\n              mstore\n                /* \"v2-core-master/contracts/UniswapV2Pair.sol\":9463:9467  this */\n              address\n                /* \"v2-core-master/contracts/UniswapV2Pair.sol\":9429:9469  IERC20(_token0).balanceOf(address(this)) */\n              0x04\n              dup3\n              add\n              mstore\n              swap1\n              mload\n              sub(shl(0xa0, 0x01), 0x01)\n                /* \"v2-core-master/contracts/UniswapV2Pair.sol\":9322:9328  token0 */\n              swap5\n              dup6\n              and\n              swap5\n                /* \"v2-core-master/contracts/UniswapV2Pair.sol\":9371:9377  token1 */\n              swap1\n              swap4\n              and\n              swap3\n                /* \"v2-core-master/contracts/UniswapV2Pair.sol\":9402:9484  _safeTransfer(_token0, to, IERC20(_token0).balanceOf(address(this)).sub(reserve0)) */\n              tag_237\n              swap3\n                /* \"v2-core-master/contracts/UniswapV2Pair.sol\":9322:9328  token0 */\n              dup6\n              swap3\n                /* \"v2-core-master/contracts/UniswapV2Pair.sol\":9425:9427  to */\n              dup8\n              swap3\n                /* \"v2-core-master/contracts/UniswapV2Pair.sol\":9429:9483  IERC20(_token0).balanceOf(address(this)).sub(reserve0) */\n              tag_238\n              swap3\n              sub(shl(0x70, 0x01), 0x01)\n                /* \"v2-core-master/contracts/UniswapV2Pair.sol\":9474:9482  reserve0 */\n              and\n              swap2\n                /* \"v2-core-master/contracts/UniswapV2Pair.sol\":9322:9328  token0 */\n              dup6\n              swap2\n              0x70a08231\n              swap2\n                /* \"v2-core-master/contracts/UniswapV2Pair.sol\":9429:9469  IERC20(_token0).balanceOf(address(this)) */\n              0x24\n              dup1\n              dup3\n              add\n              swap3\n              0x20\n              swap3\n              swap1\n              swap2\n              swap1\n              dup3\n              swap1\n              sub\n              add\n              dup2\n                /* \"v2-core-master/contracts/UniswapV2Pair.sol\":9322:9328  token0 */\n              dup7\n                /* \"v2-core-master/contracts/UniswapV2Pair.sol\":9429:9469  IERC20(_token0).balanceOf(address(this)) */\n              dup1\n              extcodesize\n              iszero\n                /* \"--CODEGEN--\":5:7   */\n              dup1\n              iszero\n              tag_239\n              jumpi\n                /* \"--CODEGEN--\":30:31   */\n              0x00\n                /* \"--CODEGEN--\":27:28   */\n              dup1\n                /* \"--CODEGEN--\":20:32   */\n              revert\n                /* \"--CODEGEN--\":5:7   */\n            tag_239:\n                /* \"v2-core-master/contracts/UniswapV2Pair.sol\":9429:9469  IERC20(_token0).balanceOf(address(this)) */\n              pop\n              gas\n              staticcall\n              iszero\n                /* \"--CODEGEN--\":8:17   */\n              dup1\n                /* \"--CODEGEN--\":5:7   */\n              iszero\n              tag_240\n              jumpi\n                /* \"--CODEGEN--\":45:61   */\n              returndatasize\n                /* \"--CODEGEN--\":42:43   */\n              0x00\n                /* \"--CODEGEN--\":39:40   */\n              dup1\n                /* \"--CODEGEN--\":24:62   */\n              returndatacopy\n                /* \"--CODEGEN--\":77:93   */\n              returndatasize\n                /* \"--CODEGEN--\":74:75   */\n              0x00\n                /* \"--CODEGEN--\":67:94   */\n              revert\n                /* \"--CODEGEN--\":5:7   */\n            tag_240:\n                /* \"v2-core-master/contracts/UniswapV2Pair.sol\":9429:9469  IERC20(_token0).balanceOf(address(this)) */\n              pop\n              pop\n              pop\n              pop\n              mload(0x40)\n              returndatasize\n                /* \"--CODEGEN--\":13:15   */\n              0x20\n                /* \"--CODEGEN--\":8:11   */\n              dup2\n                /* \"--CODEGEN--\":5:16   */\n              lt\n                /* \"--CODEGEN--\":2:4   */\n              iszero\n              tag_241\n              jumpi\n                /* \"--CODEGEN--\":29:30   */\n              0x00\n                /* \"--CODEGEN--\":26:27   */\n              dup1\n                /* \"--CODEGEN--\":19:31   */\n              revert\n                /* \"--CODEGEN--\":2:4   */\n            tag_241:\n              pop\n                /* \"v2-core-master/contracts/UniswapV2Pair.sol\":9429:9469  IERC20(_token0).balanceOf(address(this)) */\n              mload\n              swap1\n                /* \"v2-core-master/contracts/UniswapV2Pair.sol\":9429:9483  IERC20(_token0).balanceOf(address(this)).sub(reserve0) */\n              0xffffffff\n                /* \"v2-core-master/contracts/UniswapV2Pair.sol\":9429:9473  IERC20(_token0).balanceOf(address(this)).sub */\n              tag_148\n                /* \"v2-core-master/contracts/UniswapV2Pair.sol\":9429:9483  IERC20(_token0).balanceOf(address(this)).sub(reserve0) */\n              and\n              jump\t// in\n            tag_238:\n                /* \"v2-core-master/contracts/UniswapV2Pair.sol\":9402:9415  _safeTransfer */\n              tag_126\n                /* \"v2-core-master/contracts/UniswapV2Pair.sol\":9402:9484  _safeTransfer(_token0, to, IERC20(_token0).balanceOf(address(this)).sub(reserve0)) */\n              jump\t// in\n            tag_237:\n                /* \"v2-core-master/contracts/UniswapV2Pair.sol\":9566:9574  reserve1 */\n              sload(0x08)\n                /* \"v2-core-master/contracts/UniswapV2Pair.sol\":9521:9561  IERC20(_token1).balanceOf(address(this)) */\n              0x40\n              dup1\n              mload\n              shl(0xe0, 0x70a08231)\n              dup2\n              mstore\n                /* \"v2-core-master/contracts/UniswapV2Pair.sol\":9555:9559  this */\n              address\n                /* \"v2-core-master/contracts/UniswapV2Pair.sol\":9521:9561  IERC20(_token1).balanceOf(address(this)) */\n              0x04\n              dup3\n              add\n              mstore\n              swap1\n              mload\n                /* \"v2-core-master/contracts/UniswapV2Pair.sol\":9494:9576  _safeTransfer(_token1, to, IERC20(_token1).balanceOf(address(this)).sub(reserve1)) */\n              tag_242\n              swap3\n                /* \"v2-core-master/contracts/UniswapV2Pair.sol\":9508:9515  _token1 */\n              dup5\n              swap3\n                /* \"v2-core-master/contracts/UniswapV2Pair.sol\":9517:9519  to */\n              dup8\n              swap3\n                /* \"v2-core-master/contracts/UniswapV2Pair.sol\":9521:9575  IERC20(_token1).balanceOf(address(this)).sub(reserve1) */\n              tag_238\n              swap3\n              shl(0x70, 0x01)\n                /* \"v2-core-master/contracts/UniswapV2Pair.sol\":9566:9574  reserve1 */\n              swap1\n              div\n              sub(shl(0x70, 0x01), 0x01)\n              and\n              swap2\n              sub(shl(0xa0, 0x01), 0x01)\n                /* \"v2-core-master/contracts/UniswapV2Pair.sol\":9521:9546  IERC20(_token1).balanceOf */\n              dup7\n              and\n              swap2\n              0x70a08231\n              swap2\n                /* \"v2-core-master/contracts/UniswapV2Pair.sol\":9521:9561  IERC20(_token1).balanceOf(address(this)) */\n              0x24\n              dup1\n              dup3\n              add\n              swap3\n              0x20\n              swap3\n              swap1\n              swap2\n              swap1\n              dup3\n              swap1\n              sub\n              add\n              dup2\n                /* \"v2-core-master/contracts/UniswapV2Pair.sol\":9521:9546  IERC20(_token1).balanceOf */\n              dup7\n                /* \"v2-core-master/contracts/UniswapV2Pair.sol\":9521:9561  IERC20(_token1).balanceOf(address(this)) */\n              dup1\n              extcodesize\n              iszero\n                /* \"--CODEGEN--\":5:7   */\n              dup1\n              iszero\n              tag_239\n              jumpi\n                /* \"--CODEGEN--\":30:31   */\n              0x00\n                /* \"--CODEGEN--\":27:28   */\n              dup1\n                /* \"--CODEGEN--\":20:32   */\n              revert\n                /* \"v2-core-master/contracts/UniswapV2Pair.sol\":9494:9576  _safeTransfer(_token1, to, IERC20(_token1).balanceOf(address(this)).sub(reserve1)) */\n            tag_242:\n              pop\n              pop\n                /* \"v2-core-master/contracts/UniswapV2Pair.sol\":1270:1271  1 */\n              0x01\n                /* \"v2-core-master/contracts/UniswapV2Pair.sol\":1259:1267  unlocked */\n              0x0c\n                /* \"v2-core-master/contracts/UniswapV2Pair.sol\":1259:1271  unlocked = 1 */\n              sstore\n              pop\n                /* \"v2-core-master/contracts/UniswapV2Pair.sol\":9254:9583  function skim(address to) external lock {... */\n              jump\t// out\n                /* \"v2-core-master/contracts/UniswapV2Pair.sol\":564:586  address public factory */\n            tag_103:\n              and(sub(shl(0xa0, 0x01), 0x01), sload(0x05))\n              dup2\n              jump\t// out\n                /* \"v2-core-master/contracts/UniswapV2Pair.sol\":619:640  address public token1 */\n            tag_105:\n              and(sub(shl(0xa0, 0x01), 0x01), sload(0x07))\n              dup2\n              jump\t// out\n                /* \"v2-core-master/contracts/UniswapV2ERC20.sol\":2769:3431  function permit(address owner, address spender, uint value, uint deadline, uint8 v, bytes32 r, bytes32 s) external {... */\n            tag_108:\n                /* \"v2-core-master/contracts/UniswapV2ERC20.sol\":2914:2929  block.timestamp */\n              timestamp\n                /* \"v2-core-master/contracts/UniswapV2ERC20.sol\":2902:2910  deadline */\n              dup5\n                /* \"v2-core-master/contracts/UniswapV2ERC20.sol\":2902:2929  deadline >= block.timestamp */\n              lt\n              iszero\n                /* \"v2-core-master/contracts/UniswapV2ERC20.sol\":2894:2952  require(deadline >= block.timestamp, 'UniswapV2: EXPIRED') */\n              tag_248\n              jumpi\n              0x40\n              dup1\n              mload\n              shl(0xe5, 0x461bcd)\n              dup2\n              mstore\n              0x20\n              0x04\n              dup3\n              add\n              mstore\n              0x12\n              0x24\n              dup3\n              add\n              mstore\n              0x556e697377617056323a20455850495245440000000000000000000000000000\n              0x44\n              dup3\n              add\n              mstore\n              swap1\n              mload\n              swap1\n              dup2\n              swap1\n              sub\n              0x64\n              add\n              swap1\n              revert\n            tag_248:\n                /* \"v2-core-master/contracts/UniswapV2ERC20.sol\":3064:3080  DOMAIN_SEPARATOR */\n              sload(0x03)\n              sub(shl(0xa0, 0x01), 0x01)\n                /* \"v2-core-master/contracts/UniswapV2ERC20.sol\":3159:3172  nonces[owner] */\n              dup9\n              dup2\n              and\n                /* \"v2-core-master/contracts/UniswapV2ERC20.sol\":2962:2976  bytes32 digest */\n              0x00\n                /* \"v2-core-master/contracts/UniswapV2ERC20.sol\":3159:3172  nonces[owner] */\n              dup2\n              dup2\n              mstore\n                /* \"v2-core-master/contracts/UniswapV2ERC20.sol\":3159:3165  nonces */\n              0x04\n                /* \"v2-core-master/contracts/UniswapV2ERC20.sol\":3159:3172  nonces[owner] */\n              0x20\n              swap1\n              dup2\n              mstore\n              0x40\n              dup1\n              dup4\n              keccak256\n                /* \"v2-core-master/contracts/UniswapV2ERC20.sol\":3159:3174  nonces[owner]++ */\n              dup1\n              sload\n              0x01\n              dup2\n              dup2\n              add\n              swap1\n              swap3\n              sstore\n                /* \"v2-core-master/contracts/UniswapV2ERC20.sol\":3108:3185  abi.encode(PERMIT_TYPEHASH, owner, spender, value, nonces[owner]++, deadline) */\n              dup3\n              mload\n                /* \"v2-core-master/contracts/UniswapV2ERC20.sol\":646:712  0x6e71edae12b1b97f4d1f60370fef10105fa2faae0126114a169c64845d6126c9 */\n              0x6e71edae12b1b97f4d1f60370fef10105fa2faae0126114a169c64845d6126c9\n                /* \"v2-core-master/contracts/UniswapV2ERC20.sol\":3108:3185  abi.encode(PERMIT_TYPEHASH, owner, spender, value, nonces[owner]++, deadline) */\n              dup2\n              dup7\n              add\n              mstore\n              dup1\n              dup5\n              add\n              swap7\n              swap1\n              swap7\n              mstore\n              swap6\n              dup14\n              and\n              0x60\n              dup7\n              add\n              mstore\n              0x80\n              dup6\n              add\n              dup13\n              swap1\n              mstore\n              0xa0\n              dup6\n              add\n              swap6\n              swap1\n              swap6\n              mstore\n              0xc0\n              dup1\n              dup6\n              add\n              dup12\n              swap1\n              mstore\n              dup2\n              mload\n                /* \"--CODEGEN--\":26:47   */\n              dup1\n              dup7\n              sub\n                /* \"--CODEGEN--\":22:54   */\n              swap1\n              swap2\n              add\n                /* \"--CODEGEN--\":6:55   */\n              dup2\n              mstore\n                /* \"v2-core-master/contracts/UniswapV2ERC20.sol\":3108:3185  abi.encode(PERMIT_TYPEHASH, owner, spender, value, nonces[owner]++, deadline) */\n              0xe0\n              dup6\n              add\n              dup3\n              mstore\n                /* \"v2-core-master/contracts/UniswapV2ERC20.sol\":3098:3186  keccak256(abi.encode(PERMIT_TYPEHASH, owner, spender, value, nonces[owner]++, deadline)) */\n              dup1\n              mload\n              swap1\n              dup4\n              add\n              keccak256\n                /* \"v2-core-master/contracts/UniswapV2ERC20.sol\":3002:3200  abi.encodePacked(... */\n              0x1901000000000000000000000000000000000000000000000000000000000000\n              0x0100\n              dup7\n              add\n              mstore\n              0x0102\n              dup6\n              add\n              swap7\n              swap1\n              swap7\n              mstore\n              0x0122\n              dup1\n              dup6\n              add\n              swap7\n              swap1\n              swap7\n              mstore\n              dup1\n              mload\n                /* \"--CODEGEN--\":26:47   */\n              dup1\n              dup6\n              sub\n                /* \"--CODEGEN--\":22:54   */\n              swap1\n              swap7\n              add\n                /* \"--CODEGEN--\":6:55   */\n              dup7\n              mstore\n                /* \"v2-core-master/contracts/UniswapV2ERC20.sol\":3002:3200  abi.encodePacked(... */\n              0x0142\n              dup5\n              add\n              dup1\n              dup3\n              mstore\n                /* \"v2-core-master/contracts/UniswapV2ERC20.sol\":2979:3210  keccak256(... */\n              dup7\n              mload\n              swap7\n              dup4\n              add\n              swap7\n              swap1\n              swap7\n              keccak256\n                /* \"v2-core-master/contracts/UniswapV2ERC20.sol\":3247:3273  ecrecover(digest, v, r, s) */\n              swap6\n              dup4\n              swap1\n              mstore\n              0x0162\n              dup5\n              add\n              dup1\n              dup3\n              mstore\n              dup7\n              swap1\n              mstore\n              0xff\n              dup10\n              and\n              0x0182\n              dup6\n              add\n              mstore\n              0x01a2\n              dup5\n              add\n              dup9\n              swap1\n              mstore\n              0x01c2\n              dup5\n              add\n              dup8\n              swap1\n              mstore\n              mload\n                /* \"v2-core-master/contracts/UniswapV2ERC20.sol\":2962:2976  bytes32 digest */\n              swap2\n              swap4\n              swap3\n                /* \"v2-core-master/contracts/UniswapV2ERC20.sol\":3247:3273  ecrecover(digest, v, r, s) */\n              0x01e2\n              dup1\n              dup3\n              add\n              swap4\n              not(0x1f)\n              dup2\n              add\n              swap3\n              dup2\n              swap1\n              sub\n              swap1\n              swap2\n              add\n              swap1\n              dup6\n              gas\n              staticcall\n              iszero\n                /* \"--CODEGEN--\":8:17   */\n              dup1\n                /* \"--CODEGEN--\":5:7   */\n              iszero\n              tag_249\n              jumpi\n                /* \"--CODEGEN--\":45:61   */\n              returndatasize\n                /* \"--CODEGEN--\":42:43   */\n              0x00\n                /* \"--CODEGEN--\":39:40   */\n              dup1\n                /* \"--CODEGEN--\":24:62   */\n              returndatacopy\n                /* \"--CODEGEN--\":77:93   */\n              returndatasize\n                /* \"--CODEGEN--\":74:75   */\n              0x00\n                /* \"--CODEGEN--\":67:94   */\n              revert\n                /* \"--CODEGEN--\":5:7   */\n            tag_249:\n              pop\n              pop\n                /* \"v2-core-master/contracts/UniswapV2ERC20.sol\":3247:3273  ecrecover(digest, v, r, s) */\n              mload(add(not(0x1f), mload(0x40)))\n              swap2\n              pop\n              pop\n              sub(shl(0xa0, 0x01), 0x01)\n                /* \"v2-core-master/contracts/UniswapV2ERC20.sol\":3291:3321  recoveredAddress != address(0) */\n              dup2\n              and\n              iszero\n              dup1\n              iszero\n              swap1\n                /* \"v2-core-master/contracts/UniswapV2ERC20.sol\":3291:3350  recoveredAddress != address(0) && recoveredAddress == owner */\n              tag_250\n              jumpi\n              pop\n              sub(shl(0xa0, 0x01), 0x01)\n                /* \"v2-core-master/contracts/UniswapV2ERC20.sol\":3325:3350  recoveredAddress == owner */\n              dup2\n              dup2\n              and\n              swap1\n              dup11\n              and\n              eq\n                /* \"v2-core-master/contracts/UniswapV2ERC20.sol\":3291:3350  recoveredAddress != address(0) && recoveredAddress == owner */\n            tag_250:\n                /* \"v2-core-master/contracts/UniswapV2ERC20.sol\":3283:3383  require(recoveredAddress != address(0) && recoveredAddress == owner, 'UniswapV2: INVALID_SIGNATURE') */\n              tag_251\n              jumpi\n              0x40\n              dup1\n              mload\n              shl(0xe5, 0x461bcd)\n              dup2\n              mstore\n              0x20\n              0x04\n              dup3\n              add\n              mstore\n              0x1c\n              0x24\n              dup3\n              add\n              mstore\n              0x556e697377617056323a20494e56414c49445f5349474e415455524500000000\n              0x44\n              dup3\n              add\n              mstore\n              swap1\n              mload\n              swap1\n              dup2\n              swap1\n              sub\n              0x64\n              add\n              swap1\n              revert\n            tag_251:\n                /* \"v2-core-master/contracts/UniswapV2ERC20.sol\":3393:3424  _approve(owner, spender, value) */\n              tag_252\n                /* \"v2-core-master/contracts/UniswapV2ERC20.sol\":3402:3407  owner */\n              dup10\n                /* \"v2-core-master/contracts/UniswapV2ERC20.sol\":3409:3416  spender */\n              dup10\n                /* \"v2-core-master/contracts/UniswapV2ERC20.sol\":3418:3423  value */\n              dup10\n                /* \"v2-core-master/contracts/UniswapV2ERC20.sol\":3393:3401  _approve */\n              tag_161\n                /* \"v2-core-master/contracts/UniswapV2ERC20.sol\":3393:3424  _approve(owner, spender, value) */\n              jump\t// in\n            tag_252:\n                /* \"v2-core-master/contracts/UniswapV2ERC20.sol\":2769:3431  function permit(address owner, address spender, uint value, uint deadline, uint8 v, bytes32 r, bytes32 s) external {... */\n              pop\n              pop\n              pop\n              pop\n              pop\n              pop\n              pop\n              pop\n              pop\n              jump\t// out\n                /* \"v2-core-master/contracts/UniswapV2ERC20.sol\":395:456  mapping(address => mapping(address => uint)) public allowance */\n            tag_111:\n              0x02\n              0x20\n              swap1\n              dup2\n              mstore\n              0x00\n              swap3\n              dup4\n              mstore\n              0x40\n              dup1\n              dup5\n              keccak256\n              swap1\n              swap2\n              mstore\n              swap1\n              dup3\n              mstore\n              swap1\n              keccak256\n              sload\n              dup2\n              jump\t// out\n                /* \"v2-core-master/contracts/UniswapV2Pair.sol\":9629:9785  function sync() external lock {... */\n            tag_113:\n                /* \"v2-core-master/contracts/UniswapV2Pair.sol\":1181:1189  unlocked */\n              sload(0x0c)\n                /* \"v2-core-master/contracts/UniswapV2Pair.sol\":1193:1194  1 */\n              0x01\n                /* \"v2-core-master/contracts/UniswapV2Pair.sol\":1181:1194  unlocked == 1 */\n              eq\n                /* \"v2-core-master/contracts/UniswapV2Pair.sol\":1173:1216  require(unlocked == 1, 'UniswapV2: LOCKED') */\n              tag_254\n              jumpi\n              0x40\n              dup1\n              mload\n              shl(0xe5, 0x461bcd)\n              dup2\n              mstore\n              0x20\n              0x04\n              dup3\n              add\n              mstore\n              0x11\n              0x24\n              dup3\n              add\n              mstore\n              0x556e697377617056323a204c4f434b4544000000000000000000000000000000\n              0x44\n              dup3\n              add\n              mstore\n              swap1\n              mload\n              swap1\n              dup2\n              swap1\n              sub\n              0x64\n              add\n              swap1\n              revert\n            tag_254:\n                /* \"v2-core-master/contracts/UniswapV2Pair.sol\":1237:1238  0 */\n              0x00\n                /* \"v2-core-master/contracts/UniswapV2Pair.sol\":1226:1234  unlocked */\n              0x0c\n                /* \"v2-core-master/contracts/UniswapV2Pair.sol\":1226:1238  unlocked = 0 */\n              sstore\n                /* \"v2-core-master/contracts/UniswapV2Pair.sol\":9684:9690  token0 */\n              sload(0x06)\n                /* \"v2-core-master/contracts/UniswapV2Pair.sol\":9677:9716  IERC20(token0).balanceOf(address(this)) */\n              0x40\n              dup1\n              mload\n              shl(0xe0, 0x70a08231)\n              dup2\n              mstore\n                /* \"v2-core-master/contracts/UniswapV2Pair.sol\":9710:9714  this */\n              address\n                /* \"v2-core-master/contracts/UniswapV2Pair.sol\":9677:9716  IERC20(token0).balanceOf(address(this)) */\n              0x04\n              dup3\n              add\n              mstore\n              swap1\n              mload\n                /* \"v2-core-master/contracts/UniswapV2Pair.sol\":9669:9778  _update(IERC20(token0).balanceOf(address(this)), IERC20(token1).balanceOf(address(this)), reserve0, reserve1) */\n              tag_256\n              swap3\n              sub(shl(0xa0, 0x01), 0x01)\n                /* \"v2-core-master/contracts/UniswapV2Pair.sol\":9684:9690  token0 */\n              and\n              swap2\n              0x70a08231\n              swap2\n                /* \"v2-core-master/contracts/UniswapV2Pair.sol\":9677:9716  IERC20(token0).balanceOf(address(this)) */\n              0x24\n              dup1\n              dup4\n              add\n              swap3\n              0x20\n              swap3\n              swap2\n              swap1\n              dup3\n              swap1\n              sub\n              add\n              dup2\n                /* \"v2-core-master/contracts/UniswapV2Pair.sol\":9684:9690  token0 */\n              dup7\n                /* \"v2-core-master/contracts/UniswapV2Pair.sol\":9677:9716  IERC20(token0).balanceOf(address(this)) */\n              dup1\n              extcodesize\n              iszero\n                /* \"--CODEGEN--\":5:7   */\n              dup1\n              iszero\n              tag_257\n              jumpi\n                /* \"--CODEGEN--\":30:31   */\n              0x00\n                /* \"--CODEGEN--\":27:28   */\n              dup1\n                /* \"--CODEGEN--\":20:32   */\n              revert\n                /* \"--CODEGEN--\":5:7   */\n            tag_257:\n                /* \"v2-core-master/contracts/UniswapV2Pair.sol\":9677:9716  IERC20(token0).balanceOf(address(this)) */\n              pop\n              gas\n              staticcall\n              iszero\n                /* \"--CODEGEN--\":8:17   */\n              dup1\n                /* \"--CODEGEN--\":5:7   */\n              iszero\n              tag_258\n              jumpi\n                /* \"--CODEGEN--\":45:61   */\n              returndatasize\n                /* \"--CODEGEN--\":42:43   */\n              0x00\n                /* \"--CODEGEN--\":39:40   */\n              dup1\n                /* \"--CODEGEN--\":24:62   */\n              returndatacopy\n                /* \"--CODEGEN--\":77:93   */\n              returndatasize\n                /* \"--CODEGEN--\":74:75   */\n              0x00\n                /* \"--CODEGEN--\":67:94   */\n              revert\n                /* \"--CODEGEN--\":5:7   */\n            tag_258:\n                /* \"v2-core-master/contracts/UniswapV2Pair.sol\":9677:9716  IERC20(token0).balanceOf(address(this)) */\n              pop\n              pop\n              pop\n              pop\n              mload(0x40)\n              returndatasize\n                /* \"--CODEGEN--\":13:15   */\n              0x20\n                /* \"--CODEGEN--\":8:11   */\n              dup2\n                /* \"--CODEGEN--\":5:16   */\n              lt\n                /* \"--CODEGEN--\":2:4   */\n              iszero\n              tag_259\n              jumpi\n                /* \"--CODEGEN--\":29:30   */\n              0x00\n                /* \"--CODEGEN--\":26:27   */\n              dup1\n                /* \"--CODEGEN--\":19:31   */\n              revert\n                /* \"--CODEGEN--\":2:4   */\n            tag_259:\n              pop\n                /* \"v2-core-master/contracts/UniswapV2Pair.sol\":9677:9716  IERC20(token0).balanceOf(address(this)) */\n              mload\n                /* \"v2-core-master/contracts/UniswapV2Pair.sol\":9725:9731  token1 */\n              sload(0x07)\n                /* \"v2-core-master/contracts/UniswapV2Pair.sol\":9718:9757  IERC20(token1).balanceOf(address(this)) */\n              0x40\n              dup1\n              mload\n              shl(0xe0, 0x70a08231)\n              dup2\n              mstore\n                /* \"v2-core-master/contracts/UniswapV2Pair.sol\":9751:9755  this */\n              address\n                /* \"v2-core-master/contracts/UniswapV2Pair.sol\":9718:9757  IERC20(token1).balanceOf(address(this)) */\n              0x04\n              dup3\n              add\n              mstore\n              swap1\n              mload\n              sub(shl(0xa0, 0x01), 0x01)\n                /* \"v2-core-master/contracts/UniswapV2Pair.sol\":9725:9731  token1 */\n              swap1\n              swap3\n              and\n              swap2\n              0x70a08231\n              swap2\n                /* \"v2-core-master/contracts/UniswapV2Pair.sol\":9718:9757  IERC20(token1).balanceOf(address(this)) */\n              0x24\n              dup1\n              dup3\n              add\n              swap3\n                /* \"v2-core-master/contracts/UniswapV2Pair.sol\":9677:9716  IERC20(token0).balanceOf(address(this)) */\n              0x20\n              swap3\n                /* \"v2-core-master/contracts/UniswapV2Pair.sol\":9718:9757  IERC20(token1).balanceOf(address(this)) */\n              swap1\n              swap2\n              swap1\n              dup3\n              swap1\n              sub\n              add\n              dup2\n                /* \"v2-core-master/contracts/UniswapV2Pair.sol\":9725:9731  token1 */\n              dup7\n                /* \"v2-core-master/contracts/UniswapV2Pair.sol\":9718:9757  IERC20(token1).balanceOf(address(this)) */\n              dup1\n              extcodesize\n              iszero\n                /* \"--CODEGEN--\":5:7   */\n              dup1\n              iszero\n              tag_260\n              jumpi\n                /* \"--CODEGEN--\":30:31   */\n              0x00\n                /* \"--CODEGEN--\":27:28   */\n              dup1\n                /* \"--CODEGEN--\":20:32   */\n              revert\n                /* \"--CODEGEN--\":5:7   */\n            tag_260:\n                /* \"v2-core-master/contracts/UniswapV2Pair.sol\":9718:9757  IERC20(token1).balanceOf(address(this)) */\n              pop\n              gas\n              staticcall\n              iszero\n                /* \"--CODEGEN--\":8:17   */\n              dup1\n                /* \"--CODEGEN--\":5:7   */\n              iszero\n              tag_261\n              jumpi\n                /* \"--CODEGEN--\":45:61   */\n              returndatasize\n                /* \"--CODEGEN--\":42:43   */\n              0x00\n                /* \"--CODEGEN--\":39:40   */\n              dup1\n                /* \"--CODEGEN--\":24:62   */\n              returndatacopy\n                /* \"--CODEGEN--\":77:93   */\n              returndatasize\n                /* \"--CODEGEN--\":74:75   */\n              0x00\n                /* \"--CODEGEN--\":67:94   */\n              revert\n                /* \"--CODEGEN--\":5:7   */\n            tag_261:\n                /* \"v2-core-master/contracts/UniswapV2Pair.sol\":9718:9757  IERC20(token1).balanceOf(address(this)) */\n              pop\n              pop\n              pop\n              pop\n              mload(0x40)\n              returndatasize\n                /* \"--CODEGEN--\":13:15   */\n              0x20\n                /* \"--CODEGEN--\":8:11   */\n              dup2\n                /* \"--CODEGEN--\":5:16   */\n              lt\n                /* \"--CODEGEN--\":2:4   */\n              iszero\n              tag_262\n              jumpi\n                /* \"--CODEGEN--\":29:30   */\n              0x00\n                /* \"--CODEGEN--\":26:27   */\n              dup1\n                /* \"--CODEGEN--\":19:31   */\n              revert\n                /* \"--CODEGEN--\":2:4   */\n            tag_262:\n              pop\n                /* \"v2-core-master/contracts/UniswapV2Pair.sol\":9718:9757  IERC20(token1).balanceOf(address(this)) */\n              mload\n                /* \"v2-core-master/contracts/UniswapV2Pair.sol\":9759:9767  reserve0 */\n              sload(0x08)\n              sub(shl(0x70, 0x01), 0x01)\n              dup1\n              dup3\n              and\n              swap2\n              shl(0x70, 0x01)\n                /* \"v2-core-master/contracts/UniswapV2Pair.sol\":9769:9777  reserve1 */\n              swap1\n              div\n              and\n                /* \"v2-core-master/contracts/UniswapV2Pair.sol\":9669:9676  _update */\n              tag_157\n                /* \"v2-core-master/contracts/UniswapV2Pair.sol\":9669:9778  _update(IERC20(token0).balanceOf(address(this)), IERC20(token1).balanceOf(address(this)), reserve0, reserve1) */\n              jump\t// in\n            tag_256:\n                /* \"v2-core-master/contracts/UniswapV2Pair.sol\":1270:1271  1 */\n              0x01\n                /* \"v2-core-master/contracts/UniswapV2Pair.sol\":1259:1267  unlocked */\n              0x0c\n                /* \"v2-core-master/contracts/UniswapV2Pair.sol\":1259:1271  unlocked = 1 */\n              sstore\n                /* \"v2-core-master/contracts/UniswapV2Pair.sol\":9629:9785  function sync() external lock {... */\n              jump\t// out\n                /* \"v2-core-master/contracts/UniswapV2Pair.sol\":1517:1801  function _safeTransfer(address token, address to, uint value) private {... */\n            tag_126:\n                /* \"v2-core-master/contracts/UniswapV2Pair.sol\":521:555  bytes('transfer(address,uint256)') */\n              0x40\n              dup1\n              mload\n              dup1\n              dup3\n              add\n              dup3\n              mstore\n              0x19\n              dup2\n              mstore\n              0x7472616e7366657228616464726573732c75696e743235362900000000000000\n              0x20\n              swap2\n              dup3\n              add\n              mstore\n                /* \"v2-core-master/contracts/UniswapV2Pair.sol\":1644:1687  abi.encodeWithSelector(SELECTOR, to, value) */\n              dup2\n              mload\n              sub(shl(0xa0, 0x01), 0x01)\n              dup6\n              dup2\n              and\n              0x24\n              dup4\n              add\n              mstore\n              0x44\n              dup1\n              dup4\n              add\n              dup7\n              swap1\n              mstore\n              dup5\n              mload\n                /* \"--CODEGEN--\":26:47   */\n              dup1\n              dup5\n              sub\n                /* \"--CODEGEN--\":22:54   */\n              swap1\n              swap2\n              add\n                /* \"--CODEGEN--\":6:55   */\n              dup2\n              mstore\n                /* \"v2-core-master/contracts/UniswapV2Pair.sol\":1644:1687  abi.encodeWithSelector(SELECTOR, to, value) */\n              0x64\n              swap1\n              swap3\n              add\n              dup5\n              mstore\n                /* \"--CODEGEN--\":25:43   */\n              swap2\n              dup2\n              add\n                /* \"--CODEGEN--\":61:78   */\n              dup1\n              mload\n              sub(shl(0xe0, 0x01), 0x01)\n                /* \"--CODEGEN--\":182:197   */\n              and\n                /* \"v2-core-master/contracts/UniswapV2Pair.sol\":1644:1687  abi.encodeWithSelector(SELECTOR, to, value) */\n              0xa9059cbb00000000000000000000000000000000000000000000000000000000\n                /* \"--CODEGEN--\":179:208   */\n              or\n                /* \"--CODEGEN--\":160:209   */\n              dup2\n              mstore\n                /* \"v2-core-master/contracts/UniswapV2Pair.sol\":1633:1688  token.call(abi.encodeWithSelector(SELECTOR, to, value)) */\n              swap3\n              mload\n              dup2\n              mload\n              0x00\n              swap5\n                /* \"v2-core-master/contracts/UniswapV2Pair.sol\":1612:1629  bytes memory data */\n              0x60\n              swap5\n                /* \"v2-core-master/contracts/UniswapV2Pair.sol\":1633:1643  token.call */\n              dup10\n              and\n              swap4\n                /* \"v2-core-master/contracts/UniswapV2Pair.sol\":1644:1687  abi.encodeWithSelector(SELECTOR, to, value) */\n              swap3\n                /* \"v2-core-master/contracts/UniswapV2Pair.sol\":1633:1688  token.call(abi.encodeWithSelector(SELECTOR, to, value)) */\n              swap2\n              dup3\n              swap2\n                /* \"--CODEGEN--\":25:43   */\n              swap1\n                /* \"v2-core-master/contracts/UniswapV2Pair.sol\":1633:1688  token.call(abi.encodeWithSelector(SELECTOR, to, value)) */\n              dup1\n              dup4\n                /* \"--CODEGEN--\":25:43   */\n              dup4\n                /* \"--CODEGEN--\":36:189   */\n            tag_264:\n                /* \"--CODEGEN--\":66:68   */\n              0x20\n                /* \"--CODEGEN--\":61:64   */\n              dup4\n                /* \"--CODEGEN--\":58:69   */\n              lt\n                /* \"--CODEGEN--\":36:189   */\n              tag_266\n              jumpi\n                /* \"--CODEGEN--\":176:186   */\n              dup1\n              mload\n                /* \"--CODEGEN--\":164:187   */\n              dup3\n              mstore\n              not(0x1f)\n                /* \"--CODEGEN--\":139:151   */\n              swap1\n              swap3\n              add\n              swap2\n                /* \"--CODEGEN--\":98:100   */\n              0x20\n                /* \"--CODEGEN--\":89:101   */\n              swap2\n              dup3\n              add\n              swap2\n                /* \"--CODEGEN--\":114:126   */\n              add\n                /* \"--CODEGEN--\":36:189   */\n              jump(tag_264)\n            tag_266:\n                /* \"--CODEGEN--\":274:275   */\n              0x01\n                /* \"--CODEGEN--\":267:270   */\n              dup4\n                /* \"--CODEGEN--\":263:265   */\n              0x20\n                /* \"--CODEGEN--\":259:271   */\n              sub\n                /* \"--CODEGEN--\":254:257   */\n              0x0100\n                /* \"--CODEGEN--\":250:272   */\n              exp\n                /* \"--CODEGEN--\":246:276   */\n              sub\n                /* \"--CODEGEN--\":315:319   */\n              dup1\n                /* \"--CODEGEN--\":311:320   */\n              not\n                /* \"--CODEGEN--\":305:308   */\n              dup3\n                /* \"--CODEGEN--\":299:309   */\n              mload\n                /* \"--CODEGEN--\":295:321   */\n              and\n                /* \"--CODEGEN--\":356:360   */\n              dup2\n                /* \"--CODEGEN--\":350:353   */\n              dup5\n                /* \"--CODEGEN--\":344:354   */\n              mload\n                /* \"--CODEGEN--\":340:361   */\n              and\n                /* \"--CODEGEN--\":389:396   */\n              dup1\n                /* \"--CODEGEN--\":380:387   */\n              dup3\n                /* \"--CODEGEN--\":377:397   */\n              or\n                /* \"--CODEGEN--\":372:375   */\n              dup6\n                /* \"--CODEGEN--\":365:398   */\n              mstore\n                /* \"--CODEGEN--\":3:402   */\n              pop\n              pop\n              pop\n                /* \"v2-core-master/contracts/UniswapV2Pair.sol\":1633:1688  token.call(abi.encodeWithSelector(SELECTOR, to, value)) */\n              pop\n              pop\n              pop\n              swap1\n              pop\n              add\n              swap2\n              pop\n              pop\n              0x00\n              mload(0x40)\n              dup1\n              dup4\n              sub\n              dup2\n              0x00\n              dup7\n              gas\n              call\n              swap2\n              pop\n              pop\n              returndatasize\n                /* \"--CODEGEN--\":14:15   */\n              dup1\n                /* \"--CODEGEN--\":21:22   */\n              0x00\n                /* \"--CODEGEN--\":16:47   */\n              dup2\n              eq\n              tag_268\n              jumpi\n                /* \"--CODEGEN--\":75:79   */\n              0x40\n                /* \"--CODEGEN--\":69:80   */\n              mload\n                /* \"--CODEGEN--\":64:80   */\n              swap2\n              pop\n                /* \"--CODEGEN--\":144:148   */\n              0x1f\n                /* \"--CODEGEN--\":140:149   */\n              not\n                /* \"--CODEGEN--\":133:137   */\n              0x3f\n                /* \"--CODEGEN--\":115:131   */\n              returndatasize\n                /* \"--CODEGEN--\":111:138   */\n              add\n                /* \"--CODEGEN--\":107:150   */\n              and\n                /* \"--CODEGEN--\":104:105   */\n              dup3\n                /* \"--CODEGEN--\":100:151   */\n              add\n                /* \"--CODEGEN--\":94:98   */\n              0x40\n                /* \"--CODEGEN--\":87:152   */\n              mstore\n                /* \"--CODEGEN--\":169:185   */\n              returndatasize\n                /* \"--CODEGEN--\":166:167   */\n              dup3\n                /* \"--CODEGEN--\":159:186   */\n              mstore\n                /* \"--CODEGEN--\":225:241   */\n              returndatasize\n                /* \"--CODEGEN--\":222:223   */\n              0x00\n                /* \"--CODEGEN--\":215:219   */\n              0x20\n                /* \"--CODEGEN--\":212:213   */\n              dup5\n                /* \"--CODEGEN--\":208:220   */\n              add\n                /* \"--CODEGEN--\":193:242   */\n              returndatacopy\n                /* \"--CODEGEN--\":7:249   */\n              jump(tag_267)\n                /* \"--CODEGEN--\":16:47   */\n            tag_268:\n                /* \"--CODEGEN--\":36:40   */\n              0x60\n                /* \"--CODEGEN--\":31:40   */\n              swap2\n              pop\n                /* \"--CODEGEN--\":7:249   */\n            tag_267:\n              pop\n                /* \"v2-core-master/contracts/UniswapV2Pair.sol\":1597:1688  (bool success, bytes memory data) = token.call(abi.encodeWithSelector(SELECTOR, to, value)) */\n              swap2\n              pop\n              swap2\n              pop\n                /* \"v2-core-master/contracts/UniswapV2Pair.sol\":1706:1713  success */\n              dup2\n                /* \"v2-core-master/contracts/UniswapV2Pair.sol\":1706:1763  success && (data.length == 0 || abi.decode(data, (bool))) */\n              dup1\n              iszero\n              tag_270\n              jumpi\n              pop\n                /* \"v2-core-master/contracts/UniswapV2Pair.sol\":1718:1729  data.length */\n              dup1\n              mload\n                /* \"v2-core-master/contracts/UniswapV2Pair.sol\":1718:1734  data.length == 0 */\n              iszero\n              dup1\n                /* \"v2-core-master/contracts/UniswapV2Pair.sol\":1718:1762  data.length == 0 || abi.decode(data, (bool)) */\n              tag_270\n              jumpi\n              pop\n                /* \"v2-core-master/contracts/UniswapV2Pair.sol\":1749:1753  data */\n              dup1\n                /* \"v2-core-master/contracts/UniswapV2Pair.sol\":1738:1762  abi.decode(data, (bool)) */\n              dup1\n              0x20\n              add\n              swap1\n              mload\n                /* \"--CODEGEN--\":13:15   */\n              0x20\n                /* \"--CODEGEN--\":8:11   */\n              dup2\n                /* \"--CODEGEN--\":5:16   */\n              lt\n                /* \"--CODEGEN--\":2:4   */\n              iszero\n              tag_271\n              jumpi\n                /* \"--CODEGEN--\":29:30   */\n              0x00\n                /* \"--CODEGEN--\":26:27   */\n              dup1\n                /* \"--CODEGEN--\":19:31   */\n              revert\n                /* \"--CODEGEN--\":2:4   */\n            tag_271:\n              pop\n                /* \"v2-core-master/contracts/UniswapV2Pair.sol\":1738:1762  abi.decode(data, (bool)) */\n              mload\n                /* \"v2-core-master/contracts/UniswapV2Pair.sol\":1718:1762  data.length == 0 || abi.decode(data, (bool)) */\n            tag_270:\n                /* \"v2-core-master/contracts/UniswapV2Pair.sol\":1698:1794  require(success && (data.length == 0 || abi.decode(data, (bool))), 'UniswapV2: TRANSFER_FAILED') */\n              tag_272\n              jumpi\n              0x40\n              dup1\n              mload\n              shl(0xe5, 0x461bcd)\n              dup2\n              mstore\n              0x20\n              0x04\n              dup3\n              add\n              mstore\n              0x1a\n              0x24\n              dup3\n              add\n              mstore\n              0x556e697377617056323a205452414e534645525f4641494c4544000000000000\n              0x44\n              dup3\n              add\n              mstore\n              swap1\n              mload\n              swap1\n              dup2\n              swap1\n              sub\n              0x64\n              add\n              swap1\n              revert\n            tag_272:\n                /* \"v2-core-master/contracts/UniswapV2Pair.sol\":1517:1801  function _safeTransfer(address token, address to, uint value) private {... */\n              pop\n              pop\n              pop\n              pop\n              pop\n              jump\t// out\n                /* \"v2-core-master/contracts/libraries/SafeMath.sol\":420:560  function mul(uint x, uint y) internal pure returns (uint z) {... */\n            tag_146:\n                /* \"v2-core-master/contracts/libraries/SafeMath.sol\":472:478  uint z */\n              0x00\n                /* \"v2-core-master/contracts/libraries/SafeMath.sol\":498:504  y == 0 */\n              dup2\n              iszero\n              dup1\n                /* \"v2-core-master/contracts/libraries/SafeMath.sol\":498:528  y == 0 || (z = x * y) / y == x */\n              tag_274\n              jumpi\n              pop\n              pop\n                /* \"v2-core-master/contracts/libraries/SafeMath.sol\":513:518  x * y */\n              dup1\n              dup3\n              mul\n                /* \"v2-core-master/contracts/libraries/SafeMath.sol\":527:528  x */\n              dup3\n                /* \"v2-core-master/contracts/libraries/SafeMath.sol\":522:523  y */\n              dup3\n                /* \"v2-core-master/contracts/libraries/SafeMath.sol\":513:518  x * y */\n              dup3\n                /* \"v2-core-master/contracts/libraries/SafeMath.sol\":522:523  y */\n              dup2\n                /* \"v2-core-master/contracts/libraries/SafeMath.sol\":508:523  (z = x * y) / y */\n              tag_275\n              jumpi\n              invalid\n            tag_275:\n              div\n                /* \"v2-core-master/contracts/libraries/SafeMath.sol\":508:528  (z = x * y) / y == x */\n              eq\n                /* \"v2-core-master/contracts/libraries/SafeMath.sol\":498:528  y == 0 || (z = x * y) / y == x */\n            tag_274:\n                /* \"v2-core-master/contracts/libraries/SafeMath.sol\":490:553  require(y == 0 || (z = x * y) / y == x, 'ds-math-mul-overflow') */\n              tag_159\n              jumpi\n              0x40\n              dup1\n              mload\n              shl(0xe5, 0x461bcd)\n              dup2\n              mstore\n              0x20\n              0x04\n              dup3\n              add\n              mstore\n              0x14\n              0x24\n              dup3\n              add\n              mstore\n              0x64732d6d6174682d6d756c2d6f766572666c6f77000000000000000000000000\n              0x44\n              dup3\n              add\n              mstore\n              swap1\n              mload\n              swap1\n              dup2\n              swap1\n              sub\n              0x64\n              add\n              swap1\n              revert\n                /* \"v2-core-master/contracts/libraries/SafeMath.sol\":287:414  function sub(uint x, uint y) internal pure returns (uint z) {... */\n            tag_148:\n                /* \"v2-core-master/contracts/libraries/SafeMath.sol\":370:375  x - y */\n              dup1\n              dup3\n              sub\n                /* \"v2-core-master/contracts/libraries/SafeMath.sol\":365:381  (z = x - y) <= x */\n              dup3\n              dup2\n              gt\n              iszero\n                /* \"v2-core-master/contracts/libraries/SafeMath.sol\":357:407  require((z = x - y) <= x, 'ds-math-sub-underflow') */\n              tag_159\n              jumpi\n              0x40\n              dup1\n              mload\n              shl(0xe5, 0x461bcd)\n              dup2\n              mstore\n              0x20\n              0x04\n              dup3\n              add\n              mstore\n              0x15\n              0x24\n              dup3\n              add\n              mstore\n              0x64732d6d6174682d7375622d756e646572666c6f770000000000000000000000\n              0x44\n              dup3\n              add\n              mstore\n              swap1\n              mload\n              swap1\n              dup2\n              swap1\n              sub\n              0x64\n              add\n              swap1\n              revert\n                /* \"v2-core-master/contracts/UniswapV2Pair.sol\":2604:3451  function _update(uint balance0, uint balance1, uint112 _reserve0, uint112 _reserve1) private {... */\n            tag_157:\n              sub(shl(0x70, 0x01), 0x01)\n                /* \"v2-core-master/contracts/UniswapV2Pair.sol\":2715:2738  balance0 <= uint112(-1) */\n              dup5\n              gt\n              dup1\n              iszero\n              swap1\n                /* \"v2-core-master/contracts/UniswapV2Pair.sol\":2715:2765  balance0 <= uint112(-1) && balance1 <= uint112(-1) */\n              tag_280\n              jumpi\n              pop\n              sub(shl(0x70, 0x01), 0x01)\n                /* \"v2-core-master/contracts/UniswapV2Pair.sol\":2742:2765  balance1 <= uint112(-1) */\n              dup4\n              gt\n              iszero\n                /* \"v2-core-master/contracts/UniswapV2Pair.sol\":2715:2765  balance0 <= uint112(-1) && balance1 <= uint112(-1) */\n            tag_280:\n                /* \"v2-core-master/contracts/UniswapV2Pair.sol\":2707:2789  require(balance0 <= uint112(-1) && balance1 <= uint112(-1), 'UniswapV2: OVERFLOW') */\n              tag_281\n              jumpi\n              0x40\n              dup1\n              mload\n              shl(0xe5, 0x461bcd)\n              dup2\n              mstore\n              0x20\n              0x04\n              dup3\n              add\n              mstore\n              0x13\n              0x24\n              dup3\n              add\n              mstore\n              0x556e697377617056323a204f564552464c4f5700000000000000000000000000\n              0x44\n              dup3\n              add\n              mstore\n              swap1\n              mload\n              swap1\n              dup2\n              swap1\n              sub\n              0x64\n              add\n              swap1\n              revert\n            tag_281:\n                /* \"v2-core-master/contracts/UniswapV2Pair.sol\":2902:2920  blockTimestampLast */\n              sload(0x08)\n                /* \"v2-core-master/contracts/UniswapV2Pair.sol\":2830:2853  block.timestamp % 2**32 */\n              0xffffffff\n                /* \"v2-core-master/contracts/UniswapV2Pair.sol\":2830:2845  block.timestamp */\n              timestamp\n                /* \"v2-core-master/contracts/UniswapV2Pair.sol\":2830:2853  block.timestamp % 2**32 */\n              dup2\n              and\n              swap2\n              shl(0xe0, 0x01)\n                /* \"v2-core-master/contracts/UniswapV2Pair.sol\":2902:2920  blockTimestampLast */\n              swap1\n              div\n              dup2\n              and\n                /* \"v2-core-master/contracts/UniswapV2Pair.sol\":2885:2920  blockTimestamp - blockTimestampLast */\n              dup3\n              sub\n              swap1\n                /* \"v2-core-master/contracts/UniswapV2Pair.sol\":2957:2972  timeElapsed > 0 */\n              dup2\n              and\n              iszero\n              dup1\n              iszero\n              swap1\n                /* \"v2-core-master/contracts/UniswapV2Pair.sol\":2957:2990  timeElapsed > 0 && _reserve0 != 0 */\n              tag_283\n              jumpi\n              pop\n              sub(shl(0x70, 0x01), 0x01)\n                /* \"v2-core-master/contracts/UniswapV2Pair.sol\":2976:2990  _reserve0 != 0 */\n              dup5\n              and\n              iszero\n              iszero\n                /* \"v2-core-master/contracts/UniswapV2Pair.sol\":2957:2990  timeElapsed > 0 && _reserve0 != 0 */\n            tag_283:\n                /* \"v2-core-master/contracts/UniswapV2Pair.sol\":2957:3008  timeElapsed > 0 && _reserve0 != 0 && _reserve1 != 0 */\n              dup1\n              iszero\n              tag_284\n              jumpi\n              pop\n              sub(shl(0x70, 0x01), 0x01)\n                /* \"v2-core-master/contracts/UniswapV2Pair.sol\":2994:3008  _reserve1 != 0 */\n              dup4\n              and\n              iszero\n              iszero\n                /* \"v2-core-master/contracts/UniswapV2Pair.sol\":2957:3008  timeElapsed > 0 && _reserve0 != 0 && _reserve1 != 0 */\n            tag_284:\n                /* \"v2-core-master/contracts/UniswapV2Pair.sol\":2953:3285  if (timeElapsed > 0 && _reserve0 != 0 && _reserve1 != 0) {... */\n              iszero\n              tag_285\n              jumpi\n                /* \"v2-core-master/contracts/UniswapV2Pair.sol\":3161:3172  timeElapsed */\n              dup1\n                /* \"v2-core-master/contracts/UniswapV2Pair.sol\":3108:3172  uint(UQ112x112.encode(_reserve1).uqdiv(_reserve0)) * timeElapsed */\n              0xffffffff\n              and\n                /* \"v2-core-master/contracts/UniswapV2Pair.sol\":3113:3157  UQ112x112.encode(_reserve1).uqdiv(_reserve0) */\n              tag_286\n                /* \"v2-core-master/contracts/UniswapV2Pair.sol\":3147:3156  _reserve0 */\n              dup6\n                /* \"v2-core-master/contracts/UniswapV2Pair.sol\":3113:3140  UQ112x112.encode(_reserve1) */\n              tag_287\n                /* \"v2-core-master/contracts/UniswapV2Pair.sol\":3130:3139  _reserve1 */\n              dup7\n                /* \"v2-core-master/contracts/UniswapV2Pair.sol\":3113:3129  UQ112x112.encode */\n              tag_288\n                /* \"v2-core-master/contracts/UniswapV2Pair.sol\":3113:3140  UQ112x112.encode(_reserve1) */\n              jump\t// in\n            tag_287:\n              sub(shl(0xe0, 0x01), 0x01)\n                /* \"v2-core-master/contracts/UniswapV2Pair.sol\":3113:3146  UQ112x112.encode(_reserve1).uqdiv */\n              and\n              swap1\n              tag_289\n                /* \"v2-core-master/contracts/UniswapV2Pair.sol\":3113:3157  UQ112x112.encode(_reserve1).uqdiv(_reserve0) */\n              jump\t// in\n            tag_286:\n                /* \"v2-core-master/contracts/UniswapV2Pair.sol\":3084:3104  price0CumulativeLast */\n              0x09\n                /* \"v2-core-master/contracts/UniswapV2Pair.sol\":3084:3172  price0CumulativeLast += uint(UQ112x112.encode(_reserve1).uqdiv(_reserve0)) * timeElapsed */\n              dup1\n              sload\n              sub(shl(0xe0, 0x01), 0x01)\n                /* \"v2-core-master/contracts/UniswapV2Pair.sol\":3108:3158  uint(UQ112x112.encode(_reserve1).uqdiv(_reserve0)) */\n              swap3\n              swap1\n              swap3\n              and\n                /* \"v2-core-master/contracts/UniswapV2Pair.sol\":3108:3172  uint(UQ112x112.encode(_reserve1).uqdiv(_reserve0)) * timeElapsed */\n              swap3\n              swap1\n              swap3\n              mul\n                /* \"v2-core-master/contracts/UniswapV2Pair.sol\":3084:3172  price0CumulativeLast += uint(UQ112x112.encode(_reserve1).uqdiv(_reserve0)) * timeElapsed */\n              add\n              swap1\n              sstore\n                /* \"v2-core-master/contracts/UniswapV2Pair.sol\":3210:3274  uint(UQ112x112.encode(_reserve0).uqdiv(_reserve1)) * timeElapsed */\n              0xffffffff\n              dup2\n              and\n                /* \"v2-core-master/contracts/UniswapV2Pair.sol\":3215:3259  UQ112x112.encode(_reserve0).uqdiv(_reserve1) */\n              tag_290\n                /* \"v2-core-master/contracts/UniswapV2Pair.sol\":3249:3258  _reserve1 */\n              dup5\n                /* \"v2-core-master/contracts/UniswapV2Pair.sol\":3215:3242  UQ112x112.encode(_reserve0) */\n              tag_287\n                /* \"v2-core-master/contracts/UniswapV2Pair.sol\":3232:3241  _reserve0 */\n              dup8\n                /* \"v2-core-master/contracts/UniswapV2Pair.sol\":3215:3231  UQ112x112.encode */\n              tag_288\n                /* \"v2-core-master/contracts/UniswapV2Pair.sol\":3215:3242  UQ112x112.encode(_reserve0) */\n              jump\t// in\n                /* \"v2-core-master/contracts/UniswapV2Pair.sol\":3215:3259  UQ112x112.encode(_reserve0).uqdiv(_reserve1) */\n            tag_290:\n                /* \"v2-core-master/contracts/UniswapV2Pair.sol\":3186:3206  price1CumulativeLast */\n              0x0a\n                /* \"v2-core-master/contracts/UniswapV2Pair.sol\":3186:3274  price1CumulativeLast += uint(UQ112x112.encode(_reserve0).uqdiv(_reserve1)) * timeElapsed */\n              dup1\n              sload\n              sub(shl(0xe0, 0x01), 0x01)\n                /* \"v2-core-master/contracts/UniswapV2Pair.sol\":3210:3260  uint(UQ112x112.encode(_reserve0).uqdiv(_reserve1)) */\n              swap3\n              swap1\n              swap3\n              and\n                /* \"v2-core-master/contracts/UniswapV2Pair.sol\":3210:3274  uint(UQ112x112.encode(_reserve0).uqdiv(_reserve1)) * timeElapsed */\n              swap3\n              swap1\n              swap3\n              mul\n                /* \"v2-core-master/contracts/UniswapV2Pair.sol\":3186:3274  price1CumulativeLast += uint(UQ112x112.encode(_reserve0).uqdiv(_reserve1)) * timeElapsed */\n              add\n              swap1\n              sstore\n                /* \"v2-core-master/contracts/UniswapV2Pair.sol\":2953:3285  if (timeElapsed > 0 && _reserve0 != 0 && _reserve1 != 0) {... */\n            tag_285:\n                /* \"v2-core-master/contracts/UniswapV2Pair.sol\":3294:3302  reserve0 */\n              0x08\n                /* \"v2-core-master/contracts/UniswapV2Pair.sol\":3294:3322  reserve0 = uint112(balance0) */\n              dup1\n              sload\n              0xffffffffffffffffffffffffffffffffffff0000000000000000000000000000\n              and\n              sub(shl(0x70, 0x01), 0x01)\n              dup9\n              dup2\n              and\n              swap2\n              swap1\n              swap2\n              or\n                /* \"v2-core-master/contracts/UniswapV2Pair.sol\":3332:3360  reserve1 = uint112(balance1) */\n              0xffffffff0000000000000000000000000000ffffffffffffffffffffffffffff\n              and\n              shl(0x70, 0x01)\n              dup9\n              dup4\n              and\n              dup2\n              mul\n              swap2\n              swap1\n              swap2\n              or\n              sub(shl(0xe0, 0x01), 0x01)\n                /* \"v2-core-master/contracts/UniswapV2Pair.sol\":3370:3405  blockTimestampLast = blockTimestamp */\n              and\n              shl(0xe0, 0x01)\n              0xffffffff\n              dup8\n              and\n              mul\n              or\n              swap3\n              dup4\n              swap1\n              sstore\n                /* \"v2-core-master/contracts/UniswapV2Pair.sol\":3420:3444  Sync(reserve0, reserve1) */\n              0x40\n              dup1\n              mload\n                /* \"v2-core-master/contracts/UniswapV2Pair.sol\":3425:3433  reserve0 */\n              dup5\n              dup5\n              and\n                /* \"v2-core-master/contracts/UniswapV2Pair.sol\":3420:3444  Sync(reserve0, reserve1) */\n              dup2\n              mstore\n                /* \"v2-core-master/contracts/UniswapV2Pair.sol\":3435:3443  reserve1 */\n              swap2\n              swap1\n              swap4\n              div\n              swap1\n              swap2\n              and\n                /* \"v2-core-master/contracts/UniswapV2Pair.sol\":3420:3444  Sync(reserve0, reserve1) */\n              0x20\n              dup3\n              add\n              mstore\n              dup2\n              mload\n              0x1c411e9a96e071241c2f21f7726b17ae89e3cab4c78be50e062b03a9fffbbad1\n              swap3\n              swap2\n              dup2\n              swap1\n              sub\n              swap1\n              swap2\n              add\n              swap1\n              log1\n                /* \"v2-core-master/contracts/UniswapV2Pair.sol\":2604:3451  function _update(uint balance0, uint balance1, uint112 _reserve0, uint112 _reserve1) private {... */\n              pop\n              pop\n              pop\n              pop\n              pop\n              pop\n              jump\t// out\n                /* \"v2-core-master/contracts/UniswapV2ERC20.sol\":1782:1948  function _approve(address owner, address spender, uint value) private {... */\n            tag_161:\n              sub(shl(0xa0, 0x01), 0x01)\n                /* \"v2-core-master/contracts/UniswapV2ERC20.sol\":1862:1878  allowance[owner] */\n              dup4\n              dup2\n              and\n              0x00\n              dup2\n              dup2\n              mstore\n                /* \"v2-core-master/contracts/UniswapV2ERC20.sol\":1862:1871  allowance */\n              0x02\n                /* \"v2-core-master/contracts/UniswapV2ERC20.sol\":1862:1878  allowance[owner] */\n              0x20\n              swap1\n              dup2\n              mstore\n              0x40\n              dup1\n              dup4\n              keccak256\n                /* \"v2-core-master/contracts/UniswapV2ERC20.sol\":1862:1887  allowance[owner][spender] */\n              swap5\n              dup8\n              and\n              dup1\n              dup5\n              mstore\n              swap5\n              dup3\n              mstore\n              swap2\n              dup3\n              swap1\n              keccak256\n                /* \"v2-core-master/contracts/UniswapV2ERC20.sol\":1862:1895  allowance[owner][spender] = value */\n              dup6\n              swap1\n              sstore\n                /* \"v2-core-master/contracts/UniswapV2ERC20.sol\":1910:1941  Approval(owner, spender, value) */\n              dup2\n              mload\n              dup6\n              dup2\n              mstore\n              swap2\n              mload\n              0x8c5be1e5ebec7d5bd14f71427d1e84f3dd0314c0f7b2291e5b200ac8c7c3b925\n              swap3\n              dup2\n              swap1\n              sub\n              swap1\n              swap2\n              add\n              swap1\n              log3\n                /* \"v2-core-master/contracts/UniswapV2ERC20.sol\":1782:1948  function _approve(address owner, address spender, uint value) private {... */\n              pop\n              pop\n              pop\n              jump\t// out\n                /* \"v2-core-master/contracts/UniswapV2ERC20.sol\":1954:2170  function _transfer(address from, address to, uint value) private {... */\n            tag_166:\n              sub(shl(0xa0, 0x01), 0x01)\n                /* \"v2-core-master/contracts/UniswapV2ERC20.sol\":2047:2062  balanceOf[from] */\n              dup4\n              and\n              0x00\n              swap1\n              dup2\n              mstore\n              mstore(0x20, 0x01)\n              0x40\n              swap1\n              keccak256\n              sload\n                /* \"v2-core-master/contracts/UniswapV2ERC20.sol\":2047:2073  balanceOf[from].sub(value) */\n              tag_294\n              swap1\n                /* \"v2-core-master/contracts/UniswapV2ERC20.sol\":2067:2072  value */\n              dup3\n                /* \"v2-core-master/contracts/UniswapV2ERC20.sol\":2047:2066  balanceOf[from].sub */\n              tag_148\n                /* \"v2-core-master/contracts/UniswapV2ERC20.sol\":2047:2073  balanceOf[from].sub(value) */\n              jump\t// in\n            tag_294:\n              sub(shl(0xa0, 0x01), 0x01)\n                /* \"v2-core-master/contracts/UniswapV2ERC20.sol\":2029:2044  balanceOf[from] */\n              dup5\n              dup2\n              and\n              0x00\n              swap1\n              dup2\n              mstore\n              mstore(0x20, 0x01)\n              0x40\n              dup1\n              dup3\n              keccak256\n                /* \"v2-core-master/contracts/UniswapV2ERC20.sol\":2029:2073  balanceOf[from] = balanceOf[from].sub(value) */\n              swap4\n              swap1\n              swap4\n              sstore\n                /* \"v2-core-master/contracts/UniswapV2ERC20.sol\":2099:2112  balanceOf[to] */\n              swap1\n              dup5\n              and\n              dup2\n              mstore\n              keccak256\n              sload\n                /* \"v2-core-master/contracts/UniswapV2ERC20.sol\":2099:2123  balanceOf[to].add(value) */\n              tag_295\n              swap1\n                /* \"v2-core-master/contracts/UniswapV2ERC20.sol\":2117:2122  value */\n              dup3\n                /* \"v2-core-master/contracts/UniswapV2ERC20.sol\":2099:2116  balanceOf[to].add */\n              tag_296\n                /* \"v2-core-master/contracts/UniswapV2ERC20.sol\":2099:2123  balanceOf[to].add(value) */\n              jump\t// in\n            tag_295:\n              sub(shl(0xa0, 0x01), 0x01)\n                /* \"v2-core-master/contracts/UniswapV2ERC20.sol\":2083:2096  balanceOf[to] */\n              dup4\n              dup2\n              and\n              0x00\n              dup2\n              dup2\n              mstore\n              0x01\n              0x20\n              swap1\n              dup2\n              mstore\n              0x40\n              swap2\n              dup3\n              swap1\n              keccak256\n                /* \"v2-core-master/contracts/UniswapV2ERC20.sol\":2083:2123  balanceOf[to] = balanceOf[to].add(value) */\n              swap5\n              swap1\n              swap5\n              sstore\n                /* \"v2-core-master/contracts/UniswapV2ERC20.sol\":2138:2163  Transfer(from, to, value) */\n              dup1\n              mload\n              dup6\n              dup2\n              mstore\n              swap1\n              mload\n                /* \"v2-core-master/contracts/UniswapV2ERC20.sol\":2083:2096  balanceOf[to] */\n              swap2\n              swap4\n                /* \"v2-core-master/contracts/UniswapV2ERC20.sol\":2138:2163  Transfer(from, to, value) */\n              swap3\n              dup8\n              and\n              swap3\n              0xddf252ad1be2c89b69c2b068fc378daa952ba7f163c4a11628f55a4df523b3ef\n              swap3\n              swap2\n              dup3\n              swap1\n              sub\n              add\n              swap1\n              log3\n                /* \"v2-core-master/contracts/UniswapV2ERC20.sol\":1954:2170  function _transfer(address from, address to, uint value) private {... */\n              pop\n              pop\n              pop\n              jump\t// out\n                /* \"v2-core-master/contracts/UniswapV2Pair.sol\":3538:4357  function _mintFee(uint112 _reserve0, uint112 _reserve1) private returns (bool feeOn) {... */\n            tag_182:\n                /* \"v2-core-master/contracts/UniswapV2Pair.sol\":3667:3674  factory */\n              sload(0x05)\n                /* \"v2-core-master/contracts/UniswapV2Pair.sol\":3649:3683  IUniswapV2Factory(factory).feeTo() */\n              0x40\n              dup1\n              mload\n              0x017e7e5800000000000000000000000000000000000000000000000000000000\n              dup2\n              mstore\n              swap1\n              mload\n                /* \"v2-core-master/contracts/UniswapV2Pair.sol\":3611:3621  bool feeOn */\n              0x00\n              swap3\n              dup4\n              swap3\n              sub(shl(0xa0, 0x01), 0x01)\n                /* \"v2-core-master/contracts/UniswapV2Pair.sol\":3667:3674  factory */\n              swap1\n              swap2\n              and\n              swap2\n                /* \"v2-core-master/contracts/UniswapV2Pair.sol\":3649:3681  IUniswapV2Factory(factory).feeTo */\n              0x017e7e58\n              swap2\n                /* \"v2-core-master/contracts/UniswapV2Pair.sol\":3649:3683  IUniswapV2Factory(factory).feeTo() */\n              0x04\n              dup1\n              dup3\n              add\n              swap3\n              0x20\n              swap3\n              swap1\n              swap2\n              swap1\n              dup3\n              swap1\n              sub\n              add\n              dup2\n                /* \"v2-core-master/contracts/UniswapV2Pair.sol\":3667:3674  factory */\n              dup7\n                /* \"v2-core-master/contracts/UniswapV2Pair.sol\":3649:3683  IUniswapV2Factory(factory).feeTo() */\n              dup1\n              extcodesize\n              iszero\n                /* \"--CODEGEN--\":5:7   */\n              dup1\n              iszero\n              tag_298\n              jumpi\n                /* \"--CODEGEN--\":30:31   */\n              0x00\n                /* \"--CODEGEN--\":27:28   */\n              dup1\n                /* \"--CODEGEN--\":20:32   */\n              revert\n                /* \"--CODEGEN--\":5:7   */\n            tag_298:\n                /* \"v2-core-master/contracts/UniswapV2Pair.sol\":3649:3683  IUniswapV2Factory(factory).feeTo() */\n              pop\n              gas\n              staticcall\n              iszero\n                /* \"--CODEGEN--\":8:17   */\n              dup1\n                /* \"--CODEGEN--\":5:7   */\n              iszero\n              tag_299\n              jumpi\n                /* \"--CODEGEN--\":45:61   */\n              returndatasize\n                /* \"--CODEGEN--\":42:43   */\n              0x00\n                /* \"--CODEGEN--\":39:40   */\n              dup1\n                /* \"--CODEGEN--\":24:62   */\n              returndatacopy\n                /* \"--CODEGEN--\":77:93   */\n              returndatasize\n                /* \"--CODEGEN--\":74:75   */\n              0x00\n                /* \"--CODEGEN--\":67:94   */\n              revert\n                /* \"--CODEGEN--\":5:7   */\n            tag_299:\n                /* \"v2-core-master/contracts/UniswapV2Pair.sol\":3649:3683  IUniswapV2Factory(factory).feeTo() */\n              pop\n              pop\n              pop\n              pop\n              mload(0x40)\n              returndatasize\n                /* \"--CODEGEN--\":13:15   */\n              0x20\n                /* \"--CODEGEN--\":8:11   */\n              dup2\n                /* \"--CODEGEN--\":5:16   */\n              lt\n                /* \"--CODEGEN--\":2:4   */\n              iszero\n              tag_300\n              jumpi\n                /* \"--CODEGEN--\":29:30   */\n              0x00\n                /* \"--CODEGEN--\":26:27   */\n              dup1\n                /* \"--CODEGEN--\":19:31   */\n              revert\n                /* \"--CODEGEN--\":2:4   */\n            tag_300:\n              pop\n                /* \"v2-core-master/contracts/UniswapV2Pair.sol\":3649:3683  IUniswapV2Factory(factory).feeTo() */\n              mload\n                /* \"v2-core-master/contracts/UniswapV2Pair.sol\":3744:3749  kLast */\n              sload(0x0b)\n              sub(shl(0xa0, 0x01), 0x01)\n                /* \"v2-core-master/contracts/UniswapV2Pair.sol\":3701:3720  feeTo != address(0) */\n              dup3\n              and\n              iszero\n              dup1\n              iszero\n              swap5\n              pop\n                /* \"v2-core-master/contracts/UniswapV2Pair.sol\":3649:3683  IUniswapV2Factory(factory).feeTo() */\n              swap2\n              swap3\n              pop\n                /* \"v2-core-master/contracts/UniswapV2Pair.sol\":3744:3749  kLast */\n              swap1\n                /* \"v2-core-master/contracts/UniswapV2Pair.sol\":3774:4351  if (feeOn) {... */\n              tag_301\n              jumpi\n                /* \"v2-core-master/contracts/UniswapV2Pair.sol\":3803:3814  _kLast != 0 */\n              dup1\n              iszero\n                /* \"v2-core-master/contracts/UniswapV2Pair.sol\":3799:4284  if (_kLast != 0) {... */\n              tag_302\n              jumpi\n                /* \"v2-core-master/contracts/UniswapV2Pair.sol\":3834:3844  uint rootK */\n              0x00\n                /* \"v2-core-master/contracts/UniswapV2Pair.sol\":3847:3888  Math.sqrt(uint(_reserve0).mul(_reserve1)) */\n              tag_303\n                /* \"v2-core-master/contracts/UniswapV2Pair.sol\":3857:3887  uint(_reserve0).mul(_reserve1) */\n              tag_186\n              sub(shl(0x70, 0x01), 0x01)\n                /* \"v2-core-master/contracts/UniswapV2Pair.sol\":3857:3872  uint(_reserve0) */\n              dup9\n              dup2\n              and\n              swap1\n                /* \"v2-core-master/contracts/UniswapV2Pair.sol\":3857:3887  uint(_reserve0).mul(_reserve1) */\n              dup9\n              and\n                /* \"v2-core-master/contracts/UniswapV2Pair.sol\":3857:3876  uint(_reserve0).mul */\n              tag_146\n                /* \"v2-core-master/contracts/UniswapV2Pair.sol\":3857:3887  uint(_reserve0).mul(_reserve1) */\n              jump\t// in\n                /* \"v2-core-master/contracts/UniswapV2Pair.sol\":3847:3888  Math.sqrt(uint(_reserve0).mul(_reserve1)) */\n            tag_303:\n                /* \"v2-core-master/contracts/UniswapV2Pair.sol\":3834:3888  uint rootK = Math.sqrt(uint(_reserve0).mul(_reserve1)) */\n              swap1\n              pop\n                /* \"v2-core-master/contracts/UniswapV2Pair.sol\":3906:3920  uint rootKLast */\n              0x00\n                /* \"v2-core-master/contracts/UniswapV2Pair.sol\":3923:3940  Math.sqrt(_kLast) */\n              tag_305\n                /* \"v2-core-master/contracts/UniswapV2Pair.sol\":3933:3939  _kLast */\n              dup4\n                /* \"v2-core-master/contracts/UniswapV2Pair.sol\":3923:3932  Math.sqrt */\n              tag_187\n                /* \"v2-core-master/contracts/UniswapV2Pair.sol\":3923:3940  Math.sqrt(_kLast) */\n              jump\t// in\n            tag_305:\n                /* \"v2-core-master/contracts/UniswapV2Pair.sol\":3906:3940  uint rootKLast = Math.sqrt(_kLast) */\n              swap1\n              pop\n                /* \"v2-core-master/contracts/UniswapV2Pair.sol\":3970:3979  rootKLast */\n              dup1\n                /* \"v2-core-master/contracts/UniswapV2Pair.sol\":3962:3967  rootK */\n              dup3\n                /* \"v2-core-master/contracts/UniswapV2Pair.sol\":3962:3979  rootK > rootKLast */\n              gt\n                /* \"v2-core-master/contracts/UniswapV2Pair.sol\":3958:4270  if (rootK > rootKLast) {... */\n              iszero\n              tag_306\n              jumpi\n                /* \"v2-core-master/contracts/UniswapV2Pair.sol\":4003:4017  uint numerator */\n              0x00\n                /* \"v2-core-master/contracts/UniswapV2Pair.sol\":4020:4057  totalSupply.mul(rootK.sub(rootKLast)) */\n              tag_307\n                /* \"v2-core-master/contracts/UniswapV2Pair.sol\":4036:4056  rootK.sub(rootKLast) */\n              tag_308\n                /* \"v2-core-master/contracts/UniswapV2Pair.sol\":4036:4041  rootK */\n              dup5\n                /* \"v2-core-master/contracts/UniswapV2Pair.sol\":4046:4055  rootKLast */\n              dup5\n                /* \"v2-core-master/contracts/UniswapV2Pair.sol\":4036:4056  rootK.sub(rootKLast) */\n              0xffffffff\n                /* \"v2-core-master/contracts/UniswapV2Pair.sol\":4036:4045  rootK.sub */\n              tag_148\n                /* \"v2-core-master/contracts/UniswapV2Pair.sol\":4036:4056  rootK.sub(rootKLast) */\n              and\n              jump\t// in\n            tag_308:\n                /* \"v2-core-master/contracts/UniswapV2Pair.sol\":4020:4031  totalSupply */\n              sload(0x00)\n              swap1\n                /* \"v2-core-master/contracts/UniswapV2Pair.sol\":4020:4057  totalSupply.mul(rootK.sub(rootKLast)) */\n              0xffffffff\n                /* \"v2-core-master/contracts/UniswapV2Pair.sol\":4020:4035  totalSupply.mul */\n              tag_146\n                /* \"v2-core-master/contracts/UniswapV2Pair.sol\":4020:4057  totalSupply.mul(rootK.sub(rootKLast)) */\n              and\n              jump\t// in\n            tag_307:\n                /* \"v2-core-master/contracts/UniswapV2Pair.sol\":4003:4057  uint numerator = totalSupply.mul(rootK.sub(rootKLast)) */\n              swap1\n              pop\n                /* \"v2-core-master/contracts/UniswapV2Pair.sol\":4079:4095  uint denominator */\n              0x00\n                /* \"v2-core-master/contracts/UniswapV2Pair.sol\":4098:4125  rootK.mul(5).add(rootKLast) */\n              tag_309\n                /* \"v2-core-master/contracts/UniswapV2Pair.sol\":4115:4124  rootKLast */\n              dup4\n                /* \"v2-core-master/contracts/UniswapV2Pair.sol\":4098:4110  rootK.mul(5) */\n              tag_310\n                /* \"v2-core-master/contracts/UniswapV2Pair.sol\":4098:4103  rootK */\n              dup7\n                /* \"v2-core-master/contracts/UniswapV2Pair.sol\":4108:4109  5 */\n              0x05\n                /* \"v2-core-master/contracts/UniswapV2Pair.sol\":4098:4110  rootK.mul(5) */\n              0xffffffff\n                /* \"v2-core-master/contracts/UniswapV2Pair.sol\":4098:4107  rootK.mul */\n              tag_146\n                /* \"v2-core-master/contracts/UniswapV2Pair.sol\":4098:4110  rootK.mul(5) */\n              and\n              jump\t// in\n            tag_310:\n                /* \"v2-core-master/contracts/UniswapV2Pair.sol\":4098:4114  rootK.mul(5).add */\n              swap1\n                /* \"v2-core-master/contracts/UniswapV2Pair.sol\":4098:4125  rootK.mul(5).add(rootKLast) */\n              0xffffffff\n                /* \"v2-core-master/contracts/UniswapV2Pair.sol\":4098:4114  rootK.mul(5).add */\n              tag_296\n                /* \"v2-core-master/contracts/UniswapV2Pair.sol\":4098:4125  rootK.mul(5).add(rootKLast) */\n              and\n              jump\t// in\n            tag_309:\n                /* \"v2-core-master/contracts/UniswapV2Pair.sol\":4079:4125  uint denominator = rootK.mul(5).add(rootKLast) */\n              swap1\n              pop\n                /* \"v2-core-master/contracts/UniswapV2Pair.sol\":4147:4161  uint liquidity */\n              0x00\n                /* \"v2-core-master/contracts/UniswapV2Pair.sol\":4176:4187  denominator */\n              dup2\n                /* \"v2-core-master/contracts/UniswapV2Pair.sol\":4164:4173  numerator */\n              dup4\n                /* \"v2-core-master/contracts/UniswapV2Pair.sol\":4164:4187  numerator / denominator */\n              dup2\n              tag_311\n              jumpi\n              invalid\n            tag_311:\n              div\n              swap1\n              pop\n                /* \"v2-core-master/contracts/UniswapV2Pair.sol\":4213:4226  liquidity > 0 */\n              dup1\n              iszero\n                /* \"v2-core-master/contracts/UniswapV2Pair.sol\":4209:4251  if (liquidity > 0) _mint(feeTo, liquidity) */\n              tag_313\n              jumpi\n                /* \"v2-core-master/contracts/UniswapV2Pair.sol\":4228:4251  _mint(feeTo, liquidity) */\n              tag_313\n                /* \"v2-core-master/contracts/UniswapV2Pair.sol\":4234:4239  feeTo */\n              dup8\n                /* \"v2-core-master/contracts/UniswapV2Pair.sol\":4241:4250  liquidity */\n              dup3\n                /* \"v2-core-master/contracts/UniswapV2Pair.sol\":4228:4233  _mint */\n              tag_189\n                /* \"v2-core-master/contracts/UniswapV2Pair.sol\":4228:4251  _mint(feeTo, liquidity) */\n              jump\t// in\n            tag_313:\n                /* \"v2-core-master/contracts/UniswapV2Pair.sol\":3958:4270  if (rootK > rootKLast) {... */\n              pop\n              pop\n              pop\n            tag_306:\n                /* \"v2-core-master/contracts/UniswapV2Pair.sol\":3799:4284  if (_kLast != 0) {... */\n              pop\n              pop\n            tag_302:\n                /* \"v2-core-master/contracts/UniswapV2Pair.sol\":3774:4351  if (feeOn) {... */\n              jump(tag_315)\n            tag_301:\n                /* \"v2-core-master/contracts/UniswapV2Pair.sol\":4304:4315  _kLast != 0 */\n              dup1\n              iszero\n                /* \"v2-core-master/contracts/UniswapV2Pair.sol\":4300:4351  if (_kLast != 0) {... */\n              tag_315\n              jumpi\n                /* \"v2-core-master/contracts/UniswapV2Pair.sol\":4339:4340  0 */\n              0x00\n                /* \"v2-core-master/contracts/UniswapV2Pair.sol\":4331:4336  kLast */\n              0x0b\n                /* \"v2-core-master/contracts/UniswapV2Pair.sol\":4331:4340  kLast = 0 */\n              sstore\n                /* \"v2-core-master/contracts/UniswapV2Pair.sol\":4300:4351  if (_kLast != 0) {... */\n            tag_315:\n                /* \"v2-core-master/contracts/UniswapV2Pair.sol\":3538:4357  function _mintFee(uint112 _reserve0, uint112 _reserve1) private returns (bool feeOn) {... */\n              pop\n              pop\n              swap3\n              swap2\n              pop\n              pop\n              jump\t// out\n                /* \"v2-core-master/contracts/libraries/Math.sol\":307:599  function sqrt(uint y) internal pure returns (uint z) {... */\n            tag_187:\n                /* \"v2-core-master/contracts/libraries/Math.sol\":352:358  uint z */\n              0x00\n                /* \"v2-core-master/contracts/libraries/Math.sol\":378:379  3 */\n              0x03\n                /* \"v2-core-master/contracts/libraries/Math.sol\":374:375  y */\n              dup3\n                /* \"v2-core-master/contracts/libraries/Math.sol\":374:379  y > 3 */\n              gt\n                /* \"v2-core-master/contracts/libraries/Math.sol\":370:593  if (y > 3) {... */\n              iszero\n              tag_317\n              jumpi\n              pop\n                /* \"v2-core-master/contracts/libraries/Math.sol\":399:400  y */\n              dup1\n                /* \"v2-core-master/contracts/libraries/Math.sol\":431:432  1 */\n              0x01\n                /* \"v2-core-master/contracts/libraries/Math.sol\":427:428  2 */\n              0x02\n                /* \"v2-core-master/contracts/libraries/Math.sol\":423:428  y / 2 */\n              dup3\n              div\n                /* \"v2-core-master/contracts/libraries/Math.sol\":423:432  y / 2 + 1 */\n              add\n                /* \"v2-core-master/contracts/libraries/Math.sol\":446:535  while (x < z) {... */\n            tag_319:\n                /* \"v2-core-master/contracts/libraries/Math.sol\":457:458  z */\n              dup2\n                /* \"v2-core-master/contracts/libraries/Math.sol\":453:454  x */\n              dup2\n                /* \"v2-core-master/contracts/libraries/Math.sol\":453:458  x < z */\n              lt\n                /* \"v2-core-master/contracts/libraries/Math.sol\":446:535  while (x < z) {... */\n              iszero\n              tag_320\n              jumpi\n                /* \"v2-core-master/contracts/libraries/Math.sol\":482:483  x */\n              dup1\n                /* \"v2-core-master/contracts/libraries/Math.sol\":478:483  z = x */\n              swap2\n              pop\n                /* \"v2-core-master/contracts/libraries/Math.sol\":519:520  2 */\n              0x02\n                /* \"v2-core-master/contracts/libraries/Math.sol\":514:515  x */\n              dup2\n                /* \"v2-core-master/contracts/libraries/Math.sol\":510:511  x */\n              dup3\n                /* \"v2-core-master/contracts/libraries/Math.sol\":506:507  y */\n              dup6\n                /* \"v2-core-master/contracts/libraries/Math.sol\":506:511  y / x */\n              dup2\n              tag_321\n              jumpi\n              invalid\n            tag_321:\n              div\n                /* \"v2-core-master/contracts/libraries/Math.sol\":506:515  y / x + x */\n              add\n                /* \"v2-core-master/contracts/libraries/Math.sol\":505:520  (y / x + x) / 2 */\n              dup2\n              tag_322\n              jumpi\n              invalid\n            tag_322:\n              div\n                /* \"v2-core-master/contracts/libraries/Math.sol\":501:520  x = (y / x + x) / 2 */\n              swap1\n              pop\n                /* \"v2-core-master/contracts/libraries/Math.sol\":446:535  while (x < z) {... */\n              jump(tag_319)\n            tag_320:\n                /* \"v2-core-master/contracts/libraries/Math.sol\":370:593  if (y > 3) {... */\n              pop\n              jump(tag_324)\n            tag_317:\n                /* \"v2-core-master/contracts/libraries/Math.sol\":555:561  y != 0 */\n              dup2\n              iszero\n                /* \"v2-core-master/contracts/libraries/Math.sol\":551:593  if (y != 0) {... */\n              tag_324\n              jumpi\n              pop\n                /* \"v2-core-master/contracts/libraries/Math.sol\":581:582  1 */\n              0x01\n                /* \"v2-core-master/contracts/libraries/Math.sol\":551:593  if (y != 0) {... */\n            tag_324:\n                /* \"v2-core-master/contracts/libraries/Math.sol\":307:599  function sqrt(uint y) internal pure returns (uint z) {... */\n              swap2\n              swap1\n              pop\n              jump\t// out\n                /* \"v2-core-master/contracts/UniswapV2ERC20.sol\":1368:1565  function _mint(address to, uint value) internal {... */\n            tag_189:\n                /* \"v2-core-master/contracts/UniswapV2ERC20.sol\":1440:1451  totalSupply */\n              sload(0x00)\n                /* \"v2-core-master/contracts/UniswapV2ERC20.sol\":1440:1462  totalSupply.add(value) */\n              tag_326\n              swap1\n                /* \"v2-core-master/contracts/UniswapV2ERC20.sol\":1456:1461  value */\n              dup3\n                /* \"v2-core-master/contracts/UniswapV2ERC20.sol\":1440:1462  totalSupply.add(value) */\n              0xffffffff\n                /* \"v2-core-master/contracts/UniswapV2ERC20.sol\":1440:1455  totalSupply.add */\n              tag_296\n                /* \"v2-core-master/contracts/UniswapV2ERC20.sol\":1440:1462  totalSupply.add(value) */\n              and\n              jump\t// in\n            tag_326:\n                /* \"v2-core-master/contracts/UniswapV2ERC20.sol\":1426:1437  totalSupply */\n              0x00\n                /* \"v2-core-master/contracts/UniswapV2ERC20.sol\":1426:1462  totalSupply = totalSupply.add(value) */\n              swap1\n              dup2\n              sstore\n              sub(shl(0xa0, 0x01), 0x01)\n                /* \"v2-core-master/contracts/UniswapV2ERC20.sol\":1488:1501  balanceOf[to] */\n              dup4\n              and\n              dup2\n              mstore\n              mstore(0x20, 0x01)\n              0x40\n              swap1\n              keccak256\n              sload\n                /* \"v2-core-master/contracts/UniswapV2ERC20.sol\":1488:1512  balanceOf[to].add(value) */\n              tag_327\n              swap1\n                /* \"v2-core-master/contracts/UniswapV2ERC20.sol\":1506:1511  value */\n              dup3\n                /* \"v2-core-master/contracts/UniswapV2ERC20.sol\":1488:1505  balanceOf[to].add */\n              tag_296\n                /* \"v2-core-master/contracts/UniswapV2ERC20.sol\":1488:1512  balanceOf[to].add(value) */\n              jump\t// in\n            tag_327:\n              sub(shl(0xa0, 0x01), 0x01)\n                /* \"v2-core-master/contracts/UniswapV2ERC20.sol\":1472:1485  balanceOf[to] */\n              dup4\n              and\n              0x00\n              dup2\n              dup2\n              mstore\n              0x01\n              0x20\n              swap1\n              dup2\n              mstore\n              0x40\n              dup1\n              dup4\n              keccak256\n                /* \"v2-core-master/contracts/UniswapV2ERC20.sol\":1472:1512  balanceOf[to] = balanceOf[to].add(value) */\n              swap5\n              swap1\n              swap5\n              sstore\n                /* \"v2-core-master/contracts/UniswapV2ERC20.sol\":1527:1558  Transfer(address(0), to, value) */\n              dup4\n              mload\n              dup6\n              dup2\n              mstore\n              swap4\n              mload\n                /* \"v2-core-master/contracts/UniswapV2ERC20.sol\":1472:1485  balanceOf[to] */\n              swap3\n              swap4\n              swap2\n              swap3\n                /* \"v2-core-master/contracts/UniswapV2ERC20.sol\":1527:1558  Transfer(address(0), to, value) */\n              0xddf252ad1be2c89b69c2b068fc378daa952ba7f163c4a11628f55a4df523b3ef\n              swap3\n              dup2\n              swap1\n              sub\n              swap1\n              swap2\n              add\n              swap1\n              log3\n                /* \"v2-core-master/contracts/UniswapV2ERC20.sol\":1368:1565  function _mint(address to, uint value) internal {... */\n              pop\n              pop\n              jump\t// out\n                /* \"v2-core-master/contracts/libraries/Math.sol\":98:192  function min(uint x, uint y) internal pure returns (uint z) {... */\n            tag_196:\n                /* \"v2-core-master/contracts/libraries/Math.sol\":150:156  uint z */\n              0x00\n                /* \"v2-core-master/contracts/libraries/Math.sol\":176:177  y */\n              dup2\n                /* \"v2-core-master/contracts/libraries/Math.sol\":172:173  x */\n              dup4\n                /* \"v2-core-master/contracts/libraries/Math.sol\":172:177  x < y */\n              lt\n                /* \"v2-core-master/contracts/libraries/Math.sol\":172:185  x < y ? x : y */\n              tag_329\n              jumpi\n                /* \"v2-core-master/contracts/libraries/Math.sol\":184:185  y */\n              dup2\n                /* \"v2-core-master/contracts/libraries/Math.sol\":172:185  x < y ? x : y */\n              jump(tag_330)\n            tag_329:\n                /* \"v2-core-master/contracts/libraries/Math.sol\":180:181  x */\n              dup3\n                /* \"v2-core-master/contracts/libraries/Math.sol\":172:185  x < y ? x : y */\n            tag_330:\n                /* \"v2-core-master/contracts/libraries/Math.sol\":168:185  z = x < y ? x : y */\n              swap4\n                /* \"v2-core-master/contracts/libraries/Math.sol\":98:192  function min(uint x, uint y) internal pure returns (uint z) {... */\n              swap3\n              pop\n              pop\n              pop\n              jump\t// out\n                /* \"v2-core-master/contracts/UniswapV2ERC20.sol\":1571:1776  function _burn(address from, uint value) internal {... */\n            tag_220:\n              sub(shl(0xa0, 0x01), 0x01)\n                /* \"v2-core-master/contracts/UniswapV2ERC20.sol\":1649:1664  balanceOf[from] */\n              dup3\n              and\n              0x00\n              swap1\n              dup2\n              mstore\n              mstore(0x20, 0x01)\n              0x40\n              swap1\n              keccak256\n              sload\n                /* \"v2-core-master/contracts/UniswapV2ERC20.sol\":1649:1675  balanceOf[from].sub(value) */\n              tag_332\n              swap1\n                /* \"v2-core-master/contracts/UniswapV2ERC20.sol\":1669:1674  value */\n              dup3\n                /* \"v2-core-master/contracts/UniswapV2ERC20.sol\":1649:1668  balanceOf[from].sub */\n              tag_148\n                /* \"v2-core-master/contracts/UniswapV2ERC20.sol\":1649:1675  balanceOf[from].sub(value) */\n              jump\t// in\n            tag_332:\n              sub(shl(0xa0, 0x01), 0x01)\n                /* \"v2-core-master/contracts/UniswapV2ERC20.sol\":1631:1646  balanceOf[from] */\n              dup4\n              and\n              0x00\n              swap1\n              dup2\n              mstore\n              mstore(0x20, 0x01)\n              0x40\n              dup2\n              keccak256\n                /* \"v2-core-master/contracts/UniswapV2ERC20.sol\":1631:1675  balanceOf[from] = balanceOf[from].sub(value) */\n              swap2\n              swap1\n              swap2\n              sstore\n                /* \"v2-core-master/contracts/UniswapV2ERC20.sol\":1699:1710  totalSupply */\n              sload\n                /* \"v2-core-master/contracts/UniswapV2ERC20.sol\":1699:1721  totalSupply.sub(value) */\n              tag_333\n              swap1\n                /* \"v2-core-master/contracts/UniswapV2ERC20.sol\":1715:1720  value */\n              dup3\n                /* \"v2-core-master/contracts/UniswapV2ERC20.sol\":1699:1714  totalSupply.sub */\n              tag_148\n                /* \"v2-core-master/contracts/UniswapV2ERC20.sol\":1699:1721  totalSupply.sub(value) */\n              jump\t// in\n            tag_333:\n                /* \"v2-core-master/contracts/UniswapV2ERC20.sol\":1685:1696  totalSupply */\n              0x00\n                /* \"v2-core-master/contracts/UniswapV2ERC20.sol\":1685:1721  totalSupply = totalSupply.sub(value) */\n              swap1\n              dup2\n              sstore\n                /* \"v2-core-master/contracts/UniswapV2ERC20.sol\":1736:1769  Transfer(from, address(0), value) */\n              0x40\n              dup1\n              mload\n              dup4\n              dup2\n              mstore\n              swap1\n              mload\n              sub(shl(0xa0, 0x01), 0x01)\n              dup6\n              and\n              swap2\n              0xddf252ad1be2c89b69c2b068fc378daa952ba7f163c4a11628f55a4df523b3ef\n              swap2\n              swap1\n              dup2\n              swap1\n              sub\n              0x20\n              add\n              swap1\n              log3\n                /* \"v2-core-master/contracts/UniswapV2ERC20.sol\":1571:1776  function _burn(address from, uint value) internal {... */\n              pop\n              pop\n              jump\t// out\n                /* \"v2-core-master/contracts/libraries/UQ112x112.sol\":283:401  function encode(uint112 y) internal pure returns (uint224 z) {... */\n            tag_288:\n              sub(shl(0x70, 0x01), 0x01)\n                /* \"v2-core-master/contracts/libraries/UQ112x112.sol\":358:368  uint224(y) */\n              and\n              shl(0x70, 0x01)\n                /* \"v2-core-master/contracts/libraries/UQ112x112.sol\":358:375  uint224(y) * Q112 */\n              mul\n              swap1\n                /* \"v2-core-master/contracts/libraries/UQ112x112.sol\":283:401  function encode(uint112 y) internal pure returns (uint224 z) {... */\n              jump\t// out\n                /* \"v2-core-master/contracts/libraries/UQ112x112.sol\":469:575  function uqdiv(uint224 x, uint112 y) internal pure returns (uint224 z) {... */\n            tag_289:\n                /* \"v2-core-master/contracts/libraries/UQ112x112.sol\":529:538  uint224 z */\n              0x00\n              sub(shl(0x70, 0x01), 0x01)\n                /* \"v2-core-master/contracts/libraries/UQ112x112.sol\":558:568  uint224(y) */\n              dup3\n              and\n              sub(shl(0xe0, 0x01), 0x01)\n                /* \"v2-core-master/contracts/libraries/UQ112x112.sol\":554:568  x / uint224(y) */\n              dup5\n              and\n                /* \"v2-core-master/contracts/libraries/UQ112x112.sol\":558:568  uint224(y) */\n              dup2\n                /* \"v2-core-master/contracts/libraries/UQ112x112.sol\":554:568  x / uint224(y) */\n              tag_336\n              jumpi\n              invalid\n            tag_336:\n              div\n              swap4\n                /* \"v2-core-master/contracts/libraries/UQ112x112.sol\":469:575  function uqdiv(uint224 x, uint112 y) internal pure returns (uint224 z) {... */\n              swap3\n              pop\n              pop\n              pop\n              jump\t// out\n                /* \"v2-core-master/contracts/libraries/SafeMath.sol\":155:281  function add(uint x, uint y) internal pure returns (uint z) {... */\n            tag_296:\n                /* \"v2-core-master/contracts/libraries/SafeMath.sol\":238:243  x + y */\n              dup1\n              dup3\n              add\n                /* \"v2-core-master/contracts/libraries/SafeMath.sol\":233:249  (z = x + y) >= x */\n              dup3\n              dup2\n              lt\n              iszero\n                /* \"v2-core-master/contracts/libraries/SafeMath.sol\":225:274  require((z = x + y) >= x, 'ds-math-add-overflow') */\n              tag_159\n              jumpi\n              0x40\n              dup1\n              mload\n              shl(0xe5, 0x461bcd)\n              dup2\n              mstore\n              0x20\n              0x04\n              dup3\n              add\n              mstore\n              0x14\n              0x24\n              dup3\n              add\n              mstore\n              0x64732d6d6174682d6164642d6f766572666c6f77000000000000000000000000\n              0x44\n              dup3\n              add\n              mstore\n              swap1\n              mload\n              swap1\n              dup2\n              swap1\n              sub\n              0x64\n              add\n              swap1\n              revert\n            stop\n            data_05339493da7e2cbe77e17beadf6b91132eb307939495f5f1797bf88d95539e83 556e697377617056323a20494e53554646494349454e545f4f55545055545f414d4f554e54\n            data_10e2efc32d8a31d3b2c11a545b3ed09c2dbabc58ef6de4033929d0002e425b67 556e697377617056323a20494e53554646494349454e545f494e5055545f414d4f554e54\n            data_3f354ef449b2a9b081220ce21f57691008110b653edc191d8288e60cef58bb5f 556e697377617056323a20494e53554646494349454e545f4c4951554944495459\n            data_57ebfb4dd8b5082cdba0f23c17077e3b0ecb9782a51e0e9a15e9bc8c4b30c562 556e697377617056323a20494e53554646494349454e545f4c49515549444954595f4255524e4544\n            data_6591c9f5bf1fefaad109b76a20e25c857b696080c952191f86220f001a83663e 556e697377617056323a20494e53554646494349454e545f4c49515549444954595f4d494e544544\n\n            auxdata: 0xa265627a7a723158208f600b657a720f5fe7a1e4a5f2e8de50dedc24906601fa5a5e295d0985fa6df564736f6c63430005100032\n        }\n    }\n\n    auxdata: 0xa265627a7a72315820275b34479a1e6b523edf8a34a8175f6ebef90576bea03f2fee514b4dd38f8cb164736f6c63430005100032\n}\n",
				"bytecode": {
					"linkReferences": {},
					"object": "608060405234801561001057600080fd5b50604051612d28380380612d288339818101604052602081101561003357600080fd5b5051600180546001600160a01b0319166001600160a01b03909216919091179055612cc5806100636000396000f3fe608060405234801561001057600080fd5b50600436106100a35760003560e01c8063574f2ba311610076578063c9c653961161005b578063c9c653961461013b578063e6a4390514610169578063f46901ed14610197576100a3565b8063574f2ba31461010b578063a2e74af614610113576100a3565b8063017e7e58146100a8578063094b7415146100cc5780631e3dd18b146100d4578063257671f5146100f1575b600080fd5b6100b06101bd565b604080516001600160a01b039092168252519081900360200190f35b6100b06101cc565b6100b0600480360360208110156100ea57600080fd5b50356101db565b6100f9610202565b60408051918252519081900360200190f35b6100f96102b3565b6101396004803603602081101561012957600080fd5b50356001600160a01b03166102b9565b005b6100b06004803603604081101561015157600080fd5b506001600160a01b0381358116916020013516610347565b6100b06004803603604081101561017f57600080fd5b506001600160a01b03813581169160200135166106a5565b610139600480360360208110156101ad57600080fd5b50356001600160a01b03166106cb565b6000546001600160a01b031681565b6001546001600160a01b031681565b600381815481106101e857fe5b6000918252602090912001546001600160a01b0316905081565b60405161021160208201610759565b6020820181038252601f19601f820116604052506040516020018082805190602001908083835b6020831061027557805182527fffffffffffffffffffffffffffffffffffffffffffffffffffffffffffffffe09092019160209182019101610238565b6001836020036101000a0380198251168184511680821785525050505050509050019150506040516020818303038152906040528051906020012081565b60035490565b6001546001600160a01b03163314610318576040805162461bcd60e51b815260206004820152601460248201527f556e697377617056323a20464f5242494444454e000000000000000000000000604482015290519081900360640190fd5b6001805473ffffffffffffffffffffffffffffffffffffffff19166001600160a01b0392909216919091179055565b6000816001600160a01b0316836001600160a01b031614156103b0576040805162461bcd60e51b815260206004820152601e60248201527f556e697377617056323a204944454e544943414c5f4144445245535345530000604482015290519081900360640190fd5b600080836001600160a01b0316856001600160a01b0316106103d35783856103d6565b84845b90925090506001600160a01b038216610436576040805162461bcd60e51b815260206004820152601760248201527f556e697377617056323a205a45524f5f41444452455353000000000000000000604482015290519081900360640190fd5b6001600160a01b038281166000908152600260209081526040808320858516845290915290205416156104b0576040805162461bcd60e51b815260206004820152601660248201527f556e697377617056323a20504149525f45584953545300000000000000000000604482015290519081900360640190fd5b6060604051806020016104c290610759565b6020820181038252601f19601f8201166040525090506000838360405160200180836001600160a01b03166001600160a01b031660601b8152601401826001600160a01b03166001600160a01b031660601b815260140192505050604051602081830303815290604052805190602001209050808251602084016000f5604080517f485cc9550000000000000000000000000000000000000000000000000000000081526001600160a01b038781166004830152868116602483015291519297509087169163485cc9559160448082019260009290919082900301818387803b1580156105ae57600080fd5b505af11580156105c2573d6000803e3d6000fd5b505050506001600160a01b0384811660008181526002602081815260408084208987168086529083528185208054978d1673ffffffffffffffffffffffffffffffffffffffff1998891681179091559383528185208686528352818520805488168517905560038054600181018255958190527fc2575a0e9e593c00f959f8c92f12db2869c3395a3b0502d05e2516446f71f85b90950180549097168417909655925483519283529082015281517f0d3648bd0f6ba80134a33ba9275ac585d9d315f0ad8355cddefde31afa28d0e9929181900390910190a35050505092915050565b60026020908152600092835260408084209091529082529020546001600160a01b031681565b6001546001600160a01b0316331461072a576040805162461bcd60e51b815260206004820152601460248201527f556e697377617056323a20464f5242494444454e000000000000000000000000604482015290519081900360640190fd5b6000805473ffffffffffffffffffffffffffffffffffffffff19166001600160a01b0392909216919091179055565b61252a806107678339019056fe60806040526001600c5534801561001557600080fd5b5060405146908060526124d88239604080519182900360520182208282018252600c83526b04761627269656c61737761760a41b6020938401528151808301835260018152603160f81b908401528151808401919091527f4c8ebfc6e115f3b0f58dff3cb9e272ce4eb1888e228e5575d936a1361b3a9454818301527fc89efdaa54c0f20c7adf612882df0950f5a951637e0307cdcb4c672f298b8bc6606082015260808101949094523060a0808601919091528151808603909101815260c09094019052825192019190912060035550600580546001600160a01b031916331790556123d1806101076000396000f3fe608060405234801561001057600080fd5b50600436106101b95760003560e01c80636a627842116100f9578063ba9a7a5611610097578063d21220a711610071578063d21220a714610544578063d505accf1461054c578063dd62ed3e1461059d578063fff6cae9146105cb576101b9565b8063ba9a7a561461050e578063bc25cf7714610516578063c45a01551461053c576101b9565b80637ecebe00116100d35780637ecebe001461047557806389afcb441461049b57806395d89b41146104da578063a9059cbb146104e2576101b9565b80636a6278421461042157806370a08231146104475780637464fc3d1461046d576101b9565b806323b872dd116101665780633644e515116101405780633644e515146103db578063485cc955146103e35780635909c0d5146104115780635a3d549314610419576101b9565b806323b872dd1461037f57806330adf81f146103b5578063313ce567146103bd576101b9565b8063095ea7b311610197578063095ea7b3146103015780630dfe16811461034157806318160ddd14610365576101b9565b8063022c0d9f146101be57806306fdde031461024c5780630902f1ac146102c9575b600080fd5b61024a600480360360808110156101d457600080fd5b8135916020810135916001600160a01b03604083013516919081019060808101606082013564010000000081111561020b57600080fd5b82018360208201111561021d57600080fd5b8035906020019184600183028401116401000000008311171561023f57600080fd5b5090925090506105d3565b005b610254610b33565b6040805160208082528351818301528351919283929083019185019080838360005b8381101561028e578181015183820152602001610276565b50505050905090810190601f1680156102bb5780820380516001836020036101000a031916815260200191505b509250505060405180910390f35b6102d1610b6c565b604080516001600160701b03948516815292909316602083015263ffffffff168183015290519081900360600190f35b61032d6004803603604081101561031757600080fd5b506001600160a01b038135169060200135610b96565b604080519115158252519081900360200190f35b610349610bad565b604080516001600160a01b039092168252519081900360200190f35b61036d610bbc565b60408051918252519081900360200190f35b61032d6004803603606081101561039557600080fd5b506001600160a01b03813581169160208101359091169060400135610bc2565b61036d610c7a565b6103c5610c9e565b6040805160ff9092168252519081900360200190f35b61036d610ca3565b61024a600480360360408110156103f957600080fd5b506001600160a01b0381358116916020013516610ca9565b61036d610d4e565b61036d610d54565b61036d6004803603602081101561043757600080fd5b50356001600160a01b0316610d5a565b61036d6004803603602081101561045d57600080fd5b50356001600160a01b0316611066565b61036d611078565b61036d6004803603602081101561048b57600080fd5b50356001600160a01b031661107e565b6104c1600480360360208110156104b157600080fd5b50356001600160a01b0316611090565b6040805192835260208301919091528051918290030190f35b610254611442565b61032d600480360360408110156104f857600080fd5b506001600160a01b03813516906020013561147b565b61036d611488565b61024a6004803603602081101561052c57600080fd5b50356001600160a01b031661148e565b610349611605565b610349611614565b61024a600480360360e081101561056257600080fd5b506001600160a01b03813581169160208101359091169060408101359060608101359060ff6080820135169060a08101359060c00135611623565b61036d600480360360408110156105b357600080fd5b506001600160a01b038135811691602001351661184b565b61024a611868565b600c5460011461062a576040805162461bcd60e51b815260206004820152601160248201527f556e697377617056323a204c4f434b4544000000000000000000000000000000604482015290519081900360640190fd5b6000600c558415158061063d5750600084115b6106785760405162461bcd60e51b81526004018080602001828103825260258152602001806122e36025913960400191505060405180910390fd5b600080610683610b6c565b5091509150816001600160701b0316871080156106a85750806001600160701b031686105b6106e35760405162461bcd60e51b815260040180806020018281038252602181526020018061232c6021913960400191505060405180910390fd5b60065460075460009182916001600160a01b039182169190811690891682148015906107215750806001600160a01b0316896001600160a01b031614155b610772576040805162461bcd60e51b815260206004820152601560248201527f556e697377617056323a20494e56414c49445f544f0000000000000000000000604482015290519081900360640190fd5b8a1561078357610783828a8d6119d6565b891561079457610794818a8c6119d6565b861561084f57886001600160a01b03166310d1e85c338d8d8c8c6040518663ffffffff1660e01b815260040180866001600160a01b03166001600160a01b03168152602001858152602001848152602001806020018281038252848482818152602001925080828437600081840152601f19601f8201169050808301925050509650505050505050600060405180830381600087803b15801561083657600080fd5b505af115801561084a573d6000803e3d6000fd5b505050505b604080516370a0823160e01b815230600482015290516001600160a01b038416916370a08231916024808301926020929190829003018186803b15801561089557600080fd5b505afa1580156108a9573d6000803e3d6000fd5b505050506040513d60208110156108bf57600080fd5b5051604080516370a0823160e01b815230600482015290519195506001600160a01b038316916370a0823191602480820192602092909190829003018186803b15801561090b57600080fd5b505afa15801561091f573d6000803e3d6000fd5b505050506040513d602081101561093557600080fd5b5051925060009150506001600160701b0385168a90038311610958576000610967565b89856001600160701b03160383035b9050600089856001600160701b0316038311610984576000610993565b89856001600160701b03160383035b905060008211806109a45750600081115b6109df5760405162461bcd60e51b81526004018080602001828103825260248152602001806123086024913960400191505060405180910390fd5b6000610a136109f584600363ffffffff611b8916565b610a07876103e863ffffffff611b8916565b9063ffffffff611bf516565b90506000610a2b6109f584600363ffffffff611b8916565b9050610a5c620f4240610a506001600160701b038b8116908b1663ffffffff611b8916565b9063ffffffff611b8916565b610a6c838363ffffffff611b8916565b1015610abf576040805162461bcd60e51b815260206004820152600c60248201527f556e697377617056323a204b0000000000000000000000000000000000000000604482015290519081900360640190fd5b5050610acd84848888611c4d565b60408051838152602081018390528082018d9052606081018c905290516001600160a01b038b169133917fd78ad95fa46c994b6551d0da85fc275fe613ce37657fb8d5e3d130840159d8229181900360800190a350506001600c55505050505050505050565b6040518060400160405280600c81526020017f4761627269656c6173776170000000000000000000000000000000000000000081525081565b6008546001600160701b0380821692600160701b830490911691600160e01b900463ffffffff1690565b6000610ba3338484611e3b565b5060015b92915050565b6006546001600160a01b031681565b60005481565b6001600160a01b03831660009081526002602090815260408083203384529091528120547fffffffffffffffffffffffffffffffffffffffffffffffffffffffffffffffff14610c65576001600160a01b0384166000908152600260209081526040808320338452909152902054610c40908363ffffffff611bf516565b6001600160a01b03851660009081526002602090815260408083203384529091529020555b610c70848484611e9d565b5060019392505050565b7f6e71edae12b1b97f4d1f60370fef10105fa2faae0126114a169c64845d6126c981565b601281565b60035481565b6005546001600160a01b03163314610d08576040805162461bcd60e51b815260206004820152601460248201527f556e697377617056323a20464f5242494444454e000000000000000000000000604482015290519081900360640190fd5b600680546001600160a01b039384167fffffffffffffffffffffffff00000000000000000000000000000000000000009182161790915560078054929093169116179055565b60095481565b600a5481565b6000600c54600114610db3576040805162461bcd60e51b815260206004820152601160248201527f556e697377617056323a204c4f434b4544000000000000000000000000000000604482015290519081900360640190fd5b6000600c81905580610dc3610b6c565b50600654604080516370a0823160e01b815230600482015290519395509193506000926001600160a01b03909116916370a08231916024808301926020929190829003018186803b158015610e1757600080fd5b505afa158015610e2b573d6000803e3d6000fd5b505050506040513d6020811015610e4157600080fd5b5051600754604080516370a0823160e01b815230600482015290519293506000926001600160a01b03909216916370a0823191602480820192602092909190829003018186803b158015610e9457600080fd5b505afa158015610ea8573d6000803e3d6000fd5b505050506040513d6020811015610ebe57600080fd5b505190506000610edd836001600160701b03871663ffffffff611bf516565b90506000610efa836001600160701b03871663ffffffff611bf516565b90506000610f088787611f57565b60005490915080610f4557610f316103e8610a07610f2c878763ffffffff611b8916565b6120b5565b9850610f4060006103e8612107565b610f94565b610f916001600160701b038916610f62868463ffffffff611b8916565b81610f6957fe5b046001600160701b038916610f84868563ffffffff611b8916565b81610f8b57fe5b0461219d565b98505b60008911610fd35760405162461bcd60e51b81526004018080602001828103825260288152602001806123756028913960400191505060405180910390fd5b610fdd8a8a612107565b610fe986868a8a611c4d565b811561101957600854611015906001600160701b0380821691600160701b90041663ffffffff611b8916565b600b555b6040805185815260208101859052815133927f4c209b5fc8ad50758f13e2e1088ba56a560dff690a1c6fef26394f4c03821c4f928290030190a250506001600c5550949695505050505050565b60016020526000908152604090205481565b600b5481565b60046020526000908152604090205481565b600080600c546001146110ea576040805162461bcd60e51b815260206004820152601160248201527f556e697377617056323a204c4f434b4544000000000000000000000000000000604482015290519081900360640190fd5b6000600c819055806110fa610b6c565b50600654600754604080516370a0823160e01b815230600482015290519496509294506001600160a01b039182169391169160009184916370a08231916024808301926020929190829003018186803b15801561115657600080fd5b505afa15801561116a573d6000803e3d6000fd5b505050506040513d602081101561118057600080fd5b5051604080516370a0823160e01b815230600482015290519192506000916001600160a01b038516916370a08231916024808301926020929190829003018186803b1580156111ce57600080fd5b505afa1580156111e2573d6000803e3d6000fd5b505050506040513d60208110156111f857600080fd5b5051306000908152600160205260408120549192506112178888611f57565b6000549091508061122e848763ffffffff611b8916565b8161123557fe5b049a5080611249848663ffffffff611b8916565b8161125057fe5b04995060008b118015611263575060008a115b61129e5760405162461bcd60e51b815260040180806020018281038252602881526020018061234d6028913960400191505060405180910390fd5b6112a830846121b5565b6112b3878d8d6119d6565b6112be868d8c6119d6565b604080516370a0823160e01b815230600482015290516001600160a01b038916916370a08231916024808301926020929190829003018186803b15801561130457600080fd5b505afa158015611318573d6000803e3d6000fd5b505050506040513d602081101561132e57600080fd5b5051604080516370a0823160e01b815230600482015290519196506001600160a01b038816916370a0823191602480820192602092909190829003018186803b15801561137a57600080fd5b505afa15801561138e573d6000803e3d6000fd5b505050506040513d60208110156113a457600080fd5b505193506113b485858b8b611c4d565b81156113e4576008546113e0906001600160701b0380821691600160701b90041663ffffffff611b8916565b600b555b604080518c8152602081018c905281516001600160a01b038f169233927fdccd412f0b1252819cb1fd330b93224ca42612892bb3f4f789976e6d81936496929081900390910190a35050505050505050506001600c81905550915091565b6040518060400160405280600381526020017f454c41000000000000000000000000000000000000000000000000000000000081525081565b6000610ba3338484611e9d565b6103e881565b600c546001146114e5576040805162461bcd60e51b815260206004820152601160248201527f556e697377617056323a204c4f434b4544000000000000000000000000000000604482015290519081900360640190fd5b6000600c55600654600754600854604080516370a0823160e01b815230600482015290516001600160a01b039485169490931692611594928592879261158f926001600160701b03169185916370a0823191602480820192602092909190829003018186803b15801561155757600080fd5b505afa15801561156b573d6000803e3d6000fd5b505050506040513d602081101561158157600080fd5b50519063ffffffff611bf516565b6119d6565b600854604080516370a0823160e01b815230600482015290516115fb928492879261158f92600160701b90046001600160701b0316916001600160a01b038616916370a0823191602480820192602092909190829003018186803b15801561155757600080fd5b50506001600c5550565b6005546001600160a01b031681565b6007546001600160a01b031681565b42841015611678576040805162461bcd60e51b815260206004820152601260248201527f556e697377617056323a20455850495245440000000000000000000000000000604482015290519081900360640190fd5b6003546001600160a01b0380891660008181526004602090815260408083208054600180820190925582517f6e71edae12b1b97f4d1f60370fef10105fa2faae0126114a169c64845d6126c98186015280840196909652958d166060860152608085018c905260a085019590955260c08085018b90528151808603909101815260e0850182528051908301207f19010000000000000000000000000000000000000000000000000000000000006101008601526101028501969096526101228085019690965280518085039096018652610142840180825286519683019690962095839052610162840180825286905260ff89166101828501526101a284018890526101c28401879052519193926101e280820193601f1981019281900390910190855afa1580156117ae573d6000803e3d6000fd5b5050604051601f1901519150506001600160a01b038116158015906117e45750886001600160a01b0316816001600160a01b0316145b611835576040805162461bcd60e51b815260206004820152601c60248201527f556e697377617056323a20494e56414c49445f5349474e415455524500000000604482015290519081900360640190fd5b611840898989611e3b565b505050505050505050565b600260209081526000928352604080842090915290825290205481565b600c546001146118bf576040805162461bcd60e51b815260206004820152601160248201527f556e697377617056323a204c4f434b4544000000000000000000000000000000604482015290519081900360640190fd5b6000600c55600654604080516370a0823160e01b815230600482015290516119cf926001600160a01b0316916370a08231916024808301926020929190829003018186803b15801561191057600080fd5b505afa158015611924573d6000803e3d6000fd5b505050506040513d602081101561193a57600080fd5b5051600754604080516370a0823160e01b815230600482015290516001600160a01b03909216916370a0823191602480820192602092909190829003018186803b15801561198757600080fd5b505afa15801561199b573d6000803e3d6000fd5b505050506040513d60208110156119b157600080fd5b50516008546001600160701b0380821691600160701b900416611c4d565b6001600c55565b604080518082018252601981527f7472616e7366657228616464726573732c75696e74323536290000000000000060209182015281516001600160a01b0385811660248301526044808301869052845180840390910181526064909201845291810180516001600160e01b03167fa9059cbb000000000000000000000000000000000000000000000000000000001781529251815160009460609489169392918291908083835b60208310611a9c5780518252601f199092019160209182019101611a7d565b6001836020036101000a0380198251168184511680821785525050505050509050019150506000604051808303816000865af19150503d8060008114611afe576040519150601f19603f3d011682016040523d82523d6000602084013e611b03565b606091505b5091509150818015611b31575080511580611b315750808060200190516020811015611b2e57600080fd5b50515b611b82576040805162461bcd60e51b815260206004820152601a60248201527f556e697377617056323a205452414e534645525f4641494c4544000000000000604482015290519081900360640190fd5b5050505050565b6000811580611ba457505080820282828281611ba157fe5b04145b610ba7576040805162461bcd60e51b815260206004820152601460248201527f64732d6d6174682d6d756c2d6f766572666c6f77000000000000000000000000604482015290519081900360640190fd5b80820382811115610ba7576040805162461bcd60e51b815260206004820152601560248201527f64732d6d6174682d7375622d756e646572666c6f770000000000000000000000604482015290519081900360640190fd5b6001600160701b038411801590611c6b57506001600160701b038311155b611cbc576040805162461bcd60e51b815260206004820152601360248201527f556e697377617056323a204f564552464c4f5700000000000000000000000000604482015290519081900360640190fd5b60085463ffffffff42811691600160e01b90048116820390811615801590611cec57506001600160701b03841615155b8015611d0057506001600160701b03831615155b15611d71578063ffffffff16611d2e85611d1986612253565b6001600160e01b03169063ffffffff61226516565b600980546001600160e01b03929092169290920201905563ffffffff8116611d5984611d1987612253565b600a80546001600160e01b0392909216929092020190555b600880547fffffffffffffffffffffffffffffffffffff0000000000000000000000000000166001600160701b03888116919091177fffffffff0000000000000000000000000000ffffffffffffffffffffffffffff16600160701b8883168102919091176001600160e01b0316600160e01b63ffffffff871602179283905560408051848416815291909304909116602082015281517f1c411e9a96e071241c2f21f7726b17ae89e3cab4c78be50e062b03a9fffbbad1929181900390910190a1505050505050565b6001600160a01b03808416600081815260026020908152604080832094871680845294825291829020859055815185815291517f8c5be1e5ebec7d5bd14f71427d1e84f3dd0314c0f7b2291e5b200ac8c7c3b9259281900390910190a3505050565b6001600160a01b038316600090815260016020526040902054611ec6908263ffffffff611bf516565b6001600160a01b038085166000908152600160205260408082209390935590841681522054611efb908263ffffffff61228a16565b6001600160a01b0380841660008181526001602090815260409182902094909455805185815290519193928716927fddf252ad1be2c89b69c2b068fc378daa952ba7f163c4a11628f55a4df523b3ef92918290030190a3505050565b600080600560009054906101000a90046001600160a01b03166001600160a01b031663017e7e586040518163ffffffff1660e01b815260040160206040518083038186803b158015611fa857600080fd5b505afa158015611fbc573d6000803e3d6000fd5b505050506040513d6020811015611fd257600080fd5b5051600b546001600160a01b0382161580159450919250906120a157801561209c576000612015610f2c6001600160701b0388811690881663ffffffff611b8916565b90506000612022836120b5565b905080821115612099576000612050612041848463ffffffff611bf516565b6000549063ffffffff611b8916565b905060006120758361206986600563ffffffff611b8916565b9063ffffffff61228a16565b9050600081838161208257fe5b0490508015612095576120958782612107565b5050505b50505b6120ad565b80156120ad576000600b555b505092915050565b600060038211156120f8575080600160028204015b818110156120f2578091506002818285816120e157fe5b0401816120ea57fe5b0490506120ca565b50612102565b8115612102575060015b919050565b60005461211a908263ffffffff61228a16565b60009081556001600160a01b038316815260016020526040902054612145908263ffffffff61228a16565b6001600160a01b03831660008181526001602090815260408083209490945583518581529351929391927fddf252ad1be2c89b69c2b068fc378daa952ba7f163c4a11628f55a4df523b3ef9281900390910190a35050565b60008183106121ac57816121ae565b825b9392505050565b6001600160a01b0382166000908152600160205260409020546121de908263ffffffff611bf516565b6001600160a01b0383166000908152600160205260408120919091555461220b908263ffffffff611bf516565b60009081556040805183815290516001600160a01b038516917fddf252ad1be2c89b69c2b068fc378daa952ba7f163c4a11628f55a4df523b3ef919081900360200190a35050565b6001600160701b0316600160701b0290565b60006001600160701b0382166001600160e01b0384168161228257fe5b049392505050565b80820182811015610ba7576040805162461bcd60e51b815260206004820152601460248201527f64732d6d6174682d6164642d6f766572666c6f77000000000000000000000000604482015290519081900360640190fdfe556e697377617056323a20494e53554646494349454e545f4f55545055545f414d4f554e54556e697377617056323a20494e53554646494349454e545f494e5055545f414d4f554e54556e697377617056323a20494e53554646494349454e545f4c4951554944495459556e697377617056323a20494e53554646494349454e545f4c49515549444954595f4255524e4544556e697377617056323a20494e53554646494349454e545f4c49515549444954595f4d494e544544a265627a7a723158208f600b657a720f5fe7a1e4a5f2e8de50dedc24906601fa5a5e295d0985fa6df564736f6c63430005100032454950373132446f6d61696e28737472696e67206e616d652c737472696e672076657273696f6e2c75696e7432353620636861696e49642c6164647265737320766572696679696e67436f6e747261637429a265627a7a72315820275b34479a1e6b523edf8a34a8175f6ebef90576bea03f2fee514b4dd38f8cb164736f6c63430005100032",
					"opcodes": "PUSH1 0x80 PUSH1 0x40 MSTORE CALLVALUE DUP1 ISZERO PUSH2 0x10 JUMPI PUSH1 0x0 DUP1 REVERT JUMPDEST POP PUSH1 0x40 MLOAD PUSH2 0x2D28 CODESIZE SUB DUP1 PUSH2 0x2D28 DUP4 CODECOPY DUP2 DUP2 ADD PUSH1 0x40 MSTORE PUSH1 0x20 DUP2 LT ISZERO PUSH2 0x33 JUMPI PUSH1 0x0 DUP1 REVERT JUMPDEST POP MLOAD PUSH1 0x1 DUP1 SLOAD PUSH1 0x1 PUSH1 0x1 PUSH1 0xA0 SHL SUB NOT AND PUSH1 0x1 PUSH1 0x1 PUSH1 0xA0 SHL SUB SWAP1 SWAP3 AND SWAP2 SWAP1 SWAP2 OR SWAP1 SSTORE PUSH2 0x2CC5 DUP1 PUSH2 0x63 PUSH1 0x0 CODECOPY PUSH1 0x0 RETURN INVALID PUSH1 0x80 PUSH1 0x40 MSTORE CALLVALUE DUP1 ISZERO PUSH2 0x10 JUMPI PUSH1 0x0 DUP1 REVERT JUMPDEST POP PUSH1 0x4 CALLDATASIZE LT PUSH2 0xA3 JUMPI PUSH1 0x0 CALLDATALOAD PUSH1 0xE0 SHR DUP1 PUSH4 0x574F2BA3 GT PUSH2 0x76 JUMPI DUP1 PUSH4 0xC9C65396 GT PUSH2 0x5B JUMPI DUP1 PUSH4 0xC9C65396 EQ PUSH2 0x13B JUMPI DUP1 PUSH4 0xE6A43905 EQ PUSH2 0x169 JUMPI DUP1 PUSH4 0xF46901ED EQ PUSH2 0x197 JUMPI PUSH2 0xA3 JUMP JUMPDEST DUP1 PUSH4 0x574F2BA3 EQ PUSH2 0x10B JUMPI DUP1 PUSH4 0xA2E74AF6 EQ PUSH2 0x113 JUMPI PUSH2 0xA3 JUMP JUMPDEST DUP1 PUSH4 0x17E7E58 EQ PUSH2 0xA8 JUMPI DUP1 PUSH4 0x94B7415 EQ PUSH2 0xCC JUMPI DUP1 PUSH4 0x1E3DD18B EQ PUSH2 0xD4 JUMPI DUP1 PUSH4 0x257671F5 EQ PUSH2 0xF1 JUMPI JUMPDEST PUSH1 0x0 DUP1 REVERT JUMPDEST PUSH2 0xB0 PUSH2 0x1BD JUMP JUMPDEST PUSH1 0x40 DUP1 MLOAD PUSH1 0x1 PUSH1 0x1 PUSH1 0xA0 SHL SUB SWAP1 SWAP3 AND DUP3 MSTORE MLOAD SWAP1 DUP2 SWAP1 SUB PUSH1 0x20 ADD SWAP1 RETURN JUMPDEST PUSH2 0xB0 PUSH2 0x1CC JUMP JUMPDEST PUSH2 0xB0 PUSH1 0x4 DUP1 CALLDATASIZE SUB PUSH1 0x20 DUP2 LT ISZERO PUSH2 0xEA JUMPI PUSH1 0x0 DUP1 REVERT JUMPDEST POP CALLDATALOAD PUSH2 0x1DB JUMP JUMPDEST PUSH2 0xF9 PUSH2 0x202 JUMP JUMPDEST PUSH1 0x40 DUP1 MLOAD SWAP2 DUP3 MSTORE MLOAD SWAP1 DUP2 SWAP1 SUB PUSH1 0x20 ADD SWAP1 RETURN JUMPDEST PUSH2 0xF9 PUSH2 0x2B3 JUMP JUMPDEST PUSH2 0x139 PUSH1 0x4 DUP1 CALLDATASIZE SUB PUSH1 0x20 DUP2 LT ISZERO PUSH2 0x129 JUMPI PUSH1 0x0 DUP1 REVERT JUMPDEST POP CALLDATALOAD PUSH1 0x1 PUSH1 0x1 PUSH1 0xA0 SHL SUB AND PUSH2 0x2B9 JUMP JUMPDEST STOP JUMPDEST PUSH2 0xB0 PUSH1 0x4 DUP1 CALLDATASIZE SUB PUSH1 0x40 DUP2 LT ISZERO PUSH2 0x151 JUMPI PUSH1 0x0 DUP1 REVERT JUMPDEST POP PUSH1 0x1 PUSH1 0x1 PUSH1 0xA0 SHL SUB DUP2 CALLDATALOAD DUP2 AND SWAP2 PUSH1 0x20 ADD CALLDATALOAD AND PUSH2 0x347 JUMP JUMPDEST PUSH2 0xB0 PUSH1 0x4 DUP1 CALLDATASIZE SUB PUSH1 0x40 DUP2 LT ISZERO PUSH2 0x17F JUMPI PUSH1 0x0 DUP1 REVERT JUMPDEST POP PUSH1 0x1 PUSH1 0x1 PUSH1 0xA0 SHL SUB DUP2 CALLDATALOAD DUP2 AND SWAP2 PUSH1 0x20 ADD CALLDATALOAD AND PUSH2 0x6A5 JUMP JUMPDEST PUSH2 0x139 PUSH1 0x4 DUP1 CALLDATASIZE SUB PUSH1 0x20 DUP2 LT ISZERO PUSH2 0x1AD JUMPI PUSH1 0x0 DUP1 REVERT JUMPDEST POP CALLDATALOAD PUSH1 0x1 PUSH1 0x1 PUSH1 0xA0 SHL SUB AND PUSH2 0x6CB JUMP JUMPDEST PUSH1 0x0 SLOAD PUSH1 0x1 PUSH1 0x1 PUSH1 0xA0 SHL SUB AND DUP2 JUMP JUMPDEST PUSH1 0x1 SLOAD PUSH1 0x1 PUSH1 0x1 PUSH1 0xA0 SHL SUB AND DUP2 JUMP JUMPDEST PUSH1 0x3 DUP2 DUP2 SLOAD DUP2 LT PUSH2 0x1E8 JUMPI INVALID JUMPDEST PUSH1 0x0 SWAP2 DUP3 MSTORE PUSH1 0x20 SWAP1 SWAP2 KECCAK256 ADD SLOAD PUSH1 0x1 PUSH1 0x1 PUSH1 0xA0 SHL SUB AND SWAP1 POP DUP2 JUMP JUMPDEST PUSH1 0x40 MLOAD PUSH2 0x211 PUSH1 0x20 DUP3 ADD PUSH2 0x759 JUMP JUMPDEST PUSH1 0x20 DUP3 ADD DUP2 SUB DUP3 MSTORE PUSH1 0x1F NOT PUSH1 0x1F DUP3 ADD AND PUSH1 0x40 MSTORE POP PUSH1 0x40 MLOAD PUSH1 0x20 ADD DUP1 DUP3 DUP1 MLOAD SWAP1 PUSH1 0x20 ADD SWAP1 DUP1 DUP4 DUP4 JUMPDEST PUSH1 0x20 DUP4 LT PUSH2 0x275 JUMPI DUP1 MLOAD DUP3 MSTORE PUSH32 0xFFFFFFFFFFFFFFFFFFFFFFFFFFFFFFFFFFFFFFFFFFFFFFFFFFFFFFFFFFFFFFE0 SWAP1 SWAP3 ADD SWAP2 PUSH1 0x20 SWAP2 DUP3 ADD SWAP2 ADD PUSH2 0x238 JUMP JUMPDEST PUSH1 0x1 DUP4 PUSH1 0x20 SUB PUSH2 0x100 EXP SUB DUP1 NOT DUP3 MLOAD AND DUP2 DUP5 MLOAD AND DUP1 DUP3 OR DUP6 MSTORE POP POP POP POP POP POP SWAP1 POP ADD SWAP2 POP POP PUSH1 0x40 MLOAD PUSH1 0x20 DUP2 DUP4 SUB SUB DUP2 MSTORE SWAP1 PUSH1 0x40 MSTORE DUP1 MLOAD SWAP1 PUSH1 0x20 ADD KECCAK256 DUP2 JUMP JUMPDEST PUSH1 0x3 SLOAD SWAP1 JUMP JUMPDEST PUSH1 0x1 SLOAD PUSH1 0x1 PUSH1 0x1 PUSH1 0xA0 SHL SUB AND CALLER EQ PUSH2 0x318 JUMPI PUSH1 0x40 DUP1 MLOAD PUSH3 0x461BCD PUSH1 0xE5 SHL DUP2 MSTORE PUSH1 0x20 PUSH1 0x4 DUP3 ADD MSTORE PUSH1 0x14 PUSH1 0x24 DUP3 ADD MSTORE PUSH32 0x556E697377617056323A20464F5242494444454E000000000000000000000000 PUSH1 0x44 DUP3 ADD MSTORE SWAP1 MLOAD SWAP1 DUP2 SWAP1 SUB PUSH1 0x64 ADD SWAP1 REVERT JUMPDEST PUSH1 0x1 DUP1 SLOAD PUSH20 0xFFFFFFFFFFFFFFFFFFFFFFFFFFFFFFFFFFFFFFFF NOT AND PUSH1 0x1 PUSH1 0x1 PUSH1 0xA0 SHL SUB SWAP3 SWAP1 SWAP3 AND SWAP2 SWAP1 SWAP2 OR SWAP1 SSTORE JUMP JUMPDEST PUSH1 0x0 DUP2 PUSH1 0x1 PUSH1 0x1 PUSH1 0xA0 SHL SUB AND DUP4 PUSH1 0x1 PUSH1 0x1 PUSH1 0xA0 SHL SUB AND EQ ISZERO PUSH2 0x3B0 JUMPI PUSH1 0x40 DUP1 MLOAD PUSH3 0x461BCD PUSH1 0xE5 SHL DUP2 MSTORE PUSH1 0x20 PUSH1 0x4 DUP3 ADD MSTORE PUSH1 0x1E PUSH1 0x24 DUP3 ADD MSTORE PUSH32 0x556E697377617056323A204944454E544943414C5F4144445245535345530000 PUSH1 0x44 DUP3 ADD MSTORE SWAP1 MLOAD SWAP1 DUP2 SWAP1 SUB PUSH1 0x64 ADD SWAP1 REVERT JUMPDEST PUSH1 0x0 DUP1 DUP4 PUSH1 0x1 PUSH1 0x1 PUSH1 0xA0 SHL SUB AND DUP6 PUSH1 0x1 PUSH1 0x1 PUSH1 0xA0 SHL SUB AND LT PUSH2 0x3D3 JUMPI DUP4 DUP6 PUSH2 0x3D6 JUMP JUMPDEST DUP5 DUP5 JUMPDEST SWAP1 SWAP3 POP SWAP1 POP PUSH1 0x1 PUSH1 0x1 PUSH1 0xA0 SHL SUB DUP3 AND PUSH2 0x436 JUMPI PUSH1 0x40 DUP1 MLOAD PUSH3 0x461BCD PUSH1 0xE5 SHL DUP2 MSTORE PUSH1 0x20 PUSH1 0x4 DUP3 ADD MSTORE PUSH1 0x17 PUSH1 0x24 DUP3 ADD MSTORE PUSH32 0x556E697377617056323A205A45524F5F41444452455353000000000000000000 PUSH1 0x44 DUP3 ADD MSTORE SWAP1 MLOAD SWAP1 DUP2 SWAP1 SUB PUSH1 0x64 ADD SWAP1 REVERT JUMPDEST PUSH1 0x1 PUSH1 0x1 PUSH1 0xA0 SHL SUB DUP3 DUP2 AND PUSH1 0x0 SWAP1 DUP2 MSTORE PUSH1 0x2 PUSH1 0x20 SWAP1 DUP2 MSTORE PUSH1 0x40 DUP1 DUP4 KECCAK256 DUP6 DUP6 AND DUP5 MSTORE SWAP1 SWAP2 MSTORE SWAP1 KECCAK256 SLOAD AND ISZERO PUSH2 0x4B0 JUMPI PUSH1 0x40 DUP1 MLOAD PUSH3 0x461BCD PUSH1 0xE5 SHL DUP2 MSTORE PUSH1 0x20 PUSH1 0x4 DUP3 ADD MSTORE PUSH1 0x16 PUSH1 0x24 DUP3 ADD MSTORE PUSH32 0x556E697377617056323A20504149525F45584953545300000000000000000000 PUSH1 0x44 DUP3 ADD MSTORE SWAP1 MLOAD SWAP1 DUP2 SWAP1 SUB PUSH1 0x64 ADD SWAP1 REVERT JUMPDEST PUSH1 0x60 PUSH1 0x40 MLOAD DUP1 PUSH1 0x20 ADD PUSH2 0x4C2 SWAP1 PUSH2 0x759 JUMP JUMPDEST PUSH1 0x20 DUP3 ADD DUP2 SUB DUP3 MSTORE PUSH1 0x1F NOT PUSH1 0x1F DUP3 ADD AND PUSH1 0x40 MSTORE POP SWAP1 POP PUSH1 0x0 DUP4 DUP4 PUSH1 0x40 MLOAD PUSH1 0x20 ADD DUP1 DUP4 PUSH1 0x1 PUSH1 0x1 PUSH1 0xA0 SHL SUB AND PUSH1 0x1 PUSH1 0x1 PUSH1 0xA0 SHL SUB AND PUSH1 0x60 SHL DUP2 MSTORE PUSH1 0x14 ADD DUP3 PUSH1 0x1 PUSH1 0x1 PUSH1 0xA0 SHL SUB AND PUSH1 0x1 PUSH1 0x1 PUSH1 0xA0 SHL SUB AND PUSH1 0x60 SHL DUP2 MSTORE PUSH1 0x14 ADD SWAP3 POP POP POP PUSH1 0x40 MLOAD PUSH1 0x20 DUP2 DUP4 SUB SUB DUP2 MSTORE SWAP1 PUSH1 0x40 MSTORE DUP1 MLOAD SWAP1 PUSH1 0x20 ADD KECCAK256 SWAP1 POP DUP1 DUP3 MLOAD PUSH1 0x20 DUP5 ADD PUSH1 0x0 CREATE2 PUSH1 0x40 DUP1 MLOAD PUSH32 0x485CC95500000000000000000000000000000000000000000000000000000000 DUP2 MSTORE PUSH1 0x1 PUSH1 0x1 PUSH1 0xA0 SHL SUB DUP8 DUP2 AND PUSH1 0x4 DUP4 ADD MSTORE DUP7 DUP2 AND PUSH1 0x24 DUP4 ADD MSTORE SWAP2 MLOAD SWAP3 SWAP8 POP SWAP1 DUP8 AND SWAP2 PUSH4 0x485CC955 SWAP2 PUSH1 0x44 DUP1 DUP3 ADD SWAP3 PUSH1 0x0 SWAP3 SWAP1 SWAP2 SWAP1 DUP3 SWAP1 SUB ADD DUP2 DUP4 DUP8 DUP1 EXTCODESIZE ISZERO DUP1 ISZERO PUSH2 0x5AE JUMPI PUSH1 0x0 DUP1 REVERT JUMPDEST POP GAS CALL ISZERO DUP1 ISZERO PUSH2 0x5C2 JUMPI RETURNDATASIZE PUSH1 0x0 DUP1 RETURNDATACOPY RETURNDATASIZE PUSH1 0x0 REVERT JUMPDEST POP POP POP POP PUSH1 0x1 PUSH1 0x1 PUSH1 0xA0 SHL SUB DUP5 DUP2 AND PUSH1 0x0 DUP2 DUP2 MSTORE PUSH1 0x2 PUSH1 0x20 DUP2 DUP2 MSTORE PUSH1 0x40 DUP1 DUP5 KECCAK256 DUP10 DUP8 AND DUP1 DUP7 MSTORE SWAP1 DUP4 MSTORE DUP2 DUP6 KECCAK256 DUP1 SLOAD SWAP8 DUP14 AND PUSH20 0xFFFFFFFFFFFFFFFFFFFFFFFFFFFFFFFFFFFFFFFF NOT SWAP9 DUP10 AND DUP2 OR SWAP1 SWAP2 SSTORE SWAP4 DUP4 MSTORE DUP2 DUP6 KECCAK256 DUP7 DUP7 MSTORE DUP4 MSTORE DUP2 DUP6 KECCAK256 DUP1 SLOAD DUP9 AND DUP6 OR SWAP1 SSTORE PUSH1 0x3 DUP1 SLOAD PUSH1 0x1 DUP2 ADD DUP3 SSTORE SWAP6 DUP2 SWAP1 MSTORE PUSH32 0xC2575A0E9E593C00F959F8C92F12DB2869C3395A3B0502D05E2516446F71F85B SWAP1 SWAP6 ADD DUP1 SLOAD SWAP1 SWAP8 AND DUP5 OR SWAP1 SWAP7 SSTORE SWAP3 SLOAD DUP4 MLOAD SWAP3 DUP4 MSTORE SWAP1 DUP3 ADD MSTORE DUP2 MLOAD PUSH32 0xD3648BD0F6BA80134A33BA9275AC585D9D315F0AD8355CDDEFDE31AFA28D0E9 SWAP3 SWAP2 DUP2 SWAP1 SUB SWAP1 SWAP2 ADD SWAP1 LOG3 POP POP POP POP SWAP3 SWAP2 POP POP JUMP JUMPDEST PUSH1 0x2 PUSH1 0x20 SWAP1 DUP2 MSTORE PUSH1 0x0 SWAP3 DUP4 MSTORE PUSH1 0x40 DUP1 DUP5 KECCAK256 SWAP1 SWAP2 MSTORE SWAP1 DUP3 MSTORE SWAP1 KECCAK256 SLOAD PUSH1 0x1 PUSH1 0x1 PUSH1 0xA0 SHL SUB AND DUP2 JUMP JUMPDEST PUSH1 0x1 SLOAD PUSH1 0x1 PUSH1 0x1 PUSH1 0xA0 SHL SUB AND CALLER EQ PUSH2 0x72A JUMPI PUSH1 0x40 DUP1 MLOAD PUSH3 0x461BCD PUSH1 0xE5 SHL DUP2 MSTORE PUSH1 0x20 PUSH1 0x4 DUP3 ADD MSTORE PUSH1 0x14 PUSH1 0x24 DUP3 ADD MSTORE PUSH32 0x556E697377617056323A20464F5242494444454E000000000000000000000000 PUSH1 0x44 DUP3 ADD MSTORE SWAP1 MLOAD SWAP1 DUP2 SWAP1 SUB PUSH1 0x64 ADD SWAP1 REVERT JUMPDEST PUSH1 0x0 DUP1 SLOAD PUSH20 0xFFFFFFFFFFFFFFFFFFFFFFFFFFFFFFFFFFFFFFFF NOT AND PUSH1 0x1 PUSH1 0x1 PUSH1 0xA0 SHL SUB SWAP3 SWAP1 SWAP3 AND SWAP2 SWAP1 SWAP2 OR SWAP1 SSTORE JUMP JUMPDEST PUSH2 0x252A DUP1 PUSH2 0x767 DUP4 CODECOPY ADD SWAP1 JUMP INVALID PUSH1 0x80 PUSH1 0x40 MSTORE PUSH1 0x1 PUSH1 0xC SSTORE CALLVALUE DUP1 ISZERO PUSH2 0x15 JUMPI PUSH1 0x0 DUP1 REVERT JUMPDEST POP PUSH1 0x40 MLOAD CHAINID SWAP1 DUP1 PUSH1 0x52 PUSH2 0x24D8 DUP3 CODECOPY PUSH1 0x40 DUP1 MLOAD SWAP2 DUP3 SWAP1 SUB PUSH1 0x52 ADD DUP3 KECCAK256 DUP3 DUP3 ADD DUP3 MSTORE PUSH1 0xC DUP4 MSTORE PUSH12 0x4761627269656C617377617 PUSH1 0xA4 SHL PUSH1 0x20 SWAP4 DUP5 ADD MSTORE DUP2 MLOAD DUP1 DUP4 ADD DUP4 MSTORE PUSH1 0x1 DUP2 MSTORE PUSH1 0x31 PUSH1 0xF8 SHL SWAP1 DUP5 ADD MSTORE DUP2 MLOAD DUP1 DUP5 ADD SWAP2 SWAP1 SWAP2 MSTORE PUSH32 0x4C8EBFC6E115F3B0F58DFF3CB9E272CE4EB1888E228E5575D936A1361B3A9454 DUP2 DUP4 ADD MSTORE PUSH32 0xC89EFDAA54C0F20C7ADF612882DF0950F5A951637E0307CDCB4C672F298B8BC6 PUSH1 0x60 DUP3 ADD MSTORE PUSH1 0x80 DUP2 ADD SWAP5 SWAP1 SWAP5 MSTORE ADDRESS PUSH1 0xA0 DUP1 DUP7 ADD SWAP2 SWAP1 SWAP2 MSTORE DUP2 MLOAD DUP1 DUP7 SUB SWAP1 SWAP2 ADD DUP2 MSTORE PUSH1 0xC0 SWAP1 SWAP5 ADD SWAP1 MSTORE DUP3 MLOAD SWAP3 ADD SWAP2 SWAP1 SWAP2 KECCAK256 PUSH1 0x3 SSTORE POP PUSH1 0x5 DUP1 SLOAD PUSH1 0x1 PUSH1 0x1 PUSH1 0xA0 SHL SUB NOT AND CALLER OR SWAP1 SSTORE PUSH2 0x23D1 DUP1 PUSH2 0x107 PUSH1 0x0 CODECOPY PUSH1 0x0 RETURN INVALID PUSH1 0x80 PUSH1 0x40 MSTORE CALLVALUE DUP1 ISZERO PUSH2 0x10 JUMPI PUSH1 0x0 DUP1 REVERT JUMPDEST POP PUSH1 0x4 CALLDATASIZE LT PUSH2 0x1B9 JUMPI PUSH1 0x0 CALLDATALOAD PUSH1 0xE0 SHR DUP1 PUSH4 0x6A627842 GT PUSH2 0xF9 JUMPI DUP1 PUSH4 0xBA9A7A56 GT PUSH2 0x97 JUMPI DUP1 PUSH4 0xD21220A7 GT PUSH2 0x71 JUMPI DUP1 PUSH4 0xD21220A7 EQ PUSH2 0x544 JUMPI DUP1 PUSH4 0xD505ACCF EQ PUSH2 0x54C JUMPI DUP1 PUSH4 0xDD62ED3E EQ PUSH2 0x59D JUMPI DUP1 PUSH4 0xFFF6CAE9 EQ PUSH2 0x5CB JUMPI PUSH2 0x1B9 JUMP JUMPDEST DUP1 PUSH4 0xBA9A7A56 EQ PUSH2 0x50E JUMPI DUP1 PUSH4 0xBC25CF77 EQ PUSH2 0x516 JUMPI DUP1 PUSH4 0xC45A0155 EQ PUSH2 0x53C JUMPI PUSH2 0x1B9 JUMP JUMPDEST DUP1 PUSH4 0x7ECEBE00 GT PUSH2 0xD3 JUMPI DUP1 PUSH4 0x7ECEBE00 EQ PUSH2 0x475 JUMPI DUP1 PUSH4 0x89AFCB44 EQ PUSH2 0x49B JUMPI DUP1 PUSH4 0x95D89B41 EQ PUSH2 0x4DA JUMPI DUP1 PUSH4 0xA9059CBB EQ PUSH2 0x4E2 JUMPI PUSH2 0x1B9 JUMP JUMPDEST DUP1 PUSH4 0x6A627842 EQ PUSH2 0x421 JUMPI DUP1 PUSH4 0x70A08231 EQ PUSH2 0x447 JUMPI DUP1 PUSH4 0x7464FC3D EQ PUSH2 0x46D JUMPI PUSH2 0x1B9 JUMP JUMPDEST DUP1 PUSH4 0x23B872DD GT PUSH2 0x166 JUMPI DUP1 PUSH4 0x3644E515 GT PUSH2 0x140 JUMPI DUP1 PUSH4 0x3644E515 EQ PUSH2 0x3DB JUMPI DUP1 PUSH4 0x485CC955 EQ PUSH2 0x3E3 JUMPI DUP1 PUSH4 0x5909C0D5 EQ PUSH2 0x411 JUMPI DUP1 PUSH4 0x5A3D5493 EQ PUSH2 0x419 JUMPI PUSH2 0x1B9 JUMP JUMPDEST DUP1 PUSH4 0x23B872DD EQ PUSH2 0x37F JUMPI DUP1 PUSH4 0x30ADF81F EQ PUSH2 0x3B5 JUMPI DUP1 PUSH4 0x313CE567 EQ PUSH2 0x3BD JUMPI PUSH2 0x1B9 JUMP JUMPDEST DUP1 PUSH4 0x95EA7B3 GT PUSH2 0x197 JUMPI DUP1 PUSH4 0x95EA7B3 EQ PUSH2 0x301 JUMPI DUP1 PUSH4 0xDFE1681 EQ PUSH2 0x341 JUMPI DUP1 PUSH4 0x18160DDD EQ PUSH2 0x365 JUMPI PUSH2 0x1B9 JUMP JUMPDEST DUP1 PUSH4 0x22C0D9F EQ PUSH2 0x1BE JUMPI DUP1 PUSH4 0x6FDDE03 EQ PUSH2 0x24C JUMPI DUP1 PUSH4 0x902F1AC EQ PUSH2 0x2C9 JUMPI JUMPDEST PUSH1 0x0 DUP1 REVERT JUMPDEST PUSH2 0x24A PUSH1 0x4 DUP1 CALLDATASIZE SUB PUSH1 0x80 DUP2 LT ISZERO PUSH2 0x1D4 JUMPI PUSH1 0x0 DUP1 REVERT JUMPDEST DUP2 CALLDATALOAD SWAP2 PUSH1 0x20 DUP2 ADD CALLDATALOAD SWAP2 PUSH1 0x1 PUSH1 0x1 PUSH1 0xA0 SHL SUB PUSH1 0x40 DUP4 ADD CALLDATALOAD AND SWAP2 SWAP1 DUP2 ADD SWAP1 PUSH1 0x80 DUP2 ADD PUSH1 0x60 DUP3 ADD CALLDATALOAD PUSH5 0x100000000 DUP2 GT ISZERO PUSH2 0x20B JUMPI PUSH1 0x0 DUP1 REVERT JUMPDEST DUP3 ADD DUP4 PUSH1 0x20 DUP3 ADD GT ISZERO PUSH2 0x21D JUMPI PUSH1 0x0 DUP1 REVERT JUMPDEST DUP1 CALLDATALOAD SWAP1 PUSH1 0x20 ADD SWAP2 DUP5 PUSH1 0x1 DUP4 MUL DUP5 ADD GT PUSH5 0x100000000 DUP4 GT OR ISZERO PUSH2 0x23F JUMPI PUSH1 0x0 DUP1 REVERT JUMPDEST POP SWAP1 SWAP3 POP SWAP1 POP PUSH2 0x5D3 JUMP JUMPDEST STOP JUMPDEST PUSH2 0x254 PUSH2 0xB33 JUMP JUMPDEST PUSH1 0x40 DUP1 MLOAD PUSH1 0x20 DUP1 DUP3 MSTORE DUP4 MLOAD DUP2 DUP4 ADD MSTORE DUP4 MLOAD SWAP2 SWAP3 DUP4 SWAP3 SWAP1 DUP4 ADD SWAP2 DUP6 ADD SWAP1 DUP1 DUP4 DUP4 PUSH1 0x0 JUMPDEST DUP4 DUP2 LT ISZERO PUSH2 0x28E JUMPI DUP2 DUP2 ADD MLOAD DUP4 DUP3 ADD MSTORE PUSH1 0x20 ADD PUSH2 0x276 JUMP JUMPDEST POP POP POP POP SWAP1 POP SWAP1 DUP2 ADD SWAP1 PUSH1 0x1F AND DUP1 ISZERO PUSH2 0x2BB JUMPI DUP1 DUP3 SUB DUP1 MLOAD PUSH1 0x1 DUP4 PUSH1 0x20 SUB PUSH2 0x100 EXP SUB NOT AND DUP2 MSTORE PUSH1 0x20 ADD SWAP2 POP JUMPDEST POP SWAP3 POP POP POP PUSH1 0x40 MLOAD DUP1 SWAP2 SUB SWAP1 RETURN JUMPDEST PUSH2 0x2D1 PUSH2 0xB6C JUMP JUMPDEST PUSH1 0x40 DUP1 MLOAD PUSH1 0x1 PUSH1 0x1 PUSH1 0x70 SHL SUB SWAP5 DUP6 AND DUP2 MSTORE SWAP3 SWAP1 SWAP4 AND PUSH1 0x20 DUP4 ADD MSTORE PUSH4 0xFFFFFFFF AND DUP2 DUP4 ADD MSTORE SWAP1 MLOAD SWAP1 DUP2 SWAP1 SUB PUSH1 0x60 ADD SWAP1 RETURN JUMPDEST PUSH2 0x32D PUSH1 0x4 DUP1 CALLDATASIZE SUB PUSH1 0x40 DUP2 LT ISZERO PUSH2 0x317 JUMPI PUSH1 0x0 DUP1 REVERT JUMPDEST POP PUSH1 0x1 PUSH1 0x1 PUSH1 0xA0 SHL SUB DUP2 CALLDATALOAD AND SWAP1 PUSH1 0x20 ADD CALLDATALOAD PUSH2 0xB96 JUMP JUMPDEST PUSH1 0x40 DUP1 MLOAD SWAP2 ISZERO ISZERO DUP3 MSTORE MLOAD SWAP1 DUP2 SWAP1 SUB PUSH1 0x20 ADD SWAP1 RETURN JUMPDEST PUSH2 0x349 PUSH2 0xBAD JUMP JUMPDEST PUSH1 0x40 DUP1 MLOAD PUSH1 0x1 PUSH1 0x1 PUSH1 0xA0 SHL SUB SWAP1 SWAP3 AND DUP3 MSTORE MLOAD SWAP1 DUP2 SWAP1 SUB PUSH1 0x20 ADD SWAP1 RETURN JUMPDEST PUSH2 0x36D PUSH2 0xBBC JUMP JUMPDEST PUSH1 0x40 DUP1 MLOAD SWAP2 DUP3 MSTORE MLOAD SWAP1 DUP2 SWAP1 SUB PUSH1 0x20 ADD SWAP1 RETURN JUMPDEST PUSH2 0x32D PUSH1 0x4 DUP1 CALLDATASIZE SUB PUSH1 0x60 DUP2 LT ISZERO PUSH2 0x395 JUMPI PUSH1 0x0 DUP1 REVERT JUMPDEST POP PUSH1 0x1 PUSH1 0x1 PUSH1 0xA0 SHL SUB DUP2 CALLDATALOAD DUP2 AND SWAP2 PUSH1 0x20 DUP2 ADD CALLDATALOAD SWAP1 SWAP2 AND SWAP1 PUSH1 0x40 ADD CALLDATALOAD PUSH2 0xBC2 JUMP JUMPDEST PUSH2 0x36D PUSH2 0xC7A JUMP JUMPDEST PUSH2 0x3C5 PUSH2 0xC9E JUMP JUMPDEST PUSH1 0x40 DUP1 MLOAD PUSH1 0xFF SWAP1 SWAP3 AND DUP3 MSTORE MLOAD SWAP1 DUP2 SWAP1 SUB PUSH1 0x20 ADD SWAP1 RETURN JUMPDEST PUSH2 0x36D PUSH2 0xCA3 JUMP JUMPDEST PUSH2 0x24A PUSH1 0x4 DUP1 CALLDATASIZE SUB PUSH1 0x40 DUP2 LT ISZERO PUSH2 0x3F9 JUMPI PUSH1 0x0 DUP1 REVERT JUMPDEST POP PUSH1 0x1 PUSH1 0x1 PUSH1 0xA0 SHL SUB DUP2 CALLDATALOAD DUP2 AND SWAP2 PUSH1 0x20 ADD CALLDATALOAD AND PUSH2 0xCA9 JUMP JUMPDEST PUSH2 0x36D PUSH2 0xD4E JUMP JUMPDEST PUSH2 0x36D PUSH2 0xD54 JUMP JUMPDEST PUSH2 0x36D PUSH1 0x4 DUP1 CALLDATASIZE SUB PUSH1 0x20 DUP2 LT ISZERO PUSH2 0x437 JUMPI PUSH1 0x0 DUP1 REVERT JUMPDEST POP CALLDATALOAD PUSH1 0x1 PUSH1 0x1 PUSH1 0xA0 SHL SUB AND PUSH2 0xD5A JUMP JUMPDEST PUSH2 0x36D PUSH1 0x4 DUP1 CALLDATASIZE SUB PUSH1 0x20 DUP2 LT ISZERO PUSH2 0x45D JUMPI PUSH1 0x0 DUP1 REVERT JUMPDEST POP CALLDATALOAD PUSH1 0x1 PUSH1 0x1 PUSH1 0xA0 SHL SUB AND PUSH2 0x1066 JUMP JUMPDEST PUSH2 0x36D PUSH2 0x1078 JUMP JUMPDEST PUSH2 0x36D PUSH1 0x4 DUP1 CALLDATASIZE SUB PUSH1 0x20 DUP2 LT ISZERO PUSH2 0x48B JUMPI PUSH1 0x0 DUP1 REVERT JUMPDEST POP CALLDATALOAD PUSH1 0x1 PUSH1 0x1 PUSH1 0xA0 SHL SUB AND PUSH2 0x107E JUMP JUMPDEST PUSH2 0x4C1 PUSH1 0x4 DUP1 CALLDATASIZE SUB PUSH1 0x20 DUP2 LT ISZERO PUSH2 0x4B1 JUMPI PUSH1 0x0 DUP1 REVERT JUMPDEST POP CALLDATALOAD PUSH1 0x1 PUSH1 0x1 PUSH1 0xA0 SHL SUB AND PUSH2 0x1090 JUMP JUMPDEST PUSH1 0x40 DUP1 MLOAD SWAP3 DUP4 MSTORE PUSH1 0x20 DUP4 ADD SWAP2 SWAP1 SWAP2 MSTORE DUP1 MLOAD SWAP2 DUP3 SWAP1 SUB ADD SWAP1 RETURN JUMPDEST PUSH2 0x254 PUSH2 0x1442 JUMP JUMPDEST PUSH2 0x32D PUSH1 0x4 DUP1 CALLDATASIZE SUB PUSH1 0x40 DUP2 LT ISZERO PUSH2 0x4F8 JUMPI PUSH1 0x0 DUP1 REVERT JUMPDEST POP PUSH1 0x1 PUSH1 0x1 PUSH1 0xA0 SHL SUB DUP2 CALLDATALOAD AND SWAP1 PUSH1 0x20 ADD CALLDATALOAD PUSH2 0x147B JUMP JUMPDEST PUSH2 0x36D PUSH2 0x1488 JUMP JUMPDEST PUSH2 0x24A PUSH1 0x4 DUP1 CALLDATASIZE SUB PUSH1 0x20 DUP2 LT ISZERO PUSH2 0x52C JUMPI PUSH1 0x0 DUP1 REVERT JUMPDEST POP CALLDATALOAD PUSH1 0x1 PUSH1 0x1 PUSH1 0xA0 SHL SUB AND PUSH2 0x148E JUMP JUMPDEST PUSH2 0x349 PUSH2 0x1605 JUMP JUMPDEST PUSH2 0x349 PUSH2 0x1614 JUMP JUMPDEST PUSH2 0x24A PUSH1 0x4 DUP1 CALLDATASIZE SUB PUSH1 0xE0 DUP2 LT ISZERO PUSH2 0x562 JUMPI PUSH1 0x0 DUP1 REVERT JUMPDEST POP PUSH1 0x1 PUSH1 0x1 PUSH1 0xA0 SHL SUB DUP2 CALLDATALOAD DUP2 AND SWAP2 PUSH1 0x20 DUP2 ADD CALLDATALOAD SWAP1 SWAP2 AND SWAP1 PUSH1 0x40 DUP2 ADD CALLDATALOAD SWAP1 PUSH1 0x60 DUP2 ADD CALLDATALOAD SWAP1 PUSH1 0xFF PUSH1 0x80 DUP3 ADD CALLDATALOAD AND SWAP1 PUSH1 0xA0 DUP2 ADD CALLDATALOAD SWAP1 PUSH1 0xC0 ADD CALLDATALOAD PUSH2 0x1623 JUMP JUMPDEST PUSH2 0x36D PUSH1 0x4 DUP1 CALLDATASIZE SUB PUSH1 0x40 DUP2 LT ISZERO PUSH2 0x5B3 JUMPI PUSH1 0x0 DUP1 REVERT JUMPDEST POP PUSH1 0x1 PUSH1 0x1 PUSH1 0xA0 SHL SUB DUP2 CALLDATALOAD DUP2 AND SWAP2 PUSH1 0x20 ADD CALLDATALOAD AND PUSH2 0x184B JUMP JUMPDEST PUSH2 0x24A PUSH2 0x1868 JUMP JUMPDEST PUSH1 0xC SLOAD PUSH1 0x1 EQ PUSH2 0x62A JUMPI PUSH1 0x40 DUP1 MLOAD PUSH3 0x461BCD PUSH1 0xE5 SHL DUP2 MSTORE PUSH1 0x20 PUSH1 0x4 DUP3 ADD MSTORE PUSH1 0x11 PUSH1 0x24 DUP3 ADD MSTORE PUSH32 0x556E697377617056323A204C4F434B4544000000000000000000000000000000 PUSH1 0x44 DUP3 ADD MSTORE SWAP1 MLOAD SWAP1 DUP2 SWAP1 SUB PUSH1 0x64 ADD SWAP1 REVERT JUMPDEST PUSH1 0x0 PUSH1 0xC SSTORE DUP5 ISZERO ISZERO DUP1 PUSH2 0x63D JUMPI POP PUSH1 0x0 DUP5 GT JUMPDEST PUSH2 0x678 JUMPI PUSH1 0x40 MLOAD PUSH3 0x461BCD PUSH1 0xE5 SHL DUP2 MSTORE PUSH1 0x4 ADD DUP1 DUP1 PUSH1 0x20 ADD DUP3 DUP2 SUB DUP3 MSTORE PUSH1 0x25 DUP2 MSTORE PUSH1 0x20 ADD DUP1 PUSH2 0x22E3 PUSH1 0x25 SWAP2 CODECOPY PUSH1 0x40 ADD SWAP2 POP POP PUSH1 0x40 MLOAD DUP1 SWAP2 SUB SWAP1 REVERT JUMPDEST PUSH1 0x0 DUP1 PUSH2 0x683 PUSH2 0xB6C JUMP JUMPDEST POP SWAP2 POP SWAP2 POP DUP2 PUSH1 0x1 PUSH1 0x1 PUSH1 0x70 SHL SUB AND DUP8 LT DUP1 ISZERO PUSH2 0x6A8 JUMPI POP DUP1 PUSH1 0x1 PUSH1 0x1 PUSH1 0x70 SHL SUB AND DUP7 LT JUMPDEST PUSH2 0x6E3 JUMPI PUSH1 0x40 MLOAD PUSH3 0x461BCD PUSH1 0xE5 SHL DUP2 MSTORE PUSH1 0x4 ADD DUP1 DUP1 PUSH1 0x20 ADD DUP3 DUP2 SUB DUP3 MSTORE PUSH1 0x21 DUP2 MSTORE PUSH1 0x20 ADD DUP1 PUSH2 0x232C PUSH1 0x21 SWAP2 CODECOPY PUSH1 0x40 ADD SWAP2 POP POP PUSH1 0x40 MLOAD DUP1 SWAP2 SUB SWAP1 REVERT JUMPDEST PUSH1 0x6 SLOAD PUSH1 0x7 SLOAD PUSH1 0x0 SWAP2 DUP3 SWAP2 PUSH1 0x1 PUSH1 0x1 PUSH1 0xA0 SHL SUB SWAP2 DUP3 AND SWAP2 SWAP1 DUP2 AND SWAP1 DUP10 AND DUP3 EQ DUP1 ISZERO SWAP1 PUSH2 0x721 JUMPI POP DUP1 PUSH1 0x1 PUSH1 0x1 PUSH1 0xA0 SHL SUB AND DUP10 PUSH1 0x1 PUSH1 0x1 PUSH1 0xA0 SHL SUB AND EQ ISZERO JUMPDEST PUSH2 0x772 JUMPI PUSH1 0x40 DUP1 MLOAD PUSH3 0x461BCD PUSH1 0xE5 SHL DUP2 MSTORE PUSH1 0x20 PUSH1 0x4 DUP3 ADD MSTORE PUSH1 0x15 PUSH1 0x24 DUP3 ADD MSTORE PUSH32 0x556E697377617056323A20494E56414C49445F544F0000000000000000000000 PUSH1 0x44 DUP3 ADD MSTORE SWAP1 MLOAD SWAP1 DUP2 SWAP1 SUB PUSH1 0x64 ADD SWAP1 REVERT JUMPDEST DUP11 ISZERO PUSH2 0x783 JUMPI PUSH2 0x783 DUP3 DUP11 DUP14 PUSH2 0x19D6 JUMP JUMPDEST DUP10 ISZERO PUSH2 0x794 JUMPI PUSH2 0x794 DUP2 DUP11 DUP13 PUSH2 0x19D6 JUMP JUMPDEST DUP7 ISZERO PUSH2 0x84F JUMPI DUP9 PUSH1 0x1 PUSH1 0x1 PUSH1 0xA0 SHL SUB AND PUSH4 0x10D1E85C CALLER DUP14 DUP14 DUP13 DUP13 PUSH1 0x40 MLOAD DUP7 PUSH4 0xFFFFFFFF AND PUSH1 0xE0 SHL DUP2 MSTORE PUSH1 0x4 ADD DUP1 DUP7 PUSH1 0x1 PUSH1 0x1 PUSH1 0xA0 SHL SUB AND PUSH1 0x1 PUSH1 0x1 PUSH1 0xA0 SHL SUB AND DUP2 MSTORE PUSH1 0x20 ADD DUP6 DUP2 MSTORE PUSH1 0x20 ADD DUP5 DUP2 MSTORE PUSH1 0x20 ADD DUP1 PUSH1 0x20 ADD DUP3 DUP2 SUB DUP3 MSTORE DUP5 DUP5 DUP3 DUP2 DUP2 MSTORE PUSH1 0x20 ADD SWAP3 POP DUP1 DUP3 DUP5 CALLDATACOPY PUSH1 0x0 DUP2 DUP5 ADD MSTORE PUSH1 0x1F NOT PUSH1 0x1F DUP3 ADD AND SWAP1 POP DUP1 DUP4 ADD SWAP3 POP POP POP SWAP7 POP POP POP POP POP POP POP PUSH1 0x0 PUSH1 0x40 MLOAD DUP1 DUP4 SUB DUP2 PUSH1 0x0 DUP8 DUP1 EXTCODESIZE ISZERO DUP1 ISZERO PUSH2 0x836 JUMPI PUSH1 0x0 DUP1 REVERT JUMPDEST POP GAS CALL ISZERO DUP1 ISZERO PUSH2 0x84A JUMPI RETURNDATASIZE PUSH1 0x0 DUP1 RETURNDATACOPY RETURNDATASIZE PUSH1 0x0 REVERT JUMPDEST POP POP POP POP JUMPDEST PUSH1 0x40 DUP1 MLOAD PUSH4 0x70A08231 PUSH1 0xE0 SHL DUP2 MSTORE ADDRESS PUSH1 0x4 DUP3 ADD MSTORE SWAP1 MLOAD PUSH1 0x1 PUSH1 0x1 PUSH1 0xA0 SHL SUB DUP5 AND SWAP2 PUSH4 0x70A08231 SWAP2 PUSH1 0x24 DUP1 DUP4 ADD SWAP3 PUSH1 0x20 SWAP3 SWAP2 SWAP1 DUP3 SWAP1 SUB ADD DUP2 DUP7 DUP1 EXTCODESIZE ISZERO DUP1 ISZERO PUSH2 0x895 JUMPI PUSH1 0x0 DUP1 REVERT JUMPDEST POP GAS STATICCALL ISZERO DUP1 ISZERO PUSH2 0x8A9 JUMPI RETURNDATASIZE PUSH1 0x0 DUP1 RETURNDATACOPY RETURNDATASIZE PUSH1 0x0 REVERT JUMPDEST POP POP POP POP PUSH1 0x40 MLOAD RETURNDATASIZE PUSH1 0x20 DUP2 LT ISZERO PUSH2 0x8BF JUMPI PUSH1 0x0 DUP1 REVERT JUMPDEST POP MLOAD PUSH1 0x40 DUP1 MLOAD PUSH4 0x70A08231 PUSH1 0xE0 SHL DUP2 MSTORE ADDRESS PUSH1 0x4 DUP3 ADD MSTORE SWAP1 MLOAD SWAP2 SWAP6 POP PUSH1 0x1 PUSH1 0x1 PUSH1 0xA0 SHL SUB DUP4 AND SWAP2 PUSH4 0x70A08231 SWAP2 PUSH1 0x24 DUP1 DUP3 ADD SWAP3 PUSH1 0x20 SWAP3 SWAP1 SWAP2 SWAP1 DUP3 SWAP1 SUB ADD DUP2 DUP7 DUP1 EXTCODESIZE ISZERO DUP1 ISZERO PUSH2 0x90B JUMPI PUSH1 0x0 DUP1 REVERT JUMPDEST POP GAS STATICCALL ISZERO DUP1 ISZERO PUSH2 0x91F JUMPI RETURNDATASIZE PUSH1 0x0 DUP1 RETURNDATACOPY RETURNDATASIZE PUSH1 0x0 REVERT JUMPDEST POP POP POP POP PUSH1 0x40 MLOAD RETURNDATASIZE PUSH1 0x20 DUP2 LT ISZERO PUSH2 0x935 JUMPI PUSH1 0x0 DUP1 REVERT JUMPDEST POP MLOAD SWAP3 POP PUSH1 0x0 SWAP2 POP POP PUSH1 0x1 PUSH1 0x1 PUSH1 0x70 SHL SUB DUP6 AND DUP11 SWAP1 SUB DUP4 GT PUSH2 0x958 JUMPI PUSH1 0x0 PUSH2 0x967 JUMP JUMPDEST DUP10 DUP6 PUSH1 0x1 PUSH1 0x1 PUSH1 0x70 SHL SUB AND SUB DUP4 SUB JUMPDEST SWAP1 POP PUSH1 0x0 DUP10 DUP6 PUSH1 0x1 PUSH1 0x1 PUSH1 0x70 SHL SUB AND SUB DUP4 GT PUSH2 0x984 JUMPI PUSH1 0x0 PUSH2 0x993 JUMP JUMPDEST DUP10 DUP6 PUSH1 0x1 PUSH1 0x1 PUSH1 0x70 SHL SUB AND SUB DUP4 SUB JUMPDEST SWAP1 POP PUSH1 0x0 DUP3 GT DUP1 PUSH2 0x9A4 JUMPI POP PUSH1 0x0 DUP2 GT JUMPDEST PUSH2 0x9DF JUMPI PUSH1 0x40 MLOAD PUSH3 0x461BCD PUSH1 0xE5 SHL DUP2 MSTORE PUSH1 0x4 ADD DUP1 DUP1 PUSH1 0x20 ADD DUP3 DUP2 SUB DUP3 MSTORE PUSH1 0x24 DUP2 MSTORE PUSH1 0x20 ADD DUP1 PUSH2 0x2308 PUSH1 0x24 SWAP2 CODECOPY PUSH1 0x40 ADD SWAP2 POP POP PUSH1 0x40 MLOAD DUP1 SWAP2 SUB SWAP1 REVERT JUMPDEST PUSH1 0x0 PUSH2 0xA13 PUSH2 0x9F5 DUP5 PUSH1 0x3 PUSH4 0xFFFFFFFF PUSH2 0x1B89 AND JUMP JUMPDEST PUSH2 0xA07 DUP8 PUSH2 0x3E8 PUSH4 0xFFFFFFFF PUSH2 0x1B89 AND JUMP JUMPDEST SWAP1 PUSH4 0xFFFFFFFF PUSH2 0x1BF5 AND JUMP JUMPDEST SWAP1 POP PUSH1 0x0 PUSH2 0xA2B PUSH2 0x9F5 DUP5 PUSH1 0x3 PUSH4 0xFFFFFFFF PUSH2 0x1B89 AND JUMP JUMPDEST SWAP1 POP PUSH2 0xA5C PUSH3 0xF4240 PUSH2 0xA50 PUSH1 0x1 PUSH1 0x1 PUSH1 0x70 SHL SUB DUP12 DUP2 AND SWAP1 DUP12 AND PUSH4 0xFFFFFFFF PUSH2 0x1B89 AND JUMP JUMPDEST SWAP1 PUSH4 0xFFFFFFFF PUSH2 0x1B89 AND JUMP JUMPDEST PUSH2 0xA6C DUP4 DUP4 PUSH4 0xFFFFFFFF PUSH2 0x1B89 AND JUMP JUMPDEST LT ISZERO PUSH2 0xABF JUMPI PUSH1 0x40 DUP1 MLOAD PUSH3 0x461BCD PUSH1 0xE5 SHL DUP2 MSTORE PUSH1 0x20 PUSH1 0x4 DUP3 ADD MSTORE PUSH1 0xC PUSH1 0x24 DUP3 ADD MSTORE PUSH32 0x556E697377617056323A204B0000000000000000000000000000000000000000 PUSH1 0x44 DUP3 ADD MSTORE SWAP1 MLOAD SWAP1 DUP2 SWAP1 SUB PUSH1 0x64 ADD SWAP1 REVERT JUMPDEST POP POP PUSH2 0xACD DUP5 DUP5 DUP9 DUP9 PUSH2 0x1C4D JUMP JUMPDEST PUSH1 0x40 DUP1 MLOAD DUP4 DUP2 MSTORE PUSH1 0x20 DUP2 ADD DUP4 SWAP1 MSTORE DUP1 DUP3 ADD DUP14 SWAP1 MSTORE PUSH1 0x60 DUP2 ADD DUP13 SWAP1 MSTORE SWAP1 MLOAD PUSH1 0x1 PUSH1 0x1 PUSH1 0xA0 SHL SUB DUP12 AND SWAP2 CALLER SWAP2 PUSH32 0xD78AD95FA46C994B6551D0DA85FC275FE613CE37657FB8D5E3D130840159D822 SWAP2 DUP2 SWAP1 SUB PUSH1 0x80 ADD SWAP1 LOG3 POP POP PUSH1 0x1 PUSH1 0xC SSTORE POP POP POP POP POP POP POP POP POP JUMP JUMPDEST PUSH1 0x40 MLOAD DUP1 PUSH1 0x40 ADD PUSH1 0x40 MSTORE DUP1 PUSH1 0xC DUP2 MSTORE PUSH1 0x20 ADD PUSH32 0x4761627269656C61737761700000000000000000000000000000000000000000 DUP2 MSTORE POP DUP2 JUMP JUMPDEST PUSH1 0x8 SLOAD PUSH1 0x1 PUSH1 0x1 PUSH1 0x70 SHL SUB DUP1 DUP3 AND SWAP3 PUSH1 0x1 PUSH1 0x70 SHL DUP4 DIV SWAP1 SWAP2 AND SWAP2 PUSH1 0x1 PUSH1 0xE0 SHL SWAP1 DIV PUSH4 0xFFFFFFFF AND SWAP1 JUMP JUMPDEST PUSH1 0x0 PUSH2 0xBA3 CALLER DUP5 DUP5 PUSH2 0x1E3B JUMP JUMPDEST POP PUSH1 0x1 JUMPDEST SWAP3 SWAP2 POP POP JUMP JUMPDEST PUSH1 0x6 SLOAD PUSH1 0x1 PUSH1 0x1 PUSH1 0xA0 SHL SUB AND DUP2 JUMP JUMPDEST PUSH1 0x0 SLOAD DUP2 JUMP JUMPDEST PUSH1 0x1 PUSH1 0x1 PUSH1 0xA0 SHL SUB DUP4 AND PUSH1 0x0 SWAP1 DUP2 MSTORE PUSH1 0x2 PUSH1 0x20 SWAP1 DUP2 MSTORE PUSH1 0x40 DUP1 DUP4 KECCAK256 CALLER DUP5 MSTORE SWAP1 SWAP2 MSTORE DUP2 KECCAK256 SLOAD PUSH32 0xFFFFFFFFFFFFFFFFFFFFFFFFFFFFFFFFFFFFFFFFFFFFFFFFFFFFFFFFFFFFFFFF EQ PUSH2 0xC65 JUMPI PUSH1 0x1 PUSH1 0x1 PUSH1 0xA0 SHL SUB DUP5 AND PUSH1 0x0 SWAP1 DUP2 MSTORE PUSH1 0x2 PUSH1 0x20 SWAP1 DUP2 MSTORE PUSH1 0x40 DUP1 DUP4 KECCAK256 CALLER DUP5 MSTORE SWAP1 SWAP2 MSTORE SWAP1 KECCAK256 SLOAD PUSH2 0xC40 SWAP1 DUP4 PUSH4 0xFFFFFFFF PUSH2 0x1BF5 AND JUMP JUMPDEST PUSH1 0x1 PUSH1 0x1 PUSH1 0xA0 SHL SUB DUP6 AND PUSH1 0x0 SWAP1 DUP2 MSTORE PUSH1 0x2 PUSH1 0x20 SWAP1 DUP2 MSTORE PUSH1 0x40 DUP1 DUP4 KECCAK256 CALLER DUP5 MSTORE SWAP1 SWAP2 MSTORE SWAP1 KECCAK256 SSTORE JUMPDEST PUSH2 0xC70 DUP5 DUP5 DUP5 PUSH2 0x1E9D JUMP JUMPDEST POP PUSH1 0x1 SWAP4 SWAP3 POP POP POP JUMP JUMPDEST PUSH32 0x6E71EDAE12B1B97F4D1F60370FEF10105FA2FAAE0126114A169C64845D6126C9 DUP2 JUMP JUMPDEST PUSH1 0x12 DUP2 JUMP JUMPDEST PUSH1 0x3 SLOAD DUP2 JUMP JUMPDEST PUSH1 0x5 SLOAD PUSH1 0x1 PUSH1 0x1 PUSH1 0xA0 SHL SUB AND CALLER EQ PUSH2 0xD08 JUMPI PUSH1 0x40 DUP1 MLOAD PUSH3 0x461BCD PUSH1 0xE5 SHL DUP2 MSTORE PUSH1 0x20 PUSH1 0x4 DUP3 ADD MSTORE PUSH1 0x14 PUSH1 0x24 DUP3 ADD MSTORE PUSH32 0x556E697377617056323A20464F5242494444454E000000000000000000000000 PUSH1 0x44 DUP3 ADD MSTORE SWAP1 MLOAD SWAP1 DUP2 SWAP1 SUB PUSH1 0x64 ADD SWAP1 REVERT JUMPDEST PUSH1 0x6 DUP1 SLOAD PUSH1 0x1 PUSH1 0x1 PUSH1 0xA0 SHL SUB SWAP4 DUP5 AND PUSH32 0xFFFFFFFFFFFFFFFFFFFFFFFF0000000000000000000000000000000000000000 SWAP2 DUP3 AND OR SWAP1 SWAP2 SSTORE PUSH1 0x7 DUP1 SLOAD SWAP3 SWAP1 SWAP4 AND SWAP2 AND OR SWAP1 SSTORE JUMP JUMPDEST PUSH1 0x9 SLOAD DUP2 JUMP JUMPDEST PUSH1 0xA SLOAD DUP2 JUMP JUMPDEST PUSH1 0x0 PUSH1 0xC SLOAD PUSH1 0x1 EQ PUSH2 0xDB3 JUMPI PUSH1 0x40 DUP1 MLOAD PUSH3 0x461BCD PUSH1 0xE5 SHL DUP2 MSTORE PUSH1 0x20 PUSH1 0x4 DUP3 ADD MSTORE PUSH1 0x11 PUSH1 0x24 DUP3 ADD MSTORE PUSH32 0x556E697377617056323A204C4F434B4544000000000000000000000000000000 PUSH1 0x44 DUP3 ADD MSTORE SWAP1 MLOAD SWAP1 DUP2 SWAP1 SUB PUSH1 0x64 ADD SWAP1 REVERT JUMPDEST PUSH1 0x0 PUSH1 0xC DUP2 SWAP1 SSTORE DUP1 PUSH2 0xDC3 PUSH2 0xB6C JUMP JUMPDEST POP PUSH1 0x6 SLOAD PUSH1 0x40 DUP1 MLOAD PUSH4 0x70A08231 PUSH1 0xE0 SHL DUP2 MSTORE ADDRESS PUSH1 0x4 DUP3 ADD MSTORE SWAP1 MLOAD SWAP4 SWAP6 POP SWAP2 SWAP4 POP PUSH1 0x0 SWAP3 PUSH1 0x1 PUSH1 0x1 PUSH1 0xA0 SHL SUB SWAP1 SWAP2 AND SWAP2 PUSH4 0x70A08231 SWAP2 PUSH1 0x24 DUP1 DUP4 ADD SWAP3 PUSH1 0x20 SWAP3 SWAP2 SWAP1 DUP3 SWAP1 SUB ADD DUP2 DUP7 DUP1 EXTCODESIZE ISZERO DUP1 ISZERO PUSH2 0xE17 JUMPI PUSH1 0x0 DUP1 REVERT JUMPDEST POP GAS STATICCALL ISZERO DUP1 ISZERO PUSH2 0xE2B JUMPI RETURNDATASIZE PUSH1 0x0 DUP1 RETURNDATACOPY RETURNDATASIZE PUSH1 0x0 REVERT JUMPDEST POP POP POP POP PUSH1 0x40 MLOAD RETURNDATASIZE PUSH1 0x20 DUP2 LT ISZERO PUSH2 0xE41 JUMPI PUSH1 0x0 DUP1 REVERT JUMPDEST POP MLOAD PUSH1 0x7 SLOAD PUSH1 0x40 DUP1 MLOAD PUSH4 0x70A08231 PUSH1 0xE0 SHL DUP2 MSTORE ADDRESS PUSH1 0x4 DUP3 ADD MSTORE SWAP1 MLOAD SWAP3 SWAP4 POP PUSH1 0x0 SWAP3 PUSH1 0x1 PUSH1 0x1 PUSH1 0xA0 SHL SUB SWAP1 SWAP3 AND SWAP2 PUSH4 0x70A08231 SWAP2 PUSH1 0x24 DUP1 DUP3 ADD SWAP3 PUSH1 0x20 SWAP3 SWAP1 SWAP2 SWAP1 DUP3 SWAP1 SUB ADD DUP2 DUP7 DUP1 EXTCODESIZE ISZERO DUP1 ISZERO PUSH2 0xE94 JUMPI PUSH1 0x0 DUP1 REVERT JUMPDEST POP GAS STATICCALL ISZERO DUP1 ISZERO PUSH2 0xEA8 JUMPI RETURNDATASIZE PUSH1 0x0 DUP1 RETURNDATACOPY RETURNDATASIZE PUSH1 0x0 REVERT JUMPDEST POP POP POP POP PUSH1 0x40 MLOAD RETURNDATASIZE PUSH1 0x20 DUP2 LT ISZERO PUSH2 0xEBE JUMPI PUSH1 0x0 DUP1 REVERT JUMPDEST POP MLOAD SWAP1 POP PUSH1 0x0 PUSH2 0xEDD DUP4 PUSH1 0x1 PUSH1 0x1 PUSH1 0x70 SHL SUB DUP8 AND PUSH4 0xFFFFFFFF PUSH2 0x1BF5 AND JUMP JUMPDEST SWAP1 POP PUSH1 0x0 PUSH2 0xEFA DUP4 PUSH1 0x1 PUSH1 0x1 PUSH1 0x70 SHL SUB DUP8 AND PUSH4 0xFFFFFFFF PUSH2 0x1BF5 AND JUMP JUMPDEST SWAP1 POP PUSH1 0x0 PUSH2 0xF08 DUP8 DUP8 PUSH2 0x1F57 JUMP JUMPDEST PUSH1 0x0 SLOAD SWAP1 SWAP2 POP DUP1 PUSH2 0xF45 JUMPI PUSH2 0xF31 PUSH2 0x3E8 PUSH2 0xA07 PUSH2 0xF2C DUP8 DUP8 PUSH4 0xFFFFFFFF PUSH2 0x1B89 AND JUMP JUMPDEST PUSH2 0x20B5 JUMP JUMPDEST SWAP9 POP PUSH2 0xF40 PUSH1 0x0 PUSH2 0x3E8 PUSH2 0x2107 JUMP JUMPDEST PUSH2 0xF94 JUMP JUMPDEST PUSH2 0xF91 PUSH1 0x1 PUSH1 0x1 PUSH1 0x70 SHL SUB DUP10 AND PUSH2 0xF62 DUP7 DUP5 PUSH4 0xFFFFFFFF PUSH2 0x1B89 AND JUMP JUMPDEST DUP2 PUSH2 0xF69 JUMPI INVALID JUMPDEST DIV PUSH1 0x1 PUSH1 0x1 PUSH1 0x70 SHL SUB DUP10 AND PUSH2 0xF84 DUP7 DUP6 PUSH4 0xFFFFFFFF PUSH2 0x1B89 AND JUMP JUMPDEST DUP2 PUSH2 0xF8B JUMPI INVALID JUMPDEST DIV PUSH2 0x219D JUMP JUMPDEST SWAP9 POP JUMPDEST PUSH1 0x0 DUP10 GT PUSH2 0xFD3 JUMPI PUSH1 0x40 MLOAD PUSH3 0x461BCD PUSH1 0xE5 SHL DUP2 MSTORE PUSH1 0x4 ADD DUP1 DUP1 PUSH1 0x20 ADD DUP3 DUP2 SUB DUP3 MSTORE PUSH1 0x28 DUP2 MSTORE PUSH1 0x20 ADD DUP1 PUSH2 0x2375 PUSH1 0x28 SWAP2 CODECOPY PUSH1 0x40 ADD SWAP2 POP POP PUSH1 0x40 MLOAD DUP1 SWAP2 SUB SWAP1 REVERT JUMPDEST PUSH2 0xFDD DUP11 DUP11 PUSH2 0x2107 JUMP JUMPDEST PUSH2 0xFE9 DUP7 DUP7 DUP11 DUP11 PUSH2 0x1C4D JUMP JUMPDEST DUP2 ISZERO PUSH2 0x1019 JUMPI PUSH1 0x8 SLOAD PUSH2 0x1015 SWAP1 PUSH1 0x1 PUSH1 0x1 PUSH1 0x70 SHL SUB DUP1 DUP3 AND SWAP2 PUSH1 0x1 PUSH1 0x70 SHL SWAP1 DIV AND PUSH4 0xFFFFFFFF PUSH2 0x1B89 AND JUMP JUMPDEST PUSH1 0xB SSTORE JUMPDEST PUSH1 0x40 DUP1 MLOAD DUP6 DUP2 MSTORE PUSH1 0x20 DUP2 ADD DUP6 SWAP1 MSTORE DUP2 MLOAD CALLER SWAP3 PUSH32 0x4C209B5FC8AD50758F13E2E1088BA56A560DFF690A1C6FEF26394F4C03821C4F SWAP3 DUP3 SWAP1 SUB ADD SWAP1 LOG2 POP POP PUSH1 0x1 PUSH1 0xC SSTORE POP SWAP5 SWAP7 SWAP6 POP POP POP POP POP POP JUMP JUMPDEST PUSH1 0x1 PUSH1 0x20 MSTORE PUSH1 0x0 SWAP1 DUP2 MSTORE PUSH1 0x40 SWAP1 KECCAK256 SLOAD DUP2 JUMP JUMPDEST PUSH1 0xB SLOAD DUP2 JUMP JUMPDEST PUSH1 0x4 PUSH1 0x20 MSTORE PUSH1 0x0 SWAP1 DUP2 MSTORE PUSH1 0x40 SWAP1 KECCAK256 SLOAD DUP2 JUMP JUMPDEST PUSH1 0x0 DUP1 PUSH1 0xC SLOAD PUSH1 0x1 EQ PUSH2 0x10EA JUMPI PUSH1 0x40 DUP1 MLOAD PUSH3 0x461BCD PUSH1 0xE5 SHL DUP2 MSTORE PUSH1 0x20 PUSH1 0x4 DUP3 ADD MSTORE PUSH1 0x11 PUSH1 0x24 DUP3 ADD MSTORE PUSH32 0x556E697377617056323A204C4F434B4544000000000000000000000000000000 PUSH1 0x44 DUP3 ADD MSTORE SWAP1 MLOAD SWAP1 DUP2 SWAP1 SUB PUSH1 0x64 ADD SWAP1 REVERT JUMPDEST PUSH1 0x0 PUSH1 0xC DUP2 SWAP1 SSTORE DUP1 PUSH2 0x10FA PUSH2 0xB6C JUMP JUMPDEST POP PUSH1 0x6 SLOAD PUSH1 0x7 SLOAD PUSH1 0x40 DUP1 MLOAD PUSH4 0x70A08231 PUSH1 0xE0 SHL DUP2 MSTORE ADDRESS PUSH1 0x4 DUP3 ADD MSTORE SWAP1 MLOAD SWAP5 SWAP7 POP SWAP3 SWAP5 POP PUSH1 0x1 PUSH1 0x1 PUSH1 0xA0 SHL SUB SWAP2 DUP3 AND SWAP4 SWAP2 AND SWAP2 PUSH1 0x0 SWAP2 DUP5 SWAP2 PUSH4 0x70A08231 SWAP2 PUSH1 0x24 DUP1 DUP4 ADD SWAP3 PUSH1 0x20 SWAP3 SWAP2 SWAP1 DUP3 SWAP1 SUB ADD DUP2 DUP7 DUP1 EXTCODESIZE ISZERO DUP1 ISZERO PUSH2 0x1156 JUMPI PUSH1 0x0 DUP1 REVERT JUMPDEST POP GAS STATICCALL ISZERO DUP1 ISZERO PUSH2 0x116A JUMPI RETURNDATASIZE PUSH1 0x0 DUP1 RETURNDATACOPY RETURNDATASIZE PUSH1 0x0 REVERT JUMPDEST POP POP POP POP PUSH1 0x40 MLOAD RETURNDATASIZE PUSH1 0x20 DUP2 LT ISZERO PUSH2 0x1180 JUMPI PUSH1 0x0 DUP1 REVERT JUMPDEST POP MLOAD PUSH1 0x40 DUP1 MLOAD PUSH4 0x70A08231 PUSH1 0xE0 SHL DUP2 MSTORE ADDRESS PUSH1 0x4 DUP3 ADD MSTORE SWAP1 MLOAD SWAP2 SWAP3 POP PUSH1 0x0 SWAP2 PUSH1 0x1 PUSH1 0x1 PUSH1 0xA0 SHL SUB DUP6 AND SWAP2 PUSH4 0x70A08231 SWAP2 PUSH1 0x24 DUP1 DUP4 ADD SWAP3 PUSH1 0x20 SWAP3 SWAP2 SWAP1 DUP3 SWAP1 SUB ADD DUP2 DUP7 DUP1 EXTCODESIZE ISZERO DUP1 ISZERO PUSH2 0x11CE JUMPI PUSH1 0x0 DUP1 REVERT JUMPDEST POP GAS STATICCALL ISZERO DUP1 ISZERO PUSH2 0x11E2 JUMPI RETURNDATASIZE PUSH1 0x0 DUP1 RETURNDATACOPY RETURNDATASIZE PUSH1 0x0 REVERT JUMPDEST POP POP POP POP PUSH1 0x40 MLOAD RETURNDATASIZE PUSH1 0x20 DUP2 LT ISZERO PUSH2 0x11F8 JUMPI PUSH1 0x0 DUP1 REVERT JUMPDEST POP MLOAD ADDRESS PUSH1 0x0 SWAP1 DUP2 MSTORE PUSH1 0x1 PUSH1 0x20 MSTORE PUSH1 0x40 DUP2 KECCAK256 SLOAD SWAP2 SWAP3 POP PUSH2 0x1217 DUP9 DUP9 PUSH2 0x1F57 JUMP JUMPDEST PUSH1 0x0 SLOAD SWAP1 SWAP2 POP DUP1 PUSH2 0x122E DUP5 DUP8 PUSH4 0xFFFFFFFF PUSH2 0x1B89 AND JUMP JUMPDEST DUP2 PUSH2 0x1235 JUMPI INVALID JUMPDEST DIV SWAP11 POP DUP1 PUSH2 0x1249 DUP5 DUP7 PUSH4 0xFFFFFFFF PUSH2 0x1B89 AND JUMP JUMPDEST DUP2 PUSH2 0x1250 JUMPI INVALID JUMPDEST DIV SWAP10 POP PUSH1 0x0 DUP12 GT DUP1 ISZERO PUSH2 0x1263 JUMPI POP PUSH1 0x0 DUP11 GT JUMPDEST PUSH2 0x129E JUMPI PUSH1 0x40 MLOAD PUSH3 0x461BCD PUSH1 0xE5 SHL DUP2 MSTORE PUSH1 0x4 ADD DUP1 DUP1 PUSH1 0x20 ADD DUP3 DUP2 SUB DUP3 MSTORE PUSH1 0x28 DUP2 MSTORE PUSH1 0x20 ADD DUP1 PUSH2 0x234D PUSH1 0x28 SWAP2 CODECOPY PUSH1 0x40 ADD SWAP2 POP POP PUSH1 0x40 MLOAD DUP1 SWAP2 SUB SWAP1 REVERT JUMPDEST PUSH2 0x12A8 ADDRESS DUP5 PUSH2 0x21B5 JUMP JUMPDEST PUSH2 0x12B3 DUP8 DUP14 DUP14 PUSH2 0x19D6 JUMP JUMPDEST PUSH2 0x12BE DUP7 DUP14 DUP13 PUSH2 0x19D6 JUMP JUMPDEST PUSH1 0x40 DUP1 MLOAD PUSH4 0x70A08231 PUSH1 0xE0 SHL DUP2 MSTORE ADDRESS PUSH1 0x4 DUP3 ADD MSTORE SWAP1 MLOAD PUSH1 0x1 PUSH1 0x1 PUSH1 0xA0 SHL SUB DUP10 AND SWAP2 PUSH4 0x70A08231 SWAP2 PUSH1 0x24 DUP1 DUP4 ADD SWAP3 PUSH1 0x20 SWAP3 SWAP2 SWAP1 DUP3 SWAP1 SUB ADD DUP2 DUP7 DUP1 EXTCODESIZE ISZERO DUP1 ISZERO PUSH2 0x1304 JUMPI PUSH1 0x0 DUP1 REVERT JUMPDEST POP GAS STATICCALL ISZERO DUP1 ISZERO PUSH2 0x1318 JUMPI RETURNDATASIZE PUSH1 0x0 DUP1 RETURNDATACOPY RETURNDATASIZE PUSH1 0x0 REVERT JUMPDEST POP POP POP POP PUSH1 0x40 MLOAD RETURNDATASIZE PUSH1 0x20 DUP2 LT ISZERO PUSH2 0x132E JUMPI PUSH1 0x0 DUP1 REVERT JUMPDEST POP MLOAD PUSH1 0x40 DUP1 MLOAD PUSH4 0x70A08231 PUSH1 0xE0 SHL DUP2 MSTORE ADDRESS PUSH1 0x4 DUP3 ADD MSTORE SWAP1 MLOAD SWAP2 SWAP7 POP PUSH1 0x1 PUSH1 0x1 PUSH1 0xA0 SHL SUB DUP9 AND SWAP2 PUSH4 0x70A08231 SWAP2 PUSH1 0x24 DUP1 DUP3 ADD SWAP3 PUSH1 0x20 SWAP3 SWAP1 SWAP2 SWAP1 DUP3 SWAP1 SUB ADD DUP2 DUP7 DUP1 EXTCODESIZE ISZERO DUP1 ISZERO PUSH2 0x137A JUMPI PUSH1 0x0 DUP1 REVERT JUMPDEST POP GAS STATICCALL ISZERO DUP1 ISZERO PUSH2 0x138E JUMPI RETURNDATASIZE PUSH1 0x0 DUP1 RETURNDATACOPY RETURNDATASIZE PUSH1 0x0 REVERT JUMPDEST POP POP POP POP PUSH1 0x40 MLOAD RETURNDATASIZE PUSH1 0x20 DUP2 LT ISZERO PUSH2 0x13A4 JUMPI PUSH1 0x0 DUP1 REVERT JUMPDEST POP MLOAD SWAP4 POP PUSH2 0x13B4 DUP6 DUP6 DUP12 DUP12 PUSH2 0x1C4D JUMP JUMPDEST DUP2 ISZERO PUSH2 0x13E4 JUMPI PUSH1 0x8 SLOAD PUSH2 0x13E0 SWAP1 PUSH1 0x1 PUSH1 0x1 PUSH1 0x70 SHL SUB DUP1 DUP3 AND SWAP2 PUSH1 0x1 PUSH1 0x70 SHL SWAP1 DIV AND PUSH4 0xFFFFFFFF PUSH2 0x1B89 AND JUMP JUMPDEST PUSH1 0xB SSTORE JUMPDEST PUSH1 0x40 DUP1 MLOAD DUP13 DUP2 MSTORE PUSH1 0x20 DUP2 ADD DUP13 SWAP1 MSTORE DUP2 MLOAD PUSH1 0x1 PUSH1 0x1 PUSH1 0xA0 SHL SUB DUP16 AND SWAP3 CALLER SWAP3 PUSH32 0xDCCD412F0B1252819CB1FD330B93224CA42612892BB3F4F789976E6D81936496 SWAP3 SWAP1 DUP2 SWAP1 SUB SWAP1 SWAP2 ADD SWAP1 LOG3 POP POP POP POP POP POP POP POP POP PUSH1 0x1 PUSH1 0xC DUP2 SWAP1 SSTORE POP SWAP2 POP SWAP2 JUMP JUMPDEST PUSH1 0x40 MLOAD DUP1 PUSH1 0x40 ADD PUSH1 0x40 MSTORE DUP1 PUSH1 0x3 DUP2 MSTORE PUSH1 0x20 ADD PUSH32 0x454C410000000000000000000000000000000000000000000000000000000000 DUP2 MSTORE POP DUP2 JUMP JUMPDEST PUSH1 0x0 PUSH2 0xBA3 CALLER DUP5 DUP5 PUSH2 0x1E9D JUMP JUMPDEST PUSH2 0x3E8 DUP2 JUMP JUMPDEST PUSH1 0xC SLOAD PUSH1 0x1 EQ PUSH2 0x14E5 JUMPI PUSH1 0x40 DUP1 MLOAD PUSH3 0x461BCD PUSH1 0xE5 SHL DUP2 MSTORE PUSH1 0x20 PUSH1 0x4 DUP3 ADD MSTORE PUSH1 0x11 PUSH1 0x24 DUP3 ADD MSTORE PUSH32 0x556E697377617056323A204C4F434B4544000000000000000000000000000000 PUSH1 0x44 DUP3 ADD MSTORE SWAP1 MLOAD SWAP1 DUP2 SWAP1 SUB PUSH1 0x64 ADD SWAP1 REVERT JUMPDEST PUSH1 0x0 PUSH1 0xC SSTORE PUSH1 0x6 SLOAD PUSH1 0x7 SLOAD PUSH1 0x8 SLOAD PUSH1 0x40 DUP1 MLOAD PUSH4 0x70A08231 PUSH1 0xE0 SHL DUP2 MSTORE ADDRESS PUSH1 0x4 DUP3 ADD MSTORE SWAP1 MLOAD PUSH1 0x1 PUSH1 0x1 PUSH1 0xA0 SHL SUB SWAP5 DUP6 AND SWAP5 SWAP1 SWAP4 AND SWAP3 PUSH2 0x1594 SWAP3 DUP6 SWAP3 DUP8 SWAP3 PUSH2 0x158F SWAP3 PUSH1 0x1 PUSH1 0x1 PUSH1 0x70 SHL SUB AND SWAP2 DUP6 SWAP2 PUSH4 0x70A08231 SWAP2 PUSH1 0x24 DUP1 DUP3 ADD SWAP3 PUSH1 0x20 SWAP3 SWAP1 SWAP2 SWAP1 DUP3 SWAP1 SUB ADD DUP2 DUP7 DUP1 EXTCODESIZE ISZERO DUP1 ISZERO PUSH2 0x1557 JUMPI PUSH1 0x0 DUP1 REVERT JUMPDEST POP GAS STATICCALL ISZERO DUP1 ISZERO PUSH2 0x156B JUMPI RETURNDATASIZE PUSH1 0x0 DUP1 RETURNDATACOPY RETURNDATASIZE PUSH1 0x0 REVERT JUMPDEST POP POP POP POP PUSH1 0x40 MLOAD RETURNDATASIZE PUSH1 0x20 DUP2 LT ISZERO PUSH2 0x1581 JUMPI PUSH1 0x0 DUP1 REVERT JUMPDEST POP MLOAD SWAP1 PUSH4 0xFFFFFFFF PUSH2 0x1BF5 AND JUMP JUMPDEST PUSH2 0x19D6 JUMP JUMPDEST PUSH1 0x8 SLOAD PUSH1 0x40 DUP1 MLOAD PUSH4 0x70A08231 PUSH1 0xE0 SHL DUP2 MSTORE ADDRESS PUSH1 0x4 DUP3 ADD MSTORE SWAP1 MLOAD PUSH2 0x15FB SWAP3 DUP5 SWAP3 DUP8 SWAP3 PUSH2 0x158F SWAP3 PUSH1 0x1 PUSH1 0x70 SHL SWAP1 DIV PUSH1 0x1 PUSH1 0x1 PUSH1 0x70 SHL SUB AND SWAP2 PUSH1 0x1 PUSH1 0x1 PUSH1 0xA0 SHL SUB DUP7 AND SWAP2 PUSH4 0x70A08231 SWAP2 PUSH1 0x24 DUP1 DUP3 ADD SWAP3 PUSH1 0x20 SWAP3 SWAP1 SWAP2 SWAP1 DUP3 SWAP1 SUB ADD DUP2 DUP7 DUP1 EXTCODESIZE ISZERO DUP1 ISZERO PUSH2 0x1557 JUMPI PUSH1 0x0 DUP1 REVERT JUMPDEST POP POP PUSH1 0x1 PUSH1 0xC SSTORE POP JUMP JUMPDEST PUSH1 0x5 SLOAD PUSH1 0x1 PUSH1 0x1 PUSH1 0xA0 SHL SUB AND DUP2 JUMP JUMPDEST PUSH1 0x7 SLOAD PUSH1 0x1 PUSH1 0x1 PUSH1 0xA0 SHL SUB AND DUP2 JUMP JUMPDEST TIMESTAMP DUP5 LT ISZERO PUSH2 0x1678 JUMPI PUSH1 0x40 DUP1 MLOAD PUSH3 0x461BCD PUSH1 0xE5 SHL DUP2 MSTORE PUSH1 0x20 PUSH1 0x4 DUP3 ADD MSTORE PUSH1 0x12 PUSH1 0x24 DUP3 ADD MSTORE PUSH32 0x556E697377617056323A20455850495245440000000000000000000000000000 PUSH1 0x44 DUP3 ADD MSTORE SWAP1 MLOAD SWAP1 DUP2 SWAP1 SUB PUSH1 0x64 ADD SWAP1 REVERT JUMPDEST PUSH1 0x3 SLOAD PUSH1 0x1 PUSH1 0x1 PUSH1 0xA0 SHL SUB DUP1 DUP10 AND PUSH1 0x0 DUP2 DUP2 MSTORE PUSH1 0x4 PUSH1 0x20 SWAP1 DUP2 MSTORE PUSH1 0x40 DUP1 DUP4 KECCAK256 DUP1 SLOAD PUSH1 0x1 DUP1 DUP3 ADD SWAP1 SWAP3 SSTORE DUP3 MLOAD PUSH32 0x6E71EDAE12B1B97F4D1F60370FEF10105FA2FAAE0126114A169C64845D6126C9 DUP2 DUP7 ADD MSTORE DUP1 DUP5 ADD SWAP7 SWAP1 SWAP7 MSTORE SWAP6 DUP14 AND PUSH1 0x60 DUP7 ADD MSTORE PUSH1 0x80 DUP6 ADD DUP13 SWAP1 MSTORE PUSH1 0xA0 DUP6 ADD SWAP6 SWAP1 SWAP6 MSTORE PUSH1 0xC0 DUP1 DUP6 ADD DUP12 SWAP1 MSTORE DUP2 MLOAD DUP1 DUP7 SUB SWAP1 SWAP2 ADD DUP2 MSTORE PUSH1 0xE0 DUP6 ADD DUP3 MSTORE DUP1 MLOAD SWAP1 DUP4 ADD KECCAK256 PUSH32 0x1901000000000000000000000000000000000000000000000000000000000000 PUSH2 0x100 DUP7 ADD MSTORE PUSH2 0x102 DUP6 ADD SWAP7 SWAP1 SWAP7 MSTORE PUSH2 0x122 DUP1 DUP6 ADD SWAP7 SWAP1 SWAP7 MSTORE DUP1 MLOAD DUP1 DUP6 SUB SWAP1 SWAP7 ADD DUP7 MSTORE PUSH2 0x142 DUP5 ADD DUP1 DUP3 MSTORE DUP7 MLOAD SWAP7 DUP4 ADD SWAP7 SWAP1 SWAP7 KECCAK256 SWAP6 DUP4 SWAP1 MSTORE PUSH2 0x162 DUP5 ADD DUP1 DUP3 MSTORE DUP7 SWAP1 MSTORE PUSH1 0xFF DUP10 AND PUSH2 0x182 DUP6 ADD MSTORE PUSH2 0x1A2 DUP5 ADD DUP9 SWAP1 MSTORE PUSH2 0x1C2 DUP5 ADD DUP8 SWAP1 MSTORE MLOAD SWAP2 SWAP4 SWAP3 PUSH2 0x1E2 DUP1 DUP3 ADD SWAP4 PUSH1 0x1F NOT DUP2 ADD SWAP3 DUP2 SWAP1 SUB SWAP1 SWAP2 ADD SWAP1 DUP6 GAS STATICCALL ISZERO DUP1 ISZERO PUSH2 0x17AE JUMPI RETURNDATASIZE PUSH1 0x0 DUP1 RETURNDATACOPY RETURNDATASIZE PUSH1 0x0 REVERT JUMPDEST POP POP PUSH1 0x40 MLOAD PUSH1 0x1F NOT ADD MLOAD SWAP2 POP POP PUSH1 0x1 PUSH1 0x1 PUSH1 0xA0 SHL SUB DUP2 AND ISZERO DUP1 ISZERO SWAP1 PUSH2 0x17E4 JUMPI POP DUP9 PUSH1 0x1 PUSH1 0x1 PUSH1 0xA0 SHL SUB AND DUP2 PUSH1 0x1 PUSH1 0x1 PUSH1 0xA0 SHL SUB AND EQ JUMPDEST PUSH2 0x1835 JUMPI PUSH1 0x40 DUP1 MLOAD PUSH3 0x461BCD PUSH1 0xE5 SHL DUP2 MSTORE PUSH1 0x20 PUSH1 0x4 DUP3 ADD MSTORE PUSH1 0x1C PUSH1 0x24 DUP3 ADD MSTORE PUSH32 0x556E697377617056323A20494E56414C49445F5349474E415455524500000000 PUSH1 0x44 DUP3 ADD MSTORE SWAP1 MLOAD SWAP1 DUP2 SWAP1 SUB PUSH1 0x64 ADD SWAP1 REVERT JUMPDEST PUSH2 0x1840 DUP10 DUP10 DUP10 PUSH2 0x1E3B JUMP JUMPDEST POP POP POP POP POP POP POP POP POP JUMP JUMPDEST PUSH1 0x2 PUSH1 0x20 SWAP1 DUP2 MSTORE PUSH1 0x0 SWAP3 DUP4 MSTORE PUSH1 0x40 DUP1 DUP5 KECCAK256 SWAP1 SWAP2 MSTORE SWAP1 DUP3 MSTORE SWAP1 KECCAK256 SLOAD DUP2 JUMP JUMPDEST PUSH1 0xC SLOAD PUSH1 0x1 EQ PUSH2 0x18BF JUMPI PUSH1 0x40 DUP1 MLOAD PUSH3 0x461BCD PUSH1 0xE5 SHL DUP2 MSTORE PUSH1 0x20 PUSH1 0x4 DUP3 ADD MSTORE PUSH1 0x11 PUSH1 0x24 DUP3 ADD MSTORE PUSH32 0x556E697377617056323A204C4F434B4544000000000000000000000000000000 PUSH1 0x44 DUP3 ADD MSTORE SWAP1 MLOAD SWAP1 DUP2 SWAP1 SUB PUSH1 0x64 ADD SWAP1 REVERT JUMPDEST PUSH1 0x0 PUSH1 0xC SSTORE PUSH1 0x6 SLOAD PUSH1 0x40 DUP1 MLOAD PUSH4 0x70A08231 PUSH1 0xE0 SHL DUP2 MSTORE ADDRESS PUSH1 0x4 DUP3 ADD MSTORE SWAP1 MLOAD PUSH2 0x19CF SWAP3 PUSH1 0x1 PUSH1 0x1 PUSH1 0xA0 SHL SUB AND SWAP2 PUSH4 0x70A08231 SWAP2 PUSH1 0x24 DUP1 DUP4 ADD SWAP3 PUSH1 0x20 SWAP3 SWAP2 SWAP1 DUP3 SWAP1 SUB ADD DUP2 DUP7 DUP1 EXTCODESIZE ISZERO DUP1 ISZERO PUSH2 0x1910 JUMPI PUSH1 0x0 DUP1 REVERT JUMPDEST POP GAS STATICCALL ISZERO DUP1 ISZERO PUSH2 0x1924 JUMPI RETURNDATASIZE PUSH1 0x0 DUP1 RETURNDATACOPY RETURNDATASIZE PUSH1 0x0 REVERT JUMPDEST POP POP POP POP PUSH1 0x40 MLOAD RETURNDATASIZE PUSH1 0x20 DUP2 LT ISZERO PUSH2 0x193A JUMPI PUSH1 0x0 DUP1 REVERT JUMPDEST POP MLOAD PUSH1 0x7 SLOAD PUSH1 0x40 DUP1 MLOAD PUSH4 0x70A08231 PUSH1 0xE0 SHL DUP2 MSTORE ADDRESS PUSH1 0x4 DUP3 ADD MSTORE SWAP1 MLOAD PUSH1 0x1 PUSH1 0x1 PUSH1 0xA0 SHL SUB SWAP1 SWAP3 AND SWAP2 PUSH4 0x70A08231 SWAP2 PUSH1 0x24 DUP1 DUP3 ADD SWAP3 PUSH1 0x20 SWAP3 SWAP1 SWAP2 SWAP1 DUP3 SWAP1 SUB ADD DUP2 DUP7 DUP1 EXTCODESIZE ISZERO DUP1 ISZERO PUSH2 0x1987 JUMPI PUSH1 0x0 DUP1 REVERT JUMPDEST POP GAS STATICCALL ISZERO DUP1 ISZERO PUSH2 0x199B JUMPI RETURNDATASIZE PUSH1 0x0 DUP1 RETURNDATACOPY RETURNDATASIZE PUSH1 0x0 REVERT JUMPDEST POP POP POP POP PUSH1 0x40 MLOAD RETURNDATASIZE PUSH1 0x20 DUP2 LT ISZERO PUSH2 0x19B1 JUMPI PUSH1 0x0 DUP1 REVERT JUMPDEST POP MLOAD PUSH1 0x8 SLOAD PUSH1 0x1 PUSH1 0x1 PUSH1 0x70 SHL SUB DUP1 DUP3 AND SWAP2 PUSH1 0x1 PUSH1 0x70 SHL SWAP1 DIV AND PUSH2 0x1C4D JUMP JUMPDEST PUSH1 0x1 PUSH1 0xC SSTORE JUMP JUMPDEST PUSH1 0x40 DUP1 MLOAD DUP1 DUP3 ADD DUP3 MSTORE PUSH1 0x19 DUP2 MSTORE PUSH32 0x7472616E7366657228616464726573732C75696E743235362900000000000000 PUSH1 0x20 SWAP2 DUP3 ADD MSTORE DUP2 MLOAD PUSH1 0x1 PUSH1 0x1 PUSH1 0xA0 SHL SUB DUP6 DUP2 AND PUSH1 0x24 DUP4 ADD MSTORE PUSH1 0x44 DUP1 DUP4 ADD DUP7 SWAP1 MSTORE DUP5 MLOAD DUP1 DUP5 SUB SWAP1 SWAP2 ADD DUP2 MSTORE PUSH1 0x64 SWAP1 SWAP3 ADD DUP5 MSTORE SWAP2 DUP2 ADD DUP1 MLOAD PUSH1 0x1 PUSH1 0x1 PUSH1 0xE0 SHL SUB AND PUSH32 0xA9059CBB00000000000000000000000000000000000000000000000000000000 OR DUP2 MSTORE SWAP3 MLOAD DUP2 MLOAD PUSH1 0x0 SWAP5 PUSH1 0x60 SWAP5 DUP10 AND SWAP4 SWAP3 SWAP2 DUP3 SWAP2 SWAP1 DUP1 DUP4 DUP4 JUMPDEST PUSH1 0x20 DUP4 LT PUSH2 0x1A9C JUMPI DUP1 MLOAD DUP3 MSTORE PUSH1 0x1F NOT SWAP1 SWAP3 ADD SWAP2 PUSH1 0x20 SWAP2 DUP3 ADD SWAP2 ADD PUSH2 0x1A7D JUMP JUMPDEST PUSH1 0x1 DUP4 PUSH1 0x20 SUB PUSH2 0x100 EXP SUB DUP1 NOT DUP3 MLOAD AND DUP2 DUP5 MLOAD AND DUP1 DUP3 OR DUP6 MSTORE POP POP POP POP POP POP SWAP1 POP ADD SWAP2 POP POP PUSH1 0x0 PUSH1 0x40 MLOAD DUP1 DUP4 SUB DUP2 PUSH1 0x0 DUP7 GAS CALL SWAP2 POP POP RETURNDATASIZE DUP1 PUSH1 0x0 DUP2 EQ PUSH2 0x1AFE JUMPI PUSH1 0x40 MLOAD SWAP2 POP PUSH1 0x1F NOT PUSH1 0x3F RETURNDATASIZE ADD AND DUP3 ADD PUSH1 0x40 MSTORE RETURNDATASIZE DUP3 MSTORE RETURNDATASIZE PUSH1 0x0 PUSH1 0x20 DUP5 ADD RETURNDATACOPY PUSH2 0x1B03 JUMP JUMPDEST PUSH1 0x60 SWAP2 POP JUMPDEST POP SWAP2 POP SWAP2 POP DUP2 DUP1 ISZERO PUSH2 0x1B31 JUMPI POP DUP1 MLOAD ISZERO DUP1 PUSH2 0x1B31 JUMPI POP DUP1 DUP1 PUSH1 0x20 ADD SWAP1 MLOAD PUSH1 0x20 DUP2 LT ISZERO PUSH2 0x1B2E JUMPI PUSH1 0x0 DUP1 REVERT JUMPDEST POP MLOAD JUMPDEST PUSH2 0x1B82 JUMPI PUSH1 0x40 DUP1 MLOAD PUSH3 0x461BCD PUSH1 0xE5 SHL DUP2 MSTORE PUSH1 0x20 PUSH1 0x4 DUP3 ADD MSTORE PUSH1 0x1A PUSH1 0x24 DUP3 ADD MSTORE PUSH32 0x556E697377617056323A205452414E534645525F4641494C4544000000000000 PUSH1 0x44 DUP3 ADD MSTORE SWAP1 MLOAD SWAP1 DUP2 SWAP1 SUB PUSH1 0x64 ADD SWAP1 REVERT JUMPDEST POP POP POP POP POP JUMP JUMPDEST PUSH1 0x0 DUP2 ISZERO DUP1 PUSH2 0x1BA4 JUMPI POP POP DUP1 DUP3 MUL DUP3 DUP3 DUP3 DUP2 PUSH2 0x1BA1 JUMPI INVALID JUMPDEST DIV EQ JUMPDEST PUSH2 0xBA7 JUMPI PUSH1 0x40 DUP1 MLOAD PUSH3 0x461BCD PUSH1 0xE5 SHL DUP2 MSTORE PUSH1 0x20 PUSH1 0x4 DUP3 ADD MSTORE PUSH1 0x14 PUSH1 0x24 DUP3 ADD MSTORE PUSH32 0x64732D6D6174682D6D756C2D6F766572666C6F77000000000000000000000000 PUSH1 0x44 DUP3 ADD MSTORE SWAP1 MLOAD SWAP1 DUP2 SWAP1 SUB PUSH1 0x64 ADD SWAP1 REVERT JUMPDEST DUP1 DUP3 SUB DUP3 DUP2 GT ISZERO PUSH2 0xBA7 JUMPI PUSH1 0x40 DUP1 MLOAD PUSH3 0x461BCD PUSH1 0xE5 SHL DUP2 MSTORE PUSH1 0x20 PUSH1 0x4 DUP3 ADD MSTORE PUSH1 0x15 PUSH1 0x24 DUP3 ADD MSTORE PUSH32 0x64732D6D6174682D7375622D756E646572666C6F770000000000000000000000 PUSH1 0x44 DUP3 ADD MSTORE SWAP1 MLOAD SWAP1 DUP2 SWAP1 SUB PUSH1 0x64 ADD SWAP1 REVERT JUMPDEST PUSH1 0x1 PUSH1 0x1 PUSH1 0x70 SHL SUB DUP5 GT DUP1 ISZERO SWAP1 PUSH2 0x1C6B JUMPI POP PUSH1 0x1 PUSH1 0x1 PUSH1 0x70 SHL SUB DUP4 GT ISZERO JUMPDEST PUSH2 0x1CBC JUMPI PUSH1 0x40 DUP1 MLOAD PUSH3 0x461BCD PUSH1 0xE5 SHL DUP2 MSTORE PUSH1 0x20 PUSH1 0x4 DUP3 ADD MSTORE PUSH1 0x13 PUSH1 0x24 DUP3 ADD MSTORE PUSH32 0x556E697377617056323A204F564552464C4F5700000000000000000000000000 PUSH1 0x44 DUP3 ADD MSTORE SWAP1 MLOAD SWAP1 DUP2 SWAP1 SUB PUSH1 0x64 ADD SWAP1 REVERT JUMPDEST PUSH1 0x8 SLOAD PUSH4 0xFFFFFFFF TIMESTAMP DUP2 AND SWAP2 PUSH1 0x1 PUSH1 0xE0 SHL SWAP1 DIV DUP2 AND DUP3 SUB SWAP1 DUP2 AND ISZERO DUP1 ISZERO SWAP1 PUSH2 0x1CEC JUMPI POP PUSH1 0x1 PUSH1 0x1 PUSH1 0x70 SHL SUB DUP5 AND ISZERO ISZERO JUMPDEST DUP1 ISZERO PUSH2 0x1D00 JUMPI POP PUSH1 0x1 PUSH1 0x1 PUSH1 0x70 SHL SUB DUP4 AND ISZERO ISZERO JUMPDEST ISZERO PUSH2 0x1D71 JUMPI DUP1 PUSH4 0xFFFFFFFF AND PUSH2 0x1D2E DUP6 PUSH2 0x1D19 DUP7 PUSH2 0x2253 JUMP JUMPDEST PUSH1 0x1 PUSH1 0x1 PUSH1 0xE0 SHL SUB AND SWAP1 PUSH4 0xFFFFFFFF PUSH2 0x2265 AND JUMP JUMPDEST PUSH1 0x9 DUP1 SLOAD PUSH1 0x1 PUSH1 0x1 PUSH1 0xE0 SHL SUB SWAP3 SWAP1 SWAP3 AND SWAP3 SWAP1 SWAP3 MUL ADD SWAP1 SSTORE PUSH4 0xFFFFFFFF DUP2 AND PUSH2 0x1D59 DUP5 PUSH2 0x1D19 DUP8 PUSH2 0x2253 JUMP JUMPDEST PUSH1 0xA DUP1 SLOAD PUSH1 0x1 PUSH1 0x1 PUSH1 0xE0 SHL SUB SWAP3 SWAP1 SWAP3 AND SWAP3 SWAP1 SWAP3 MUL ADD SWAP1 SSTORE JUMPDEST PUSH1 0x8 DUP1 SLOAD PUSH32 0xFFFFFFFFFFFFFFFFFFFFFFFFFFFFFFFFFFFF0000000000000000000000000000 AND PUSH1 0x1 PUSH1 0x1 PUSH1 0x70 SHL SUB DUP9 DUP2 AND SWAP2 SWAP1 SWAP2 OR PUSH32 0xFFFFFFFF0000000000000000000000000000FFFFFFFFFFFFFFFFFFFFFFFFFFFF AND PUSH1 0x1 PUSH1 0x70 SHL DUP9 DUP4 AND DUP2 MUL SWAP2 SWAP1 SWAP2 OR PUSH1 0x1 PUSH1 0x1 PUSH1 0xE0 SHL SUB AND PUSH1 0x1 PUSH1 0xE0 SHL PUSH4 0xFFFFFFFF DUP8 AND MUL OR SWAP3 DUP4 SWAP1 SSTORE PUSH1 0x40 DUP1 MLOAD DUP5 DUP5 AND DUP2 MSTORE SWAP2 SWAP1 SWAP4 DIV SWAP1 SWAP2 AND PUSH1 0x20 DUP3 ADD MSTORE DUP2 MLOAD PUSH32 0x1C411E9A96E071241C2F21F7726B17AE89E3CAB4C78BE50E062B03A9FFFBBAD1 SWAP3 SWAP2 DUP2 SWAP1 SUB SWAP1 SWAP2 ADD SWAP1 LOG1 POP POP POP POP POP POP JUMP JUMPDEST PUSH1 0x1 PUSH1 0x1 PUSH1 0xA0 SHL SUB DUP1 DUP5 AND PUSH1 0x0 DUP2 DUP2 MSTORE PUSH1 0x2 PUSH1 0x20 SWAP1 DUP2 MSTORE PUSH1 0x40 DUP1 DUP4 KECCAK256 SWAP5 DUP8 AND DUP1 DUP5 MSTORE SWAP5 DUP3 MSTORE SWAP2 DUP3 SWAP1 KECCAK256 DUP6 SWAP1 SSTORE DUP2 MLOAD DUP6 DUP2 MSTORE SWAP2 MLOAD PUSH32 0x8C5BE1E5EBEC7D5BD14F71427D1E84F3DD0314C0F7B2291E5B200AC8C7C3B925 SWAP3 DUP2 SWAP1 SUB SWAP1 SWAP2 ADD SWAP1 LOG3 POP POP POP JUMP JUMPDEST PUSH1 0x1 PUSH1 0x1 PUSH1 0xA0 SHL SUB DUP4 AND PUSH1 0x0 SWAP1 DUP2 MSTORE PUSH1 0x1 PUSH1 0x20 MSTORE PUSH1 0x40 SWAP1 KECCAK256 SLOAD PUSH2 0x1EC6 SWAP1 DUP3 PUSH4 0xFFFFFFFF PUSH2 0x1BF5 AND JUMP JUMPDEST PUSH1 0x1 PUSH1 0x1 PUSH1 0xA0 SHL SUB DUP1 DUP6 AND PUSH1 0x0 SWAP1 DUP2 MSTORE PUSH1 0x1 PUSH1 0x20 MSTORE PUSH1 0x40 DUP1 DUP3 KECCAK256 SWAP4 SWAP1 SWAP4 SSTORE SWAP1 DUP5 AND DUP2 MSTORE KECCAK256 SLOAD PUSH2 0x1EFB SWAP1 DUP3 PUSH4 0xFFFFFFFF PUSH2 0x228A AND JUMP JUMPDEST PUSH1 0x1 PUSH1 0x1 PUSH1 0xA0 SHL SUB DUP1 DUP5 AND PUSH1 0x0 DUP2 DUP2 MSTORE PUSH1 0x1 PUSH1 0x20 SWAP1 DUP2 MSTORE PUSH1 0x40 SWAP2 DUP3 SWAP1 KECCAK256 SWAP5 SWAP1 SWAP5 SSTORE DUP1 MLOAD DUP6 DUP2 MSTORE SWAP1 MLOAD SWAP2 SWAP4 SWAP3 DUP8 AND SWAP3 PUSH32 0xDDF252AD1BE2C89B69C2B068FC378DAA952BA7F163C4A11628F55A4DF523B3EF SWAP3 SWAP2 DUP3 SWAP1 SUB ADD SWAP1 LOG3 POP POP POP JUMP JUMPDEST PUSH1 0x0 DUP1 PUSH1 0x5 PUSH1 0x0 SWAP1 SLOAD SWAP1 PUSH2 0x100 EXP SWAP1 DIV PUSH1 0x1 PUSH1 0x1 PUSH1 0xA0 SHL SUB AND PUSH1 0x1 PUSH1 0x1 PUSH1 0xA0 SHL SUB AND PUSH4 0x17E7E58 PUSH1 0x40 MLOAD DUP2 PUSH4 0xFFFFFFFF AND PUSH1 0xE0 SHL DUP2 MSTORE PUSH1 0x4 ADD PUSH1 0x20 PUSH1 0x40 MLOAD DUP1 DUP4 SUB DUP2 DUP7 DUP1 EXTCODESIZE ISZERO DUP1 ISZERO PUSH2 0x1FA8 JUMPI PUSH1 0x0 DUP1 REVERT JUMPDEST POP GAS STATICCALL ISZERO DUP1 ISZERO PUSH2 0x1FBC JUMPI RETURNDATASIZE PUSH1 0x0 DUP1 RETURNDATACOPY RETURNDATASIZE PUSH1 0x0 REVERT JUMPDEST POP POP POP POP PUSH1 0x40 MLOAD RETURNDATASIZE PUSH1 0x20 DUP2 LT ISZERO PUSH2 0x1FD2 JUMPI PUSH1 0x0 DUP1 REVERT JUMPDEST POP MLOAD PUSH1 0xB SLOAD PUSH1 0x1 PUSH1 0x1 PUSH1 0xA0 SHL SUB DUP3 AND ISZERO DUP1 ISZERO SWAP5 POP SWAP2 SWAP3 POP SWAP1 PUSH2 0x20A1 JUMPI DUP1 ISZERO PUSH2 0x209C JUMPI PUSH1 0x0 PUSH2 0x2015 PUSH2 0xF2C PUSH1 0x1 PUSH1 0x1 PUSH1 0x70 SHL SUB DUP9 DUP2 AND SWAP1 DUP9 AND PUSH4 0xFFFFFFFF PUSH2 0x1B89 AND JUMP JUMPDEST SWAP1 POP PUSH1 0x0 PUSH2 0x2022 DUP4 PUSH2 0x20B5 JUMP JUMPDEST SWAP1 POP DUP1 DUP3 GT ISZERO PUSH2 0x2099 JUMPI PUSH1 0x0 PUSH2 0x2050 PUSH2 0x2041 DUP5 DUP5 PUSH4 0xFFFFFFFF PUSH2 0x1BF5 AND JUMP JUMPDEST PUSH1 0x0 SLOAD SWAP1 PUSH4 0xFFFFFFFF PUSH2 0x1B89 AND JUMP JUMPDEST SWAP1 POP PUSH1 0x0 PUSH2 0x2075 DUP4 PUSH2 0x2069 DUP7 PUSH1 0x5 PUSH4 0xFFFFFFFF PUSH2 0x1B89 AND JUMP JUMPDEST SWAP1 PUSH4 0xFFFFFFFF PUSH2 0x228A AND JUMP JUMPDEST SWAP1 POP PUSH1 0x0 DUP2 DUP4 DUP2 PUSH2 0x2082 JUMPI INVALID JUMPDEST DIV SWAP1 POP DUP1 ISZERO PUSH2 0x2095 JUMPI PUSH2 0x2095 DUP8 DUP3 PUSH2 0x2107 JUMP JUMPDEST POP POP POP JUMPDEST POP POP JUMPDEST PUSH2 0x20AD JUMP JUMPDEST DUP1 ISZERO PUSH2 0x20AD JUMPI PUSH1 0x0 PUSH1 0xB SSTORE JUMPDEST POP POP SWAP3 SWAP2 POP POP JUMP JUMPDEST PUSH1 0x0 PUSH1 0x3 DUP3 GT ISZERO PUSH2 0x20F8 JUMPI POP DUP1 PUSH1 0x1 PUSH1 0x2 DUP3 DIV ADD JUMPDEST DUP2 DUP2 LT ISZERO PUSH2 0x20F2 JUMPI DUP1 SWAP2 POP PUSH1 0x2 DUP2 DUP3 DUP6 DUP2 PUSH2 0x20E1 JUMPI INVALID JUMPDEST DIV ADD DUP2 PUSH2 0x20EA JUMPI INVALID JUMPDEST DIV SWAP1 POP PUSH2 0x20CA JUMP JUMPDEST POP PUSH2 0x2102 JUMP JUMPDEST DUP2 ISZERO PUSH2 0x2102 JUMPI POP PUSH1 0x1 JUMPDEST SWAP2 SWAP1 POP JUMP JUMPDEST PUSH1 0x0 SLOAD PUSH2 0x211A SWAP1 DUP3 PUSH4 0xFFFFFFFF PUSH2 0x228A AND JUMP JUMPDEST PUSH1 0x0 SWAP1 DUP2 SSTORE PUSH1 0x1 PUSH1 0x1 PUSH1 0xA0 SHL SUB DUP4 AND DUP2 MSTORE PUSH1 0x1 PUSH1 0x20 MSTORE PUSH1 0x40 SWAP1 KECCAK256 SLOAD PUSH2 0x2145 SWAP1 DUP3 PUSH4 0xFFFFFFFF PUSH2 0x228A AND JUMP JUMPDEST PUSH1 0x1 PUSH1 0x1 PUSH1 0xA0 SHL SUB DUP4 AND PUSH1 0x0 DUP2 DUP2 MSTORE PUSH1 0x1 PUSH1 0x20 SWAP1 DUP2 MSTORE PUSH1 0x40 DUP1 DUP4 KECCAK256 SWAP5 SWAP1 SWAP5 SSTORE DUP4 MLOAD DUP6 DUP2 MSTORE SWAP4 MLOAD SWAP3 SWAP4 SWAP2 SWAP3 PUSH32 0xDDF252AD1BE2C89B69C2B068FC378DAA952BA7F163C4A11628F55A4DF523B3EF SWAP3 DUP2 SWAP1 SUB SWAP1 SWAP2 ADD SWAP1 LOG3 POP POP JUMP JUMPDEST PUSH1 0x0 DUP2 DUP4 LT PUSH2 0x21AC JUMPI DUP2 PUSH2 0x21AE JUMP JUMPDEST DUP3 JUMPDEST SWAP4 SWAP3 POP POP POP JUMP JUMPDEST PUSH1 0x1 PUSH1 0x1 PUSH1 0xA0 SHL SUB DUP3 AND PUSH1 0x0 SWAP1 DUP2 MSTORE PUSH1 0x1 PUSH1 0x20 MSTORE PUSH1 0x40 SWAP1 KECCAK256 SLOAD PUSH2 0x21DE SWAP1 DUP3 PUSH4 0xFFFFFFFF PUSH2 0x1BF5 AND JUMP JUMPDEST PUSH1 0x1 PUSH1 0x1 PUSH1 0xA0 SHL SUB DUP4 AND PUSH1 0x0 SWAP1 DUP2 MSTORE PUSH1 0x1 PUSH1 0x20 MSTORE PUSH1 0x40 DUP2 KECCAK256 SWAP2 SWAP1 SWAP2 SSTORE SLOAD PUSH2 0x220B SWAP1 DUP3 PUSH4 0xFFFFFFFF PUSH2 0x1BF5 AND JUMP JUMPDEST PUSH1 0x0 SWAP1 DUP2 SSTORE PUSH1 0x40 DUP1 MLOAD DUP4 DUP2 MSTORE SWAP1 MLOAD PUSH1 0x1 PUSH1 0x1 PUSH1 0xA0 SHL SUB DUP6 AND SWAP2 PUSH32 0xDDF252AD1BE2C89B69C2B068FC378DAA952BA7F163C4A11628F55A4DF523B3EF SWAP2 SWAP1 DUP2 SWAP1 SUB PUSH1 0x20 ADD SWAP1 LOG3 POP POP JUMP JUMPDEST PUSH1 0x1 PUSH1 0x1 PUSH1 0x70 SHL SUB AND PUSH1 0x1 PUSH1 0x70 SHL MUL SWAP1 JUMP JUMPDEST PUSH1 0x0 PUSH1 0x1 PUSH1 0x1 PUSH1 0x70 SHL SUB DUP3 AND PUSH1 0x1 PUSH1 0x1 PUSH1 0xE0 SHL SUB DUP5 AND DUP2 PUSH2 0x2282 JUMPI INVALID JUMPDEST DIV SWAP4 SWAP3 POP POP POP JUMP JUMPDEST DUP1 DUP3 ADD DUP3 DUP2 LT ISZERO PUSH2 0xBA7 JUMPI PUSH1 0x40 DUP1 MLOAD PUSH3 0x461BCD PUSH1 0xE5 SHL DUP2 MSTORE PUSH1 0x20 PUSH1 0x4 DUP3 ADD MSTORE PUSH1 0x14 PUSH1 0x24 DUP3 ADD MSTORE PUSH32 0x64732D6D6174682D6164642D6F766572666C6F77000000000000000000000000 PUSH1 0x44 DUP3 ADD MSTORE SWAP1 MLOAD SWAP1 DUP2 SWAP1 SUB PUSH1 0x64 ADD SWAP1 REVERT INVALID SSTORE PUSH15 0x697377617056323A20494E53554646 0x49 NUMBER 0x49 GASLIMIT 0x4E SLOAD 0x5F 0x4F SSTORE SLOAD POP SSTORE SLOAD 0x5F COINBASE 0x4D 0x4F SSTORE 0x4E SLOAD SSTORE PUSH15 0x697377617056323A20494E53554646 0x49 NUMBER 0x49 GASLIMIT 0x4E SLOAD 0x5F 0x49 0x4E POP SSTORE SLOAD 0x5F COINBASE 0x4D 0x4F SSTORE 0x4E SLOAD SSTORE PUSH15 0x697377617056323A20494E53554646 0x49 NUMBER 0x49 GASLIMIT 0x4E SLOAD 0x5F 0x4C 0x49 MLOAD SSTORE 0x49 DIFFICULTY 0x49 SLOAD MSIZE SSTORE PUSH15 0x697377617056323A20494E53554646 0x49 NUMBER 0x49 GASLIMIT 0x4E SLOAD 0x5F 0x4C 0x49 MLOAD SSTORE 0x49 DIFFICULTY 0x49 SLOAD MSIZE 0x5F TIMESTAMP SSTORE MSTORE 0x4E GASLIMIT DIFFICULTY SSTORE PUSH15 0x697377617056323A20494E53554646 0x49 NUMBER 0x49 GASLIMIT 0x4E SLOAD 0x5F 0x4C 0x49 MLOAD SSTORE 0x49 DIFFICULTY 0x49 SLOAD MSIZE 0x5F 0x4D 0x49 0x4E SLOAD GASLIMIT DIFFICULTY LOG2 PUSH6 0x627A7A723158 KECCAK256 DUP16 PUSH1 0xB PUSH6 0x7A720F5FE7A1 0xE4 0xA5 CALLCODE 0xE8 0xDE POP 0xDE 0xDC 0x24 SWAP1 PUSH7 0x1FA5A5E295D09 DUP6 STATICCALL PUSH14 0xF564736F6C634300051000324549 POP CALLDATACOPY BALANCE ORIGIN DIFFICULTY PUSH16 0x6D61696E28737472696E67206E616D65 0x2C PUSH20 0x7472696E672076657273696F6E2C75696E743235 CALLDATASIZE KECCAK256 PUSH4 0x6861696E 0x49 PUSH5 0x2C61646472 PUSH6 0x737320766572 PUSH10 0x6679696E67436F6E7472 PUSH2 0x6374 0x29 LOG2 PUSH6 0x627A7A723158 KECCAK256 0x27 JUMPDEST CALLVALUE SELFBALANCE SWAP11 0x1E PUSH12 0x523EDF8A34A8175F6EBEF905 PUSH23 0xBEA03F2FEE514B4DD38F8CB164736F6C63430005100032 "
				},
				"gasEstimates": {
					"creation": {
						"codeDepositCost": "2292200",
						"executionCost": "infinite",
						"totalCost": "infinite"
					},
					"external": {
						"INIT_CODE_HASH()": "infinite",
						"allPairs(uint256)": "2015",
						"allPairsLength()": "1021",
						"createPair(address,address)": "infinite",
						"feeTo()": "1038",
						"feeToSetter()": "1060",
						"getPair(address,address)": "1300",
						"setFeeTo(address)": "21967",
						"setFeeToSetter(address)": "21946"
					}
				},
				"methodIdentifiers": {
					"INIT_CODE_HASH()": "257671f5",
					"allPairs(uint256)": "1e3dd18b",
					"allPairsLength()": "574f2ba3",
					"createPair(address,address)": "c9c65396",
					"feeTo()": "017e7e58",
					"feeToSetter()": "094b7415",
					"getPair(address,address)": "e6a43905",
					"setFeeTo(address)": "f46901ed",
					"setFeeToSetter(address)": "a2e74af6"
				}
			},
			"storageLayout": {
				"storage": [
					{
						"astId": 392,
						"contract": "v2-core-master/contracts/UniswapV2Factory.sol:UniswapV2Factory",
						"label": "feeTo",
						"offset": 0,
						"slot": "0",
						"type": "t_address"
					},
					{
						"astId": 394,
						"contract": "v2-core-master/contracts/UniswapV2Factory.sol:UniswapV2Factory",
						"label": "feeToSetter",
						"offset": 0,
						"slot": "1",
						"type": "t_address"
					},
					{
						"astId": 411,
						"contract": "v2-core-master/contracts/UniswapV2Factory.sol:UniswapV2Factory",
						"label": "getPair",
						"offset": 0,
						"slot": "2",
						"type": "t_mapping(t_address,t_mapping(t_address,t_address))"
					},
					{
						"astId": 414,
						"contract": "v2-core-master/contracts/UniswapV2Factory.sol:UniswapV2Factory",
						"label": "allPairs",
						"offset": 0,
						"slot": "3",
						"type": "t_array(t_address)dyn_storage"
					}
				],
				"types": {
					"t_address": {
						"encoding": "inplace",
						"label": "address",
						"numberOfBytes": "20"
					},
					"t_array(t_address)dyn_storage": {
						"base": "t_address",
						"encoding": "dynamic_array",
						"label": "address[]",
						"numberOfBytes": "32"
					},
					"t_mapping(t_address,t_address)": {
						"encoding": "mapping",
						"key": "t_address",
						"label": "mapping(address => address)",
						"numberOfBytes": "32",
						"value": "t_address"
					},
					"t_mapping(t_address,t_mapping(t_address,t_address))": {
						"encoding": "mapping",
						"key": "t_address",
						"label": "mapping(address => mapping(address => address))",
						"numberOfBytes": "32",
						"value": "t_mapping(t_address,t_address)"
					}
				}
			},
			"userdoc": {
				"methods": {}
			}
		}
	}
}